:100000000C9495010C94C6010C94C6010C94C60185
:100010000C94C6010C94C6010C94C6010C94C60144
:100020000C94C6010C94540A0C94540A0C94540A6F
:100030000C94C6010C9439030C94C6010C94C601AF
:100040000C94C6010C9441070C94C6010C94C60193
:100050000C94C6010C94C6010C94C6010C94720E4B
:100060000C94C6010C94A8040C947E040C94C60154
:100070000C94C6010C94C6010C94C6010C94C601E4
:100080000C94C6010C94C6010C94C6010C94C601D4
:100090000C94C6010C94C6010C94C6010C945E0A23
:1000A0000C94C6010C94C6010C94C6010C94C601B4
:1000B0000C94C6010C94C6010C94C6010C94D20495
:1000C0000C94C6010C94C6010C94C6010C94540403
:1000D0000C942A040C94C6010C9400040C94D603CE
:1000E0000C94C601F105F605FB0505060F0688060A
:1000F00019062106290633063D0647065606600600
:1001000088066A0674067E06A109A4099309970960
:100110009D09DB09A809AC09B209B609BA09C009E9
:10012000C409C809DB09CE09D209D6090C947406A2
:100130000C94FE080C947E060C94D2090C941906BB
:100140000C9415020C94BC020C94C0090C949709F1
:100150000C949D090C94F1050C94B2090C946A0658
:100160000C9433060C94C8090C9423020C94B60921
:100170000C9429060C9401020C94D6150C94DB09FE
:100180000C94FB050C94C8010C94BA090C94570903
:100190000C942A090C946F020C94F2010C94210621
:1001A0000C940F060C94D6090C9422090C94CE09D9
:1001B0000C94F6050C9456060C94A4090C94FC08B7
:1001C0000C9460060C940E030C94C4090C94140354
:1001D0000C9488060C940F030C9405060C940E09DD
:1001E0000C94AC090C94DC150C943D060C94470659
:1001F0000C94FD080C9493090C94A8090C94FF0826
:100200000C94A1090200002100240027002A002DDF
:10021000003000330001010000040107010A010061
:10022000002200250028002B002E0031003400029F
:10023000010000050108010B010000200023002639
:100240000029002C002F00320000010000030106ED
:10025000010901050505050705080808080202024D
:10026000020A0A0808040404040101010101010151
:10027000010303030303030303040707070C0C0C28
:100280000C0C0C0C0C020202020606060606060600
:10029000060B0B0B0B0B0B0B0B010210202008089D
:1002A00010204010204080020102010804020101D8
:1002B00002040810204080804020100804020180C1
:1002C0000402018040201008040201080402010118
:1002D0000204081020408001020408102040800021
:1002E000000A0B02090C0D0E0807030401000000B0
:1002F00000000000000000000000000000000000FE
:1003000000000000000000000000001211100000BA
:1003100000000000000000000000000000000000DD
:10032000000000000000DC15D61511241FBECFEF21
:10033000D1E2DEBFCDBF00E00CBF13E0A0E0B2E031
:10034000E4E2F9E300E00BBF02C007900D92AA328D
:10035000B107D9F728E0AAE2B3E001C01D92AB33A0
:10036000B207E1F711E0C4E9D1E000E006C021974F
:100370000109802FFE010E943519C339D10780E0A1
:100380000807A9F70E94BC0E0C94801C0C94000076
:10039000CF92DF92EF92FF920F931F93CF93DF9351
:1003A0006C017A018B01C0E0D0E0CE15DF0581F051
:1003B000D8016D918D01D601ED91FC910190F081F4
:1003C000E02DC6011995892B11F02196EECF7E0103
:1003D000C701DF91CF911F910F91FF90EF90DF90B8
:1003E000CF900895FC01538D448D252F30E0842F4C
:1003F00090E0821B930B541710F0CF96089501974D
:100400000895FC01918D828D981761F0828DDF0136
:10041000A80FB11D5D968C91928D9F5F9F73928FF7
:1004200090E008958FEF9FEF0895FC01918D828DEC
:10043000981731F0828DE80FF11D858D90E00895B9
:100440008FEF9FEF0895FC01918D228D892F90E011
:10045000805C9F4F821B91098F739927089588E4D0
:1004600094E00E94230221E0892B09F420E0822FEE
:10047000089585EE94E00E94230221E0892B09F47F
:1004800020E0822F089582E895E00E94230221E077
:10049000892B09F420E0822F0895FC01848DDF016F
:1004A000A80FB11DA35ABF4F2C91848D90E00196E7
:1004B0008F739927848FA689B7892C93A089B189D6
:1004C0008C91837080648C93938D848D981306C077
:1004D0000288F389E02D80818F7D80830895EF92DB
:1004E000FF920F931F93CF93DF93EC0181E0888FEE
:1004F0009B8D8C8D981305C0E889F989808185FDD5
:1005000026C0F62E0B8D10E00F5F1F4F0F731127C3
:10051000E02E8C8DE8120CC00FB607FCFACFE889EC
:10052000F989808185FFF5CFCE010E944D02F1CF80
:100530008B8DFE01E80FF11DE35AFF4FF0829FB74C
:10054000F8940B8FEA89FB89808180620AC09FB78B
:10055000F894EE89FF896083E889F9898081837046
:10056000806480839FBF81E090E0DF91CF911F91F5
:100570000F91FF90EF900895CF93DF93EC01888D5A
:100580008823C9F0EA89FB89808185FD05C0A88997
:10059000B9898C9186FD0FC00FB607FCF5CF80811D
:1005A00085FFF2CFA889B9898C9185FFEDCFCE0167
:1005B0000E944D02E7CFDF91CF910895E0E0F0E097
:1005C000199480E090E0892B21F00E944302811170
:1005D00019C080E090E0892B41F080E090E0892B09
:1005E00021F00E940000811110C00E943902811187
:1005F0000FC080E090E0892B81F00E942F028111D2
:100600000AC008950E940000E4CF0E940000EDCFD0
:100610000E94DE02EECF0C9400000895089580E061
:1006200090E008950E946B1C0F931F93CF93DF936C
:100630008C01C62FD62FD07FD1606D2F0E94130A58
:100640006D2FC8010E94260A80E1C89FB0011124C5
:10065000C62FC1606C2FC8010E94130A6C2FC801FD
:100660000E94260A81E090E0DF91CF911F910F91C7
:1006700008951F920F920FB60F9211240BB60F928E
:100680002F933F934F935F936F937F938F939F939A
:10069000AF93BF93EF93FF9380917E0390917F037D
:1006A000A0918003B0918103892B8A2B8B2B49F178
:1006B00090917D03809100008927809300008091B4
:1006C0007E0390917F03A0918003B091810318165F
:1006D00019061A061B060CF056C080917E039091F5
:1006E0007F03A0918003B09181030197A109B10913
:1006F00080937E0390937F03A0938003B093810344
:1007000042C080910402E4E0F2E0E4919FEF909314
:100710000402E230C9F050F4EE2399F0E13081F5A3
:1007200090916F009D7F90936F002AC0E43019F183
:10073000E0F0E53029F5909173009D7F9093730070
:100740001FC010926E001CC0909170009D7F90930E
:10075000700091E09093B0009091B100987F946008
:100760009093B1001092B3000BC0909171009D7FE7
:100770009093710005C0909172009D7F90937200DC
:1007800060E00E94B90BFF91EF91BF91AF919F91F3
:100790008F917F916F915F914F913F912F910F902A
:1007A0000BBE0F900FBE0F901F9018951F920F92C7
:1007B0000FB60F9211240BB60F922F933F934F93C6
:1007C0005F936F937F938F939F93AF93BF93EF93B9
:1007D000FF9388E494E00E944D02FF91EF91BF9156
:1007E000AF919F918F917F916F915F914F913F91C9
:1007F0002F910F900BBE0F900FBE0F901F9018956A
:100800001F920F920FB60F9211240BB60F922F93D7
:100810003F934F935F936F937F938F939F93AF9388
:10082000BF93EF93FF9388E494E00E943B0AFF910B
:10083000EF91BF91AF919F918F917F916F915F9158
:100840004F913F912F910F900BBE0F900FBE0F90C5
:100850001F9018951F920F920FB60F9211240BB68E
:100860000F922F933F934F935F936F937F938F9349
:100870009F93AF93BF93EF93FF9385EE94E00E9415
:100880004D02FF91EF91BF91AF919F918F917F9119
:100890006F915F914F913F912F910F900BBE0F90F1
:1008A0000FBE0F901F9018951F920F920FB60F92C8
:1008B00011240BB60F922F933F934F935F936F9337
:1008C0007F938F939F93AF93BF93EF93FF9385EEA7
:1008D00094E00E943B0AFF91EF91BF91AF919F91ED
:1008E0008F917F916F915F914F913F912F910F90D9
:1008F0000BBE0F900FBE0F901F9018951F920F9276
:100900000FB60F9211240BB60F922F933F934F9374
:100910005F936F937F938F939F93AF93BF93EF9367
:10092000FF9382E895E00E944D02FF91EF91BF9105
:10093000AF919F918F917F916F915F914F913F9177
:100940002F910F900BBE0F900FBE0F901F90189518
:100950001F920F920FB60F9211240BB60F922F9386
:100960003F934F935F936F937F938F939F93AF9337
:10097000BF93EF93FF9382E895E00E943B0AFF91BB
:10098000EF91BF91AF919F918F917F916F915F9107
:100990004F913F912F910F900BBE0F900FBE0F9074
:1009A0001F9018951F920F920FB60F9211240BB63D
:1009B0000F922F933F934F935F936F937F938F93F8
:1009C0009F93AF93BF93EF93FF93809120060E9474
:1009D000900B20912406309125062F5F3F4F3093D6
:1009E00025062093240690912306953618F096E06C
:1009F00090931F0690911F069430C9F128F492300D
:100A000069F09330D1F05EC0953009F451C0963052
:100A100009F058C091E09093F00651C0811152C086
:100A200020912406309125062436310508F442C071
:100A30001092F006109223061CC0813009F042C0CB
:100A4000E091230691E09E0F90932306F0E0209121
:100A5000240630912506EE0FFF1FE15EF94F308727
:100A60002783109225061092240694E029C0811154
:100A700017C0E091230691E09E0F90932306F0E0CB
:100A80002091240630912506EE0FFF1FE15EF94FFD
:100A900030872783109225061092240693E010C019
:100AA00020912406309125062536310558F007C0DF
:100AB000811108C0109225061092240603C095E00B
:100AC00090931F06909122069923B9F081110AC0D4
:100AD00080912106882321F08091210661E009C0E0
:100AE0002F9A0BC080912106882331F08091210636
:100AF00060E00E94B90B01C02F98FF91EF91BF9168
:100B0000AF919F918F917F916F915F914F913F91A5
:100B10002F910F900BBE0F900FBE0F901F90189546
:100B20008F929F92AF92BF92CF92DF92EF92FF92FD
:100B30000F931F93CF93DF938C016A017B0120E019
:100B400030E04FE753E4C701B6010E942A184B0179
:100B50005C0120E030E0A9010E945B1A18161CF429
:100B6000C501B40103C0C501B40190580E94251A03
:100B7000EB0120E030E0A901C701B6010E945B1A39
:100B8000181614F460E001C061E0F80181810E9450
:100B9000B90BCF3FD10509F014F4DD2702C0CFEF28
:100BA000D0E0F801108161E0812F0E94E80B2097CE
:100BB00009F4B1C0CF3FD10509F4AFC0E12FF0E097
:100BC000E152FD4FE4918E2F90E0FC013197E2312C
:100BD000F10508F09DC08827EE58FF4F8F4F0C9409
:100BE000351984B5806884BDC7BDA7C084B580624F
:100BF00084BDC8BDA2C080918000806880938000C1
:100C0000D0938900C093880098C080918000806252
:100C100080938000D0938B00C0938A008EC0809117
:100C20008000886080938000D0938D00C0938C00FA
:100C300084C08091B00080688093B000C093B300FE
:100C40007CC08091B00080628093B000C093B400FB
:100C500074C080919000806880939000D093990038
:100C6000C09398006AC08091900080628093900049
:100C7000D0939B00C0939A0060C0809190008860E0
:100C800080939000D0939D00C0939C0056C08091AB
:100C9000A00080688093A0008091A0008F7B80934B
:100CA000A000D093A900C093A80047C08091A000E5
:100CB00080628093A000D093AB00C093AA003DC097
:100CC0008091A00088608093A000D093AD00C09375
:100CD000AC0033C080912001806880932001D093C4
:100CE0002901C093280129C080912001806280934E
:100CF0002001D0932B01C0932A011FC080912001B5
:100D0000886080932001D0932D01C0932C0115C0E1
:100D1000C038D10514F460E001C061E0812FDF919B
:100D2000CF911F910F91FF90EF90DF90CF90BF90E8
:100D3000AF909F908F900C94B90BDF91CF911F9142
:100D40000F91FF90EF90DF90CF90BF90AF909F906A
:100D50008F9008958EBD00000DB407FEFDCF8EB5B7
:100D60000895CF93DF93EC0160E088810E94B90B76
:100D700088E90E94AA0680E00E94AA0680E00E94FC
:100D8000AA0680E00E94AA0680E00E94AA0661E00E
:100D900088810E94B90B8BE891E00197F1F760E040
:100DA00088810E94B90B80EE0E94AA0661E08881CA
:100DB000DF91CF910C94B90BAF92BF92CF92DF929B
:100DC000EF92FF920F931F93CF93DF93CDB7DEB7D0
:100DD00060970FB6F894DEBF0FBECDBF5C0160E038
:100DE000FC0180810E94B90B80E60E94AA068E0158
:100DF0000F5F1F4F7E01F1E1EF0EF11C680180E0F3
:100E00000E94AA0690E0A0E0B0E0F60181939193E1
:100E1000A193B1936F01EE15FF0589F761E0F5012C
:100E200080810E94B90B80E090E0DC01F8014191E3
:100E30005191619171918F01BA2FA92F982F882715
:100E4000840F951FA61FB71FEE15FF0579F79C01AC
:100E5000AD0166277727CB01621B730B840B950BC3
:100E600060960FB6F894DEBF0FBECDBFDF91CF9175
:100E70001F910F91FF90EF90DF90CF90BF90AF90B8
:100E800008951F920F920FB60F9211240BB60F9276
:100E90002F933F934F935F936F937F938F939F9382
:100EA000AF93BF93EF93FF9380917C0387FF05C0BF
:100EB000109285001092840016C020917C03022EAF
:100EC000000C330B80912D0790E0281739075CF454
:100ED00030917C0325E03203F0011124EF50F94FEB
:100EE000808186FD15C080917C038F5F80937C0399
:100EF00020917C03022E000C330B80912D0790E093
:100F00002817390794F480917C038C302CF10DC0A4
:100F100030917C033203F0011124EF50F94F8081AE
:100F200060E08F730E94B90BDECF809184009091B6
:100F3000850084349C4918F480E49CE905C08091C4
:100F40008400909185000496909389008093880096
:100F50008FEF80937C032AC04091840050918500DC
:100F600030917C0325E03203F0011124EF50F94F5A
:100F700081819281840F951F9093890080938800CE
:100F800030917C033203F0011124EF50F94F80813E
:100F900086FF0CC030917C033203F0011124EF5026
:100FA000F94F808161E08F730E94B90BFF91EF913F
:100FB000BF91AF919F918F917F916F915F914F9171
:100FC0003F912F910F900BBE0F900FBE0F901F906F
:100FD0001895823020F088E093E00C94FA0C813070
:100FE00009F4705890E0880F991F825B984F0C9419
:100FF0009005CF92DF92EF92FF9282E597E00E94F8
:10100000DC066B017C0182E597E00E94B10688272F
:101010009927DC018C199D09AE09BF09AC01092E85
:10102000000C660B770BC0902A03D0902B03E09046
:101030002C03F0902D034C0D5D1D6E1D7F1D409304
:101040002A0350932B0360932C0370932D03FF907E
:10105000EF90DF90CF900895CF92DF92EF92FF92C2
:1010600084E597E00E94DC066B017C0184E597E053
:101070000E94B106C6010D2C000CAA0BBB0B4091BF
:101080002E0350912F036091300370913103840F30
:10109000951FA61FB71F80932E0390932F03A09335
:1010A0003003B0933103C601FF90EF90DF90CF90F3
:1010B0000895CF92DF92EF92FF9269017A01AB011E
:1010C000BC018EE497E00E949005B701A60181E083
:1010D000FF90EF90DF90CF900C94E90730918C0354
:1010E000313208F04BC080918A038111FCCF90917E
:1010F0003B0422E020938A0321E0209389032FEF11
:10110000209319041092180430931704EBE1F4E0D3
:10111000A7EFB3E020E0321721F041914D932F5F0C
:10112000FACF1092F6032091F603990F922B909329
:10113000F60390918803913061F4109288039091A6
:10114000F6039093BB009091BC0093FDF8CF95EC13
:1011500001C095EE9093BC0090918A039230E1F328
:10116000909119049F3F79F080911904803241F0E9
:1011700080911904803331F084E005C081E003C020
:1011800082E001C083E010928B0310928C031092D6
:101190001A04089585ED8093BC008091BC0084FD05
:1011A000FCCF10928A0308954091D103262F30E09E
:1011B000240F311D21323105DCF420918A032430C3
:1011C000C9F4FC0180E090E0861758F43091D10317
:1011D0002191DC01AF54BC4FA30FB11D2C9301969C
:1011E000F3CF8091D103680F6093D10380E008951D
:1011F00081E0089582E00895089508950895E091AA
:10120000830380918203E81730F4F0E0EF56FC4F3F
:10121000808190E008958FEF9FEF08959091830370
:1012200080918203981750F4E92FF0E0EF56FC4FBD
:10123000208130E09F5F9093830302C02FEF3FEF48
:10124000C90108958091820390E020918303821B5D
:1012500091090895CF92DF92EF92FF920F931F931F
:10126000CF93DF937C01CB018A0120911A042223C2
:1012700089F0EB016B01C40ED51ECC15DD0569F0BC
:101280006991D701ED91FC910190F081E02DC701AA
:101290001995F3CF642F0E94D408C801DF91CF9134
:1012A0001F910F91FF90EF90DF90CF900895CF9313
:1012B000DF931F92CDB7DEB7698320911A042223F2
:1012C000D1F020918C03203240F021E030E0FC018D
:1012D0003383228380E090E015C080918B03E82F58
:1012E000F0E0E55EFB4F998190838F5F80938B03E5
:1012F00080938C0305C061E0CE0101960E94D40862
:1013000081E090E00F90DF91CF91089590E0FC0193
:101310003197E231F10508F04EC08827EC57FF4FB6
:101320008F4F0C943519809180008F7703C0809186
:1013300080008F7D80938000089580918000877F5A
:10134000F9CF84B58F7702C084B58F7D84BD0895B1
:101350008091B0008F7703C08091B0008F7D809323
:10136000B0000895809190008F7707C08091900021
:101370008F7D03C080919000877F809390000895B7
:101380008091A0008F7707C08091A0008F7D03C05F
:101390008091A000877F8093A00008958091200114
:1013A0008F7707C0809120018F7D03C0809120013D
:1013B000877F8093200108950F931F93CF93DF932E
:1013C000162F072FC5E3D7E09C8521E020931A0450
:1013D00090933B0410928B0310928C03AA85BB85DB
:1013E000ED91FC9111970190F081E02D682FCD01D6
:1013F00019958A859B85DC01ED91FC910190F08126
:10140000E02D602F19958A859B85DC01ED91FC917B
:101410000190F081E02D612F1995DF91CF911F91FF
:101420000F910C946E08FC01248131E030931A0472
:1014300020933B0410928B0310928C038485682BBD
:101440008CE394E00E9457090C946E080F931F934D
:10145000CF938C01C62F64600E94130A6C2F6B7FA0
:10146000C8010E94130A83EC90E00197F1F7CF9135
:101470001F910F910895FC01A089B1898C91A689D3
:10148000B78982FD0FC09C91818D8F5F8F73228DF4
:10149000821749F0218DDF01A20FB11D5D969C934B
:1014A000818F08958C9108951F920F920FB60F921D
:1014B00011240F900FBE0F901F9018951F920F923E
:1014C0000FB60F9211240BB60F922F933F934F93A9
:1014D0005F936F937F938F939F93AF93BF93EF939C
:1014E000FF938091B900887F803609F49CC068F52D
:1014F000883209F45BC090F4803109F454C038F4A8
:10150000882309F4F6C0883009F44DC0F6C088314C
:1015100009F44CC0803209F45DC0EFC0803409F496
:1015200068C048F4803309F455C0883309F0E5C039
:1015300080931904D8C0803509F44FC0883509F468
:101540005DC0883409F0D9C0D6C0883909F4C7C055
:10155000A8F4883709F467C038F4883609F463C002
:10156000803709F460C0C9C0883809F4B8C0803930
:1015700009F45FC0803809F0C0C05BC0803B09F44B
:1015800086C038F4803A09F466C0883A09F47FC00E
:10159000B4C0803C09F4A7C0883C09F4A4C0883BCF
:1015A00009F48AC0AAC08091F60310C09091180473
:1015B00080911704981770F5E091180481E08E0F60
:1015C00080931804F0E0E950FC4F80818093BB00C9
:1015D00085EC86C0809319048EC0E091180481E0E8
:1015E0008E0F809318048091BB00F0E0E950FC4F0F
:1015F000808390911804809117046EC0E0911804C4
:1016000081E08E0F809318048091BB00F0E0E950D8
:10161000FC4F80838091890381116DC081E08093AC
:10162000880384EA61C083E080938A031092F30305
:10163000CFCF8091F303803208F051C0E091F303E3
:1016400081E08E0F8093F3038091BB00F0E0ED52B8
:10165000FC4F8083BDCF85EC8093BC0010928A0341
:101660008091F303803230F4E091F303F0E0ED5227
:10167000FC4F10826091F30370E0E0918603F091DB
:10168000870383ED93E019951092F30336C084E04D
:1016900080938A031092D2031092D103E0918403C5
:1016A000F091850319958091D103811105C081E0E6
:1016B0008093D1031092B103E091D20381E08E0FA9
:1016C0008093D203F0E0EF54FC4F80818093BB0005
:1016D0009091D2038091D103981708F479CF85E8CF
:1016E0008093BC000AC085EC8093BC0010928A03F2
:1016F00004C0109219040E94CA08FF91EF91BF9193
:10170000AF919F918F917F916F915F914F913F9199
:101710002F910F900BBE0F900FBE0F901F9018953A
:10172000CF93DF93282F30E0F901E152FD4F8491F0
:10173000F901E756FD4FD491F901ED5AFD4FC491DF
:10174000CC2391F081110E948609EC2FF0E0EE0F7E
:10175000FF1FE75CFD4FA591B491EC91ED2381E073
:1017600090E021F480E002C080E090E0DF91CF9132
:1017700008951F93CF93DF93282F30E0F901E152B2
:10178000FD4F8491F901E756FD4FD491F901ED5ACF
:10179000FD4FC491CC23C1F0162F81110E94860900
:1017A000EC2FF0E0EE0FFF1FE15EFD4FA591B4912D
:1017B0009FB7F894111104C08C91D095D82302C022
:1017C000EC91DE2BDC939FBFDF91CF911F910895A9
:1017D000CF93DF9390E0FC01E756FD4F2491FC018D
:1017E000ED5AFD4F8491882361F190E0880F991F95
:1017F000FC01EB5FFD4FC591D491FC01E15EFD4F13
:10180000A591B491611109C09FB7F8948881209582
:1018100082238883EC912E230BC0623061F49FB742
:10182000F8948881322F309583238883EC912E2B76
:101830002C939FBF06C08FB7F894E8812E2B288386
:101840008FBFDF91CF9108958F929F92AF92BF92F9
:10185000CF92DF92EF92FF926B017C010E944D0EBE
:101860004B015C01C114D104E104F104F1F00E94C8
:101870004D0EDC01CB0188199909AA09BB09883EE4
:101880009340A105B10570F321E0C21AD108E10827
:10189000F10888EE880E83E0981EA11CB11CC114CB
:1018A000D104E104F10419F7DDCFFF90EF90DF9050
:1018B000CF90BF90AF909F908F9008954F925F927E
:1018C0006F927F928F929F92AF92BF92CF92DF9250
:1018D000EF92FF920F931F93CF93DF93182FC82F90
:1018E000D0E040E050E0BA018EE497E00E9490051D
:1018F00040E050E060E070E880E597E00E949005ED
:1019000060918D0370918E0380918F03909190036D
:1019100022E030E040E050E00E94E81829013A015E
:1019200040E050E060E07FE3812F0E94E907812CD6
:10193000912C5401CC0FDD1FCE5AD84F841495043E
:10194000A604B7045CF56EE170E080E090E00E94D0
:10195000240C111110C0CE010E94DC066B017C0129
:10196000CE010E94B10688279927DC018C199D09B8
:10197000AE09BF090EC084E597E00E94DC06062F81
:10198000D72E7C0184E597E00E94B106802F9D2D23
:10199000D701880E991EAA1EBB1ED0CF40E050E092
:1019A000BA01812FDF91CF911F910F91FF90EF909E
:1019B000DF90CF90BF90AF909F908F907F906F906F
:1019C0005F904F900C94E907009769F0FC0101903B
:1019D0000020E9F73197AF01481B590BBC0182E8A1
:1019E00095E00C94C80180E090E008958AE193E0CE
:1019F0000C94E40CCF93DF930E94E40CEC010E9462
:101A0000F60C8C0F9D1FDF91CF9108958F929F92BE
:101A1000AF92BF920F931F93CF93DF93CDB7DEB7F3
:101A2000A1970FB6F894DEBF0FBECDBF19A242300A
:101A300008F44AE08E010F5D1F4F842E912CA12CDB
:101A4000B12CA50194010E940719E62FB901CA0122
:101A500001501109EA3014F4E05D01C0E95CD801DD
:101A6000EC93232B242B252B61F7C8010E94E40C57
:101A7000A1960FB6F894DEBF0FBECDBFDF91CF9118
:101A80001F910F91BF90AF909F908F9008958F926C
:101A90009F92AF92BF92CF92DF92EF92FF920F93FD
:101AA0001F93CF93DF936B017C01142F9B01AC013B
:101AB0000E94601A882319F08DE193E027C0460147
:101AC0005701E894B7F82FEF3FEF4FE75FE7C50105
:101AD000B4010E94601A81110DC02FEF3FEF4FE754
:101AE0005FE7C501B4010E94C41718161CF481E217
:101AF00093E00CC02FEF3FEF4FE75FE4C701B60163
:101B00000E945B1A181684F485E293E0DF91CF916E
:101B10001F910F91FF90EF90DF90CF90BF90AF900B
:101B20009F908F900C94E40C2FEF3FEF4FE75FEC0A
:101B3000C701B6010E94C41787FDE6CF20E030E060
:101B4000A901C701B6010E94C41787FF0BC06DE24F
:101B500082E895E00E946F02EC01F7FAF094F7F842
:101B6000F09402C0C0E0D0E000E060E070E080E00F
:101B70009FE3101741F020E030E040E251E40E9482
:101B8000B3190F5FF6CFA70196010E9447196B01A9
:101B90007C010E942C1A4B015C014AE00E94060D58
:101BA000C80FD91F1123B9F1C501B4010E94C9178B
:101BB0009B01AC01C701B6010E9446196B017C0173
:101BC0006EE282E895E00E946F02C80FD91F20E004
:101BD00030E040E251E4C701B6010E942A184B01EF
:101BE0005C010E942C1A6B01E12CF12C4AE0C70128
:101BF000B6010E94060DC80FD91FC701B6010E9489
:101C0000C9179B01AC01C501B4010E9446196B01C3
:101C10007C011150E1F6CE01DF91CF911F910F9120
:101C2000FF90EF90DF90CF90BF90AF909F908F90FC
:101C300008950C94E40CCF92DF92EF92FF92CF9331
:101C4000DF9397FF1BC06B017C016DE282E895E09A
:101C50000E946F02EC0166277727CB016C197D0982
:101C60008E099F094AE00E94060D8C0F9D1FDF918F
:101C7000CF91FF90EF90DF90CF9008954AE0DF91F1
:101C8000CF91FF90EF90DF90CF900C94060DBC01A8
:101C9000990F880B990B0C941B0E3FB7F894809109
:101CA000330890913408A0913508B091360826B5D4
:101CB000A89B05C02F3F19F00196A11DB11D3FBF84
:101CC000BA2FA92F982F8827820F911DA11DB11D12
:101CD000BC01CD0142E0660F771F881F991F4A950E
:101CE000D1F708951F920F920FB60F9211242F93E0
:101CF0003F938F939F93AF93BF9380912F089091C1
:101D00003008A0913108B091320830912E0823E0BC
:101D1000230F2D3720F40196A11DB11D05C026E823
:101D2000230F0296A11DB11D20932E0880932F082A
:101D300090933008A0933108B09332088091330813
:101D400090913408A0913508B09136080196A11DF4
:101D5000B11D8093330890933408A0933508B09355
:101D60003608BF91AF919F918F913F912F910F9026
:101D70000FBE0F901F901895CF93DF93CDB7DEB7AE
:101D8000AE970FB6F894DEBF0FBECDBF789484B582
:101D9000826084BD84B5816084BD85B5826085BD67
:101DA00085B5816085BD80916E00816080936E00F5
:101DB00010928100809181008260809381008091E7
:101DC0008100816080938100809180008160809398
:101DD00080008091B10084608093B1008091B00058
:101DE00081608093B0008091910082608093910027
:101DF000809191008160809391008091900081603A
:101E0000809390008091A10082608093A1008091D6
:101E1000A10081608093A1008091A00081608093E7
:101E2000A000809121018260809321018091210195
:101E30008160809321018091200181608093200145
:101E400080917A00846080937A0080917A00826029
:101E500080937A0080917A00816080937A008091EB
:101E60007A00806880937A001092C100E091920518
:101E7000F091930582E08083E0918E05F0918F05CB
:101E80001082E0919005F09191058FEC8083109283
:101E90009A05E0919605F091970586E08083E091A0
:101EA0009405F0919505808180618083E09194058F
:101EB000F0919505808188608083E0919405F09190
:101EC0009505808180688083E0919405F091950567
:101ED00080818F7D808361E0809136070E94E80BCE
:101EE00060E0809136070E94B90B60E08091350771
:101EF0000E94E80B8CE394E09093400780933F07A7
:101F0000109283031092820310928B0310928C0321
:101F100010928A0381E0809389031092880361E024
:101F200084E10E94B90B61E085E10E94B90B8091C8
:101F3000B9008E7F8093B9008091B9008D7F809326
:101F4000B90088E48093B80085E48093BC008CEFEE
:101F500098E090938503809384038DEF98E09093AD
:101F600087038093860380E090E1A0E0B0E0809357
:101F7000420790934307A0934407B09345078AE034
:101F800090E0A0E0B0E08093460790934707A093CD
:101F90004807B093490780E090E0A0E0B0E4809368
:101FA0004A0790934B07A0934C07B0934D0760E00E
:101FB00070E185E00E94DC096FE979E380E00E942E
:101FC000DC0905E317E07801E2E05E2EF8E86F2E09
:101FD000F2E07F2EAEEC8A2EA2E09A2EBBECCB2E46
:101FE000B7E0DB2ED70114969C91149712968C9132
:101FF000F801818F928F61E00E94E80B61E0D801C7
:102000005A968C910E94E80BF701908586815801C1
:10201000FDE1AF0EB11CD8015D968C935D975E9685
:102020009C9361E00E94E80B60E0F801868D0E94BD
:10203000E80B61E0D8015D968C910E94B90B4FB618
:10204000F89480913203811126C0F3018491F40148
:102050002491E82FF0E0EE0FFF1FEB5FFD4FA591FD
:10206000B4919C91822F892321F461E085E30E9441
:10207000B90B61E085E30E94E80B8CB580618CBDF3
:102080008CB580648CBD61E084E30E94E80B61E064
:1020900083E30E94E80B809132038F5F80933203C9
:1020A0004FBEC6010197F1F760E0D8015D968C91B3
:1020B0000E94B90B88E80E94AA0683E00E94AA0643
:1020C00061E0F801858D0E94B90BC6010197F1F717
:1020D000C5010E94B1065A94FFEFEF1AFF0A0E5F86
:1020E0001F4F51107FCF6AE5E62E67E0F62E0EE512
:1020F00017E060E0D7018D917D010E94E80B0E157D
:102100001F05B9F796E5E92E97E0F92E20E6C22ED5
:1021100027E0D22E35E0B32E4CE0942E52E0A52ECF
:10212000F80181908F0187818C3008F048C061E010
:10213000882D0E94E80BD80117968C91B89EF0016B
:102140001124EF50F94F982D9F732081207C822E0F
:10215000892A808213821482692D0E942919BCE089
:102160008B9FA001112420E030E0BA01620F731FA1
:10217000B69EF001B79EF00D1124EF50F94F9081FB
:1021800096FD12C02F5F3F4F2C30310571F7811142
:102190000BC010928000A0928100109285001092D6
:1021A0008400A6BAA0926F00D8011796EC91BE9E4B
:1021B000F0011124EF50F94F808180648083F80191
:1021C00095818381D70152968C93529753969C9315
:1021D00060E00E94E80B61E0F70183890E94E80B50
:1021E00060E0D70153968C910E94B90BB2E0EB0EE0
:1021F000F11CC016D10609F093CFF894109220017B
:1022000089E08093210180E293E0909329018093FB
:102210002801109225011092240182E0809373001E
:10222000789480931F06109223068091200660E028
:102230000E94E80B87EF9EE0A0E0B0E080938D0362
:1022400090938E03A0938F03B09390034AE067EFBF
:102250007EE080E090E00E94060D0E94F60C8091E6
:102260005D070E94900B892B09F4ADC383E492E0D3
:102270000E94FA0CEDB7FEB7FEA7EDA780915B03B5
:10228000811119C02DEC3CEC4CEC5CE36091000238
:102290007091010280910202909103020E944719FD
:1022A00060935703709358038093590390935A0394
:1022B000F1E0F0935B0380914F03811117C06091AF
:1022C00000027091010280910202909103029B0131
:1022D000AC010E94471960934B0370934C038093A9
:1022E0004D0390934E0321E020934F0380914303CD
:1022F000811117C060915703709158038091590361
:1023000090915A039B01AC010E94471960933F03CF
:1023100070934003809341039093420381E0809344
:102320004303ADB7BEB7A85CB1090FB6F894BEBF02
:102330000FBEADBFEDB7FEB731965F018DB79EB74B
:10234000885C91090FB6F8949EBF0FBE8DBFA75C45
:10235000B1096D01E159F1400FB6F894FEBF0FBE0F
:10236000EDBF875C91094C01A159B1400FB6F894BB
:10237000BEBF0FBEADBFE75CF1097F01815991403F
:102380000FB6F8949EBF0FBE8DBF0DB71EB70F5F7F
:102390001F4FA855B2400FB6F894BEBF0FBEADBFD9
:1023A000E855F2403F0120E030E040E05FE360911B
:1023B0004B0370914C0380914D0390914E030E940A
:1023C0002A18609300027093010280930202909396
:1023D000030220E030E040E05FE360913F03709152
:1023E000400380914103909142030E942A18609318
:1023F0005703709358038093590390935A03988618
:102400008F82B98AA88ADE86CD86FC86EB861E83FB
:102410000D837A8669867AA269A218A30F8FFEA21D
:10242000EDA2DE8ECD8EBB8EAA8E9CA28BA2212C1D
:10243000312C1FA218A619A61AA61BA61CA600E0DE
:1024400010E0F1E0FF871C8E82E597E00E94B10664
:1024500084E597E00E94B10620915703309158031C
:102460004091590350915A0360910002709101020A
:1024700080910202909103020E94590868EC70E07A
:1024800080E090E00E94240C82E597E00E94DC0648
:10249000442455243201461A570A680A790A84E509
:1024A00097E00E94DC0669837A838B839C837301A7
:1024B0006201FF0CCC08DC2C76019201A3016C2D8B
:1024C0007C2D8C2D9C2DAFA0B8A4C9A4DAA4EBA4BC
:1024D000FCA40E943D192A8B3B8B4C8B5D8B6E8B31
:1024E0007F8B888F998F2FA338A749A75AA76BA7EF
:1024F0007CA78C0180E692E00E94190EC301B20114
:102500000E941B0E84E692E00E94190E69817A8176
:102510008B819C810E941B0E0E94F60CC301B201AC
:102520000E94CB1720E030E048E453E40E94B31946
:102530006B017C0169817A818B819C810E94CB1720
:1025400020E030E048E453E40E94B3199B01AC0161
:10255000C701B6010E9446196B017C0160933B03E1
:1025600070933C0380933D0390933E032091370387
:10257000309138034091390350913A030E94471932
:102580004B015C01609337037093380380933903E8
:1025900090933A03209133033091340340913503F3
:1025A00050913603C701B6010E9446192B013C0128
:1025B00020E23CEB4EEB5CE4C701B6010E942A1816
:1025C0002DEC3CEC4CE45DE30E942A180E94251A95
:1025D000ABA1BCA16D937D93BCA3ABA320E030E085
:1025E0004AE754E460910002709101028091020276
:1025F000909103020E942A180E94251AEA8DFB8DF1
:1026000061937193FB8FEA8F8091570390915803E8
:10261000A0915903B0915A0389839A83AB83BC83F9
:1026200020E030E04AE754E4BC01CD010E942A18C2
:102630000E94251AAD8DBE8D6D937D93BE8FAD8F9B
:1026400020E23CEB4EEB5CE4C501B4010E942A1889
:102650002FE632E143E05AE30E942A180E94251A2D
:10266000EDA1FEA161937193FEA3EDA320E23CEBEB
:102670004EEB5CE4C301B2010E942A1825EB3EEF49
:1026800046E957E30E942A180E94251AAF8DB8A187
:102690006D937D93B8A3AF8F2DEC3CEC4CE45DE3E0
:1026A000C701B6010E942A186B017C012FE632E1B6
:1026B00043E05AE3C501B4010E942A184B015C01B2
:1026C00025EB3EEF46E957E3C301B2010E942A1809
:1026D0002B013C01A5019401C701B6010E944719D5
:1026E000A30192010E944719E9A1FAA16193719394
:1026F00081939193FAA3E9A3FFEF2F1A3F0AA70151
:10270000960169817A818B819C810E944719A5017C
:1027100094010E944719A30192010E944719AB013D
:10272000BC0140935703509358036093590370932F
:102730005A0381E00E94E90780913B0390913C039A
:10274000A0913D03B0913E038093330390933403F3
:10275000A0933503B0933603C0900002D0900102DD
:10276000E0900202F09003022C8D211118C0C0925B
:102770004B03D0924C03E0924D03F0924E038091B4
:10278000570390915803A0915903B0915A03809335
:102790003F0390934003A0934103B09342032DEC79
:1027A0003CEC4CE45FE3C701B6010E945B1A87FF73
:1027B00032C08F85882381F12DEC3CEC4CE85FE33F
:1027C000C701B6010E942A186B017C0160930002C8
:1027D0007093010280930202909303022DEC3CEC73
:1027E0004CE85FE36091570370915803809159035F
:1027F00090915A030E942A189B01AC0160935703E1
:10280000709358038093590390935A03C701B601FC
:102810000E94590801C01F862A893B894C895D891D
:102820006E897F89888D998D2B313A4141055105FB
:10283000610571058105910509F00CF405CE2DECBB
:102840003CEC4CE45FE360910002709101028091E6
:102850000202909103020E942A186B017C0160938E
:1028600000027093010280930202909303022DEC08
:102870003CEC4CE45FE36091570370915803809106
:10288000590390915A030E942A189B01AC0160934E
:102890005703709358038093590390935A03C701C9
:1028A000B6010E9459082A893B894C895D896E8945
:1028B0007F89888D998D2633344341055105610503
:1028C00071058105910509F024F41F8621E02C8F04
:1028D000BBCD20E030E0A901CA01B9010E9459082E
:1028E0008CE692E00E94FA0C00E010E080E692E0B4
:1028F0000E94190EE889F98981919191F98BE88BF1
:102900000E94470E84E692E00E94190EAD85BE85B6
:102910008D919D91BE87AD870E94470E0E94F60C57
:102920000F5F1F4F2016310609F780E892E00E94E2
:10293000FA0C00E010E082E992E00E94190EEF81AB
:10294000F88581919191F887EF830E94470E86E97F
:1029500092E00E94190EAB85BC858D919D91BC873C
:10296000AB870E94470E84E692E00E94190EED812B
:10297000FE8181919191FE83ED830E94470E8EE945
:1029800092E00E94190EA985BA856D917D918D9175
:102990009D91BA87A98720E030E543EC57E40E9477
:1029A0002A1842E00E94470D0E94F60C0F5F1F4F4D
:1029B0002016310609F0BFCFEDA5FEA50FB6F8949D
:1029C000FEBF0FBEEDBF80915C070E94900B892B6C
:1029D00009F4C9C082EB92E00E94FA0C10922E0317
:1029E00010922F03109230031092310310922A0399
:1029F00010922B0310922C0310922D0382E597E086
:102A00000E94B10684E597E00E94B1064AE959E9BF
:102A100069E97EEB80E597E00E9490054AE959E973
:102A200069E97EEB8EE497E00E94900564E670E031
:102A300080E090E00E94240C0E942C087C010E94FF
:102A4000F9078C01B701FF0C880B990B0E94CB177B
:102A50006B017C01F7FAF094F7F8F094B801110FCC
:102A6000880B990B0E94CB179B01AC01C701B601E3
:102A70000E94B3196B017C019B01AC016AE979E901
:102A800089E99EE30E94B319AB01BC018EE497E093
:102A90000E94900540912E0350912F0360913003C6
:102AA0007091310380918D0390918E03A0918F03DB
:102AB000B0919003481759076A077B070CF044C090
:102AC0006AE070E080E090E00E94240C0E942C08F4
:102AD0008C010E94F907BC01990F880B990B0E9489
:102AE000CB179058A70196010E94B3196B017C0186
:102AF000B801110F880B990B0E94CB17A701960103
:102B00000E94B3196B017C012AE939E949E95EEBBE
:102B10000E942A18AB01BC018EE497E00E94900548
:102B200042E0C701B6010E94470D0E94F60C609179
:102B30002E0370912F0380913003909131030E94F6
:102B40001B0E0E94F60CA6CF40E050E060E070E85B
:102B500080E597E00E94900540E050E0BA018EE4E5
:102B600097E00E94900580915A070E94900B892B54
:102B700039F08FEC92E00E94FA0C81E00E945E0C2A
:102B800080915B070E94900B892B39F08BEE92E0CD
:102B90000E94FA0C80E00E945E0C6AE070E080E027
:102BA00090E00E94240C0E94E10259CB80912E07F4
:102BB00090912F070C94FD1A10923F0410923E043E
:102BC00088EE93E0A0E0B0E080934004909341044D
:102BD000A0934204B093430427E132E030933D04D4
:102BE00020933C0410924B0410924A0480934C04AE
:102BF00090934D04A0934E04B0934F0429E232E029
:102C0000309349042093480445E351E05093550420
:102C10004093540444E351E05093570440935604C6
:102C200040E351E0509359044093580441E351E08C
:102C300050935B0440935A0442E351E050935D0487
:102C400040935C0446E351E050935F0440935E047C
:102C50001092610410926204109263041092640452
:102C60001092E8041092E7048093E9049093EA0438
:102C7000A093EB04B093EC043093E6042093E504B6
:102C800045ED50E05093F2044093F10444ED50E0E0
:102C90005093F4044093F30440ED50E05093F60455
:102CA0004093F50441ED50E05093F8044093F7044D
:102CB00042ED50E05093FA044093F90446ED50E0A1
:102CC0005093FC044093FB041092FE041092FF0406
:102CD000109200051092010510928505109284054E
:102CE0008093860590938705A0938805B093890506
:102CF000309383052093820585EC90E090938F05B7
:102D000080938E0584EC90E09093910580939005DC
:102D100080EC90E0909393058093920581EC90E095
:102D2000909395058093940582EC90E0909397059D
:102D30008093960586EC90E0909399058093980592
:102D400010929B0510929C0510929D0510929E0575
:102D500080910B0290910C02A0910D02B0910E0295
:102D60008093560790935707A0935807B09359073D
:102D700080910F0290911002A0911102B091120265
:102D800080935A0790935B07A0935C07B0935D070D
:102D900084E080935E0787E080935F07109260076E
:102DA00084EB8093610786E18093620788E18093DA
:102DB000630787E18093640789E180936507E09169
:102DC0002D07EC3020F08FEF8093660710C081E074
:102DD0008E0F80932D07E093660785E0E89FF00152
:102DE0001124EF50F94F88EB9BE092838183E091AF
:102DF0002D07EC3020F08FEF8093670710C081E043
:102E00008E0F80932D07E093670785E0E89FF00120
:102E10001124EF50F94F88EB9BE0928381838CE083
:102E20008093350784E28093360786E080933707E6
:102E300085E0809338078FE1809339078EE1809396
:102E40003A0783E280933B0782E280933C0785E464
:102E500080933D0784E480933E0780E4809341079C
:102E600010924607109247071092480710924907A0
:102E700010924A0710924B0710924C0710924D0780
:102E8000E0E7F7E02EE238E08FEF9FEFDC011282FF
:102E90001382148215821682178210861186838708
:102EA0009487A587B6878787908BA18BB28B128674
:102EB0001182108273962E173F0749F78DE090E03C
:102EC0000E94651AFC01138212828BE392E09183C7
:102ED0008083118687E2848384E1828784E083870C
:102EE0001486F0936D07E0936C0710926E071092B2
:102EF0006F0785E2809320061092220610922F071A
:102F000010922E071092310710923007109233075B
:102F10001092320761E070E080E090E00E94861B32
:102F2000009789F090932F0780932E071092310716
:102F3000109230072091320730913307232BC1F4D0
:102F4000FC01108215C080912E0790912F070097E9
:102F500011F00E94FD1A10922F0710922E07109266
:102F600033071092320710923107109230070895FC
:102F700010923307109232076CE173E080912E07B4
:102F800090912F070C94791C0E94061808F481E098
:102F90000895E89409C097FB3EF49095809570954C
:102FA00061957F4F8F4F9F4F9923A9F0F92F96E995
:102FB000BB279395F695879577956795B795F1110A
:102FC000F8CFFAF4BB0F11F460FF1BC06F5F7F4FA7
:102FD0008F4F9F4F16C0882311F096E911C07723B9
:102FE00021F09EE8872F762F05C0662371F096E8C2
:102FF000862F70E060E02AF09A95660F771F881F91
:10300000DAF7880F9695879597F90895990F000834
:10301000550FAA0BE0E8FEEF16161706E807F907AA
:10302000C0F012161306E407F50798F0621B730B45
:10303000840B950B39F40A2661F0232B242B252BC6
:1030400021F408950A2609F4A140A6958FEF811D69
:10305000811D08950E943D180C94AE180E94A0187E
:1030600038F00E94A71820F0952311F00C949718BF
:103070000C949D1811240C94E2180E94BF1870F350
:10308000959FC1F3950F50E0551F629FF001729F0D
:10309000BB27F00DB11D639FAA27F00DB11DAA1F1C
:1030A000649F6627B00DA11D661F829F2227B00D69
:1030B000A11D621F739FB00DA11D621F839FA00DF4
:1030C000611D221F749F3327A00D611D231F849F44
:1030D000600D211D822F762F6A2F11249F5750409B
:1030E0009AF0F1F088234AF0EE0FFF1FBB1F661F16
:1030F000771F881F91505040A9F79E3F510580F0DF
:103100000C9497180C94E2185F3FE4F3983ED4F3C4
:10311000869577956795B795F795E7959F5FC1F782
:10312000FE2B880F911D9695879597F9089597F92D
:103130009F6780E870E060E008959FEF80EC08955D
:1031400000240A9416161706180609060895002486
:103150000A9412161306140605060895092E039400
:10316000000C11F4882352F0BB0F40F4BF2B11F474
:1031700060FF04C06F5F7F4F8F4F9F4F089557FDD3
:103180009058440F551F59F05F3F71F04795880FD5
:1031900097FB991F61F09F3F79F08795089512166C
:1031A00013061406551FF2CF4695F1DF08C0161618
:1031B00017061806991FF1CF8695710561050894C9
:1031C0000895E894BB2766277727CB0197F90895E0
:1031D000052E97FB1EF400940E94FF1857FD07D0A0
:1031E0000E94071907FC03D04EF40C94FF18509569
:1031F0004095309521953F4F4F4F5F4F08959095E3
:103200008095709561957F4F8F4F9F4F0895A1E2F4
:103210001A2EAA1BBB1BFD010DC0AA1FBB1FEE1F50
:10322000FF1FA217B307E407F50720F0A21BB30B9B
:10323000E40BF50B661F771F881F991F1A9469F717
:1032400060957095809590959B01AC01BD01CF0173
:103250000895991B79E004C0991F961708F0961BF2
:10326000881F7A95C9F780950895EE0FFF1F881F74
:103270008BBF0790F691E02D19942A0D3B1D4C1D34
:103280005D1D6E1D7F1D801F911F08955058BB2727
:10329000AA270E945E190C94AE180E94A01838F05C
:1032A0000E94A71820F039F49F3F19F426F40C94DB
:1032B0009D180EF4E095E7FB0C949718E92F0E94F7
:1032C000BF1858F3BA17620773078407950720F0F1
:1032D00079F4A6F50C94E1180EF4E0950B2EBA2FB4
:1032E000A02D0B01B90190010C01CA01A00111240C
:1032F000FF27591B99F0593F50F4503E68F11A16B8
:10330000F040A22F232F342F4427585FF3CF469548
:1033100037952795A795F0405395C9F77EF41F166A
:10332000BA0B620B730B840BBAF09150A1F0FF0F34
:10333000BB1F661F771F881FC2F70EC0BA0F621F20
:10334000731F841F48F4879577956795B795F79510
:103350009E3F08F0B0CF9395880F08F09927EE0FA5
:103360009795879508950E94C7190C94AE180E94EE
:10337000A71858F00E94A01840F029F45F3F29F0E8
:103380000C94971851110C94E2180C949D180E94FB
:10339000BF1868F39923B1F3552391F3951B550B8F
:1033A000BB27AA2762177307840738F09F5F5F4F18
:1033B000220F331F441FAA1FA9F335D00E2E3AF057
:1033C000E0E832D091505040E695001CCAF72BD06F
:1033D000FE2F29D0660F771F881FBB1F26173707C0
:1033E0004807AB07B0E809F0BB0B802DBF01FF27F2
:1033F00093585F4F3AF09E3F510578F00C94971820
:103400000C94E2185F3FE4F3983ED4F386957795E9
:103410006795B795F7959F5FC9F7880F911D9695AA
:10342000879597F90895E1E0660F771F881FBB1F06
:10343000621773078407BA0720F0621B730B840BB3
:10344000BA0BEE1F88F7E09508950E942C1A689435
:10345000B1110C94E21808950E94C71888F09F5784
:1034600098F0B92F9927B751B0F0E1F0660F771FA8
:10347000881F991F1AF0BA95C9F714C0B13091F09E
:103480000E94E118B1E008950C94E118672F782F9D
:103490008827B85F39F0B93FCCF386957795679563
:1034A000B395D9F73EF490958095709561957F4FCF
:1034B0008F4F9F4F08950E94061808F48FEF0895CC
:1034C0000E940618880B990B08950F931F93CF93B2
:1034D000DF938230910510F482E090E0E0913908AA
:1034E000F0913A0820E030E0A0E0B0E0309719F128
:1034F000408151810281138148175907C8F0841710
:10350000950769F4109731F012960C931297139661
:103510001C9327C00093390810933A0822C0211544
:10352000310519F04217530718F49A01BD01EF0154
:10353000DF01F801DBCF21153105F9F0281B390B2C
:103540002430310580F48A819B816115710521F059
:10355000FB019383828304C090933A0880933908D7
:10356000FE01329644C0FE01E20FF31F8193919356
:1035700022503109398328833AC02091370830918D
:103580003808232B41F42091070230910802309330
:103590003808209337082091050230910602211542
:1035A000310541F42DB73EB74091090250910A020E
:1035B000241B350BE0913708F0913808E217F30728
:1035C000A0F42E1B3F0B2817390778F0AC014E5F93
:1035D0005F4F2417350748F04E0F5F1F5093380890
:1035E000409337088193919302C0E0E0F0E0CF016F
:1035F000DF91CF911F910F910895CF93DF930097A3
:1036000009F481C0FC01329713821282A09139081B
:10361000B0913A08109781F420813181820F931F75
:1036200020913708309138082817390751F5F09361
:103630003808E093370867C0ED0120E030E0CE178E
:10364000DF0740F44A815B819E0141155105F1F08D
:10365000EA01F5CFD383C28340815181840F951F46
:10366000C817D90759F488819981840F951F02964C
:10367000918380838A819B81938382832115310585
:1036800029F4F0933A08E09339083DC0E901FB833F
:10369000EA8349915991C40FD51FEC17FD0761F4D6
:1036A00080819181840F951F0296E9019983888317
:1036B000828193819B838A83E0E0F0E012968D9172
:1036C0009C911397009719F0FD01DC01F7CF8D91C4
:1036D0009C9111979D012E5F3F4F820F931F209168
:1036E0003708309138082817390769F4309729F4DA
:1036F00010923A081092390802C013821282B093D5
:103700003808A0933708DF91CF9108956F927F9288
:103710008F929F92AF92BF92CF92DF92EF92FF92E1
:103720000F931F93CF93DF93009789F4CB01DF9121
:10373000CF911F910F91FF90EF90DF90CF90BF90AE
:10374000AF909F908F907F906F900C94651AFC01C2
:10375000E60FF71F9C0122503109E217F30708F426
:10376000A9C0EC01D9010D911C91119706171707FB
:10377000B0F00530110508F49BC0C8010497861706
:10378000970708F495C002501109061B170B019307
:1037900011936D937C93CF010E94FD1A89C05B0148
:1037A000A01AB10A4C01800E911EA0913908B09167
:1037B0003A08612C712CE12CF12C109709F446C0C9
:1037C0008D919C911197A815B905B1F56C0142E056
:1037D000C40ED11CCA14DB0478F14C018A189B0872
:1037E000640142E0C40ED11C1296BC90129713964D
:1037F000AC91B5E0CB16D10440F0B282A3839182A4
:103800008082D9016D937C9309C00E5F1F4F800F9A
:10381000911FF90191838083EB2DFA2FE114F104BC
:1038200031F0D7011396FC93EE93129741C0F093B9
:103830003A08E09339083CC06816790608F43C0160
:103840007D0112960D90BC91A02DB7CF80913708C5
:103850009091380888169906E1F466167706C8F440
:103860008091050290910602009741F48DB79EB7B2
:103870004091090250910A02841B950BE817F90741
:10388000C8F4F0933808E0933708F9017183608336
:103890000FC0CB010E94651A7C01009759F0A80166
:1038A000BE010E94701CCE010E94FD1AC70104C017
:1038B000CE0102C080E090E0DF91CF911F910F9187
:1038C000FF90EF90DF90CF90BF90AF909F908F9040
:1038D0007F906F90089581E090E0F8940C94801CA4
:1038E000FB01DC0102C001900D9241505040D8F71D
:1038F0000895FB01DC0101900D920020E1F708958D
:1039000011E0C4E9D1E000E006C0802FFE010E9472
:1039100035192196011DC539D10780E00807A9F79F
:04392000F894FFCF49
:10392400CDCCCC3EFF00003B082000363738391B95
:103934001D1A1C0000000057092A090F03FE082263
:10394400090E09FF08000000006F02C801F201BC63
:1039540002230201021502000000001403C8010F33
:10396400030E034365636920657374206C652074DA
:1039740065737420697342756D706572283329000C
:10398400473A200020657420443A200044C3A962C9
:103994007574206465732076697465737365730048
:1039A40044C3A96275742064657320657272657579
:1039B4007200503A200020657420493A200020709B
:1039C4006F757220756E6520636F72722064653A3C
:1039D40020004365636920657374206C65207465F9
:1039E400737420697342756D7065722832290043BF
:1039F40065636920657374206C6520746573742035
:103A0400697342756D70657228300043656369207F
:103A1400657374206C6520746573742069734275D2
:103A24006D70657228312900496E76616C69642075
:103A34006D6F746F7220696421000D0A006E616EEF
:0A3A440000696E66006F76660000F0
:00000001FF
