:100000000C9461010C9492010C9492010C94920155
:100010000C9492010C9492010C9492010C94920114
:100020000C9492010C9418080C9418080C9418085D
:100030000C9492010C9456030C9492010C9492012E
:100040000C9492010C94CE050C9492010C949201A4
:100050000C9492010C9492010C9492010C940C0358
:100060000C9492010C94C5040C949B040C94920182
:100070000C9492010C9492010C9492010C949201B4
:100080000C9492010C9492010C9492010C949201A4
:100090000C9492010C9492010C9492010C942208FD
:1000A0000C9492010C9492010C9492010C94920184
:1000B0000C9492010C9492010C9492010C94EF0414
:1000C0000C9492010C9492010C9492010C94710482
:1000D0000C9447040C9492010C941D040C94F303AB
:1000E0000C9492016F097209610965096B09A909EC
:1000F00076097A098009840988098E099209960986
:10010000A9099C09A009A4090C9480090C94E10197
:100110000C9405070C947A090C9465090C949C09BD
:100120000C9432070C94A9090C94E1020C948409F4
:100130000C9488020C942A070C94C80D0C9494011A
:100140000C9404070C94CD010C9496090C94EF01C7
:100150000C94A4090C94BE010C94A0090C94CE0D2F
:100160000C9406070C946B090C9476090C94070701
:100170000C946F090C948E090C9416070C94880942
:100180000C9472090C945F070C94E7020C9492098A
:100190000C9461090C94E2020C943B0200002000D4
:1001A0002300260029002C002F003200000100004F
:1001B0000301060109010200002100240027002A92
:1001C000002D003000330001010000040107010A86
:1001D0000100002200250028002B002E00310034F1
:1001E0000002010000050108010B010505050507D6
:1001F0000508080808020202020A0A0808040404A2
:1002000004010101010101010103030303030303CD
:1002100003040707070C0C0C0C0C0C0C0C0202025C
:100220000206060606060606060B0B0B0B0B0B0B4F
:100230000B010210202008081020401020408002EE
:10024000010201080402010102040810204080801C
:1002500040201008040201800402018040201008A0
:100260000402010804020101020408102040800178
:100270000204081020408000000A0B02090C0D0E39
:100280000807030401000000000000000000000057
:10029000000000000000000000000000000000005E
:1002A000000000121110000000000000000000001B
:1002B0000000000000000000000000000000CE0D63
:1002C000C80D11241FBECFEFD1E2DEBFCDBF00E0CD
:1002D0000CBF12E0A0E0B2E0E2E0F8E200E00BBF09
:1002E00002C007900D92A035B107D9F727E0A0E52D
:1002F000B2E001C01D92A932B207E1F711E0C0E6F9
:10030000D1E000E006C021970109802FFE010E9484
:100310002611CF35D10780E00807A9F70E943A0AD5
:100320000C94EF130C940000CF92DF92EF92FF92A7
:100330000F931F93CF93DF936C017A018B01C0E081
:10034000D0E0CE15DF0581F0D8016D918D01D60189
:10035000ED91FC910190F081E02DC6011995892B5A
:1003600011F02196EECF7E01C701DF91CF911F9151
:100370000F91FF90EF90DF90CF900895FC01538D87
:10038000448D252F30E0842F90E0821B930B54176F
:1003900010F0CF96089501970895FC01918D828DFC
:1003A000981761F0828DDF01A80FB11D5D968C91C9
:1003B000928D9F5F9F73928F90E008958FEF9FEFD4
:1003C0000895FC01918D828D981731F0828DE80F90
:1003D000F11D858D90E008958FEF9FEF0895FC014A
:1003E000918D228D892F90E0805C9F4F821B910917
:1003F0008F739927089580E992E00E94EF0121E030
:10040000892B09F420E0822F08958DE293E00E9469
:10041000EF0121E0892B09F420E0822F08958AEC76
:1004200093E00E94EF0121E0892B09F420E0822F64
:100430000895FC01848DDF01A80FB11DA35ABF4FA1
:100440002C91848D90E001968F739927848FA689D3
:10045000B7892C93A089B1898C91837080648C9327
:10046000938D848D981306C00288F389E02D8081D6
:100470008F7D80830895EF92FF920F931F93CF9308
:10048000DF93EC0181E0888F9B8D8C8D981305C0E4
:10049000E889F989808185FD26C0F62E0B8D10E054
:1004A0000F5F1F4F0F731127E02E8C8DE8120CC0C9
:1004B0000FB607FCFACFE889F989808185FFF5CF6F
:1004C000CE010E941902F1CF8B8DFE01E80FF11DC4
:1004D000E35AFF4FF0829FB7F8940B8FEA89FB89AC
:1004E000808180620AC09FB7F894EE89FF8960839B
:1004F000E889F98980818370806480839FBF81E06F
:1005000090E0DF91CF911F910F91FF90EF900895B0
:10051000CF93DF93EC01888D8823C9F0EA89FB89AA
:10052000808185FD05C0A889B9898C9186FD0FC0A1
:100530000FB607FCF5CF808185FFF2CFA889B98976
:100540008C9185FFEDCFCE010E941902E7CFDF919C
:10055000CF910895E0E0F0E0199480E090E0892BDD
:1005600021F00E940F02811119C080E090E0892BD8
:1005700041F080E090E0892B21F00E940000811181
:1005800010C00E94050281110FC080E090E0892B0D
:1005900081F00E94FB0181110AC008950E940000B1
:1005A000E4CF0E940000EDCF0E94AA02EECF0C948F
:1005B000000008958EBD00000DB407FEFDCF8EB57E
:1005C0000895089580E090E008950E94DA130F9353
:1005D0001F93CF93DF938C01C62FD62FD07FD1608E
:1005E0006D2F0E94D7076D2FC8010E94EA0780E196
:1005F000C89FB0011124C62FC1606C2FC8010E9492
:10060000D7076C2FC8010E94EA0781E090E0DF91D4
:10061000CF911F910F9108951F920F920FB60F92D5
:1006200011242F933F938F939F93AF93BF93809108
:10063000710290917202A0917302B0917402309194
:10064000700223E0230F2D3720F40196A11DB11D68
:1006500005C026E8230F0296A11DB11D209370024C
:100660008093710290937202A0937302B09374020C
:100670008091750290917602A0917702B0917802F4
:100680000196A11DB11D8093750290937602A093EF
:100690007702B0937802BF91AF919F918F913F9174
:1006A0002F910F900FBE0F901F9018951F920F92D1
:1006B0000FB60F9211240BB60F922F933F934F93C7
:1006C0005F936F937F938F939F93AF93BF93EF93BA
:1006D000FF9380916B0290916C02A0916D02B0919A
:1006E0006E02892B8A2B8B2B49F190916A028091A3
:1006F000000089278093000080916B0290916C022A
:10070000A0916D02B0916E02181619061A061B060A
:100710000CF056C080916B0290916C02A0916D021A
:10072000B0916E020197A109B10980936B02909379
:100730006C02A0936D02B0936E0242C080910002E1
:10074000E6EBF1E0E4919FEF90930002E230C9F014
:1007500050F4EE2399F0E13081F590916F009D7F88
:1007600090936F002AC0E43019F1E0F0E53029F5EC
:10077000909173009D7F909373001FC010926E0044
:100780001CC0909170009D7F9093700091E09093B9
:10079000B0009091B100987F94609093B100109256
:1007A000B3000BC0909171009D7F9093710005C0C4
:1007B000909172009D7F9093720060E00E94AA0960
:1007C000FF91EF91BF91AF919F918F917F916F9129
:1007D0005F914F913F912F910F900BBE0F900FBEE5
:1007E0000F901F9018951F920F920FB60F92112421
:1007F0000BB60F922F933F934F935F936F937F931B
:100800008F939F93AF93BF93EF93FF9380E992E011
:100810000E941902FF91EF91BF91AF919F918F912B
:100820007F916F915F914F913F912F910F900BBEF0
:100830000F900FBE0F901F9018951F920F920FB63A
:100840000F9211240BB60F922F933F934F935F9308
:100850006F937F938F939F93AF93BF93EF93FF9388
:1008600080E992E00E94FF07FF91EF91BF91AF9165
:100870009F918F917F916F915F914F913F912F91B8
:100880000F900BBE0F900FBE0F901F9018951F92E8
:100890000F920FB60F9211240BB60F922F933F9326
:1008A0004F935F936F937F938F939F93AF93BF9378
:1008B000EF93FF938DE293E00E941902FF91EF9175
:1008C000BF91AF919F918F917F916F915F914F9168
:1008D0003F912F910F900BBE0F900FBE0F901F9066
:1008E00018951F920F920FB60F9211240BB60F920C
:1008F0002F933F934F935F936F937F938F939F9328
:10090000AF93BF93EF93FF938DE293E00E94FF07B5
:10091000FF91EF91BF91AF919F918F917F916F91D7
:100920005F914F913F912F910F900BBE0F900FBE93
:100930000F901F9018951F920F920FB60F921124CF
:100940000BB60F922F933F934F935F936F937F93C9
:100950008F939F93AF93BF93EF93FF938AEC93E0B2
:100960000E941902FF91EF91BF91AF919F918F91DA
:100970007F916F915F914F913F912F910F900BBE9F
:100980000F900FBE0F901F9018951F920F920FB6E9
:100990000F9211240BB60F922F933F934F935F93B7
:1009A0006F937F938F939F93AF93BF93EF93FF9337
:1009B0008AEC93E00E94FF07FF91EF91BF91AF9106
:1009C0009F918F917F916F915F914F913F912F9167
:1009D0000F900BBE0F900FBE0F901F9018951F9297
:1009E0000F920FB60F9211240BB60F922F933F93D5
:1009F0004F935F936F937F938F939F93AF93BF9327
:100A0000CF93DF93EF93FF932091680430E0F901D7
:100A1000E958FD4F8491F901EF5CFD4FD491F90144
:100A2000E551FE4FC491CC2379F081110E94540905
:100A3000EC2FF0E0EE0FFF1FE456FE4FA591B491AE
:100A4000EC91ED2381E009F480E020916C04309179
:100A50006D042F5F3F4F30936D0420936C04909191
:100A60006B04953618F096E09093670490916704B4
:100A70009430C9F128F4923069F09330D1F05EC01F
:100A8000953009F451C0963009F058C091E0909328
:100A9000380551C0811152C020916C0430916D0411
:100AA0002436310508F442C01092380510926B04C8
:100AB0001CC0813009F042C0E0916B0491E09E0FB0
:100AC00090936B04F0E020916C0430916D04EE0F74
:100AD000FF1FE959FB4F3087278310926D04109256
:100AE0006C0494E029C0811117C0E0916B0491E07F
:100AF0009E0F90936B04F0E020916C0430916D0494
:100B0000EE0FFF1FE959FB4F3087278310926D04CA
:100B100010926C0493E010C020916C0430916D042D
:100B20002536310558F007C0811108C010926D04B8
:100B300010926C0403C095E09093670490916A044E
:100B40009923B9F081110AC080916904882321F0AA
:100B50008091690461E009C02F9A0BC080916904FB
:100B6000882331F08091690460E00E94AA0901C0E5
:100B70002F98FF91EF91DF91CF91BF91AF919F910E
:100B80008F917F916F915F914F913F912F910F9036
:100B90000BBE0F900FBE0F901F9018951F920F92D3
:100BA0000FB60F9211240BB60F922F933F934F93D2
:100BB0005F936F937F938F939F93AF93BF93EF93C5
:100BC000FF938091690287FF05C010928500109203
:100BD000840016C020916902022E000C330B809114
:100BE000750590E0281739075CF43091690225E01B
:100BF0003203F0011124E75CFA4F808186FD15C0B5
:100C0000809169028F5F8093690220916902022EB0
:100C1000000C330B8091750590E02817390794F488
:100C2000809169028C302CF10DC030916902320341
:100C3000F0011124E75CFA4F808160E08F730E941D
:100C4000AA09DECF809184009091850084349C496C
:100C500018F480E49CE905C080918400909185009F
:100C6000049690938900809388008FEF80936902A7
:100C70002AC040918400509185003091690225E09E
:100C80003203F0011124E75CFA4F81819281840FD5
:100C9000951F9093890080938800309169023203F8
:100CA000F0011124E75CFA4F808186FF0CC030917F
:100CB00069023203F0011124E75CFA4F808161E0A0
:100CC0008F730E94AA09FF91EF91BF91AF919F91FD
:100CD0008F917F916F915F914F913F912F910F90E5
:100CE0000BBE0F900FBE0F901F901895309183028E
:100CF000313208F04BC0809181028111FCCF90917C
:100D0000620622E02093810221E0209380022FEFEF
:100D10002093400610923F0630933E06E2E4F6E050
:100D2000AEE1B6E020E0321721F041914D932F5F04
:100D3000FACF10921D0620911D06990F922B9093C9
:100D40001D0690917F02913061F410927F02909184
:100D50001D069093BB009091BC0093FDF8CF95ECDD
:100D600001C095EE9093BC00909181029230E1F326
:100D7000909140069F3F79F080914006803241F08B
:100D800080914006803331F084E005C081E003C0EB
:100D900082E001C083E010928202109283021092DE
:100DA0004106089585ED8093BC008091BC0084FDD0
:100DB000FCCF1092810208954091F805262F30E073
:100DC000240F311D21323105DCF4209181022430C1
:100DD000C9F4FC0180E090E0861758F43091F805E2
:100DE0002191DC01A852BA4FA30FB11D2C9301969B
:100DF000F3CF8091F805680F6093F80580E00895BF
:100E000081E0089582E00895089508950895E0919D
:100E10007A0280917902E81730F4F0E0E854FA4F52
:100E2000808190E008958FEF9FEF089590917A026E
:100E300080917902981750F4E92FF0E0E854FA4FC6
:100E4000208130E09F5F90937A0202C02FEF3FEF46
:100E5000C90108958091790290E020917A02821B65
:100E600091090895CF92DF92EF92FF920F931F9313
:100E7000CF93DF937C01CB018A012091410622238D
:100E800089F0EB016B01C40ED51ECC15DD0569F0B0
:100E90006991D701ED91FC910190F081E02DC7019E
:100EA0001995F3CF642F0E94DC06C801DF91CF9122
:100EB0001F910F91FF90EF90DF90CF900895CF9307
:100EC000DF931F92CDB7DEB76983209141062223BD
:100ED000D1F020918302203240F021E030E0FC018B
:100EE0003383228380E090E015C080918202E82F56
:100EF000F0E0EE5BF94F998190838F5F80938202DF
:100F00008093830205C061E0CE0101960E94DC0659
:100F100081E090E00F90DF91CF910895009769F004
:100F2000FC0101900020E9F73197AF01481B590BF4
:100F3000BC018AEC93E00C94940180E090E0089569
:100F40000F931F93CF93DF93162F072FCDE7D5E095
:100F50009C8521E0209341069093620610928202C4
:100F600010928302AA85BB85ED91FC9111970190A7
:100F7000F081E02D682FCD0119958A859B85DC01D4
:100F8000ED91FC910190F081E02D602F19958A85FB
:100F90009B85DC01ED91FC910190F081E02D612FAA
:100FA0001995DF91CF911F910F910C947606FC015A
:100FB000248131E030934106209362061092820230
:100FC000109283028485682B84E892E00E945F0778
:100FD0000C9476060F931F93CF938C01C62F6460F9
:100FE0000E94D7076C2F6B7FC8010E94D70783EC44
:100FF00090E00197F1F7CF911F910F910895FC01B7
:10100000A089B1898C91A689B78982FD0FC09C9176
:10101000818D8F5F8F73228D821749F0218DDF01C3
:10102000A20FB11D5D969C93818F08958C910895B8
:101030001F920F920FB60F9211240F900FBE0F90B8
:101040001F9018951F920F920FB60F9211240BB696
:101050000F922F933F934F935F936F937F938F9351
:101060009F93AF93BF93EF93FF938091B900887FD5
:10107000803609F49CC068F5883209F45BC090F4AE
:10108000803109F454C038F4882309F4F6C088305C
:1010900009F44DC0F6C0883109F44CC0803209F41F
:1010A0005DC0EFC0803409F468C048F4803309F4AF
:1010B00055C0883309F0E5C080934006D8C080351C
:1010C00009F44FC0883509F45DC0883409F0D9C0EF
:1010D000D6C0883909F4C7C0A8F4883709F467C0B6
:1010E00038F4883609F463C0803709F460C0C9C099
:1010F000883809F4B8C0803909F45FC0803809F035
:10110000C0C05BC0803B09F486C038F4803A09F463
:1011100066C0883A09F47FC0B4C0803C09F4A7C017
:10112000883C09F4A4C0883B09F48AC0AAC0809115
:101130001D0610C090913F0680913E06981770F5ED
:10114000E0913F0681E08E0F80933F06F0E0E25E83
:10115000F94F80818093BB0085EC86C08093400668
:101160008EC0E0913F0681E08E0F80933F06809114
:10117000BB00F0E0E25EF94F808390913F068091E2
:101180003E066EC0E0913F0681E08E0F80933F06E1
:101190008091BB00F0E0E25EF94F80838091800295
:1011A00081116DC081E080937F0284EA61C083E099
:1011B0008093810210921A06CFCF80911A06803256
:1011C00008F051C0E0911A0681E08E0F80931A0654
:1011D0008091BB00F0E0E650FA4F8083BDCF85ECF4
:1011E0008093BC001092810280911A06803230F404
:1011F000E0911A06F0E0E650FA4F108260911A066C
:1012000070E0E0917D02F0917E028AEF95E0199501
:1012100010921A0636C084E0809381021092F9057C
:101220001092F805E0917B02F0917C021995809173
:10123000F805811105C081E08093F8051092D8056A
:10124000E091F90581E08E0F8093F905F0E0E85216
:10125000FA4F80818093BB009091F9058091F80549
:10126000981708F479CF85E88093BC000AC085EC14
:101270008093BC001092810204C0109240060E942C
:10128000D206FF91EF91BF91AF919F918F917F9186
:101290006F915F914F913F912F910F900BBE0F90E7
:1012A0000FBE0F901F90189590E0FC013197E2312E
:1012B000F10508F04EC08827EE58FF4F8F4F0C9471
:1012C0002611809180008F7703C0809180008F7DF0
:1012D00080938000089580918000877FF9CF84B546
:1012E0008F7702C084B58F7D84BD08958091B00052
:1012F0008F7703C08091B0008F7D8093B0000895F8
:10130000809190008F7707C0809190008F7D03C0FF
:1013100080919000877F8093900008958091A00035
:101320008F7707C08091A0008F7D03C08091A000BF
:10133000877F8093A0000895809120018F7707C058
:10134000809120018F7D03C080912001877F809351
:10135000200108951F93CF93DF93282F30E0F901E8
:10136000E958FD4F8491F901EF5CFD4FD491F901EB
:10137000E551FE4FC491CC23C1F0162F81110E947C
:101380005409EC2FF0E0EE0FFF1FEF52FE4FA59136
:10139000B4919FB7F894111104C08C91D095D823C3
:1013A00002C0EC91DE2BDC939FBFDF91CF911F91A8
:1013B0000895CF93DF9390E0FC01EF5CFD4F249103
:1013C000FC01E551FE4F8491882361F190E0880F84
:1013D000991FFC01E954FE4FC591D491FC01EF52D5
:1013E000FE4FA591B491611109C09FB7F89488810F
:1013F000209582238883EC912E230BC0623061F408
:101400009FB7F8948881322F309583238883EC919D
:101410002E2B2C939FBF06C08FB7F894E8812E2BFC
:1014200028838FBFDF91CF9108953FB7F8948091C3
:10143000750290917602A0917702B091780226B55C
:10144000A89B05C02F3F19F00196A11DB11D3FBFFC
:10145000BA2FA92F982F8827820F911DA11DB11D8A
:10146000BC01CD0142E0660F771F881F991F4A9586
:10147000D1F70895CF93DF93CDB7DEB7A2970FB61C
:10148000F894DEBF0FBECDBF789484B5826084BD72
:1014900084B5816084BD85B5826085BD85B5816078
:1014A00085BD80916E00816080936E0010928100F6
:1014B00080918100826080938100809181008160B1
:1014C0008093810080918000816080938000809172
:1014D000B10084608093B1008091B00081608093FE
:1014E000B000809191008260809391008091910082
:1014F0008160809391008091900081608093900042
:101500008091A10082608093A1008091A100816000
:101510008093A1008091A00081608093A0008091C1
:10152000210182608093210180912101816080935B
:1015300021018091200181608093200180917A00B7
:10154000846080937A0080917A00826080937A0030
:1015500080917A00816080937A0080917A0080681F
:1015600080937A001092C100E091DA03F091DB03DE
:1015700082E08083E091D603F091D7031082E0915E
:10158000D803F091D9038FEC80831092E203E091AD
:10159000DE03F091DF0386E08083E091DC03F091CD
:1015A000DD03808180618083E091DC03F091DD03C5
:1015B000808188608083E091DC03F091DD0380818D
:1015C00080688083E091DC03F091DD0380818F7D72
:1015D000808361E080917E050E94D90960E080915E
:1015E0007E050E94AA0960E080917D050E94D909CC
:1015F00084E892E0909388058093870510927A02A0
:10160000109279021092820210928302109281024B
:1016100081E08093800210927F0261E084E10E9469
:10162000AA0961E085E10E94AA098091B9008E7F34
:101630008093B9008091B9008D7F8093B90088E4D0
:101640008093B80085E48093BC0084E097E0909399
:101650007C0280937B0285E097E090937E028093EA
:101660007D0280E090E1A0E0B0E080938A05909355
:101670008B05A0938C05B0938D058AE090E0A0E0E7
:10168000B0E080938E0590938F05A0939005B09362
:10169000910580E090E0A0E0B0E480939205909303
:1016A0009305A0939405B093950560E070E185E003
:1016B0000E94A0076FE979E380E00E94A0070DE790
:1016C00015E07801B2E05B2E80E2682E82E0782E91
:1016D00096E6892E92E0992E2BECC22E27E0D22E90
:1016E0003BE8A32EBB24B394D70114969C91149786
:1016F00012968C91F801818F928F61E00E94D90936
:1017000061E0D8015A968C910E94D909F701908521
:101710008681D8015D968C935D975E969C9361E07F
:101720000E94D90960E0F801868D0E94D90961E024
:10173000D8015D968C910E94AA094FB6F8948091C9
:101740006F02811126C0F3018491F4012491E82FE6
:10175000F0E0EE0FFF1FE954FE4FA591B4919C916C
:10176000822F892321F461E085E30E94AA0961E0C8
:1017700085E30E94D9098CB580618CBD8CB58064ED
:101780008CBD61E084E30E94D90961E083E30E949B
:10179000D90980916F028F5F80936F024FBEC6019F
:1017A0000197F1F760E0D8015D968C910E94AA093B
:1017B00088E80E94DA0283E00E94DA0261E0F80120
:1017C000858D0E94AA09C6010197F1F760E0D80152
:1017D0005D968C910E94AA0988E90E94DA0280E055
:1017E0000E94DA0280E00E94DA0280E00E94DA02BF
:1017F00080E00E94DA0261E0F801858D0E94AA096A
:10180000C5010197F1F760E0D8015D968C910E94C7
:10181000AA0980EE0E94DA0261E0F801858D0E943B
:10182000AA095A94FFEFEF1AFF0A0E5F1F4F5110DB
:101830005BCFF2EAEF2EF5E0FF2E06EA15E060E05E
:10184000D7018D917D010E94D9090E151F05B9F7A9
:101850004EE9E42E45E0F42E58EAC52E55E0D52E8B
:1018600065E0B62E7CE0972EE2E0AE2EF801819086
:101870008F0187818C3008F048C061E0882D0E947C
:10188000D909D80117968C91B89EF0011124E75C14
:10189000FA4F982D9F732081207C822E892A808286
:1018A00013821482692D0E941A11BCE08B9FA00143
:1018B000112420E030E0BA01620F731FB69EF001E0
:1018C000B79EF00D1124E75CFA4F908196FD12C08F
:1018D0002F5F3F4F2C30310571F781110BC01092F3
:1018E0008000A09281001092850010928400A6BA18
:1018F000A0926F00D8011796EC91BE9EF0011124C2
:10190000E75CFA4F808180648083F8019581838150
:10191000D70152968C93529753969C9360E00E9405
:10192000D90961E0F70183890E94D90960E0D701F4
:1019300053968C910E94AA09B2E0EB0EF11CC016DE
:10194000D10609F093CFF8941092200189E080939A
:10195000210180E293E09093290180932801109265
:1019600025011092240182E0809373007894809383
:10197000670410926B048091680460E00E94D909AA
:1019800080E090E00E94F01080930102C090B405C6
:10199000D090B505E090B605F090B705A701960187
:1019A000C701B6010E94CF11882319F080E492E0AC
:1019B0001AC046015701E894B7F82FEF3FEF4FE701
:1019C0005FE7C501B4010E94CF1181110FC02FEF55
:1019D0003FEF4FE75FE7C501B4010E94CC0F181637
:1019E0002CF484E492E00E948E07A5C02FEF3FEF15
:1019F0004FE75FE4C701B6010E94CA1118161CF434
:101A000088E492E0F0CF2FEF3FEF4FE75FECC701A4
:101A1000B6010E94CC0F87FDF3CF20E030E0A90192
:101A2000C701B6010E94CC0F87FF09C06DE28AECA6
:101A300093E00E943B02F7FAF094F7F8F0942AE062
:101A400037ED43EA5BE3C701B6010E942F114B015A
:101A50005C010E949B116B017C010E94D10F9B01D4
:101A6000AC01C501B4010E942E114B015C0119A209
:101A70008E010F5D1F4F0AA3612E3AE0232E312CF9
:101A8000412C512CC701B601A20191010E94F8100E
:101A900069017A01605DF80162938F01232B242B89
:101AA000252B81F7CF010E948E076EE28AEC93E02E
:101AB0000E943B0293E0F92E2AE0222E312C412C89
:101AC000512CFA94FF20B9F120E030E040E251E4DB
:101AD000C501B4010E9432104B015C010E949B11B0
:101AE0009B0140E050E019A20AA1162D762EC32ECC
:101AF000D42EE52ECA01B901A20191010E94F8106D
:101B0000605DD8016E938D012115310541055105A8
:101B100089F7CD010E948E07672D7C2D8D2D9E2D7E
:101B20000E94D10F9B01AC01C501B4010E942E118E
:101B30004B015C01C6CF8CE492E00E948E070E94AC
:101B4000150A4B015C018AE0C82ED12CE12CF12C46
:101B50000E94150ADC01CB0188199909AA09BB0961
:101B6000883E9340A105B10598F3B1E0CB1AD108A6
:101B7000E108F108E8EE8E0EE3E09E1EA11CB11C08
:101B8000C114D104E104F10419F70E94AD02D7CFCA
:101B900080917605909177050C946C1210928702D3
:101BA0001092860288EE93E0A0E0B0E08093880275
:101BB00090938902A0938A02B0938B0224E132E0D1
:101BC0003093850220938402109293021092920225
:101BD0008093940290939502A0939602B0939702FB
:101BE00026E232E0309391022093900245E351E0E7
:101BF00050939D0240939C0244E351E050939F0216
:101C000040939E0240E351E05093A1024093A00212
:101C100041E351E05093A3024093A20242E351E01A
:101C20005093A5024093A40246E351E05093A702CB
:101C30004093A6021092A9021092AA021092AB023F
:101C40001092AC021092300310922F038093310354
:101C500090933203A0933303B093340330932E0355
:101C600020932D0345ED50E050933A034093390300
:101C700044ED50E050933C0340933B0340ED50E073
:101C800050933E0340933D0341ED50E05093400399
:101C900040933F0342ED50E0509342034093410391
:101CA00046ED50E0509344034093430310924603A3
:101CB0001092470310924803109249031092CD03EB
:101CC0001092CC038093CE039093CF03A093D003C4
:101CD000B093D1033093CB032093CA0385EC90E0FB
:101CE0009093D7038093D60384EC90E09093D9032C
:101CF0008093D80380EC90E09093DB038093DA0329
:101D000081EC90E09093DD038093DC0382EC90E023
:101D10009093DF038093DE0386EC90E09093E103E1
:101D20008093E0031092E3031092E4031092E50322
:101D30001092E6038091080290910902A0910A0294
:101D4000B0910B0280939E0590939F05A093A005F0
:101D5000B093A10580910C0290910D02A0910E020A
:101D6000B0910F028093A2059093A305A093A405C0
:101D7000B093A50584E08093A60587E08093A7052E
:101D80001092A80584EB8093A90586E18093AA05AB
:101D900088E18093AB0587E18093AC0589E180936E
:101DA000AD05E0917505EC3020F08FEF8093AE0526
:101DB00010C081E08E0F80937505E093AE0585E03D
:101DC000E89FF0011124E75CFA4F88EB9BE09283D7
:101DD0008183E0917505EC3020F08FEF8093AF05A3
:101DE00010C081E08E0F80937505E093AF0585E00C
:101DF000E89FF0011124E75CFA4F88EB9BE09283A7
:101E000081838CE080937D0584E280937E0586E06B
:101E100080937F0585E0809380058FE18093810525
:101E20008EE18093820583E28093830582E2809332
:101E3000840585E48093850584E48093860580E4A9
:101E40008093890510928E0510928F05109290054F
:101E5000109291051092920510929305109294059C
:101E600010929505E7E6F6E025E237E08FEF9FEF69
:101E7000DC01128213821482158216821782108668
:101E8000118683879487A587B6878787908BA18BD8
:101E9000B28B12861182108273962E173F0749F774
:101EA0008DE090E00E94D411FC011382128288E33D
:101EB00092E091838083118687E2848384E1828724
:101EC00084E083871486F0936406E093630610929F
:101ED00065061092660685E28093680410926A0493
:101EE0001092770510927605109279051092780578
:101EF00010927B0510927A0561E070E080E090E03E
:101F00000E94F512009789F09093770580937605EB
:101F1000109279051092780520917A0530917B0511
:101F2000232B69F5FC0110822AC0809176059091DF
:101F30007705009711F00E946C12109277051092AD
:101F4000760510927B0510927A0510927905109211
:101F5000780580910102813429F08DEC9CECA0E998
:101F6000B1E404C08AE999E9A1E9B1E48093B40538
:101F70009093B505A093B605B093B7050895109258
:101F80007B0510927A056EE472E08091760590915F
:101F900077050E94E813DDCF0E940E1008F481E05F
:101FA0000895E89409C097FB3EF49095809570954C
:101FB00061957F4F8F4F9F4F9923A9F0F92F96E995
:101FC000BB279395F695879577956795B795F1110A
:101FD000F8CFFAF4BB0F11F460FF1BC06F5F7F4FA7
:101FE0008F4F9F4F16C0882311F096E911C07723B9
:101FF00021F09EE8872F762F05C0662371F096E8C2
:10200000862F70E060E02AF09A95660F771F881F90
:10201000DAF7880F9695879597F90895990F000834
:10202000550FAA0BE0E8FEEF16161706E807F907AA
:10203000C0F012161306E407F50798F0621B730B45
:10204000840B950B39F40A2661F0232B242B252BC6
:1020500021F408950A2609F4A140A6958FEF811D69
:10206000811D08950E9445100C94B6100E94A8107E
:1020700038F00E94AF1020F0952311F00C949F10BF
:102080000C94A51011240C94EA100E94C71070F350
:10209000959FC1F3950F50E0551F629FF001729F0D
:1020A000BB27F00DB11D639FAA27F00DB11DAA1F1C
:1020B000649F6627B00DA11D661F829F2227B00D69
:1020C000A11D621F739FB00DA11D621F839FA00DF4
:1020D000611D221F749F3327A00D611D231F849F44
:1020E000600D211D822F762F6A2F11249F5750409B
:1020F0009AF0F1F088234AF0EE0FFF1FBB1F661F16
:10210000771F881F91505040A9F79E3F510580F0DE
:102110000C949F100C94EA105F3FE4F3983ED4F3C4
:10212000869577956795B795F795E7959F5FC1F782
:10213000FE2B880F911D9695879597F9089597F92D
:102140009F6780E870E060E008959FEF80EC08955D
:1021500000240A9416161706180609060895002486
:102160000A9412161306140605060895092E039400
:10217000000C11F4882352F0BB0F40F4BF2B11F474
:1021800060FF04C06F5F7F4F8F4F9F4F089557FDD3
:102190009058440F551F59F05F3F71F04795880FD5
:1021A00097FB991F61F09F3F79F08795089512166C
:1021B00013061406551FF2CF4695F1DF08C0161618
:1021C00017061806991FF1CF8695710561050894C9
:1021D0000895E894BB2766277727CB0197F90895E0
:1021E000F999FECF92BD81BDF89A992780B50895DF
:1021F000A1E21A2EAA1BBB1BFD010DC0AA1FBB1F0B
:10220000EE1FFF1FA217B307E407F50720F0A21B7C
:10221000B30BE40BF50B661F771F881F991F1A94E9
:1022200069F760957095809590959B01AC01BD0113
:10223000CF010895991B79E004C0991F961708F003
:10224000961B881F7A95C9F780950895EE0FFF1F9A
:10225000881F8BBF0790F691E02D19945058BB272B
:10226000AA270E9446110C94B6100E94A81038F0BC
:102270000E94AF1020F039F49F3F19F426F40C941B
:10228000A5100EF4E095E7FB0C949F10E92F0E9437
:10229000C71058F3BA17620773078407950720F031
:1022A00079F4A6F50C94E9100EF4E0950B2EBA2FF4
:1022B000A02D0B01B90190010C01CA01A00111244C
:1022C000FF27591B99F0593F50F4503E68F11A16F8
:1022D000F040A22F232F342F4427585FF3CF469589
:1022E00037952795A795F0405395C9F77EF41F16AB
:1022F000BA0B620B730B840BBAF09150A1F0FF0F75
:10230000BB1F661F771F881FC2F70EC0BA0F621F60
:10231000731F841F48F4879577956795B795F79550
:102320009E3F08F0B0CF9395880F08F09927EE0FE5
:102330009795879508950E94CF1088F09F5798F041
:10234000B92F9927B751B0F0E1F0660F771F881FBA
:10235000991F1AF0BA95C9F714C0B13091F00E94D4
:10236000E910B1E008950C94E910672F782F8827C1
:10237000B85F39F0B93FCCF3869577956795B395FB
:10238000D9F73EF490958095709561957F4F8F4F6A
:102390009F4F08950E940E1008F48FEF08950E9439
:1023A0000E10880B990B08950F931F93CF93DF9313
:1023B0008230910510F482E090E0E0912707F091DF
:1023C000280720E030E0A0E0B0E0309719F140812C
:1023D00051810281138148175907C8F08417950766
:1023E00069F4109731F012960C93129713961C9380
:1023F00027C0009327071093280722C02115310515
:1024000019F04217530718F49A01BD01EF01DF01DB
:10241000F801DBCF21153105F9F0281B390B2430E9
:10242000310580F48A819B816115710521F0FB01E2
:102430009383828304C09093280780932707FE012B
:10244000329644C0FE01E20FF31F81939193225014
:102450003109398328833AC0209125073091260716
:10246000232B41F42091040230910502309326077A
:102470002093250720910202309103022115310596
:1024800041F42DB73EB74091060250910702241B3C
:10249000350BE0912507F0912607E217F307A0F42A
:1024A0002E1B3F0B2817390778F0AC014E5F5F4FAA
:1024B0002417350748F04E0F5F1F509326074093AF
:1024C00025078193919302C0E0E0F0E0CF01DF9116
:1024D000CF911F910F910895CF93DF93009709F447
:1024E00081C0FC01329713821282A0912707B0911C
:1024F0002807109781F420813181820F931F20914A
:102500002507309126072817390751F5F09326073C
:10251000E093250767C0ED0120E030E0CE17DF072C
:1025200040F44A815B819E0141155105F1F0EA01B9
:10253000F5CFD383C28340815181840F951FC81783
:10254000D90759F488819981840F951F0296918348
:1025500080838A819B81938382832115310529F4AD
:10256000F0932807E09327073DC0E901FB83EA8346
:1025700049915991C40FD51FEC17FD0761F4808173
:102580009181840F951F0296E90199838883828146
:1025900093819B838A83E0E0F0E012968D919C9179
:1025A0001397009719F0FD01DC01F7CF8D919C91F5
:1025B00011979D012E5F3F4F820F931F209125079A
:1025C000309126072817390769F4309729F41092BB
:1025D00028071092270702C013821282B0932607A1
:1025E000A0932507DF91CF9108956F927F928F92EC
:1025F0009F92AF92BF92CF92DF92EF92FF920F9392
:102600001F93CF93DF93009789F4CB01DF91CF9194
:102610001F910F91FF90EF90DF90CF90BF90AF9000
:102620009F908F907F906F900C94D411FC01E60FD7
:10263000F71F9C0122503109E217F30708F4A9C0E3
:10264000EC01D9010D911C91119706171707B0F0F5
:102650000530110508F49BC0C80104978617970739
:1026600008F495C002501109061B170B0193119332
:102670006D937C93CF010E946C1289C05B01A01AFC
:10268000B10A4C01800E911EA0912707B091280736
:10269000612C712CE12CF12C109709F446C08D911E
:1026A0009C911197A815B905B1F56C0142E0C40ED3
:1026B000D11CCA14DB0478F14C018A189B08640110
:1026C00042E0C40ED11C1296BC9012971396AC91A6
:1026D000B5E0CB16D10440F0B282A3839182808210
:1026E000D9016D937C9309C00E5F1F4F800F911F1E
:1026F000F90191838083EB2DFA2FE114F10431F07D
:10270000D7011396FC93EE93129741C0F0932807DC
:10271000E09327073CC06816790608F43C017D0168
:1027200012960D90BC91A02DB7CF80912507909166
:10273000260788169906E1F466167706C8F4809194
:10274000020290910302009741F48DB79EB7409129
:10275000060250910702841B950BE817F907C8F48D
:10276000F0932607E0932507F901718360830FC07A
:10277000CB010E94D4117C01009759F0A801BE0141
:102780000E94DF13CE010E946C12C70104C0CE016B
:1027900002C080E090E0DF91CF911F910F91FF90F8
:1027A000EF90DF90CF90BF90AF909F908F907F90F1
:1027B0006F90089581E090E0F8940C94EF13FB0182
:1027C000DC0102C001900D9241505040D8F70895AD
:1027D000FB01DC0101900D920020E1F7089511E06A
:1027E000C0E6D1E000E006C0802FFE010E94261165
:1027F0002196011DC136D10780E00807A9F7F8949A
:02280000FFCF08
:10280200FF49000029072000363738391B1D1A1CE2
:10281200000000005F073207E20206072A071607D8
:102822000707000000003B029401BE018802EF018D
:10283200CD01E10100000000E7029401E202E102A1
:102842006E616E00696E66006F7666000D0A0000AA
:00000001FF
