:100000000C9495010C94C6010C94C6010C94C60185
:100010000C94C6010C94C6010C94C6010C94C60144
:100020000C94C6010C94910A0C94910A0C94910AB8
:100030000C94C6010C9459050C94C6010C94C6018D
:100040000C94C6010C94B0070C94C6010C94C60124
:100050000C94C6010C94C6010C94C6010C940F05B7
:100060000C94C6010C94C8060C949E060C94C60110
:100070000C94C6010C94C6010C94C6010C94C601E4
:100080000C94C6010C94C6010C94C6010C94C601D4
:100090000C94C6010C94C6010C94C6010C949B0AE6
:1000A0000C94C6010C94C6010C94C6010C94C601B4
:1000B0000C94C6010C94C6010C94C6010C94F20673
:1000C0000C94C6010C94C6010C94C6010C947406E1
:1000D0000C944A060C94C6010C9420060C94F60568
:1000E0000C94C6017A037F0384038E0398031104E2
:1000F000A203AA03B203BC03C603D003DF03E903D0
:100100001104F303FD0307048B098E097D0981099E
:100110008709C509920996099C09A009A409AA0999
:10012000AE09B209C509B809BC09C0090C94810916
:100130000C947D090C948B090C94B2090C94E6087C
:100140000C9487090C9411040C94C6030C949C091C
:100150000C9484030C94BC030C9407040C94980333
:100160000C9496090C94BC020C9414090C9441094B
:100170000C94AE090C94F2010C94E9080C940C094F
:100180000C94DC0F0C94A0090C946F020C948E0953
:100190000C9415030C948E030C94A4090C94DF03A7
:1001A0000C9423020C94BC090C94C8010C94A20377
:1001B0000C94C0090C94F8080C9416030C94AA0330
:1001C0000C9401020C94E9030C9492090C94C50957
:1001D0000C947A030C94AA090C94D60F0C94C504C1
:1001E0000C94B2030C94E8080C94E7080C94D00328
:1001F0000C94F3030C947F030C94B8090C9415022F
:100200000C94FD030200002100240027002A002D89
:10021000003000330001010000040107010A010061
:10022000002200250028002B002E0031003400029F
:10023000010000050108010B010000200023002639
:100240000029002C002F00320000010000030106ED
:10025000010901050505050705080808080202024D
:10026000020A0A0808040404040101010101010151
:10027000010303030303030303040707070C0C0C28
:100280000C0C0C0C0C020202020606060606060600
:10029000060B0B0B0B0B0B0B0B010210202008089D
:1002A00010204010204080020102010804020101D8
:1002B00002040810204080804020100804020180C1
:1002C0000402018040201008040201080402010118
:1002D0000204081020408001020408102040800021
:1002E000000A0B02090C0D0E0807030401000000B0
:1002F00000000000000000000000000000000000FE
:1003000000000000000000000000001211100000BA
:1003100000000000000000000000000000000000DD
:10032000000000000000DC0FD60F11241FBECFEF2D
:10033000D1E2DEBFCDBF00E00CBF12E0A0E0B2E032
:10034000EAECFCE200E00BBF02C007900D92A4347F
:10035000B107D9F727E0A4E4B2E001C01D92A931AA
:10036000B207E1F711E0C4E9D1E000E006C021974F
:100370000109802FFE010E941613C339D10780E0C6
:100380000807A9F70E949B0C0C9453160C940000CC
:10039000CF92DF92EF92FF920F931F93CF93DF9351
:1003A0006C017A018B01C0E0D0E0CE15DF0581F051
:1003B000D8016D918D01D601ED91FC910190F081F4
:1003C000E02DC6011995892B11F02196EECF7E0103
:1003D000C701DF91CF911F910F91FF90EF90DF90B8
:1003E000CF900895FC01538D448D252F30E0842F4C
:1003F00090E0821B930B541710F0CF96089501974D
:100400000895FC01918D828D981761F0828DDF0136
:10041000A80FB11D5D968C91928D9F5F9F73928FF7
:1004200090E008958FEF9FEF0895FC01918D828DEC
:10043000981731F0828DE80FF11D858D90E00895B9
:100440008FEF9FEF0895FC01918D228D892F90E011
:10045000805C9F4F821B91098F739927089584E8D0
:1004600092E00E94230221E0892B09F420E0822FF0
:10047000089581E293E00E94230221E0892B09F490
:1004800020E0822F08958EEB93E00E94230221E06A
:10049000892B09F420E0822F0895FC01848DDF016F
:1004A000A80FB11DA35ABF4F2C91848D90E00196E7
:1004B0008F739927848FA689B7892C93A089B189D6
:1004C0008C91837080648C93938D848D981306C077
:1004D0000288F389E02D80818F7D80830895EF92DB
:1004E000FF920F931F93CF93DF93EC0181E0888FEE
:1004F0009B8D8C8D981305C0E889F989808185FDD5
:1005000026C0F62E0B8D10E00F5F1F4F0F731127C3
:10051000E02E8C8DE8120CC00FB607FCFACFE889EC
:10052000F989808185FFF5CFCE010E944D02F1CF80
:100530008B8DFE01E80FF11DE35AFF4FF0829FB74C
:10054000F8940B8FEA89FB89808180620AC09FB78B
:10055000F894EE89FF896083E889F9898081837046
:10056000806480839FBF81E090E0DF91CF911F91F5
:100570000F91FF90EF900895CF93DF93EC01888D5A
:100580008823C9F0EA89FB89808185FD05C0A88997
:10059000B9898C9186FD0FC00FB607FCF5CF80811D
:1005A00085FFF2CFA889B9898C9185FFEDCFCE0167
:1005B0000E944D02E7CFDF91CF910895E0E0F0E097
:1005C000199480E090E0892B21F00E944302811170
:1005D00019C080E090E0892B41F080E090E0892B09
:1005E00021F00E940000811110C00E943902811187
:1005F0000FC080E090E0892B81F00E942F028111D2
:100600000AC008950E940000E4CF0E940000EDCFD0
:100610000E94DE02EECF0C94000008958EBD000013
:100620000DB407FEFDCF8EB50895089580E090E0EB
:1006300008958F929F92AF92BF92CF92DF92EF92E6
:10064000FF920F931F93CF93DF938C016A017B017D
:1006500020E030E04FE753E4C701B6010E942A12C0
:100660004B015C0120E030E0A9010E943314181610
:100670001CF4C501B40103C0C501B40190580E9427
:10068000FD13EB0120E030E0A901C701B6010E9493
:100690003314181614F460E001C061E0F8018181A0
:1006A0000E94F60BCF3FD10509F014F4DD2702C0FC
:1006B000CFEFD0E0F801108161E0812F0E94250C7E
:1006C000209709F4B1C0CF3FD10509F4AFC0E12FA5
:1006D000F0E0E152FD4FE4918E2F90E0FC01319764
:1006E000E231F10508F09DC08827EE58FF4F8F4F8B
:1006F0000C94161384B5806884BDC7BDA7C084B5AB
:10070000806284BDC8BDA2C0809180008068809353
:100710008000D0938900C093880098C080918000A9
:10072000806280938000D0938B00C0938A008EC03B
:1007300080918000886080938000D0938D00C0936A
:100740008C0084C08091B00080688093B000C0931A
:10075000B3007CC08091B00080628093B000C093F1
:10076000B40074C080919000806880939000D09312
:100770009900C09398006AC0809190008062809335
:100780009000D0939B00C0939A0060C0809190002D
:10079000886080939000D0939D00C0939C0056C0C9
:1007A0008091A00080688093A0008091A0008F7B42
:1007B0008093A000D093A900C093A80047C0809167
:1007C000A00080628093A000D093AB00C093AA00E9
:1007D0003DC08091A00088608093A000D093AD00C0
:1007E000C093AC0033C080912001806880932001C9
:1007F000D0932901C093280129C0809120018062F3
:1008000080932001D0932B01C0932A011FC08091B7
:100810002001886080932001D0932D01C0932C018A
:1008200015C0C038D10514F460E001C061E0812F2B
:10083000DF91CF911F910F91FF90EF90DF90CF90BC
:10084000BF90AF909F908F900C94F60BDF91CF915B
:100850001F910F91FF90EF90DF90CF90BF90AF90DE
:100860009F908F900895CF93DF93EC0160E0888193
:100870000E94F60B88E90E940E0380E00E940E039E
:1008800080E00E940E0380E00E940E0380E00E9440
:100890000E0361E088810E94F60B8BE891E00197DE
:1008A000F1F760E088810E94F60B80EE0E940E0353
:1008B00061E08881DF91CF910C94F60BAF92BF92EB
:1008C000CF92DF92EF92FF920F931F93CF93DF931C
:1008D000CDB7DEB760970FB6F894DEBF0FBECDBFC1
:1008E0005C0160E0FC0180810E94F60B80E60E94C2
:1008F0000E038E010F5F1F4F7E01F1E1EF0EF11C21
:10090000680180E00E940E0390E0A0E0B0E0F601F4
:1009100081939193A193B1936F01EE15FF0589F730
:1009200061E0F50180810E94F60B80E090E0DC013F
:10093000F80141915191619171918F01BA2FA92FC5
:10094000982F8827840F951FA61FB71FEE15FF0548
:1009500079F79C01AD0166277727CB01621B730BEA
:10096000840B950B60960FB6F894DEBF0FBECDBF1B
:10097000DF91CF911F910F91FF90EF90DF90CF907B
:10098000BF90AF9008950E943E160F931F93CF9390
:10099000DF938C01C62FD62FD07FD1606D2F0E94A0
:1009A000500A6D2FC8010E94630A80E1C89FB00100
:1009B0001124C62FC1606C2FC8010E94500A6C2FF1
:1009C000C8010E94630A81E090E0DF91CF911F91FE
:1009D0000F9108953FB7F8948091690290916A024F
:1009E000A0916B02B0916C0226B5A89B05C02F3F69
:1009F00019F00196A11DB11D3FBFBA2FA92F982F45
:100A00008827820F911DA11DB11DBC01CD0142E0BF
:100A1000660F771F881F991F4A95D1F708951F9277
:100A20000F920FB60F9211242F933F938F939F93A2
:100A3000AF93BF938091650290916602A091670287
:100A4000B09168023091640223E0230F2D3720F427
:100A50000196A11DB11D05C026E8230F0296A11D18
:100A6000B11D209364028093650290936602A09367
:100A70006702B09368028091690290916A02A09126
:100A80006B02B0916C020196A11DB11D80936902A9
:100A900090936A02A0936B02B0936C02BF91AF91E6
:100AA0009F918F913F912F910F900FBE0F901F90AC
:100AB00018951F920F920FB60F9211240BB60F923A
:100AC0002F933F934F935F936F937F938F939F9356
:100AD000AF93BF93EF93FF9380915F029091600279
:100AE000A0916102B0916202892B8A2B8B2B49F174
:100AF00090915E0280910000892780930000809190
:100B00005F0290916002A0916102B091620218169A
:100B100019061A061B060CF056C080915F029091D0
:100B20006002A0916102B09162020197A109B1092E
:100B300080935F0290936002A0936102B09362027F
:100B400042C080910002E4E0F2E0E4919FEF9093D4
:100B50000002E230C9F050F4EE2399F0E13081F563
:100B600090916F009D7F90936F002AC0E43019F13F
:100B7000E0F0E53029F5909173009D7F909373002C
:100B80001FC010926E001CC0909170009D7F9093CA
:100B9000700091E09093B0009091B100987F9460C4
:100BA0009093B1001092B3000BC0909171009D7FA3
:100BB0009093710005C0909172009D7F9093720098
:100BC00060E00E94F60BFF91EF91BF91AF919F9172
:100BD0008F917F916F915F914F913F912F910F90E6
:100BE0000BBE0F900FBE0F901F9018951F920F9283
:100BF0000FB60F9211240BB60F922F933F934F9382
:100C00005F936F937F938F939F93AF93BF93EF9374
:100C1000FF9384E892E00E944D02FF91EF91BF9113
:100C2000AF919F918F917F916F915F914F913F9184
:100C30002F910F900BBE0F900FBE0F901F90189525
:100C40001F920F920FB60F9211240BB60F922F9393
:100C50003F934F935F936F937F938F939F93AF9344
:100C6000BF93EF93FF9384E892E00E94780AFF918C
:100C7000EF91BF91AF919F918F917F916F915F9114
:100C80004F913F912F910F900BBE0F900FBE0F9081
:100C90001F9018951F920F920FB60F9211240BB64A
:100CA0000F922F933F934F935F936F937F938F9305
:100CB0009F93AF93BF93EF93FF9381E293E00E94E2
:100CC0004D02FF91EF91BF91AF919F918F917F91D5
:100CD0006F915F914F913F912F910F900BBE0F90AD
:100CE0000FBE0F901F9018951F920F920FB60F9284
:100CF00011240BB60F922F933F934F935F936F93F3
:100D00007F938F939F93AF93BF93EF93FF9381E272
:100D100093E00E94780AFF91EF91BF91AF919F916C
:100D20008F917F916F915F914F913F912F910F9094
:100D30000BBE0F900FBE0F901F9018951F920F9231
:100D40000FB60F9211240BB60F922F933F934F9330
:100D50005F936F937F938F939F93AF93BF93EF9323
:100D6000FF938EEB93E00E944D02FF91EF91BF91B4
:100D7000AF919F918F917F916F915F914F913F9133
:100D80002F910F900BBE0F900FBE0F901F901895D4
:100D90001F920F920FB60F9211240BB60F922F9342
:100DA0003F934F935F936F937F938F939F93AF93F3
:100DB000BF93EF93FF938EEB93E00E94780AFF912D
:100DC000EF91BF91AF919F918F917F916F915F91C3
:100DD0004F913F912F910F900BBE0F900FBE0F9030
:100DE0001F9018951F920F920FB60F9211240BB6F9
:100DF0000F922F933F934F935F936F937F938F93B4
:100E00009F93AF93BF93EF93FF9380915C040E94F5
:100E1000CD0B20916004309161042F5F3F4F3093E0
:100E200061042093600490915F04953618F096E079
:100E300090935B0490915B049430C9F128F4923054
:100E400069F09330D1F05EC0953009F451C096300E
:100E500009F058C091E090932C0551C0811152C007
:100E600020916004309161042436310508F442C0B9
:100E700010922C0510925F041CC0813009F042C012
:100E8000E0915F0491E09E0F90935F04F0E0209169
:100E9000600430916104EE0FFF1FE55AFB4F30876D
:100EA0002783109261041092600494E029C081119C
:100EB00017C0E0915F0491E09E0F90935F04F0E013
:100EC0002091600430916104EE0FFF1FE55AFB4F43
:100ED00030872783109261041092600493E010C061
:100EE00020916004309161042536310558F007C027
:100EF000811108C0109261041092600403C095E053
:100F000090935B0490915E049923B9F081110AC01B
:100F100080915D04882321F080915D0461E009C027
:100F20002F9A0BC080915D04882331F080915D047D
:100F300060E00E94F60B01C02F98FF91EF91BF91E6
:100F4000AF919F918F917F916F915F914F913F9161
:100F50002F910F900BBE0F900FBE0F901F90189502
:100F60001F920F920FB60F9211240BB60F922F9370
:100F70003F934F935F936F937F938F939F93AF9321
:100F8000BF93EF93FF9380915D0287FF05C010929E
:100F900085001092840016C020915D02022E000C84
:100FA000330B8091690590E0281739075CF4309184
:100FB0005D0225E03203F0011124E35DFA4F8081E8
:100FC00086FD15C080915D028F5F80935D02209148
:100FD0005D02022E000C330B8091690590E028170A
:100FE000390794F480915D028C302CF10DC0309162
:100FF0005D023203F0011124E35DFA4F808160E06D
:101000008F730E94F60BDECF809184009091850053
:1010100084349C4918F480E49CE905C080918400E4
:1010200090918500049690938900809388008FEFBB
:1010300080935D022AC040918400509185003091D8
:101040005D0225E03203F0011124E35DFA4F818156
:101050009281840F951F909389008093880030912E
:101060005D023203F0011124E35DFA4F808186FFB7
:101070000CC030915D023203F0011124E35DFA4FA0
:10108000808161E08F730E94F60BFF91EF91BF9119
:10109000AF919F918F917F916F915F914F913F9110
:1010A0002F910F900BBE0F900FBE0F901F901895B1
:1010B00030917702313208F04BC080917502811176
:1010C000FCCF9091520622E02093750221E02093FC
:1010D00074022FEF2093300610922F0630932E06C5
:1010E000E2E3F6E0AEE0B6E020E0321721F0419115
:1010F0004D932F5FFACF10920D0620910D06990F98
:10110000922B90930D0690917302913061F410929E
:10111000730290910D069093BB009091BC0093FDDB
:10112000F8CF95EC01C095EE9093BC0090917502BC
:101130009230E1F3909130069F3F79F08091300634
:10114000803241F080913006803331F084E005C078
:1011500081E003C082E001C083E010927602109229
:10116000770210923106089585ED8093BC0080913E
:10117000BC0084FDFCCF1092750208954091E805F3
:10118000262F30E0240F311D21323105DCF420916F
:1011900075022430C9F4FC0180E090E0861758F411
:1011A0003091E8052191DC01A853BA4FA30FB11D7E
:1011B0002C930196F3CF8091E805680F6093E805C2
:1011C00080E0089581E0089582E0089508950895EB
:1011D0000895E0916E0280916D02E81730F4F0E01E
:1011E000E855FA4F808190E008958FEF9FEF0895C2
:1011F00090916E0280916D02981750F4E92FF0E003
:10120000E855FA4F208130E09F5F90936E0202C054
:101210002FEF3FEFC901089580916D0290E020917A
:101220006E02821B91090895CF92DF92EF92FF9296
:101230000F931F93CF93DF937C01CB018A01209101
:101240003106222389F0EB016B01C40ED51ECC15AB
:10125000DD0569F06991D701ED91FC910190F08174
:10126000E02DC7011995F3CF642F0E94BE08C80175
:10127000DF91CF911F910F91FF90EF90DF90CF9072
:101280000895CF93DF931F92CDB7DEB76983209186
:1012900031062223D1F020917702203240F021E064
:1012A00030E0FC013383228380E090E015C0809120
:1012B0007602E82FF0E0EE5CF94F998190838F5F22
:1012C000809376028093770205C061E0CE0101969B
:1012D0000E94BE0881E090E00F90DF91CF910895C9
:1012E00090E0FC013197E231F10508F04EC088270B
:1012F000EC57FF4F8F4F0C941613809180008F771F
:1013000003C0809180008F7D80938000089580913C
:101310008000877FF9CF84B58F7702C084B58F7D39
:1013200084BD08958091B0008F7703C08091B00094
:101330008F7D8093B0000895809190008F7707C0D3
:10134000809190008F7D03C080919000877F809373
:10135000900008958091A0008F7707C08091A00031
:101360008F7D03C08091A000877F8093A0000895A7
:10137000809120018F7707C0809120018F7D03C06D
:1013800080912001877F809320010895009769F064
:10139000FC0101900020E9F73197AF01481B590B80
:1013A000BC018EEB93E00C94C80180E090E00895BE
:1013B0008F929F92AF92BF920F931F93CF93DF9321
:1013C000CDB7DEB7A1970FB6F894DEBF0FBECDBF85
:1013D00019A2423008F44AE08E010F5D1F4F842E9F
:1013E000912CA12CB12CA50194010E94E812E62FAA
:1013F000B901CA0101501109EA3014F4E05D01C0DD
:10140000E95CD801EC93232B242B252B61F7C80131
:101410000E94C609A1960FB6F894DEBF0FBECDBFDD
:10142000DF91CF911F910F91BF90AF909F908F90C0
:1014300008950F931F93CF93DF93162F072FC1E7C4
:10144000D5E09C8521E020933106909352061092BE
:10145000760210927702AA85BB85ED91FC911197D7
:101460000190F081E02D682FCD0119958A859B852B
:10147000DC01ED91FC910190F081E02D602F199538
:101480008A859B85DC01ED91FC910190F081E02D36
:10149000612F1995DF91CF911F910F910C945808EE
:1014A000FC01248131E030933106209352061092E2
:1014B0007602109277028485682B88E792E00E947A
:1014C00041090C9458080F931F93CF938C01C62F9A
:1014D00064600E94500A6C2F6B7FC8010E94500A02
:1014E00083EC90E00197F1F7CF911F910F91089550
:1014F000FC01A089B1898C91A689B78982FD0FC0B2
:101500009C91818D8F5F8F73228D821749F0218D81
:10151000DF01A20FB11D5D969C93818F08958C9180
:1015200008951F920F920FB60F9211240F900FBEC5
:101530000F901F9018951F920F920FB60F921124C3
:101540000BB60F922F933F934F935F936F937F93BD
:101550008F939F93AF93BF93EF93FF938091B900C5
:10156000887F803609F49CC068F5883209F45BC036
:1015700090F4803109F454C038F4882309F4F6C09B
:10158000883009F44DC0F6C0883109F44CC080326F
:1015900009F45DC0EFC0803409F468C048F48033BA
:1015A00009F455C0883309F0E5C080933006D8C0EF
:1015B000803509F44FC0883509F45DC0883409F0DE
:1015C000D9C0D6C0883909F4C7C0A8F4883709F44F
:1015D00067C038F4883609F463C0803709F460C006
:1015E000C9C0883809F4B8C0803909F45FC08038B0
:1015F00009F0C0C05BC0803B09F486C038F4803A73
:1016000009F466C0883A09F47FC0B4C0803C09F48C
:10161000A7C0883C09F4A4C0883B09F48AC0AAC0CA
:1016200080910D0610C090912F0680912E0698177C
:1016300070F5E0912F0681E08E0F80932F06F0E089
:10164000E25FF94F80818093BB0085EC86C0809378
:1016500030068EC0E0912F0681E08E0F80932F061A
:101660008091BB00F0E0E25FF94F808390912F06FC
:1016700080912E066EC0E0912F0681E08E0F809340
:101680002F068091BB00F0E0E25FF94F80838091EC
:10169000740281116DC081E08093730284EA61C09D
:1016A00083E08093750210920A06CFCF80910A06DC
:1016B000803208F051C0E0910A0681E08E0F8093DD
:1016C0000A068091BB00F0E0E651FA4F8083BDCF5F
:1016D00085EC8093BC001092750280910A068032DE
:1016E00030F4E0910A06F0E0E651FA4F1082609182
:1016F0000A0670E0E0917102F09172028AEE95E0C4
:10170000199510920A0636C084E0809375021092F3
:10171000E9051092E805E0916F02F09170021995C9
:101720008091E805811105C081E08093E805109261
:10173000C805E091E90581E08E0F8093E905F0E0AE
:10174000E853FA4F80818093BB009091E905809126
:10175000E805981708F479CF85E88093BC000AC0A3
:1017600085EC8093BC001092750204C01092300684
:101770000E94B408FF91EF91BF91AF919F918F911B
:101780007F916F915F914F913F912F910F900BBE81
:101790000F900FBE0F901F901895CF93DF93282FB7
:1017A00030E0F901E152FD4F8491F901E756FD4F18
:1017B000D491F901ED5AFD4FC491CC2391F08111E0
:1017C0000E947009EC2FF0E0EE0FFF1FE75CFD4F69
:1017D000A591B491EC91ED2381E090E021F480E0BB
:1017E00002C080E090E0DF91CF9108951F93CF93E6
:1017F000DF93282F30E0F901E152FD4F8491F90188
:10180000E756FD4FD491F901ED5AFD4FC491CC2319
:10181000C1F0162F81110E947009EC2FF0E0EE0F3D
:10182000FF1FE15EFD4FA591B4919FB7F894111190
:1018300004C08C91D095D82302C0EC91DE2BDC93B0
:101840009FBFDF91CF911F910895CF93DF9390E0D9
:10185000FC01E756FD4F2491FC01ED5AFD4F8491A8
:10186000882361F190E0880F991FFC01EB5FFD4F29
:10187000C591D491FC01E15EFD4FA591B491611138
:1018800009C09FB7F8948881209582238883EC91C2
:101890002E230BC0623061F49FB7F8948881322FF9
:1018A000309583238883EC912E2B2C939FBF06C009
:1018B0008FB7F894E8812E2B28838FBFDF91CF91CB
:1018C00008958F929F92AF92BF92CF92DF92EF9244
:1018D000FF926B017C010E94EA044B015C01C11480
:1018E000D104E104F104F1F00E94EA04DC01CB012F
:1018F00088199909AA09BB09883E9340A105B10539
:1019000070F321E0C21AD108E108F10888EE880ED0
:1019100083E0981EA11CB11CC114D104E104F104A0
:1019200019F7DDCFFF90EF90DF90CF90BF90AF9091
:101930009F908F900895789484B5826084BD84B51B
:10194000816084BD85B5826085BD85B5816085BDBA
:1019500080916E00816080936E0010928100809172
:1019600081008260809381008091810081608093FA
:101970008100809180008160809380008091B1001F
:1019800084608093B1008091B00081608093B0004A
:10199000809191008260809391008091910081609C
:1019A000809391008091900081608093900080915D
:1019B000A10082608093A1008091A100816080934A
:1019C000A1008091A00081608093A00080912101FE
:1019D00082608093210180912101816080932101A7
:1019E0008091200181608093200180917A00846041
:1019F00080937A0080917A00826080937A0080914F
:101A00007A00816080937A0080917A008068809368
:101A10007A001092C100E091CE03F091CF0382E0F2
:101A20008083E091CA03F091CB031082E091CC0354
:101A3000F091CD038FEC80831092D603E091D20316
:101A4000F091D30386E08083E091D003F091D1033D
:101A5000808180618083E091D003F091D103808107
:101A600088608083E091D003F091D1038081806809
:101A70008083E091D003F091D10380818F7D8083BA
:101A800061E0809172050E94250C60E080917205F2
:101A90000E94F60B60E0809171050E94250C88E79A
:101AA00092E090937C0580937B0510926E021092D9
:101AB0006D0210927602109277021092750281E008
:101AC000809374021092730261E084E10E94F60B2D
:101AD00061E085E10E94F60B8091B9008E7F8093D2
:101AE000B9008091B9008D7F8093B90088E480931C
:101AF000B80085E48093BC0086EE98E09093700275
:101B000080936F0287EE98E0909372028093710247
:101B100080E090E1A0E0B0E080937E0590937F05A7
:101B2000A0938005B09381058AE090E0A0E0B0E04A
:101B30008093820590938305A0938405B0938505D7
:101B400080E090E0A0E0B0E4809386059093870564
:101B5000A0938805B093890560E070E185E00E945C
:101B6000190A6FE979E380E00E94190AC1E7D5E01C
:101B70008E01712C58E8A52E52E0B52E6EEC862E03
:101B800062E0962E7BECE72E77E0F72EF801948149
:101B90008281898F9A8F61E00E94250C61E08A8D95
:101BA0000E94250CF801908586816E01FDE1CF0E23
:101BB000D11C8D8F9E8F61E00E94250C60E08E8D80
:101BC0000E94250C61E08D8D0E94F60B6FB6F89493
:101BD00080916302811126C0F5018491F401249162
:101BE000E82FF0E0EE0FFF1FEB5FFD4FA591B491E2
:101BF0009C91822F892321F461E085E30E94F60BFA
:101C000061E085E30E94250C8CB580618CBD8CB5AC
:101C100080648CBD61E084E30E94250C61E083E375
:101C20000E94250C809163028F5F809363026FBED8
:101C3000C7010197F1F760E08D8D0E94F60B88E8EF
:101C40000E940E0383E00E940E0361E08D8D0E94CE
:101C5000F60BC7010197F1F7C6010E943304739494
:101C60000F5F1F4F2296F2E07F1290CF06E915E03A
:101C7000CAE9D5E060E0F80181918F010E94250C4E
:101C8000C017D107B9F702E915E08CE9E82E85E025
:101C9000F82E95E0D92E2CE0B22E32E0C32EA9907A
:101CA0008F818C3008F044C061E08A2D0E94250CA1
:101CB0008F81D89EF0011124E35DFA4F9A2D9F7316
:101CC0002081207CA22EA92AA082138214826B2D4F
:101CD0000E940A13FCE08F9FA001112420E030E055
:101CE000BA01620F731FD69EF001D79EF00D11242A
:101CF000E35DFA4F908196FD12C02F5F3F4F2C306D
:101D0000310571F781110BC010928000C0928100E3
:101D10001092850010928400C6BAC0926F00EF81C5
:101D2000DE9EF0011124E35DFA4F808180648083A0
:101D30009D818B81F801828B938B60E00E94250C42
:101D400061E0F80183890E94250C60E0F801838935
:101D50000E94F60B0E5F1F4FEC16FD0609F09FCF99
:101D6000F8941092200189E08093210180E293E0B1
:101D7000909329018093280110922501109224014B
:101D800082E080937300789480935B0410925F04E8
:101D900080915C0460E00E94250C809199050E946E
:101DA000CD0B892B09F4F9C040E050E0BA018AE874
:101DB00095E00E94190340E050E060E070E88CE894
:101DC00095E00E94190364EF71E080E090E00E94CA
:101DD000610C8EE895E00E94330480E995E00E9452
:101DE0003304C12CD12C76018EE895E00E945E046C
:101DF00090958095709561957F4F8F4F9F4F0E9472
:101E0000CB1129E035EC49EE55E40E94C41187FF5F
:101E1000A7C02EEA37E441E65EE3C701B6010E949F
:101E20001E13AB01BC0170588CE895E00E941903A9
:101E30004EEA57E461E67EE38AE895E00E941903E2
:101E400065E070E080E090E00E94610C80E995E040
:101E50000E945E044B015C018EE895E00E945E04E6
:101E60006B017C01C501B4010E94CB1122EB3FE65E
:101E700045E755E40E948B134B015C0166277727E9
:101E8000CB016C197D098E099F090E94CB1122EBB1
:101E90003FE645E755E40E948B1320E030E040EA3E
:101EA00050E40E948B139B01AC01C501B4010E9458
:101EB0001E132EEA37E441E65EE30E942A122DEC5F
:101EC0003CEC4CE45EE30E942A126B017C018EE83C
:101ED00095E00E945E044B015C0166277727CB01E9
:101EE000681979098A099B0997FF09C06DE28EEB91
:101EF00093E00E946F024AE0C501B40101C04AE0CC
:101F00000E94D8098FE392E00E94C6098091920551
:101F1000863308F0865390917B00282F2870977F96
:101F2000922B90937B008770806480937C008091DB
:101F30007A00806480937A0080917A0086FDFCCFDD
:101F4000609178008091790070E0782B80E090E0DB
:101F50004AE00E94D80981E492E00E94C60944CF79
:101F600040E050E0BA018AE895E00E94190340E0A1
:101F700050E060E070E88CE895E00E94190364EF9F
:101F800071E080E090E00E94610C8EE895E00E9494
:101F9000330480E995E00E9433046AE070E080E059
:101FA00090E00E94610C0E94E102F7CE80916A05E8
:101FB00090916B050C94D01410927B0210927A02CF
:101FC00088EE93E0A0E0B0E080937C0290937D02E5
:101FD000A0937E02B0937F0223E132E03093790236
:101FE00020937802109287021092860280938802D2
:101FF00090938902A0938A02B0938B0225E232E08B
:10200000309385022093840245E351E0509391027E
:102010004093900244E351E0509393024093920224
:1020200040E351E0509395024093940241E351E024
:10203000509397024093960242E351E050939902E5
:102040004093980246E351E050939B0240939A02DA
:1020500010929D0210929E0210929F021092A00276
:102060001092240310922303809325039093260358
:10207000A0932703B09328033093220320932103D6
:1020800045ED50E050932E0340932D0344ED50E076
:102090005093300340932F0340ED50E050933203B0
:1020A0004093310341ED50E05093340340933303A8
:1020B00042ED50E0509336034093350346ED50E037
:1020C000509338034093370310923A0310923B0326
:1020D00010923C0310923D031092C1031092C00372
:1020E0008093C2039093C303A093C403B093C5032A
:1020F0003093BF032093BE0385EC90E09093CB0315
:102100008093CA0384EC90E09093CD038093CC033A
:1021100080EC90E09093CF038093CE0381EC90E02D
:102120009093D1038093D00382EC90E09093D303FB
:102130008093D20386EC90E09093D5038093D403F0
:102140001092D7031092D8031092D9031092DA0399
:102150008091070290910802A0910902B0910A02B1
:102160008093920590939305A0939405B093950561
:1021700080910B0290910C02A0910D02B0910E0281
:102180008093960590939705A0939805B093990531
:1021900084E080939A0587E080939B0510929C05CC
:1021A00084EB80939D0586E180939E0588E1809372
:1021B0009F0587E18093A00589E18093A105E091C7
:1021C0006905EC3020F08FEF8093A20510C081E00C
:1021D0008E0F80936905E093A20585E0E89FF001EA
:1021E0001124E35DFA4F88EB9BE092838183E091B9
:1021F0006905EC3020F08FEF8093A30510C081E0DB
:102200008E0F80936905E093A30585E0E89FF001B8
:102210001124E35DFA4F88EB9BE0928381838CE08D
:102220008093710584E28093720586E08093730544
:1022300085E0809374058FE1809375058EE180932E
:10224000760583E28093770582E28093780585E4C2
:102250008093790584E480937A0580E480937D05FA
:1022600010928205109283051092840510928505C4
:1022700010928605109287051092880510928905A4
:10228000E7E5F6E025E137E08FEF9FEFDC01128212
:102290001382148215821682178210861186838714
:1022A0009487A587B6878787908BA18BB28B128680
:1022B0001182108273962E173F0749F78DE090E048
:1022C0000E943814FC011382128287E392E091830A
:1022D0008083118687E2848384E1828784E0838718
:1022E0001486F0935406E09353061092550610920C
:1022F000560685E280935C0410925E0410926B0592
:1023000010926A0510926D0510926C0510926F057F
:1023100010926E0561E070E080E090E00E94591537
:10232000009789F090936B0580936A0510926D0574
:1023300010926C0520916E0530916F05232BC1F42E
:10234000FC01108215C080916A0590916B05009781
:1023500011F00E94D01410926B0510926A05109231
:102360006F0510926E0510926D0510926C05089520
:1023700010926F0510926E0563E472E080916A0519
:1023800090916B050C944C160E94061208F481E0A3
:102390000895E89409C097FB3EF490958095709558
:1023A00061957F4F8F4F9F4F9923A9F0F92F96E9A1
:1023B000BB279395F695879577956795B795F11116
:1023C000F8CFFAF4BB0F11F460FF1BC06F5F7F4FB3
:1023D0008F4F9F4F16C0882311F096E911C07723C5
:1023E00021F09EE8872F762F05C0662371F096E8CE
:1023F000862F70E060E02AF09A95660F771F881F9D
:10240000DAF7880F9695879597F90895990F000840
:10241000550FAA0BE0E8FEEF16161706E807F907B6
:10242000C0F012161306E407F50798F0621B730B51
:10243000840B950B39F40A2661F0232B242B252BD2
:1024400021F408950A2609F4A140A6958FEF811D75
:10245000811D08950E943D120C94AE120E94A0129C
:1024600038F00E94A71220F0952311F00C949712D7
:102470000C949D1211240C94E2120E94BF1270F36E
:10248000959FC1F3950F50E0551F629FF001729F19
:10249000BB27F00DB11D639FAA27F00DB11DAA1F28
:1024A000649F6627B00DA11D661F829F2227B00D75
:1024B000A11D621F739FB00DA11D621F839FA00D00
:1024C000611D221F749F3327A00D611D231F849F50
:1024D000600D211D822F762F6A2F11249F575040A7
:1024E0009AF0F1F088234AF0EE0FFF1FBB1F661F22
:1024F000771F881F91505040A9F79E3F510580F0EB
:102500000C9497120C94E2125F3FE4F3983ED4F3DC
:10251000869577956795B795F795E7959F5FC1F78E
:10252000FE2B880F911D9695879597F9089597F939
:102530009F6780E870E060E008959FEF80EC089569
:1025400000240A9416161706180609060895002492
:102550000A9412161306140605060895092E03940C
:10256000000C11F4882352F0BB0F40F4BF2B11F480
:1025700060FF04C06F5F7F4F8F4F9F4F089557FDDF
:102580009058440F551F59F05F3F71F04795880FE1
:1025900097FB991F61F09F3F79F087950895121678
:1025A00013061406551FF2CF4695F1DF08C0161624
:1025B00017061806991FF1CF8695710561050894D5
:1025C0000895E894BB2766277727CB0197F90895EC
:1025D000A1E21A2EAA1BBB1BFD010DC0AA1FBB1F27
:1025E000EE1FFF1FA217B307E407F50720F0A21B99
:1025F000B30BE40BF50B661F771F881F991F1A9406
:1026000069F760957095809590959B01AC01BD012F
:10261000CF010895991B79E004C0991F961708F01F
:10262000961B881F7A95C9F780950895EE0FFF1FB6
:10263000881F8BBF0790F691E02D19945058BB2747
:10264000AA270E9436130C94AE120E94A01238F0F2
:102650000E94A71220F039F49F3F19F426F40C943D
:102660009D120EF4E095E7FB0C949712E92F0E945F
:10267000BF1258F3BA17620773078407950720F053
:1026800079F4A6F50C94E1120EF4E0950B2EBA2F16
:10269000A02D0B01B90190010C01CA01A001112468
:1026A000FF27591B99F0593F50F4503E68F11A1614
:1026B000F040A22F232F342F4427585FF3CF4695A5
:1026C00037952795A795F0405395C9F77EF41F16C7
:1026D000BA0B620B730B840BBAF09150A1F0FF0F91
:1026E000BB1F661F771F881FC2F70EC0BA0F621F7D
:1026F000731F841F48F4879577956795B795F7956D
:102700009E3F08F0B0CF9395880F08F09927EE0F01
:102710009795879508950E949F130C94AE120E947E
:10272000A71258F00E94A01240F029F45F3F29F050
:102730000C94971251110C94E2120C949D120E9469
:10274000BF1268F39923B1F3552391F3951B550BF1
:10275000BB27AA2762177307840738F09F5F5F4F74
:10276000220F331F441FAA1FA9F335D00E2E3AF0B3
:10277000E0E832D091505040E695001CCAF72BD0CB
:10278000FE2F29D0660F771F881FBB1F261737071C
:102790004807AB07B0E809F0BB0B802DBF01FF274E
:1027A00093585F4F3AF09E3F510578F00C94971282
:1027B0000C94E2125F3FE4F3983ED4F3869577954C
:1027C0006795B795F7959F5FC9F7880F911D969507
:1027D000879597F90895E1E0660F771F881FBB1F63
:1027E000621773078407BA0720F0621B730B840B10
:1027F000BA0BEE1F88F7E09508950E9404146894C0
:10280000B1110C94E21208950E94C71288F09F57EC
:1028100098F0B92F9927B751B0F0E1F0660F771F04
:10282000881F991F1AF0BA95C9F714C0B13091F0FA
:102830000E94E112B1E008950C94E112672F782F05
:102840008827B85F39F0B93FCCF3869577956795BF
:10285000B395D9F73EF490958095709561957F4F2B
:102860008F4F9F4F08950E94061208F48FEF08952E
:102870000F931F93CF93DF938230910510F482E082
:1028800090E0E0911707F091180720E030E0A0E019
:10289000B0E0309719F140815181028113814817CE
:1028A0005907C8F08417950769F4109731F012960C
:1028B0000C93129713961C9327C00093170710933D
:1028C000180722C02115310519F04217530718F4D3
:1028D0009A01BD01EF01DF01F801DBCF21153105C0
:1028E000F9F0281B390B2430310580F48A819B8153
:1028F0006115710521F0FB019383828304C09093DD
:10290000180780931707FE01329644C0FE01E20FBC
:10291000F31F8193919322503109398328833AC060
:102920002091150730911607232B41F420910302C3
:10293000309104023093160720931507209101026D
:10294000309102022115310541F42DB73EB7409177
:10295000050250910602241B350BE0911507F091FA
:102960001607E217F307A0F42E1B3F0B28173907B1
:1029700078F0AC014E5F5F4F2417350748F04E0FDB
:102980005F1F50931607409315078193919302C0E0
:10299000E0E0F0E0CF01DF91CF911F910F9108951A
:1029A000CF93DF93009709F481C0FC013297138223
:1029B0001282A0911707B0911807109781F4208117
:1029C0003181820F931F2091150730911607281728
:1029D000390751F5F0931607E093150767C0ED012D
:1029E00020E030E0CE17DF0740F44A815B819E0192
:1029F00041155105F1F0EA01F5CFD383C28340813F
:102A00005181840F951FC817D90759F4888199817E
:102A1000840F951F0296918380838A819B81938383
:102A200082832115310529F4F0931807E0931707E5
:102A30003DC0E901FB83EA8349915991C40FD51F39
:102A4000EC17FD0761F480819181840F951F029638
:102A5000E90199838883828193819B838A83E0E063
:102A6000F0E012968D919C911397009719F0FD015B
:102A7000DC01F7CF8D919C9111979D012E5F3F4F07
:102A8000820F931F209115073091160728173907D9
:102A900069F4309729F4109218071092170702C0B2
:102AA00013821282B0931607A0931507DF91CF917E
:102AB00008956F927F928F929F92AF92BF92CF9222
:102AC000DF92EF92FF920F931F93CF93DF930097C4
:102AD00089F4CB01DF91CF911F910F91FF90EF907F
:102AE000DF90CF90BF90AF909F908F907F906F902E
:102AF0000C943814FC01E60FF71F9C012250310999
:102B0000E217F30708F4A9C0EC01D9010D911C915B
:102B1000119706171707B0F00530110508F49BC090
:102B2000C80104978617970708F495C00250110949
:102B3000061B170B019311936D937C93CF010E9499
:102B4000D01489C05B01A01AB10A4C01800E911EFD
:102B5000A0911707B0911807612C712CE12CF12C72
:102B6000109709F446C08D919C911197A815B9054D
:102B7000B1F56C0142E0C40ED11CCA14DB0478F13B
:102B80004C018A189B08640142E0C40ED11C1296C5
:102B9000BC9012971396AC91B5E0CB16D10440F0DF
:102BA000B282A38391828082D9016D937C9309C004
:102BB0000E5F1F4F800F911FF90191838083EB2DD2
:102BC000FA2FE114F10431F0D7011396FC93EE9340
:102BD000129741C0F0931807E09317073CC068169E
:102BE000790608F43C017D0112960D90BC91A02D50
:102BF000B7CF809115079091160788169906E1F4D2
:102C000066167706C8F4809101029091020200973F
:102C100041F48DB79EB74091050250910602841B86
:102C2000950BE817F907C8F4F0931607E09315071A
:102C3000F901718360830FC0CB010E9438147C01BD
:102C4000009759F0A801BE010E944316CE010E94D0
:102C5000D014C70104C0CE0102C080E090E0DF9133
:102C6000CF911F910F91FF90EF90DF90CF90BF9089
:102C7000AF909F908F907F906F90089581E090E04B
:102C8000F8940C945316FB01DC0102C001900D92E4
:102C900041505040D8F70895FB01DC0101900D929E
:102CA0000020E1F7089511E0C4E9D1E000E006C09A
:102CB000802FFE010E9416132196011DC539D107F0
:0A2CC00080E00807A9F7F894FFCFA1
:102CCA00FF000019072000363738391B1D1A1C006F
:102CDA00000000410914091603E8080C09F808E97C
:102CEA0008000000006F02C801F201BC02230201C1
:102CFA0002150200000000C504C801160315033BB3
:042D0A00000D0A00AE
:00000001FF
