:100000000C9495010C94C6010C94C6010C94C60185
:100010000C94C6010C94C6010C94C6010C94C60144
:100020000C94C6010C94980D0C94980D0C94980D9A
:100030000C94C6010C94750A0C94C6010C94C6016C
:100040000C94C6010C9429050C94C6010C94C601AD
:100050000C94C6010C94C6010C94C6010C942B0A96
:100060000C94C6010C94E40B0C94BA0B0C94C601CE
:100070000C94C6010C94C6010C94C6010C94C601E4
:100080000C94C6010C94C6010C94C6010C94C601D4
:100090000C94C6010C94C6010C94C6010C94A20DDC
:1000A0000C94C6010C94C6010C94C6010C94C601B4
:1000B0000C94C6010C94C6010C94C6010C947803F0
:1000C0000C94C6010C94C6010C94C6010C94900BC0
:1000D0000C94660B0C94C6010C943C0B0C94120B04
:1000E0000C94C60169026E0273027D02870200034E
:1000F00091029902A102AB02B502BF02CE02D80260
:100100000003E202EC02F602E50CE80CD70CDB0C73
:10011000E10C1F0DEC0CF00CF60CFA0CFE0C040DAF
:10012000080D0C0D1F0D120D160D1A0D0C94D70C89
:100130000C94D8020C94E10C0C941A0D0C94FE0C47
:100140000C94DB0C0C94E80C0C94B5020C94410C50
:100150000C94FA0C0C94BF020C946E0C0C940C0DC5
:100160000C94C8010C94E2020C9473020C949B0C46
:100170000C94E50C0C94660C0C9455090C941C0919
:100180000C9446090C9497090C94F60C0C946E028E
:100190000C94F6020C94EC0C0C94160D0C947D024D
:1001A0000C9405020C9487020C94520C0C94E409F4
:1001B0000C94420C0C9400030C941F0D0C946909D0
:1001C0000C94080D0C94F00C0C945C110C94120D12
:1001D0000C94040D0C9422030C94EC020C946C15FA
:1001E0000C9491020C94400C0C94AB020C94430CB4
:1001F0000C94A1020C9404020C9499020C946902D0
:100200000C94CE020200002100240027002A002DB9
:10021000003000330001010000040107010A010061
:10022000002200250028002B002E0031003400029F
:10023000010000050108010B010000200023002639
:100240000029002C002F00320000010000030106ED
:10025000010901050505050705080808080202024D
:10026000020A0A0808040404040101010101010151
:10027000010303030303030303040707070C0C0C28
:100280000C0C0C0C0C020202020606060606060600
:10029000060B0B0B0B0B0B0B0B010210202008089D
:1002A00010204010204080020102010804020101D8
:1002B00002040810204080804020100804020180C1
:1002C0000402018040201008040201080402010118
:1002D0000204081020408001020408102040800021
:1002E000000A0B02090C0D0E0807030401000000B0
:1002F00000000000000000000000000000000000FE
:1003000000000000000000000000001211100000BA
:1003100000000000000000000000000000000000DD
:100320000000000000006C155C1111241FBECFEF0F
:10033000D1E2DEBFCDBF00E00CBF13E0A0E0B2E031
:10034000E4EBF9E300E00BBF02C007900D92A2308E
:10035000B107D9F728E0A2E0B3E001C01D92AB30AD
:10036000B207E1F711E0C4E9D1E000E006C021974F
:100370000109802FFE010E942819C339D10780E0AE
:100380000807A9F70E9462110C94C81C0C94000085
:10039000FC01918D228D892F90E0805C9F4F821B04
:1003A00091098F7399270895E0E0F0E0199480E0B7
:1003B00090E0892B21F00E948D09811119C080E005
:1003C00090E0892B41F080E090E0892B21F00E94A1
:1003D0000000811110C00E94830981110FC080E0CC
:1003E00090E0892B81F00E94790981110AC008955B
:1003F0000E940000E4CF0E940000EDCF0E94D401D3
:10040000EECF0C9400000895089580E090E00895E8
:100410008F929F92AF92BF92CF92DF92EF92FF9214
:100420000F931F93CF93DF938C016A017B0120E030
:1004300030E04FE753E4C701B6010E94F3174B01C8
:100440005C0120E030E0A9010E94A31A18161CF4F8
:10045000C501B40103C0C501B40190580E945D1AE2
:10046000EB0120E030E0A901C701B6010E94A31A08
:10047000181614F460E001C061E0F80181810E9467
:10048000FD0ECF3FD10509F014F4DD2702C0CFEFF8
:10049000D0E0F801108161E0812F0E942C0F20979D
:1004A00009F4B1C0CF3FD10509F4AFC0E12FF0E0AE
:1004B000E152FD4FE4918E2F90E0FC013197E23143
:1004C000F10508F09DC08827EE58FF4F8F4F0C9420
:1004D000281984B5806884BDC7BDA7C084B5806273
:1004E00084BDC8BDA2C080918000806880938000D8
:1004F000D0938900C093880098C08091800080626A
:1005000080938000D0938B00C0938A008EC080912E
:100510008000886080938000D0938D00C0938C0011
:1005200084C08091B00080688093B000C093B30015
:100530007CC08091B00080628093B000C093B40012
:1005400074C080919000806880939000D09399004F
:10055000C09398006AC08091900080628093900060
:10056000D0939B00C0939A0060C0809190008860F7
:1005700080939000D0939D00C0939C0056C08091C2
:10058000A00080688093A0008091A0008F7B809362
:10059000A000D093A900C093A80047C08091A000FC
:1005A00080628093A000D093AB00C093AA003DC0AE
:1005B0008091A00088608093A000D093AD00C0938C
:1005C000AC0033C080912001806880932001D093DB
:1005D0002901C093280129C0809120018062809365
:1005E0002001D0932B01C0932A011FC080912001CC
:1005F000886080932001D0932D01C0932C0115C0F9
:10060000C038D10514F460E001C061E0812FDF91B2
:10061000CF911F910F91FF90EF90DF90CF90BF90FF
:10062000AF909F908F900C94FD0EDF91CF911F9112
:100630000F91FF90EF90DF90CF90BF90AF909F9081
:100640008F9008950F931F93CF93DF938C01C62F44
:10065000D62FD07FD1606D2F0E94570D6D2FC8010E
:100660000E946A0D80E1C89FB0011124C62FC160AD
:100670006C2FC8010E94570D6C2FC8010E946A0D93
:1006800081E090E0DF91CF911F910F91089540E0BC
:1006900050E0BA018BE197E00E94080240E050E090
:1006A00060E070E88DE197E00C940802FC01848D15
:1006B000DF01A80FB11DA35ABF4F2C91848D90E08C
:1006C00001968F739927848FA689B7892C93A08967
:1006D000B1898C91837080648C93938D848D9813F1
:1006E00006C00288F389E02D80818F7D8083089584
:1006F0001F920F920FB60F9211240BB60F922F93E9
:100700003F934F935F936F937F938F939F93AF9399
:10071000BF93EF93FF938091ED050E94D40E20913B
:10072000F1053091F2052F5F3F4F3093F205209392
:10073000F1059091F005953618F096E09093EC0550
:100740009091EC059430C9F128F4923069F093301F
:10075000D1F05EC0953009F451C0963009F058C010
:1007600091E09093BD0651C0811152C02091F105D6
:100770003091F2052436310508F442C01092BD06CE
:100780001092F0051CC0813009F042C0E091F005E4
:1007900091E09E0F9093F005F0E02091F1053091EB
:1007A000F205EE0FFF1FE451FA4F308727831092B6
:1007B000F2051092F10594E029C0811117C0E09173
:1007C000F00591E09E0F9093F005F0E02091F10587
:1007D0003091F205EE0FFF1FE451FA4F3087278367
:1007E0001092F2051092F10593E010C02091F105EE
:1007F0003091F2052536310558F007C0811108C047
:100800001092F2051092F10503C095E09093EC056B
:100810009091EF059923B9F081110AC08091EE05FE
:10082000882321F08091EE0561E009C02F9A0BC06A
:100830008091EE05882331F08091EE0560E00E9402
:10084000FD0E01C02F98FF91EF91BF91AF919F9145
:100850008F917F916F915F914F913F912F910F9069
:100860000BBE0F900FBE0F901F9018958EBD00000D
:100870000DB407FEFDCF8EB50895CF93DF93EC0145
:1008800060E088810E94FD0E88E90E94360480E0C5
:100890000E94360480E00E94360480E00E94360404
:1008A00080E00E94360461E088810E94FD0E8BE8A2
:1008B00091E00197F1F760E088810E94FD0E80EEE3
:1008C0000E94360461E08881DF91CF910C94FD0E87
:1008D0008F929F92AF92BF92CF92DF92EF92FF9250
:1008E0000F931F93CF93DF93CDB7DEB760970FB60B
:1008F000F894DEBF0FBECDBF7C0160E0FC018081BB
:100900000E94FD0E80E60E9436048E010F5F1F4F8D
:100910006E01F1E1CF0ED11C580180E00E94360437
:1009200090E0A0E0B0E0F50181939193A193B193A1
:100930005F01EC15FD0589F761E0F70180810E94F8
:10094000FD0E812C912C5401F80181919191A1917E
:10095000B1918F01BA2CA92C982C8824880E991E4D
:10096000AA1EBB1EEC15FD0579F7C7010E943D04C8
:1009700066277727CB01681979098A099B09609650
:100980000FB6F894DEBF0FBECDBFDF91CF911F91A0
:100990000F91FF90EF90DF90CF90BF90AF909F901E
:1009A0008F9008950F931F938FE197E00E94680442
:1009B0009B01AC0188279927DC01821B930BA40BB8
:1009C000B50BAC01092E000C660B770B00913703B9
:1009D000109138032091390330913A03400F511F91
:1009E000621F731F4093370350933803609339039A
:1009F00070933A031F910F9108950F931F9381E213
:100A000097E00E946804DC01CB01AC01092E000CC8
:100A1000660B770B00913B0310913C0320913D0343
:100A200030913E03400F511F621F731F40933B03E1
:100A300050933C0360933D0370933E031F910F91CD
:100A400008958FE197E00E943D0481E297E00C94C5
:100A50003D041F920F920FB60F9211240BB60F9206
:100A60002F933F934F935F936F937F938F939F93B6
:100A7000AF93BF93EF93FF9380913F0387FF05C030
:100A8000109285001092840016C020913F03022E20
:100A9000000C330B8091FA0690E0281739075CF4BC
:100AA00030913F0325E03203F0011124E254F94F65
:100AB000808186FD15C080913F038F5F80933F0347
:100AC00020913F03022E000C330B8091FA0690E038
:100AD0002817390794F480913F038C302CF10DC016
:100AE00030913F033203F0011124E254F94F808129
:100AF00060E08F730E94FD0EDECF809184009091A4
:100B0000850084349C4918F480E49CE905C08091F8
:100B100084009091850004969093890080938800CA
:100B20008FEF80933F032AC040918400509185004D
:100B300030913F0325E03203F0011124E254F94FD4
:100B400081819281840F951F909389008093880002
:100B500030913F033203F0011124E254F94F8081B8
:100B600086FF0CC030913F033203F0011124E254A0
:100B7000F94F808161E08F730E94FD0EFF91EF912C
:100B8000BF91AF919F918F917F916F915F914F91A5
:100B90003F912F910F900BBE0F900FBE0F901F90A3
:100BA0001895CF92DF92EF92FF926B017C0120E0CB
:100BB00030E043E353EC0E948D1787FD48C020E0EE
:100BC00030E046E053ECC701B6010E948D1787FD67
:100BD00041C020E030E042EB52ECC701B6010E9478
:100BE0008D1787FD3AC020E030E040E352ECC701AA
:100BF000B6010E948D1787FD33C020E030E048E346
:100C000052E4C701B6010E948D1787FD2CC020E079
:100C100030E046EB52E4C701B6010E948D1787FD14
:100C200025C020E030E048E053E4C701B6010E944F
:100C30008D17082E000C990B8827990F881F99276C
:100C400024E030E0A901481B590BCA0111C08CEF08
:100C50009FEF0EC08DEF9FEF0BC08EEF9FEF08C090
:100C60008FEF9FEF05C081E090E002C082E090E04E
:100C7000FF90EF90DF90CF9008958F929F92AF9268
:100C8000BF92CF92DF92EF92FF921F93CF93DF93A9
:100C90007C01162F0E94210581E01827C12FD0E08A
:100CA0000E94470360914003709141038091420389
:100CB0009091430322E030E040E050E00E94B918F8
:100CC000D7010E94E3184B015C01112329F040E099
:100CD00050E060E07FEB04C040E050E060E07FE384
:100CE000CC0FDD1FCE01855E984F0E940802C12CFB
:100CF000D12C7601C15ED84FC814D904EA04FB0494
:100D0000E4F46EE170E080E090E00E94680F111161
:100D10000BC0CE010E9468049095809570956195F6
:100D20007F4F8F4F9F4F04C081E297E00E9468047D
:100D3000C60ED71EE81EF91EDFCF0E9447036CE2E5
:100D400071E080E090E0DF91CF911F91FF90EF90F4
:100D5000DF90CF90BF90AF909F908F900C94680FD2
:100D6000CF92DF92EF92FF92CF93DF9310923B03EB
:100D700010923C0310923D0310923E0310923703F1
:100D8000109238031092390310923A030E94210501
:100D90004AE959E969E97EEB8DE197E00E94080292
:100DA0004AE959E969E97EEB8BE197E00E94080284
:100DB00064E670E080E090E00E94680F0E94FD040D
:100DC0007C010E94D204EC01B701FF0C880B990B47
:100DD0000E9494176B017C01F7FAF094F7F8F094F5
:100DE000BE01DD0F880B990B0E9494179B01AC018B
:100DF000C701B6010E94AF196B017C019B01AC01D8
:100E00006AE979E989E99EE30E94AF19AB01BC0167
:100E10008BE197E00E94080240913B0350913C0314
:100E200060913D0370913E03809140039091410396
:100E3000A0914203B0914303481759076A077B0703
:100E40005CF56AE070E080E090E00E94680F0E942C
:100E5000FD04EC010E94D204BC01990F880B990B90
:100E60000E9494179058A70196010E94AF196B0138
:100E70007C01BE01DD0F880B990B0E949417A7011E
:100E800096010E94AF196B017C012AE939E949E911
:100E90005EEB0E94F317BACF0E94470360E070E058
:100EA000CB01DF91CF91FF90EF90DF90CF900C942A
:100EB000680F2F923F924F925F926F927F928F9224
:100EC0009F92AF92BF92CF92DF92EF92FF920F93D9
:100ED0001F93CF93DF93CDB7DEB762970FB6F89429
:100EE000DEBF0FBECDBF69837A838B839C8369018C
:100EF0007A018DB79EB79A8B898B20E030E0A901EB
:100F000069817A818B819C810E94A31A18164CF00A
:100F10002DEC822E2CEC922E2CE4A22E2DE3B22E60
:100F200008C09DEC892E9CEC992E9CE4A92E9DEB8B
:100F3000B92E80912F0381111AC020E030E0A90161
:100F400069817A818B819C810E94A31A181624F0F2
:100F5000F7FAF094F7F8F094C0922B03D0922C0398
:100F6000E0922D03F0922E0381E080932F03809175
:100F70002303811117C0A501940160912B03709187
:100F80002C0380912D0390912E030E9442196093AF
:100F90001F0370932003809321039093220381E029
:100FA00080932303EDB7FEB7E059F1400FB6F894F4
:100FB000FEBF0FBEEDBF8DB79EB701965C010E94CC
:100FC0002105C0901F03D0902003E0902103F090F2
:100FD000220340912B0350912C0360912D037091BB
:100FE0002E038BE197E00E940802B701A60170581A
:100FF0008DE197E00E940802BC86AB86312C212C43
:101000001D821E821F82188619861A8662E370E08E
:1010100080E090E00E94680F8FE197E00E946804F2
:10102000442455243201461A570A680A790A81E293
:1010300097E00E9468046D877E878F87988B730185
:101040006201FF0CCC08DC2C76019201A3016C2D0F
:101050007C2D8C2D9C2DA32CB22CCD80DE80EF809E
:10106000F88409851A850E943019322E232E4D836B
:101070005E836F83788789879A87C301B2010E9454
:10108000941720E030E048E452E40E94AF196B016D
:101090007C016D857E858F8598890E94941720E05C
:1010A00030E048E452E40E94AF199B01AC01C70153
:1010B000B6010E9442196B017C0120911B03309103
:1010C0001C0340911D0350911E030E9443192B01E4
:1010D0003C0160931B0370931C0380931D0390934A
:1010E0001E0380901F0390902003A0902103B090D6
:1010F00022032DEC3CEC4CE45DE3C701B6010E94F9
:10110000F3176B017C012FE632E143E05AE3C301A0
:10111000B2010E94F3172B013C019B01AC01C701F6
:10112000B6010E944319EB85FC856193719381930D
:101130009193FC87EB87A7019601C501B4010E943A
:101140004319A30192010E94431960931F037093F6
:1011500020038093210390932203AB01BC017058BC
:101160008DE197E00E94080227E63CEA45E053E45F
:1011700069817A818B819C810E94F3170E94211AD8
:1011800059016A017B018C01232D322D4D815E8135
:101190006F81788589859A850E9439190CF436CF3C
:1011A0000E9447036CE271E080E090E00E94680FCB
:1011B00089899A890FB6F8949EBF0FBE8DBF62963B
:1011C0000FB6F894DEBF0FBECDBFDF91CF911F9158
:1011D0000F91FF90EF90DF90CF90BF90AF909F90D6
:1011E0008F907F906F905F904F903F902F900895D9
:1011F000CF93C82F60913D0770913E0780913F07C4
:10120000909140072DEC3CEC4CE45EE30E945907C2
:101210006C2F82E090E00E943D0660913D07709146
:101220003E0780913F07909140072DEC3CEC4CE449
:101230005EE3CF910C945907CF92DF92EF92FF9229
:101240000F931F93CF93DF936C017A018B01C0E062
:10125000D0E0CE15DF0581F0D8016D918D01D6016A
:10126000ED91FC910190F081E02DC6011995892B3B
:1012700011F02196EECF7E01C701DF91CF911F9132
:101280000F91FF90EF90DF90CF900895FC01538D68
:10129000448D252F30E0842F90E0821B930B541750
:1012A00010F0CF96089501970895FC01918D828DDD
:1012B000981761F0828DDF01A80FB11D5D968C91AA
:1012C000928D9F5F9F73928F90E008958FEF9FEFB5
:1012D0000895FC01918D828D981731F0828DE80F71
:1012E000F11D858D90E008958FEF9FEF08950E9486
:1012F000B31C85E194E00E94C80121E0892B09F428
:1013000020E0822F089582EB94E00E94C80121E042
:10131000892B09F420E0822F08958FE495E00E9444
:10132000C80121E0892B09F420E0822F0895EF9273
:10133000FF920F931F93CF93DF93EC0181E0888F8F
:101340009B8D8C8D981305C0E889F989808185FD76
:1013500026C0F62E0B8D10E00F5F1F4F0F73112765
:10136000E02E8C8DE8120CC00FB607FCFACFE8898E
:10137000F989808185FFF5CFCE010E945603F1CF18
:101380008B8DFE01E80FF11DE35AFF4FF0829FB7EE
:10139000F8940B8FEA89FB89808180620AC09FB72D
:1013A000F894EE89FF896083E889F98980818370E8
:1013B000806480839FBF81E090E0DF91CF911F9197
:1013C0000F91FF90EF900895CF93DF93EC01888DFC
:1013D0008823C9F0EA89FB89808185FD05C0A88939
:1013E000B9898C9186FD0FC00FB607FCF5CF8081BF
:1013F00085FFF2CFA889B9898C9185FFEDCFCE0109
:101400000E945603E7CFDF91CF9108953FB7F8943C
:1014100080914F0390915003A0915103B0915203DA
:1014200026B5A89B05C02F3F19F00196A11DB11D3F
:101430003FBFBA2FA92F982F8827820F911DA11D7A
:10144000B11DBC01CD0142E0660F771F881F991FB7
:101450004A95D1F708951F920F920FB60F9211245B
:101460002F933F938F939F93AF93BF9380914B03A1
:1014700090914C03A0914D03B0914E0330914A03DB
:1014800023E0230F2D3720F40196A11DB11D05C0C7
:1014900026E8230F0296A11DB11D20934A038093D5
:1014A0004B0390934C03A0934D03B0934E03809154
:1014B0004F0390915003A0915103B09152030196B4
:1014C000A11DB11D80934F0390935003A09351032E
:1014D000B0935203BF91AF919F918F913F912F9104
:1014E0000F900FBE0F901F9018951F920F920FB67E
:1014F0000F9211240BB60F922F933F934F935F934C
:101500006F937F938F939F93AF93BF93EF93FF93CB
:101510008091450390914603A0914703B091480301
:10152000892B8A2B8B2B49F19091440380910000E9
:101530008927809300008091450390914603A091F4
:101540004703B0914803181619061A061B060CF03B
:1015500056C08091450390914603A0914703B091F6
:1015600048030197A109B10980934503909346036D
:10157000A0934703B093480342C080910002E4E087
:10158000F2E0E4919FEF90930002E230C9F050F452
:10159000EE2399F0E13081F590916F009D7F90935B
:1015A0006F002AC0E43019F1E0F0E53029F59091A0
:1015B00073009D7F909373001FC010926E001CC03B
:1015C000909170009D7F9093700091E09093B00097
:1015D0009091B100987F94609093B1001092B30005
:1015E0000BC0909171009D7F9093710005C0909108
:1015F00072009D7F9093720060E00E94FD0EFF914B
:10160000EF91BF91AF919F918F917F916F915F917A
:101610004F913F912F910F900BBE0F900FBE0F90E7
:101620001F9018951F920F920FB60F9211240BB6B0
:101630000F922F933F934F935F936F937F938F936B
:101640009F93AF93BF93EF93FF9385E194E00E9444
:101650005603FF91EF91BF91AF919F918F917F9131
:101660006F915F914F913F912F910F900BBE0F9013
:101670000FBE0F901F9018951F920F920FB60F92EA
:1016800011240BB60F922F933F934F935F936F9359
:101690007F938F939F93AF93BF93EF93FF9385E1D6
:1016A00094E00E947F0DFF91EF91BF91AF919F91C8
:1016B0008F917F916F915F914F913F912F910F90FB
:1016C0000BBE0F900FBE0F901F9018951F920F9298
:1016D0000FB60F9211240BB60F922F933F934F9397
:1016E0005F936F937F938F939F93AF93BF93EF938A
:1016F000FF9382EB94E00E945603FF91EF91BF911C
:10170000AF919F918F917F916F915F914F913F9199
:101710002F910F900BBE0F900FBE0F901F9018953A
:101720001F920F920FB60F9211240BB60F922F93A8
:101730003F934F935F936F937F938F939F93AF9359
:10174000BF93EF93FF9382EB94E00E947F0DFF9194
:10175000EF91BF91AF919F918F917F916F915F9129
:101760004F913F912F910F900BBE0F900FBE0F9096
:101770001F9018951F920F920FB60F9211240BB65F
:101780000F922F933F934F935F936F937F938F931A
:101790009F93AF93BF93EF93FF938FE495E00E94E5
:1017A0005603FF91EF91BF91AF919F918F917F91E0
:1017B0006F915F914F913F912F910F900BBE0F90C2
:1017C0000FBE0F901F9018951F920F920FB60F9299
:1017D00011240BB60F922F933F934F935F936F9308
:1017E0007F938F939F93AF93BF93EF93FF938FE478
:1017F00095E00E947F0DFF91EF91BF91AF919F9176
:101800008F917F916F915F914F913F912F910F90A9
:101810000BBE0F900FBE0F901F90189585ED809313
:10182000BC008091BC0084FDFCCF1092E4030895BD
:1018300040919903262F30E0240F311D21323105CC
:10184000DCF42091E4032430C9F4FC0180E090E052
:10185000861758F4309199032191DC01A758BC4FA9
:10186000A30FB11D2C930196F3CF80919903680FBC
:101870006093990380E0089581E0089582E00895DF
:10188000089508950895E091540380915303E81753
:1018900030F4F0E0E75AFC4F808190E008958FEF3C
:1018A0009FEF08959091540380915303981750F43B
:1018B000E92FF0E0E75AFC4F208130E09F5F9093E2
:1018C000540302C02FEF3FEFC901089580915303E5
:1018D00090E020915403821B91090895CF92DF92EA
:1018E000EF92FF920F931F93CF93DF937C01CB0175
:1018F0008A012091E503222389F0EB016B01C40EDC
:10190000D51ECC15DD0569F06991D701ED91FC91EB
:101910000190F081E02DC7011995F3CF642F0E944B
:10192000180CC801DF91CF911F910F91FF90EF909C
:10193000DF90CF900895CF93DF931F92CDB7DEB79E
:1019400069832091E5032223D1F0209108042032FD
:1019500040F021E030E0FC013383228380E090E01E
:1019600015C08091E603E82FF0E0E951FC4F998122
:1019700090838F5F8093E6038093080405C061E045
:10198000CE0101960E94180C81E090E00F90DF914B
:10199000CF91089590E0FC013197E231F10508F014
:1019A0004EC08827EC57FF4F8F4F0C942819809119
:1019B00080008F7703C0809180008F7D80938000AE
:1019C000089580918000877FF9CF84B58F7702C01A
:1019D00084B58F7D84BD08958091B0008F7703C05A
:1019E0008091B0008F7D8093B00008958091900029
:1019F0008F7707C0809190008F7D03C08091900009
:101A0000877F8093900008958091A0008F7707C012
:101A10008091A0008F7D03C08091A000877F80937C
:101A2000A0000895809120018F7707C08091200148
:101A30008F7D03C080912001877F809320010895CE
:101A40000F931F93CF93DF93162F072FC2E0D7E09A
:101A50009C8521E02093E503909307041092E60310
:101A600010920804AA85BB85ED91FC911197019015
:101A7000F081E02D682FCD0119958A859B85DC01C9
:101A8000ED91FC910190F081E02D602F19958A85F0
:101A90009B85DC01ED91FC910190F081E02D612F9F
:101AA0001995DF91CF911F910F910C940011FC01BA
:101AB000248131E03093E503209307041092E6037C
:101AC000109208048485682B89E094E00E949B0CA6
:101AD0000C9400110F931F93CF938C01C62F646059
:101AE0000E94570D6C2F6B7FC8010E94570D83EC2D
:101AF00090E00197F1F7CF911F910F910895FC01AC
:101B0000A089B1898C91A689B78982FD0FC09C916B
:101B1000818D8F5F8F73228D821749F0218DDF01B8
:101B2000A20FB11D5D969C93818F08958C910895AD
:101B30001F920F920FB60F9211240F900FBE0F90AD
:101B40001F9018951F920F920FB60F9211240BB68B
:101B50000F922F933F934F935F936F937F938F9346
:101B60009F93AF93BF93EF93FF938091B900887FCA
:101B7000803609F49CC068F5883209F45BC090F4A3
:101B8000803109F454C038F4882309F4F6C0883051
:101B900009F44DC0F6C0883109F44CC0803209F414
:101BA0005DC0EFC0803409F468C048F4803309F4A4
:101BB00055C0883309F0E5C08093E203D8C0803572
:101BC00009F44FC0883509F45DC0883409F0D9C0E4
:101BD000D6C0883909F4C7C0A8F4883709F467C0AB
:101BE00038F4883609F463C0803709F460C0C9C08E
:101BF000883809F4B8C0803909F45FC0803809F02A
:101C0000C0C05BC0803B09F486C038F4803A09F458
:101C100066C0883A09F47FC0B4C0803C09F4A7C00C
:101C2000883C09F4A4C0883B09F48AC0AAC080910A
:101C3000BF0310C09091E1038091E003981770F505
:101C4000E091E10381E08E0F8093E103F0E0E05446
:101C5000FC4F80818093BB0085EC86C08093E203BB
:101C60008EC0E091E10381E08E0F8093E1038091CB
:101C7000BB00F0E0E054FC4F80839091E103809141
:101C8000E0036EC0E091E10381E08E0F8093E103F9
:101C90008091BB00F0E0E054FC4F80838091E3032F
:101CA00081116DC081E08093BE0384EA61C083E04E
:101CB0008093E4031092BB03CFCF8091BB038032AB
:101CC00008F051C0E091BB0381E08E0F8093BB030D
:101CD0008091BB00F0E0E556FC4F8083BDCF85ECE2
:101CE0008093BC001092E4038091BB03803230F4F7
:101CF000E091BB03F0E0E556FC4F10826091BB031E
:101D000070E0E0915703F09158038BE993E0199547
:101D10001092BB0336C084E08093E40310929A03D0
:101D200010929903E0915503F09156031995809113
:101D30009903811105C081E0809399031092790382
:101D4000E0919A0381E08E0F80939A03F0E0E758C8
:101D5000FC4F80818093BB0090919A0380919903FE
:101D6000981708F479CF85E88093BC000AC085EC09
:101D70008093BC001092E40304C01092E2030E941E
:101D80000E0CFF91EF91BF91AF919F918F917F9139
:101D90006F915F914F913F912F910F900BBE0F90DC
:101DA0000FBE0F901F901895CF93DF93282F30E030
:101DB000F901E152FD4F8491F901E756FD4FD491AD
:101DC000F901ED5AFD4FC491CC2391F081110E948D
:101DD000CA0CEC2FF0E0EE0FFF1FE75CFD4FA59162
:101DE000B491EC91ED2381E090E021F480E002C019
:101DF00080E090E0DF91CF9108951F93CF93DF9320
:101E0000282F30E0F901E152FD4F8491F901E756A6
:101E1000FD4FD491F901ED5AFD4FC491CC23C1F08F
:101E2000162F81110E94CA0CEC2FF0E0EE0FFF1F5D
:101E3000E15EFD4FA591B4919FB7F894111104C0D4
:101E40008C91D095D82302C0EC91DE2BDC939FBF00
:101E5000DF91CF911F910895CF93DF9390E0FC0124
:101E6000E756FD4F2491FC01ED5AFD4F84918823E4
:101E700061F190E0880F991FFC01EB5FFD4FC59168
:101E8000D491FC01E15EFD4FA591B491611109C0AF
:101E90009FB7F8948881209582238883EC912E2324
:101EA0000BC0623061F49FB7F8948881322F30956F
:101EB00083238883EC912E2B2C939FBF06C08FB772
:101EC000F894E8812E2B28838FBFDF91CF9108955E
:101ED0008F929F92AF92BF92CF92DF92EF92FF923A
:101EE0006B017C010E94060A4B015C01C114D10404
:101EF000E104F104F1F00E94060ADC01CB0188192B
:101F00009909AA09BB09883E9340A105B10570F360
:101F100021E0C21AD108E108F10888EE880E83E0BA
:101F2000981EA11CB11CC114D104E104F10419F7DD
:101F3000DDCFFF90EF90DF90CF90BF90AF909F905C
:101F40008F900895009769F0FC0101900020E9F757
:101F50003197AF01481B590BBC018FE495E00C94FD
:101F60001C0980E090E008958F929F92AF92BF92FB
:101F70000F931F93CF93DF93CDB7DEB7A1970FB623
:101F8000F894DEBF0FBECDBF19A2423008F44AE07C
:101F90008E010F5D1F4F842E912CA12CB12CA50119
:101FA00094010E94EB18E62FB901CA0101501109F2
:101FB000EA3014F4E05D01C0E95CD801EC93232B16
:101FC000242B252B61F7C8010E94A20FA1960FB602
:101FD000F894DEBF0FBECDBFDF91CF911F910F915F
:101FE000BF90AF909F908F900895CF93DF930E9402
:101FF000A20FEC0183EF92E00E94A20F8C0F9D1FB5
:10200000DF91CF9108954F925F926F927F928F925E
:102010009F92AF92BF92CF92DF92EF92FF926B01AD
:102020007C019B01AC010E94A81A882319F086EF5D
:1020300092E01AC046015701E894B7F82FEF3FEF3E
:102040004FE75FE7C501B4010E94A81A811110C0D3
:102050002FEF3FEF4FE75FE7C501B4010E948D17F7
:10206000181634F48AEF92E00E94A20F7C0183C01C
:102070002FEF3FEF4FE75FE4C701B6010E94A31ABD
:1020800018161CF48EEF92E0EFCF2FEF3FEF4FE7E3
:102090005FECC701B6010E948D1787FDF3CF20E0EA
:1020A00030E0A901C701B6010E948D1787FF0BC060
:1020B0006DE28FE495E00E9497095C01F7FAF094D5
:1020C000F7F8F09402C0A12CB12C2AE037ED43EAD6
:1020D0005BE3C701B6010E9443192B013C010E943A
:1020E000641A6B017C010E9492179B01AC01C30131
:1020F000B2010E9442192B013C014AE0C701B6011E
:102100000E94B40F7C01EA0CFB1C6EE28FE495E0A8
:102110000E949709E80EF91E20E030E040E251E409
:10212000C301B2010E94F3172B013C010E94641A03
:102130004B01A12CB12C4AE0C501B4010E94B40F9F
:10214000E80EF91EC501B4010E9492179B01AC0173
:10215000C301B2010E94421920E030E040E251E4A4
:102160000E94F3170E94641A80E090E04AE00E9407
:10217000B40FE80EF91E83EF92E00E94A20F8E0DBD
:102180009F1DFF90EF90DF90CF90BF90AF909F90FA
:102190008F907F906F905F904F900895CF92DF92D5
:1021A000EF92FF92CF93DF936C01990FEE08FF0837
:1021B000F7FE13C06DE28FE495E00E949709EC01F1
:1021C00066277727CB016C197D098E099F094AE0A4
:1021D0000E94B40FC80FD91F06C04AE0C701B6015C
:1021E0000E94B40FEC0183EF92E00E94A20F8C0FCB
:1021F0009D1FDF91CF91FF90EF90DF90CF900895DA
:1022000030910804313208F04BC08091E403811111
:10221000FCCF9091070422E02093E40321E0209377
:10222000E3032FEF2093E2031092E1033093E003E6
:10223000E7EEF3E0A0ECB3E020E0321721F04191AB
:102240004D932F5FFACF1092BF032091BF03990FD8
:10225000922B9093BF039091BE03913061F4109242
:10226000BE039091BF039093BB009091BC0093FD7F
:10227000F8CF95EC01C095EE9093BC009091E403EB
:102280009230E1F39091E2039F3F79F08091E20375
:10229000803241F08091E203803331F084E005C068
:1022A00081E003C082E001C083E01092E603109257
:1022B00008041092E50308958091FB069091FC06B6
:1022C0000C94451BCF93DF93CDB7DEB7AC970FB619
:1022D000F894DEBF0FBECDBF789484B5826084BD14
:1022E00084B5816084BD85B5826085BD85B581601A
:1022F00085BD80916E00816080936E001092810098
:102300008091810082608093810080918100816052
:102310008093810080918000816080938000809113
:10232000B10084608093B1008091B000816080939F
:10233000B000809191008260809391008091910023
:1023400081608093910080919000816080939000E3
:102350008091A10082608093A1008091A1008160A2
:102360008093A1008091A00081608093A000809163
:1023700021018260809321018091210181608093FD
:1023800021018091200181608093200180917A0059
:10239000846080937A0080917A00826080937A00D2
:1023A00080917A00816080937A0080917A008068C1
:1023B00080937A001092C100E0915F05F091600572
:1023C00082E08083E0915B05F0915C051082E091F2
:1023D0005D05F0915E058FEC808310926705E091BA
:1023E0006305F091640586E08083E0916105F091DA
:1023F0006205808180618083E0916105F0916205D2
:10240000808188608083E0916105F0916205808120
:1024100080688083E0916105F091620580818F7D05
:10242000808361E0809103070E942C0F60E080911F
:1024300003070E94FD0E60E0809102070E942C0FAE
:1024400089E094E090930D0780930C071092540359
:10245000109253031092E603109208041092E403C2
:1024600081E08093E3031092BE0361E084E10E9467
:10247000FD0E61E085E10E94FD0E8091B9008E7F26
:102480008093B9008091B9008D7F8093B90088E472
:102490008093B80085E48093BC0080E49CE0909336
:1024A00056038093550381E49CE0909358038093F6
:1024B000570380E090E1A0E0B0E080930F07909395
:1024C0001007A0931107B09312078AE090E0A0E0F4
:1024D000B0E08093130790931407A0931507B0936F
:1024E000160780E090E0A0E0B0E480931707909397
:1024F0001807A0931907B0931A0760E070E185E010
:102500000E94200D6FE979E380E00E94200D02E037
:1025100017E0780172E0572EE8E86E2EE2E07E2E9A
:10252000FEEC8F2EF2E09F2EABECCA2EA7E0DA2E47
:10253000D70114969C91149712968C91F801818F73
:10254000928F61E00E942C0F61E0D8015A968C9125
:102550000E942C0FF701908586815801FDE1AF0E96
:10256000B11CD8015D968C935D975E969C9361E05B
:102570000E942C0F60E0F801868D0E942C0F61E014
:10258000D8015D968C910E94FD0E4FB6F894809113
:102590004903811126C0F3018491F4012491E82FAD
:1025A000F0E0EE0FFF1FEB5FFD4FA591B4919C9102
:1025B000822F892321F461E085E30E94FD0E61E012
:1025C00085E30E942C0F8CB580618CBD8CB5806436
:1025D0008CBD61E084E30E942C0F61E083E30E94E4
:1025E0002C0F809149038F5F809349034FBEC60132
:1025F0000197F1F760E0D8015D968C910E94FD0E85
:1026000088E80E94360483E00E94360461E0F80105
:10261000858D0E94FD0EC6010197F1F7C5010E944C
:102620003D045A94FFEFEF1AFF0A0E5F1F4F51103F
:102630007FCF57E2E52E57E0F52E0BE217E060E082
:10264000D7018D917D010E942C0F0E151F05B9F742
:1026500093E2E92E97E0F92E25E0D22E3CE0B32E4E
:1026600042E0C42EF801A1908F0187818C3008F0E0
:1026700048C061E08A2D0E942C0FD80117968C91DA
:10268000D89EF0011124E254F94F9A2D9F732081B6
:10269000207CA22EA92AA082138214826B2D0E9474
:1026A0001C19BCE08B9FA001112420E030E0BA018E
:1026B000620F731FD69EF001D79EF00D1124E254D5
:1026C000F94F908196FD12C02F5F3F4F2C3031059E
:1026D00071F781110BC010928000C092810010929E
:1026E000850010928400C6BAC0926F00D801179678
:1026F000EC91DE9EF0011124E254F94F8081806458
:102700008083F80195818381D70152968C935297EB
:1027100053969C9360E00E942C0F61E0F70183893F
:102720000E942C0F60E0D70153968C910E94FD0E01
:10273000B2E0EB0EF11CE7E00D321E0709F092CF7C
:10274000F8941092200189E08093210180E293E0C7
:102750009093290180932801109225011092240161
:1027600082E08093730078948093EC051092F005DA
:102770008091ED0560E00E942C0F80E090E00E94C7
:10278000B11880930102C0904107D0904207E090B9
:102790004307F090440720E030E048EC54E4C701E0
:1027A000B6010E94F31723E333E343EF50E40E94A2
:1027B000AF190E945D1A60934003709341038093A8
:1027C000420390934303C701B6010E940310809116
:1027D0002A070E94D40E892B91F080E00E94F8080D
:1027E00080E00E94F80860ED77E080E090E00E94D1
:1027F000680F81E00E94F80881E00E94F80880914B
:1028000029070E94D40E892B09F447C18CE692E077
:102810000E94F50F8CE2E8E0F2E0DE0111960190F3
:102820000D928A95E1F78BE090E00E94CE108E0128
:102830000F5F1F4F4801F12CA12CB12C89E892E0C9
:102840000E94F50FC5010E94CE10FF20B9F08BE960
:1028500092E00E94F50FD4016D917D918D919C9134
:102860000E94D10597FF05C060E09195819591097F
:1028700001C061E00E943D06F12C67C0F401C080F8
:10288000D180E280F380A114B10441F134976081DA
:102890007181828193810E94D1058D7F8130910564
:1028A00011F0039649F42091390730913A0740918D
:1028B0003B0750913C0708C020913D0730913E07EF
:1028C00040913F0750914007C701B6010E9443194C
:1028D0006B017C012AE0A216B10429F1D4011496FF
:1028E0006D917D918D919C9117970E94D1058130BA
:1028F000910511F0019649F42091390730913A077A
:1029000040913B0750913C0708C020913D07309112
:102910003E0740913F0750914007C701B6010E9412
:1029200043196B017C0184EA92E00E94F50FC70114
:10293000B6010E9403102DEC3CEC4CEC5EE3C701A9
:10294000B6010E945907FF24F394EFEFAE1ABE0AB6
:10295000F4E08F0E911C2BE0A216B10409F06ECFAB
:1029600080EB92E00E94F50F0E94B006F12C8AE005
:10297000A82EB12C89E892E00E94F50FC5010E94B3
:10298000CE10FF20C9F08BE992E00E94F50FD8012C
:1029900098966D917D918D919C919B970E94D10508
:1029A00097FF05C061E091958195910901C060E0B4
:1029B0000E943D06F12C67C0F801C0A4D1A4E2A496
:1029C000F3A4FAE0AF16B10449F1D8019C966D91D9
:1029D0007D918D919C919F970E94D1058D7F813033
:1029E000910511F0039649F42091390730913A0787
:1029F00040913B0750913C0708C020913D07309122
:102A00003E0740913F0750914007C701B6010E9421
:102A100043196B017C01A114B10419F1F80164A1FF
:102A200075A186A197A10E94D1058130910511F071
:102A3000019649F42091390730913A0740913B07BC
:102A400050913C0708C020913D0730913E074091CE
:102A50003F0750914007C701B6010E9443196B011F
:102A60007C0184EA92E00E94F50FC701B6010E9442
:102A700003102DEC3CEC4CEC5EE3C701B6010E9468
:102A80005907FF24F39421E0A21AB1080450110958
:102A90008FEFA816B80609F06DCF809128070E9425
:102AA000D40E892B21F08AEB92E00E94F50F8091E1
:102AB00027070E94D40E892B31F086ED92E00E9408
:102AC000F50F0E94B0066AE070E080E090E00E949E
:102AD000680F0E94D7017BCE10920C0410920B0459
:102AE00088EE93E0A0E0B0E080930D0490930E0494
:102AF000A0930F04B093100420E432E030930A0452
:102B0000209309041092180410921704809319045A
:102B100090931A04A0931B04B0931C0422E532E0A6
:102B2000309316042093150445E351E0509322049A
:102B30004093210444E351E0509324044093230440
:102B400040E351E0509326044093250441E351E0D3
:102B5000509328044093270442E351E050932A0401
:102B60004093290446E351E050932C0440932B04F6
:102B700010922E0410922F041092300410923104FF
:102B80001092B5041092B4048093B6049093B704E5
:102B9000A093B804B093B9043093B3042093B20463
:102BA00045ED50E05093BF044093BE0444ED50E027
:102BB0005093C1044093C00440ED50E05093C304CF
:102BC0004093C20441ED50E05093C5044093C404C7
:102BD00042ED50E05093C7044093C60446ED50E0E8
:102BE0005093C9044093C8041092CB041092CC04B3
:102BF0001092CD041092CE041092520510925105FD
:102C00008093530590935405A0935505B0935605B2
:102C10003093500520934F0585EC90E090935C0530
:102C200080935B0584EC90E090935E0580935D0556
:102C300080EC90E09093600580935F0581EC90E0DC
:102C4000909362058093610582EC90E09093640517
:102C50008093630586EC90E090936605809365050C
:102C6000109268051092690510926A0510926B0522
:102C70008091340290913502A0913602B0913702D2
:102C80008093230790932407A0932507B0932607EA
:102C90008091380290913902A0913A02B0913B02A2
:102CA0008093270790932807A0932907B0932A07BA
:102CB00084E080932B0787E080932C0710922D07E8
:102CC00084EB80932E0786E180932F0788E1809321
:102CD000300787E18093310789E180933207E091E3
:102CE000FA06EC3020F08FEF8093330710C081E0BC
:102CF0008E0F8093FA06E093330785E0E89FF0019A
:102D00001124E254F94F88EB9BE092838183E09198
:102D1000FA06EC3020F08FEF8093340710C081E08A
:102D20008E0F8093FA06E093340785E0E89FF00168
:102D30001124E254F94F88EB9BE0928381838CE06D
:102D40008093020784E28093030786E08093040760
:102D500085E0809305078FE1809306078EE18093DD
:102D6000070783E28093080782E28093090785E4DE
:102D700080930A0784E480930B0780E480930E0716
:102D8000109213071092140710921507109216074D
:102D900010921707109218071092190710921A072D
:102DA000E9E4F7E027E038E08FEF9FEFDC011282E3
:102DB00013821482158216821782108611868387E9
:102DC0009487A587B6878787908BA18BB28B128655
:102DD0001182108273962E173F0749F78DE090E01D
:102DE0000E94AD1AFC011382128284E692E0918364
:102DF0008083118687E2848384E1828784E08387ED
:102E00001486F0934607E093450710924707109207
:102E1000480785E28093ED051092EF051092FC06BD
:102E20001092FB061092FE061092FD06109200070B
:102E30001092FF0661E070E080E090E00E94CE1BFF
:102E4000009791F09093FC068093FB061092FE068B
:102E50001092FD062091FF0630910007232B09F008
:102E60004FC0FC0110824CC08091FB069091FC0683
:102E7000009711F00E94451B1092FC061092FB0671
:102E8000109200071092FF061092FE061092FD06A7
:102E900080910102813429F02DEC3CEC40E951E4B1
:102EA00004C02AE939E941E951E42093410730930C
:102EB0004207409343075093440760E070E084E387
:102EC00092E40E94421920E030E040E05FE30E947B
:102ED000F31760933D0770933E0780933F079093ED
:102EE00040072DEC33E144ED5EE30E94F31760935D
:102EF000390770933A0780933B0790933C070895F6
:102F0000109200071092FF0665EF72E08091FB06B9
:102F10009091FC060E94C11CBBCF0E94CF1708F401
:102F200081E00895E89409C097FB3EF49095809560
:102F3000709561957F4F8F4F9F4F9923A9F0F92F7F
:102F400096E9BB279395F695879577956795B795FD
:102F5000F111F8CFFAF4BB0F11F460FF1BC06F5FE3
:102F60007F4F8F4F9F4F16C0882311F096E911C0F5
:102F7000772321F09EE8872F762F05C0662371F016
:102F800096E8862F70E060E02AF09A95660F771F2A
:102F9000881FDAF7880F9695879597F90895990F06
:102FA0000008550FAA0BE0E8FEEF16161706E80713
:102FB000F907C0F012161306E407F50798F0621B34
:102FC000730B840B950B39F40A2661F0232B242B09
:102FD000252B21F408950A2609F4A140A6958FEF28
:102FE000811D811D08950E9406180C9477180E9477
:102FF000691838F00E94701820F0952311F00C9495
:1030000060180C94661811240C94AB180E94881850
:1030100070F3959FC1F3950F50E0551F629FF0012B
:10302000729FBB27F00DB11D639FAA27F00DB11D44
:10303000AA1F649F6627B00DA11D661F829F2227CD
:10304000B00DA11D621F739FB00DA11D621F839F54
:10305000A00D611D221F749F3327A00D611D231F2A
:10306000849F600D211D822F762F6A2F11249F5778
:1030700050409AF0F1F088234AF0EE0FFF1FBB1F7B
:10308000661F771F881F91505040A9F79E3F51053A
:1030900080F00C9460180C94AB185F3FE4F3983EFA
:1030A000D4F3869577956795B795F795E7959F5FE4
:1030B000C1F7FE2B880F911D9695879597F9089576
:1030C00097F99F6780E870E060E008959FEF80ECDB
:1030D000089500240A94161617061806090608957E
:1030E00000240A9412161306140605060895092EE4
:1030F0000394000C11F4882352F0BB0F40F4BF2B53
:1031000011F460FF04C06F5F7F4F8F4F9F4F089592
:1031100057FD9058440F551F59F05F3F71F0479588
:10312000880F97FB991F61F09F3F79F0879508956D
:10313000121613061406551FF2CF4695F1DF08C08C
:10314000161617061806991FF1CF869571056105A9
:1031500008940895E894BB2766277727CB0197F951
:103160000895F999FECF92BD81BDF89A992780B54F
:103170000895052E97FB1EF400940E94D01857FD69
:1031800007D00E94EB1807FC03D04EF40C94D01823
:1031900050954095309521953F4F4F4F5F4F089583
:1031A00090958095709561957F4F8F4F9F4F0895B3
:1031B0000E940D19A59F900DB49F900DA49F800DA6
:1031C000911D11240895B7FF0C94D8180E94D818A7
:1031D000821B930B0895A1E21A2EAA1BBB1BFD01B3
:1031E0000DC0AA1FBB1FEE1FFF1FA217B307E407E6
:1031F000F50720F0A21BB30BE40BF50B661F771F3E
:10320000881F991F1A9469F760957095809590951D
:103210009B01AC01BD01CF010895A29FB001B39FF6
:10322000C001A39F700D811D1124911DB29F700DCF
:10323000811D1124911D0895991B79E004C0991FE7
:10324000961708F0961B881F7A95C9F78095089500
:10325000EE0FFF1F881F8BBF0790F691E02D19948A
:103260002A0D3B1D4C1D5D1D6E1D7F1D801F911F76
:1032700008952A153B054C055D056E057F05800701
:10328000910708955058BB27AA270E945A190C94F9
:1032900077180E94691838F00E94701820F039F4ED
:1032A0009F3F19F426F40C9466180EF4E095E7FBA2
:1032B0000C946018E92F0E94881858F3BA17620717
:1032C00073078407950720F079F4A6F50C94AA18E3
:1032D0000EF4E0950B2EBA2FA02D0B01B901900131
:1032E0000C01CA01A0011124FF27591B99F0593F75
:1032F00050F4503E68F11A16F040A22F232F342FBD
:103300004427585FF3CF469537952795A795F0400A
:103310005395C9F77EF41F16BA0B620B730B840B1F
:10332000BAF09150A1F0FF0FBB1F661F771F881FD7
:10333000C2F70EC0BA0F621F731F841F48F487952F
:1033400077956795B795F7959E3F08F0B0CF939521
:10335000880F08F09927EE0F9795879508950E949A
:10336000C3190C9477180E94701858F00E946918BD
:1033700040F029F45F3F29F00C94601851110C942F
:10338000AB180C9466180E94881868F39923B1F35F
:10339000552391F3951B550BBB27AA27621773077B
:1033A000840738F09F5F5F4F220F331F441FAA1F0F
:1033B000A9F335D00E2E3AF0E0E832D091505040CB
:1033C000E695001CCAF72BD0FE2F29D0660F771F79
:1033D000881FBB1F261737074807AB07B0E809F05F
:1033E000BB0B802DBF01FF2793585F4F3AF09E3FE4
:1033F000510578F00C9460180C94AB185F3FE4F31F
:10340000983ED4F3869577956795B795F7959F5F26
:10341000C9F7880F911D9695879597F90895E1E072
:10342000660F771F881FBB1F621773078407BA07D1
:1034300020F0621B730B840BBA0BEE1F88F7E0952C
:103440000895BEE304D008F490E80895BFE322276E
:103450003327A9010E94901860F19F5748F1B917CE
:1034600040F1BFE3B91B9927B8503AF4660F771FB4
:10347000881F991FB395D2F316C0B8504AF0232F76
:10348000342F452F562F672F782F8827B850BAF73B
:10349000B85F49F086957795679557954795379525
:1034A0002795BA95B9F716F40E94931A889408954F
:1034B000889460E070E0CB0108950E94641A6894DB
:1034C000B1110C94AB1808950E94901888F09F5782
:1034D00098F0B92F9927B751B0F0E1F0660F771F38
:1034E000881F991F1AF0BA95C9F714C0B13091F02E
:1034F0000E94AA18B1E008950C94AA18672F782F9B
:103500008827B85F39F0B93FCCF3869577956795F2
:10351000B395D9F73EF490958095709561957F4F5E
:103520008F4F9F4F08959095809570956095509519
:103530004095309521953F4F4F4F5F4F6F4F7F4FD5
:103540008F4F9F4F08950E94CF1708F48FEF089573
:103550000E94CF17880B990B08950F931F93CF9359
:10356000DF938230910510F482E090E0E091090849
:10357000F0910A0820E030E0A0E0B0E0309719F1C7
:10358000408151810281138148175907C8F084177F
:10359000950769F4109731F012960C9312971396D1
:1035A0001C9327C00093090810930A0822C0211514
:1035B000310519F04217530718F49A01BD01EF01C4
:1035C000DF01F801DBCF21153105F9F0281B390B9C
:1035D0002430310580F48A819B816115710521F0C9
:1035E000FB019383828304C090930A0880930908A7
:1035F000FE01329644C0FE01E20FF31F81939193C6
:1036000022503109398328833AC02091070830912C
:103610000808232B41F420910402309105023093D5
:103620000808209307082091020230910302211517
:10363000310541F42DB73EB7409106025091070283
:10364000241B350BE0910708F0910808E217F307F7
:10365000A0F42E1B3F0B2817390778F0AC014E5F02
:103660005F4F2417350748F04E0F5F1F509308082F
:10367000409307088193919302C0E0E0F0E0CF010E
:10368000DF91CF911F910F910895CF93DF93009712
:1036900009F481C0FC01329713821282A0910908BB
:1036A000B0910A08109781F420813181820F931F15
:1036B00020910708309108082817390751F5F09331
:1036C0000808E093070867C0ED0120E030E0CE175E
:1036D000DF0740F44A815B819E0141155105F1F0FD
:1036E000EA01F5CFD383C28340815181840F951FB6
:1036F000C817D90759F488819981840F951F0296BC
:10370000918380838A819B819383828321153105F4
:1037100029F4F0930A08E09309083DC0E901FB830E
:10372000EA8349915991C40FD51FEC17FD0761F445
:1037300080819181840F951F0296E9019983888386
:10374000828193819B838A83E0E0F0E012968D91E1
:103750009C911397009719F0FD01DC01F7CF8D9133
:103760009C9111979D012E5F3F4F820F931F2091D7
:103770000708309108082817390769F4309729F4A9
:1037800010920A081092090802C013821282B093A4
:103790000808A0930708DF91CF9108956F927F9258
:1037A0008F929F92AF92BF92CF92DF92EF92FF9251
:1037B0000F931F93CF93DF93009789F4CB01DF9191
:1037C000CF911F910F91FF90EF90DF90CF90BF901E
:1037D000AF909F908F907F906F900C94AD1AFC01EA
:1037E000E60FF71F9C0122503109E217F30708F496
:1037F000A9C0EC01D9010D911C911197061717076B
:10380000B0F00530110508F49BC0C8010497861775
:10381000970708F495C002501109061B170B019376
:1038200011936D937C93CF010E94451B89C05B016E
:10383000A01AB10A4C01800E911EA0910908B09106
:103840000A08612C712CE12CF12C109709F446C068
:103850008D919C911197A815B905B1F56C0142E0C5
:10386000C40ED11CCA14DB0478F14C018A189B08E1
:10387000640142E0C40ED11C1296BC9012971396BC
:10388000AC91B5E0CB16D10440F0B282A383918213
:103890008082D9016D937C9309C00E5F1F4F800F0A
:1038A000911FF90191838083EB2DFA2FE114F1042C
:1038B00031F0D7011396FC93EE93129741C0F09329
:1038C0000A08E09309083CC06816790608F43C0130
:1038D0007D0112960D90BC91A02DB7CF8091070865
:1038E0009091080888169906E1F466167706C8F4E0
:1038F0008091020290910302009741F48DB79EB728
:103900004091060250910702841B950BE817F907B6
:10391000C8F4F0930808E0930708F9017183608305
:103920000FC0CB010E94AD1A7C01009759F0A8018D
:10393000BE010E94B81CCE010E94451BC70104C0F5
:10394000CE0102C080E090E0DF91CF911F910F91F6
:10395000FF90EF90DF90CF90BF90AF909F908F90AF
:103960007F906F90089581E090E0F8940C94C81CCB
:10397000FB01DC0102C001900D9241505040D8F78C
:103980000895FB01DC0101900D920020E1F70895FC
:1039900011E0C4E9D1E000E006C0802FFE010E94E2
:1039A00028192196011DC539D10780E00807A9F71C
:0439B000F894FFCFB9
:1039B400FF4900000B0820000000C8420000B4C208
:1039C400000034420000B44200008242000034424D
:1039D400000016430000B4C20000D041000034428D
:1039E4000000F042363738391B1D1A1C0000000055
:1039F4009B0C6E0C0502420C660C520C430C00002E
:103A0400000097091C094609E409C8015509690918
:103A14000000000022031C090502040243656369D7
:103A240020657374206C6520746573742069734217
:103A3400756D70657228322900496E646578202896
:103A4400C3A9746170652920232000526F746174C6
:103A5400696F6E004176616E636572206465200053
:103A640044656D692D746F757200436563692065E3
:103A74007374206C65207465737420697342756D6A
:103A84007065722830004365636920657374206C27
:103A940065207465737420697342756D706572284E
:103AA4003129000D0A006E616E00696E66006F7642
:023AB4006600AA
:00000001FF
