:100000000C9495010C94C6010C94C6010C94C60185
:100010000C94C6010C94C6010C94C6010C94C60144
:100020000C94C6010C942C0F0C942C0F0C942C0FD8
:100030000C94C6010C94090C0C94C6010C94C601D6
:100040000C94C6010C945E050C94C6010C94C60178
:100050000C94C6010C94C6010C94C6010C94BF0B01
:100060000C94C6010C94780D0C944E0D0C94C601A2
:100070000C94C6010C94C6010C94C6010C94C601E4
:100080000C94C6010C94C6010C94C6010C94C601D4
:100090000C94C6010C94C6010C94C6010C94360F46
:1000A0000C94C6010C94C6010C94C6010C94C601B4
:1000B0000C94C6010C94C6010C94C6010C94EF027A
:1000C0000C94C6010C94C6010C94C6010C94240D2A
:1000D0000C94FA0C0C94C6010C94D00C0C94A60C45
:1000E0000C94C6010E041304180422042C04A50465
:1000F00036043E04460450045A04640473047D0428
:10010000A504870491049B04790E7C0E6B0E6F0E80
:10011000750EB30E800E840E8A0E8E0E920E980E01
:100120009C0EA00EB30EA60EAA0EAE0E0C941804D2
:100130000C9491040C94D7010C94EB010C94980E40
:100140000C9480020C945A040C94D50D0C949B04CE
:100150000C9436040C946B0E0C947D040C94F901F1
:100160000C94B30E0C94FB120C946F0E0C94D40DE3
:100170000C948A0E0C9435020C949C0E0C94920EE6
:100180000C94AE0E0C9446040C94A00E0C94790EB4
:100190000C9422040C9464040C94AA0E0C94C801D0
:1001A0000C94D60D0C94D70D0C94A60E0C9413043D
:1001B0000C9439020C942F0E0C943E040C943602CD
:1001C0000C9487040C94CD020C94500B0C94800E6C
:1001D0000C94FA0D0C94A5040C94020E0C947C0E55
:1001E0000C940E040C9450040C94750E0C948E0E0A
:1001F0000C942C040C9473040C94AA160C94E60D25
:100200000C94840E0200002100240027002A002DF7
:10021000003000330001010000040107010A010061
:10022000002200250028002B002E0031003400029F
:10023000010000050108010B010000200023002639
:100240000029002C002F00320000010000030106ED
:10025000010901050505050705080808080202024D
:10026000020A0A0808040404040101010101010151
:10027000010303030303030303040707070C0C0C28
:100280000C0C0C0C0C020202020606060606060600
:10029000060B0B0B0B0B0B0B0B010210202008089D
:1002A00010204010204080020102010804020101D8
:1002B00002040810204080804020100804020180C1
:1002C0000402018040201008040201080402010118
:1002D0000204081020408001020408102040800021
:1002E000000A0B02090C0D0E0807030401000000B0
:1002F00000000000000000000000000000000000FE
:1003000000000000000000000000001211100000BA
:1003100000000000000000000000000000000000DD
:10032000000000000000AA16FB1211241FBECFEF30
:10033000D1E2DEBFCDBF00E00CBF12E0A0E0B2E032
:10034000EEEAFBE300E00BBF02C007900D92A63F70
:10035000B107D9F727E0A6EFB2E001C01D92AB3F8D
:10036000B207E1F711E0C4E9D1E000E006C021974F
:100370000109802FFE010E94251AC339D10780E0B0
:100380000807A9F70E9401130C94C51D0C940000E6
:10039000FC01538D448D252F30E0842F90E0821B8B
:1003A000930B541710F0CF96089501970895FC0110
:1003B000918D828D981761F0828DDF01A80FB11D9C
:1003C0005D968C91928D9F5F9F73928F90E00895C0
:1003D0008FEF9FEF0895FC01918D828D981731F07A
:1003E000828DE80FF11D858D90E008958FEF9FEFCE
:1003F0000895FC01918D228D892F90E0805C9F4FA4
:10040000821B91098F7399270895E0E0F0E0199419
:1004100080E090E0892B21F00E94900B811119C09F
:1004200080E090E0892B41F080E090E0892B21F082
:100430000E940000811110C00E94860B81110FC024
:1004400080E090E0892B81F00E947C0B81110AC032
:1004500008950E940000E4CF0E940000EDCF0E94AA
:100460000502EECF0C9400000895089580E090E01E
:1004700008950F931F93CF93DF938C01C62FD62F30
:10048000D07FD1606D2F0E94EB0E6D2FC8010E94AE
:10049000FE0E80E1C89FB0011124C62FC1606C2FF1
:1004A000C8010E94EB0E6C2FC8010E94FE0E81E075
:1004B00090E0DF91CF911F910F910895FC01848D01
:1004C000DF01A80FB11DA35ABF4F2C91848D90E07E
:1004D00001968F739927848FA689B7892C93A08959
:1004E000B1898C91837080648C93938D848D9813E3
:1004F00006C00288F389E02D80818F7D8083089576
:10050000EF92FF920F931F93CF93DF93EC0181E063
:10051000888F9B8D8C8D981305C0E889F98980811F
:1005200085FD26C0F62E0B8D10E00F5F1F4F0F7359
:100530001127E02E8C8DE8120CC00FB607FCFACF05
:10054000E889F989808185FFF5CFCE010E945E029E
:10055000F1CF8B8DFE01E80FF11DE35AFF4FF082C2
:100560009FB7F8940B8FEA89FB89808180620AC06B
:100570009FB7F894EE89FF896083E889F9898081C3
:100580008370806480839FBF81E090E0DF91CF9192
:100590001F910F91FF90EF900895CF93DF93EC019F
:1005A000888D8823C9F0EA89FB89808185FD05C093
:1005B000A889B9898C9186FD0FC00FB607FCF5CFCD
:1005C000808185FFF2CFA889B9898C9185FFEDCF15
:1005D000CE010E945E02E7CFDF91CF9108951F9276
:1005E0000F920FB60F9211240BB60F922F933F93D9
:1005F0004F935F936F937F938F939F93AF93BF932B
:10060000EF93FF938091E9050E9468102091ED051A
:100610003091EE052F5F3F4F3093EE052093ED05AF
:100620009091EC05953618F096E09093E80590913E
:10063000E8059430C9F128F4923069F09330D1F094
:100640005EC0953009F451C0963009F058C091E071
:100650009093B90651C0811152C02091ED0530919F
:10066000EE052436310508F442C01092B906109206
:10067000EC051CC0813009F042C0E091EC0591E02E
:100680009E0F9093EC05F0E02091ED053091EE0582
:10069000EE0FFF1FE851FA4F308727831092EE05C7
:1006A0001092ED0594E029C0811117C0E091EC058E
:1006B00091E09E0F9093EC05F0E02091ED053091D4
:1006C000EE05EE0FFF1FE851FA4F30872783109297
:1006D000EE051092ED0593E010C02091ED053091EC
:1006E000EE052536310558F007C0811108C010927B
:1006F000EE051092ED0503C095E09093E80590910A
:10070000EB059923B9F081110AC08091EA0588238D
:1007100021F08091EA0561E009C02F9A0BC0809119
:10072000EA05882331F08091EA0560E00E9491108B
:1007300001C02F98FF91EF91BF91AF919F918F9141
:100740007F916F915F914F913F912F910F900BBED1
:100750000F900FBE0F901F9018958F929F92AF929F
:10076000BF92CF92DF92EF92FF920F931F93CF939E
:10077000DF938C016A017B0120E030E04FE753E416
:10078000C701B6010E94F8184B015C0120E030E07F
:10079000A9010E94A01B18161CF4C501B40103C0D6
:1007A000C501B40190580E945A1BEB0120E030E0D3
:1007B000A901C701B6010E94A01B181614F460E03D
:1007C00001C061E0F80181810E949110CF3FD10505
:1007D00009F014F4DD2702C0CFEFD0E0F80110815A
:1007E00061E0812F0E94C010209709F4B1C0CF3F73
:1007F000D10509F4AFC0E12FF0E0E152FD4FE491E3
:100800008E2F90E0FC013197E231F10508F09DC098
:100810008827EE58FF4F8F4F0C94251A84B58068B7
:1008200084BDC7BDA7C084B5806284BDC8BDA2C059
:1008300080918000806880938000D0938900C0936D
:10084000880098C080918000806280938000D0935F
:100850008B00C0938A008EC0809180008860809356
:100860008000D0938D00C0938C0084C08091B00034
:1008700080688093B000C093B3007CC08091B000CA
:1008800080628093B000C093B40074C080919000E7
:10089000806880939000D0939900C09398006AC0BC
:1008A00080919000806280939000D0939B00C093D1
:1008B0009A0060C080919000886080939000D093EF
:1008C0009D00C0939C0056C08091A00080688093DA
:1008D000A0008091A0008F7B8093A000D093A900FE
:1008E000C093A80047C08091A00080628093A000C0
:1008F000D093AB00C093AA003DC08091A000886057
:100900008093A000D093AD00C093AC0033C0809121
:100910002001806880932001D0932901C093280191
:1009200029C080912001806280932001D0932B0107
:10093000C0932A011FC0809120018860809320010C
:10094000D0932D01C0932C0115C0C038D10514F4EB
:1009500060E001C061E0812FDF91CF911F910F9185
:10096000FF90EF90DF90CF90BF90AF909F908F90CF
:100970000C949110DF91CF911F910F91FF90EF9008
:10098000DF90CF90BF90AF909F908F9008958EBDD5
:1009900000000DB407FEFDCF8EB50895CF93DF9311
:1009A000EC0160E088810E94911088E90E94C704F0
:1009B00080E00E94C70480E00E94C70480E00E949B
:1009C000C70480E00E94C70461E088810E94911002
:1009D0008BE891E00197F1F760E088810E94911027
:1009E00080EE0E94C70461E08881DF91CF910C9472
:1009F0009110AF92BF92CF92DF92EF92FF920F933E
:100A00001F93CF93DF93CDB7DEB760970FB6F894FF
:100A1000DEBF0FBECDBF5C0160E0FC0180810E94A3
:100A2000911080E60E94C7048E010F5F1F4F7E0168
:100A3000F1E1EF0EF11C680180E00E94C70490E034
:100A4000A0E0B0E0F60181939193A193B1936F017F
:100A5000EE15FF0589F761E0F50180810E94911094
:100A600080E090E0DC01F801419151916191719138
:100A70008F01BA2FA92F982F8827840F951FA61FA3
:100A8000B71FEE15FF0579F79C01AD0166277727A3
:100A9000CB01621B730B840B950B60960FB6F89419
:100AA000DEBF0FBECDBFDF91CF911F910F91FF90A1
:100AB000EF90DF90CF90BF90AF9008951F920F926C
:100AC0000FB60F9211240BB60F922F933F934F93B3
:100AD0005F936F937F938F939F93AF93BF93EF93A6
:100AE000FF938091330387FF05C010928500109219
:100AF000840016C020913303022E000C330B80912A
:100B0000F60690E0281739075CF43091330325E0AE
:100B10003203F0011124E654F94F808186FD15C09F
:100B2000809133038F5F8093330320913303022E30
:100B3000000C330B8091F60690E02817390794F4E7
:100B4000809133038C302CF10DC03091330332038C
:100B5000F0011124E654F94F808160E08F730E9408
:100B60009110DECF809184009091850084349C495F
:100B700018F480E49CE905C0809184009091850080
:100B8000049690938900809388008FEF80933303BD
:100B90002AC040918400509185003091330325E0B4
:100BA0003203F0011124E654F94F81819281840FC0
:100BB000951F90938900809388003091330332030E
:100BC000F0011124E654F94F808186FF0CC030916A
:100BD00033033203F0011124E654F94F808161E0C0
:100BE0008F730E949110FF91EF91BF91AF919F91F0
:100BF0008F917F916F915F914F913F912F910F90C6
:100C00000BBE0F900FBE0F901F901895CF92DF92E2
:100C1000EF92FF928BE197E00E94F9046B017C0157
:100C20008BE197E00E94CE0488279927DC018C197C
:100C30009D09AE09BF09AC01092E000C660B770BAC
:100C4000C0903803D0903903E0903A03F0903B0312
:100C50004C0D5D1D6E1D7F1D40933803509339036D
:100C600060933A0370933B03FF90EF90DF90CF9037
:100C70000895CF92DF92EF92FF928DE197E00E946C
:100C8000F9046B017C018DE197E00E94CE04C6015E
:100C90000D2C000CAA0BBB0B40913C0350913D0363
:100CA00060913E0370913F03840F951FA61FB71FED
:100CB00080933C0390933D03A0933E03B0933F0386
:100CC000C601FF90EF90DF90CF90089540E050E094
:100CD000BA0187E197E00E94AD0340E050E060E098
:100CE00070E889E197E00C94AD038BE197E00E94F6
:100CF000CE048DE197E00C94CE044F925F926F92F8
:100D00007F928F929F92AF92BF92CF92DF92EF929B
:100D1000FF920F931F93CF93DF937C01162F0E94B6
:100D2000750681E01827C12FD0E00E946606609109
:100D3000340370913503809136039091370322E09C
:100D400030E040E050E00E94B619D7010E94E0195F
:100D50002B013C01112329F040E050E060E07FEBE3
:100D600004C040E050E060E07FE3CC0FDD1FCE0127
:100D7000895E984F0E94AD03812C912C5401C55E71
:100D8000D84F84149504A604B7045CF56EE170E0B6
:100D900080E090E00E94FC10111110C0CE010E9472
:100DA000F9046B017C01CE010E94CE0488279927AB
:100DB000DC018C199D09AE09BF090EC08DE197E0D9
:100DC0000E94F904062FD72E7C018DE197E00E9446
:100DD000CE04802F9D2DD701880E991EAA1EBB1E02
:100DE000D0CF0E94660662E370E080E090E0DF9181
:100DF000CF911F910F91FF90EF90DF90CF90BF9018
:100E0000AF909F908F907F906F905F904F900C94D9
:100E1000FC102F923F924F925F926F927F928F922F
:100E20009F92AF92BF92CF92DF92EF92FF920F9379
:100E30001F93CF93DF93CDB7DEB7C651D4400FB623
:100E4000F894DEBF0FBECDBFCF5EDB4F68837983E2
:100E50008A839B83C151D4408DB79EB7CB5EDB4F55
:100E600099838883C551D44080912B0381110BC095
:100E700020932703309328034093290350932A0398
:100E800081E080932B0380911F03811119C02DEC09
:100E90003CEC4CEC5CE3609127037091280380915B
:100EA000290390912A030E94401A60931B037093B8
:100EB0001C0380931D0390931E0381E080931F0306
:100EC000ADB7BEB7A059B1400FB6F894BEBF0FBEC4
:100ED000ADBF8DB79EB70196FE01EF56FE4FC351D1
:100EE000DC4FF983E883CD5ED3409E012F5D3C4FFC
:100EF000CB50DC4F39832883C55FD340DE01A75A2E
:100F0000BD4FC950DC4FB983A883C75FD340E85CAD
:100F1000F109C151DC4FF983E883CF5ED340205201
:100F20003340CF50DC4F39832883C15FD340CD504D
:100F3000DC4F99838883C35FD340C55FDB4F9983C0
:100F40008883CB50D440C75FDB4F39832883C95097
:100F5000D440CB5FDB4FF983E883C550D440C95FF1
:100F6000DB4FB983A883C750D440CB50DC4F888176
:100F70009981C55FD340CF5FDB4F99838883C15090
:100F8000D440C351DC4FA881B981CD5ED340CD5F41
:100F9000DB4FB983A883C350D440212C312CC750D8
:100FA000DC4F1882C95FD340C650DC4F1882CA5F3D
:100FB000D340C550DC4F1882CB5FD340C450DC4FC8
:100FC0001882CC5FD340C350DC4F1882CD5FD34032
:100FD000C250DC4F1882CE5FD340C150DC4F188224
:100FE000CF5FD340C050DC4F1882C050D4400E9425
:100FF0007506C0901B03D0901C03E0901D03F09079
:101000001E0340912703509128036091290370919A
:101010002A0387E197E00E94AD03B701A60170584B
:1010200089E197E00E94AD0368EC70E080E090E019
:101030000E94FC108BE197E00E94F904442455249F
:101040003201461A570A680A790A8DE197E00E9430
:10105000F904C751DC4F688379838A839B83C95E17
:10106000D34073016201FF0CCC08DC2C76019201A5
:10107000A3016C2D7C2D8C2D9C2DC750DC4FA8809E
:10108000C95FD340C650DC4FB880CA5FD340C5505B
:10109000DC4FC880CB5FD340C450DC4FD880CC5FDE
:1010A000D340C350DC4FE880CD5FD340C250DC4F0B
:1010B000F880CE5FD340C150DC4F0881CF5FD34072
:1010C000C050DC4F1881C050D4400E942D1AC75028
:1010D000DC4F2883C95FD340C650DC4F3883CA5FDA
:1010E000D340C550DC4F4883CB5FD340C450DC4F66
:1010F0005883CC5FD340C350DC4F6883CD5FD3406F
:10110000C250DC4F7883CE5FD340C150DC4F888320
:10111000CF5FD340C050DC4F9883C050D4408FE3A2
:1011200092E00E946B12C301B2010E946D1283E42F
:1011300092E00E946B12C751DC4F688179818A81ED
:101140009B81C95ED3400E946D120E944811C30169
:10115000B2010E94991820E030E048E453E40E9474
:10116000AC1A6B017C01C751DC4F688179818A819F
:101170009B81C95ED3400E94991820E030E048E48A
:1011800053E40E94AC1A9B01AC01C701B6010E9456
:101190003F1A4B015C01609317037093180380930F
:1011A000190390931A032091130330911403409173
:1011B0001503509116030E94401A6B017C01609345
:1011C00013037093140380931503909316032091D7
:1011D0000F03309110034091110350911203C50188
:1011E000B4010E943F1A2B013C0120E23CEB4EEB84
:1011F0005CE4C501B4010E94F8182DEC3CEC4CE411
:101200005DE30E94F8180E945A1BCD5FDB4FE88116
:10121000F981C350D44061937193CD5FDB4FF98363
:10122000E883C350D44020E030E04AE754E46091C2
:101230002703709128038091290390912A030E942B
:10124000F8180E945A1BCF5FDB4FA881B981C150AB
:10125000D4406D937D93CF5FDB4FB983A883C1509A
:10126000D44080911B0390911C03A0911D03B09169
:101270001E03C751DC4F88839983AA83BB83C95E51
:10128000D34020E030E04AE754E4BC01CD010E94A5
:10129000F8180E945A1BC95FDB4FA881B981C7505B
:1012A000D4406D937D93C95FDB4FB983A883C7504A
:1012B000D44020E23CEB4EEB5CE4C701B6010E9457
:1012C000F8182FE632E143E05AE30E94F8180E9432
:1012D0005A1BCB5FDB4FE881F981C550D440619345
:1012E0007193CB5FDB4FF983E883C550D44020E294
:1012F0003CEB4EEB5CE4C301B2010E94F81825EB15
:101300003EEF46E957E30E94F8180E945A1BC75F58
:10131000DB4FA881B981C950D4406D937D93C75FDD
:10132000DB4FB983A883C950D4402DEC3CEC4CE48E
:101330005DE3C501B4010E94F818C35FDB4F688309
:1013400079838A839B83CD50D4402FE632E143E0FA
:101350005AE3C701B6010E94F8186B017C0125EB26
:101360003EEF46E957E3C301B2010E94F8182B0192
:101370003C01A7019601C35FDB4F688179818A81B7
:101380009B81CD50D4400E94401AA30192010E943B
:10139000401AC55FDB4FE881F981CB50D44061939F
:1013A000719381939193C55FDB4FF983E883CB50B1
:1013B000D440FFEF2F1A3F0AC35FDB4F28813981EA
:1013C0004A815B81CD50D440C751DC4F688179811F
:1013D0008A819B81C95ED3400E94401AA701960171
:1013E0000E94401AA30192010E94401A60931B03BD
:1013F00070931C0380931D0390931E03AB01BC01EB
:10140000705889E197E00E94AD0380920F0390929B
:101410001003A0921103B092120327E63CEA45E0C4
:1014200053E4CF5EDB4F688179818A819B81C15112
:10143000D4400E94F8180E941E1B59016A017B01CA
:101440008C01C750DC4F2881C95FD340C650DC4FA8
:101450003881CA5FD340C550DC4F4881CB5FD34051
:10146000C450DC4F5881CC5FD340C350DC4F6881FF
:10147000CD5FD340C250DC4F7881CE5FD340C150A6
:10148000DC4F8881CF5FD340C050DC4F9881C05083
:10149000D4400E94361A0CF4AACD0E9466068BE452
:1014A00092E00E944C11E12CF12C8FE392E00E941B
:1014B0006B12CB50DC4FA881B981C55FD3408D91B1
:1014C0009D91CB50DC4FB983A883C55FD3400E9468
:1014D000991283E492E00E946B12C950DC4FE881BC
:1014E000F981C75FD34081919191C950DC4FF98355
:1014F000E883C75FD3400E9499120E944811FFEF12
:10150000EF1AFF0A2E143F0481F68FE592E00E9445
:101510004C11E12CF12C81E792E00E946B12C35137
:10152000DC4FA881B981CD5ED3408D919D91C3518F
:10153000DC4FB983A883CD5ED3400E94991285E722
:1015400092E00E946B12C151DC4FE881F981CF5EBD
:10155000D34081919191C151DC4FF983E883CF5EF3
:10156000D3400E94991283E492E00E946B12CF5004
:10157000DC4FA881B981C15FD3408D919D91CF503F
:10158000DC4FB983A883C15FD3400E9499128DE7D5
:1015900092E00E946B12CD50DC4FE881F981C35F6D
:1015A000D3406191719181919191CD50DC4FF9833C
:1015B000E883C35FD34020E030E543EC57E40E946A
:1015C000F81842E00E9499110E944811FFEFEF1AAB
:1015D000FF0A2E143F0409F09ECF62E370E080E022
:1015E00090E00E94FC10CB5EDB4F28813981C55111
:1015F000D4400FB6F8943EBF0FBE2DBFCA5EDB4F7E
:101600000FB6F894DEBF0FBECDBFDF91CF911F9113
:101610000F91FF90EF90DF90CF90BF90AF909F9091
:101620008F907F906F905F904F903F902F90089594
:10163000CF93C82F2DEC3CEC4CE45EE366E676E6F7
:1016400086E591E40E9409076C2F82E090E00E94F9
:101650007D062DEC3CEC4CE45EE366E676E686E542
:1016600091E4CF910C940907CF93C82F2DEC3CEC5B
:101670004CE45EE362E67DE981EB90E40E940907B9
:101680006C2F81E090E00E947D062DEC3CEC4CE458
:101690005EE362E67DE981EB90E4CF910C9409076B
:1016A000CF92DF92EF92FF920F931F93CF93DF932E
:1016B0006C017A018B01C0E0D0E0CE15DF0581F02E
:1016C000D8016D918D01D601ED91FC910190F081D1
:1016D000E02DC6011995892B11F02196EECF7E01E0
:1016E000C701DF91CF911F910F91FF90EF90DF9095
:1016F000CF9008950E94B01D81E194E00E94F9010D
:1017000021E0892B09F420E0822F08958EEA94E0ED
:101710000E94F90121E0892B09F420E0822F08952D
:101720008BE495E00E94F90121E0892B09F420E087
:10173000822F08953FB7F89480914B0390914C030A
:10174000A0914D03B0914E0326B5A89B05C02F3F35
:1017500019F00196A11DB11D3FBFBA2FA92F982FD7
:101760008827820F911DA11DB11DBC01CD0142E052
:10177000660F771F881F991F4A95D1F708951F920A
:101780000F920FB60F9211242F933F938F939F9335
:10179000AF93BF938091470390914803A091490371
:1017A000B0914A033091460323E0230F2D3720F4F4
:1017B0000196A11DB11D05C026E8230F0296A11DAB
:1017C000B11D209346038093470390934803A09351
:1017D0004903B0934A0380914B0390914C03A0912D
:1017E0004D03B0914E030196A11DB11D80934B0393
:1017F00090934C03A0934D03B0934E03BF91AF91D0
:101800009F918F913F912F910F900FBE0F901F903E
:1018100018951F920F920FB60F9211240BB60F92CC
:101820002F933F934F935F936F937F938F939F93E8
:10183000AF93BF93EF93FF93809141039091420345
:10184000A0914303B0914403892B8A2B8B2B49F140
:10185000909140038091000089278093000080913F
:10186000410390914203A0914303B09144031816A1
:1018700019061A061B060CF056C080914103909180
:101880004203A0914303B09144030197A109B10918
:101890008093410390934203A0934303B093440386
:1018A00042C080910002E4E0F2E0E4919FEF909367
:1018B0000002E230C9F050F4EE2399F0E13081F5F6
:1018C00090916F009D7F90936F002AC0E43019F1D2
:1018D000E0F0E53029F5909173009D7F90937300BF
:1018E0001FC010926E001CC0909170009D7F90935D
:1018F000700091E09093B0009091B100987F946057
:101900009093B1001092B3000BC0909171009D7F35
:101910009093710005C0909172009D7F909372002A
:1019200060E00E949110FF91EF91BF91AF919F9164
:101930008F917F916F915F914F913F912F910F9078
:101940000BBE0F900FBE0F901F9018951F920F9215
:101950000FB60F9211240BB60F922F933F934F9314
:101960005F936F937F938F939F93AF93BF93EF9307
:10197000FF9381E194E00E945E02FF91EF91BF919D
:10198000AF919F918F917F916F915F914F913F9117
:101990002F910F900BBE0F900FBE0F901F901895B8
:1019A0001F920F920FB60F9211240BB60F922F9326
:1019B0003F934F935F936F937F938F939F93AF93D7
:1019C000BF93EF93FF9381E194E00E94130FFF9187
:1019D000EF91BF91AF919F918F917F916F915F91A7
:1019E0004F913F912F910F900BBE0F900FBE0F9014
:1019F0001F9018951F920F920FB60F9211240BB6DD
:101A00000F922F933F934F935F936F937F938F9397
:101A10009F93AF93BF93EF93FF938EEA94E00E945E
:101A20005E02FF91EF91BF91AF919F918F917F9156
:101A30006F915F914F913F912F910F900BBE0F903F
:101A40000FBE0F901F9018951F920F920FB60F9216
:101A500011240BB60F922F933F934F935F936F9385
:101A60007F938F939F93AF93BF93EF93FF938EEAF0
:101A700094E00E94130FFF91EF91BF91AF919F915E
:101A80008F917F916F915F914F913F912F910F9027
:101A90000BBE0F900FBE0F901F9018951F920F92C4
:101AA0000FB60F9211240BB60F922F933F934F93C3
:101AB0005F936F937F938F939F93AF93BF93EF93B6
:101AC000FF938BE495E00E945E02FF91EF91BF913E
:101AD000AF919F918F917F916F915F914F913F91C6
:101AE0002F910F900BBE0F900FBE0F901F90189567
:101AF0001F920F920FB60F9211240BB60F922F93D5
:101B00003F934F935F936F937F938F939F93AF9385
:101B1000BF93EF93FF938BE495E00E94130FFF9127
:101B2000EF91BF91AF919F918F917F916F915F9155
:101B30004F913F912F910F900BBE0F900FBE0F90C2
:101B40001F90189585ED8093BC008091BC0084FDAA
:101B5000FCCF1092E003089540919503262F30E0CA
:101B6000240F311D21323105DCF42091E0032430B3
:101B7000C9F4FC0180E090E0861758F43091950399
:101B80002191DC01AB58BC4FA30FB11D2C930196E2
:101B9000F3CF80919503680F6093950380E00895DB
:101BA00081E0089582E00895089508950895E091F0
:101BB000500380914F03E81730F4F0E0EB5AFC4FEC
:101BC000808190E008958FEF9FEF089590915003EA
:101BD00080914F03981750F4E92FF0E0EB5AFC4F37
:101BE000208130E09F5F9093500302C02FEF3FEFC2
:101BF000C901089580914F0390E020915003821B0A
:101C000091090895CF92DF92EF92FF920F931F9365
:101C1000CF93DF937C01CB018A012091E103222342
:101C200089F0EB016B01C40ED51ECC15DD0569F002
:101C30006991D701ED91FC910190F081E02DC701F0
:101C40001995F3CF642F0E94AC0DC801DF91CF919D
:101C50001F910F91FF90EF90DF90CF900895CF9359
:101C6000DF931F92CDB7DEB769832091E103222372
:101C7000D1F020910404203240F021E030E0FC015A
:101C80003383228380E090E015C08091E203E82F47
:101C9000F0E0ED51FC4F998190838F5F8093E203D8
:101CA0008093040405C061E0CE0101960E94AC0D52
:101CB00081E090E00F90DF91CF91089590E0FC01DA
:101CC0003197E231F10508F04EC08827EC57FF4FFD
:101CD0008F4F0C94251A809180008F7703C08091DC
:101CE00080008F7D80938000089580918000877FA1
:101CF000F9CF84B58F7702C084B58F7D84BD0895F8
:101D00008091B0008F7703C08091B0008F7D809369
:101D1000B0000895809190008F7707C08091900067
:101D20008F7D03C080919000877F809390000895FD
:101D30008091A0008F7707C08091A0008F7D03C0A5
:101D40008091A000877F8093A0000895809120015A
:101D50008F7707C0809120018F7D03C08091200183
:101D6000877F8093200108950F931F93CF93DF9374
:101D7000162F072FCEEFD6E09C8521E02093E103BC
:101D8000909303041092E20310920404AA85BB8589
:101D9000ED91FC9111970190F081E02D682FCD011C
:101DA00019958A859B85DC01ED91FC910190F0816C
:101DB000E02D602F19958A859B85DC01ED91FC91C2
:101DC0000190F081E02D612F1995DF91CF911F9146
:101DD0000F910C949F12FC01248131E03093E103B8
:101DE000209303041092E203109204048485682B6C
:101DF00085E094E00E942F0E0C949F120F931F9386
:101E0000CF938C01C62F64600E94EB0E6C2F6B7F0A
:101E1000C8010E94EB0E83EC90E00197F1F7CF919F
:101E20001F910F910895FC01A089B1898C91A68919
:101E3000B78982FD0FC09C91818D8F5F8F73228D3A
:101E4000821749F0218DDF01A20FB11D5D969C9391
:101E5000818F08958C9108951F920F920FB60F9263
:101E600011240F900FBE0F901F9018951F920F9284
:101E70000FB60F9211240BB60F922F933F934F93EF
:101E80005F936F937F938F939F93AF93BF93EF93E2
:101E9000FF938091B900887F803609F49CC068F573
:101EA000883209F45BC090F4803109F454C038F4EE
:101EB000882309F4F6C0883009F44DC0F6C0883193
:101EC00009F44CC0803209F45DC0EFC0803409F4DD
:101ED00068C048F4803309F455C0883309F0E5C080
:101EE0008093DE03D8C0803509F44FC0883509F4EB
:101EF0005DC0883409F0D9C0D6C0883909F4C7C09C
:101F0000A8F4883709F467C038F4883609F463C048
:101F1000803709F460C0C9C0883809F4B8C0803976
:101F200009F45FC0803809F0C0C05BC0803B09F491
:101F300086C038F4803A09F466C0883A09F47FC054
:101F4000B4C0803C09F4A7C0883C09F4A4C0883B15
:101F500009F48AC0AAC08091BB0310C09091DD0330
:101F60008091DC03981770F5E091DD0381E08E0F1E
:101F70008093DD03F0E0E454FC4F80818093BB004C
:101F800085EC86C08093DE038EC0E091DD0381E0A6
:101F90008E0F8093DD038091BB00F0E0E454FC4F92
:101FA00080839091DD038091DC036EC0E091DD03BE
:101FB00081E08E0F8093DD038091BB00F0E0E4545C
:101FC000FC4F80838091DF0381116DC081E080939D
:101FD000BA0384EA61C083E08093E0031092B70300
:101FE000CFCF8091B703803208F051C0E091B703A2
:101FF00081E08E0F8093B7038091BB00F0E0E9563B
:10200000FC4F8083BDCF85EC8093BC001092E00331
:102010008091B703803230F4E091B703F0E0E956E5
:10202000FC4F10826091B70370E0E0915303F09190
:10203000540387E993E019951092B70336C084E002
:102040008093E0031092960310929503E091510360
:10205000F0915203199580919503811105C081E09B
:102060008093950310927503E091960381E08E0FA3
:1020700080939603F0E0EB58FC4F80818093BB0087
:102080009091960380919503981708F479CF85E88D
:102090008093BC000AC085EC8093BC001092E003E2
:1020A00004C01092DE030E94A20DFF91EF91BF9138
:1020B000AF919F918F917F916F915F914F913F91E0
:1020C0002F910F900BBE0F900FBE0F901F90189581
:1020D000CF93DF93282F30E0F901E152FD4F849137
:1020E000F901E756FD4FD491F901ED5AFD4FC49126
:1020F000CC2391F081110E945E0EEC2FF0E0EE0FE8
:10210000FF1FE75CFD4FA591B491EC91ED2381E0B9
:1021100090E021F480E002C080E090E0DF91CF9178
:1021200008951F93CF93DF93282F30E0F901E152F8
:10213000FD4F8491F901E756FD4FD491F901ED5A15
:10214000FD4FC491CC23C1F0162F81110E945E0E69
:10215000EC2FF0E0EE0FFF1FE15EFD4FA591B49173
:102160009FB7F894111104C08C91D095D82302C068
:10217000EC91DE2BDC939FBFDF91CF911F910895EF
:10218000CF93DF9390E0FC01E756FD4F2491FC01D3
:10219000ED5AFD4F8491882361F190E0880F991FDB
:1021A000FC01EB5FFD4FC591D491FC01E15EFD4F59
:1021B000A591B491611109C09FB7F89488812095C9
:1021C00082238883EC912E230BC0623061F49FB789
:1021D000F8948881322F309583238883EC912E2BBD
:1021E0002C939FBF06C08FB7F894E8812E2B2883CD
:1021F0008FBFDF91CF9108958F929F92AF92BF9240
:10220000CF92DF92EF92FF926B017C010E949A0BBA
:102210004B015C01C114D104E104F104F1F00E940E
:102220009A0BDC01CB0188199909AA09BB09883EE0
:102230009340A105B10570F321E0C21AD108E1086D
:10224000F10888EE880E83E0981EA11CB11CC11411
:10225000D104E104F10419F7DDCFFF90EF90DF9096
:10226000CF90BF90AF909F908F900895009769F0A6
:10227000FC0101900020E9F73197AF01481B590B91
:10228000BC018BE495E00C94500B80E090E0089545
:1022900087EE92E00C943611CF93DF930E943611B3
:1022A000EC010E9448118C0F9D1FDF91CF91089582
:1022B0008F929F92AF92BF920F931F93CF93DF9312
:1022C000CDB7DEB7A1970FB6F894DEBF0FBECDBF76
:1022D00019A2423008F44AE08E010F5D1F4F842E90
:1022E000912CA12CB12CA50194010E94E819E62F94
:1022F000B901CA0101501109EA3014F4E05D01C0CE
:10230000E95CD801EC93232B242B252B61F7C80122
:102310000E943611A1960FB6F894DEBF0FBECDBF56
:10232000DF91CF911F910F91BF90AF909F908F90B1
:1023300008958F929F92AF92BF92CF92DF92EF92C9
:10234000FF920F931F93CF93DF936B017C01142FA8
:102350009B01AC010E94A51B882319F08AEE92E034
:1023600027C046015701E894B7F82FEF3FEF4FE73A
:102370005FE7C501B4010E94A51B81110DC02FEFBD
:102380003FEF4FE75FE7C501B4010E9492181816AE
:102390001CF48EEE92E00CC02FEF3FEF4FE75FE4AE
:1023A000C701B6010E94A01B181684F482EF92E0C8
:1023B000DF91CF911F910F91FF90EF90DF90CF9021
:1023C000BF90AF909F908F900C9436112FEF3FEFFE
:1023D0004FE75FECC701B6010E94921887FDE6CF78
:1023E00020E030E0A901C701B6010E94921887FFE2
:1023F0000BC06DE28BE495E00E948002EC01F7FADD
:10240000F094F7F8F09402C0C0E0D0E000E060E0A3
:1024100070E080E09FE3101741F020E030E040E200
:1024200051E40E94AC1A0F5FF6CFA70196010E94FB
:10243000401A6B017C010E94611B4B015C014AE068
:102440000E945811C80FD91F1123B9F1C501B40159
:102450000E9497189B01AC01C701B6010E943F1A68
:102460006B017C016EE28BE495E00E948002C80F54
:10247000D91F20E030E040E251E4C701B6010E94DC
:10248000F8184B015C010E94611B6B01E12CF12CDF
:102490004AE0C701B6010E945811C80FD91FC701F1
:1024A000B6010E9497189B01AC01C501B4010E94BE
:1024B0003F1A6B017C011150E1F6CE01DF91CF9103
:1024C0001F910F91FF90EF90DF90CF90BF90AF9052
:1024D0009F908F9008950C943611CF92DF92EF92D7
:1024E000FF92CF93DF9397FF1BC06B017C016DE2DE
:1024F0008BE495E00E948002EC0166277727CB01F0
:102500006C197D098E099F094AE00E9458118C0FB1
:102510009D1FDF91CF91FF90EF90DF90CF900895B6
:102520004AE0DF91CF91FF90EF90DF90CF900C9435
:102530005811BC01990F880B990B0C946D123091B6
:102540000404313208F04BC08091E0038111FCCFCC
:102550009091030422E02093E00321E02093DF0325
:102560002FEF2093DE031092DD033093DC03E3EEC4
:10257000F3E0ACEBB3E020E0321721F041914D9352
:102580002F5FFACF1092BB032091BB03990F922BC0
:102590009093BB039091BA03913061F41092BA0307
:1025A0009091BB039093BB009091BC0093FDF8CF3A
:1025B00095EC01C095EE9093BC009091E0039230B1
:1025C000E1F39091DE039F3F79F08091DE0380324A
:1025D00041F08091DE03803331F084E005C081E07A
:1025E00003C082E001C083E01092E2031092040471
:1025F0001092E10308958091F7069091F8060C94EB
:10260000421C789484B5826084BD84B5816084BDA9
:1026100085B5826085BD85B5816085BD80916E0080
:10262000816080936E0010928100809181008260B1
:1026300080938100809181008160809381008091EE
:1026400080008160809380008091B10084608093DD
:10265000B1008091B00081608093B00080919100C2
:1026600082608093910080919100816080939100BD
:10267000809190008160809390008091A1008260A1
:102680008093A1008091A10081608093A10080913E
:10269000A00081608093A0008091210182608093DE
:1026A000210180912101816080932101809120018D
:1026B00081608093200180917A00846080937A0009
:1026C00080917A00826080937A0080917A008160A4
:1026D00080937A0080917A00806880937A001092CB
:1026E000C100E0915B05F0915C0582E08083E091A0
:1026F0005705F09158051082E0915905F0915A055F
:102700008FEC808310926305E0915F05F091600586
:1027100086E08083E0915D05F0915E0580818061B7
:102720008083E0915D05F0915E0580818860808303
:10273000E0915D05F0915E05808180688083E09185
:102740005D05F0915E0580818F7D808361E08091E1
:10275000FF060E94C01060E08091FF060E94911069
:1027600060E08091FE060E94C01085E094E09093A6
:102770000907809308071092500310924F0310929C
:10278000E203109204041092E00381E08093DF03DF
:102790001092BA0361E084E10E94911061E085E14A
:1027A0000E9491108091B9008E7F8093B900809132
:1027B000B9008D7F8093B90088E48093B80085E4E8
:1027C0008093BC0084ED9DE090935203809351036D
:1027D00085ED9DE0909354038093530380E090E156
:1027E000A0E0B0E080930B0790930C07A0930D0737
:1027F000B0930E078AE090E0A0E0B0E080930F076E
:1028000090931007A0931107B093120780E090E017
:10281000A0E0B0E48093130790931407A0931507EA
:10282000B093160760E070E185E00E94B40E6FE996
:1028300079E380E00E94B40ECEEFD6E08E0152E044
:10284000752E68E8A62E62E0B62E7EEC872E72E02A
:10285000972EEBECEE2EE7E0FE2EF80194818281BC
:10286000898F9A8F61E00E94C01061E08A8D0E947A
:10287000C010F801908586816E01FDE1CF0ED11C5C
:102880008D8F9E8F61E00E94C01060E08E8D0E944F
:10289000C01061E08D8D0E9491106FB6F894809108
:1028A0004503811126C0F5018491F4012491E82F9C
:1028B000F0E0EE0FFF1FEB5FFD4FA591B4919C91EF
:1028C000822F892321F461E085E30E94911061E069
:1028D00085E30E94C0108CB580618CBD8CB580648E
:1028E0008CBD61E084E30E94C01061E083E30E943C
:1028F000C010809145038F5F809345036FBEC70171
:102900000197F1F760E08D8D0E94911088E80E9498
:10291000C70483E00E94C70461E08D8D0E9491107E
:10292000C7010197F1F7C6010E94CE047A940F5FA8
:102930001F4F2296711091CF03E217E0C7E2D7E054
:1029400060E0F80181918F010E94C010F7E007322A
:102950001F07B1F70FE117E089E2E82E87E0F82EB4
:1029600095E0D92E2CE0B22E32E0C32EA9908F81B3
:102970008C3008F044C061E08A2D0E94C0108F8125
:10298000D89EF0011124E654F94F9A2D9F732081AF
:10299000207CA22EA92AA082138214826B2D0E9471
:1029A000191A2CE0829FA001112420E030E0BA0126
:1029B000620F731FD69EF001D79EF00D1124E654CE
:1029C000F94F908196FD12C02F5F3F4F2C3031059B
:1029D00071F781110BC010928000C092810010929B
:1029E000850010928400C6BAC0926F00EF81DE9E0F
:1029F000F0011124E654F94F8081806480839D8129
:102A00008B81F801828B938B60E00E94C01061E0A3
:102A1000F80183890E94C01060E0F80183890E9458
:102A200091100E5F1F4FEC16FD0609F09FCFF89432
:102A30001092200189E08093210180E293E090933D
:102A4000290180932801109225011092240182E02F
:102A50008093730078948093E8051092EC05809140
:102A6000E90560E00E94C01087EF9EE0A0E0B0E0C2
:102A70008093340390933503A0933603B0933703C8
:102A80004AE067EF7EE080E090E00E9458110E94EB
:102A90004811809126070E946810892B91F080E0F0
:102AA0000E94180B80E00E94180B60ED77E080E038
:102AB00090E00E94FC1081E00E94180B81E00E94CF
:102AC000180B809125070E946810892B09F407C113
:102AD00081E992E00E944C112AE939E949E95EE373
:102AE00060E070E088EC92E40E94090780E00E94B8
:102AF000180B2AE939E949E95EE360E070E084E314
:102B000092E40E94090781E00E94180B2AE939E942
:102B100049E95EE360E070E082E892E40E94090720
:102B200081E00E94340B2AE939E949E95EE360E07B
:102B300070E086E193E40E94090780E00E94180B90
:102B40002AE939E949E95EE360E070E080ED91E46B
:102B50000E94090781E00E94340B2AE939E949E91A
:102B60005EE360E070E088EC92E40E940907109256
:102B70003C0310923D0310923E0310923F031092CB
:102B800038031092390310923A0310923B030E94CB
:102B900075064AE959E969E97EEB89E197E00E9407
:102BA000AD034AE959E969E97EEB87E197E00E94C4
:102BB000AD0364E670E080E090E00E94FC100E94AB
:102BC00039068C010E940606EC01B801110F880B32
:102BD000990B0E9499186B017C01F7FAF094F7F8B1
:102BE000F094BE01DD0F880B990B0E9499189B0190
:102BF000AC01C701B6010E94AC1A6B017C019B01BC
:102C0000AC016AE979E989E99EE30E94AC1AAB015B
:102C1000BC0187E197E00E94AD0340913C035091D5
:102C20003D0360913E0370913F0380913403909186
:102C30003503A0913603B0913703481759076A0747
:102C40007B070CF044C06AE070E080E090E00E94F6
:102C5000FC100E943906EC010E940606BC01990F87
:102C6000880B990B0E9499189058A70196010E9411
:102C7000AC1A6B017C01BE01DD0F880B990B0E9421
:102C80009918A70196010E94AC1A6B017C012AE9F0
:102C900039E949E95EEB0E94F818AB01BC0187E114
:102CA00097E00E94AD0342E0C701B6010E9499116E
:102CB0000E94481160913C0370913D0380913E0356
:102CC00090913F030E946D120E944811A6CF0E946E
:102CD000660662E370E080E090E00E94FC10809164
:102CE00023070E946810892B81F08EEA92E00E94EF
:102CF0004C1180E00E94180B60ED77E080E090E0DE
:102D00000E94FC1081E00E94180B809124070E9411
:102D10006810892BB1F08AEC92E00E944C1180E09F
:102D20000E94180B80E00E94340B60ED77E080E099
:102D300090E00E94FC1081E00E94180B81E00E944C
:102D4000340B6AE070E080E090E00E94FC100E948A
:102D500008029FCE109208041092070488EE93E0B8
:102D6000A0E0B0E08093090490930A04A0930B04C0
:102D7000B0930C0423E132E0309306042093050461
:102D80001092140410921304809315049093160467
:102D9000A0931704B093180425E232E03093120494
:102DA0002093110445E351E050931E0440931D0409
:102DB00044E351E05093200440931F0440E351E06A
:102DC000509322044093210441E351E050932404A2
:102DD0004093230442E351E050932604409325049A
:102DE00046E351E0509328044093270410922A04AC
:102DF00010922B0410922C0410922D041092B10406
:102E00001092B0048093B2049093B304A093B404DE
:102E1000B093B5043093AF042093AE0445ED50E079
:102E20005093BB044093BA0444ED50E05093BD046A
:102E30004093BC0440ED50E05093BF044093BE0467
:102E400041ED50E05093C1044093C00442ED50E086
:102E50005093C3044093C20446ED50E05093C50420
:102E60004093C4041092C7041092C8041092C9047D
:102E70001092CA0410924E0510924D0580934F0592
:102E800090935005A0935105B093520530934C0593
:102E900020934B0585EC90E090935805809357055F
:102EA00084EC90E090935A058093590580EC90E073
:102EB00090935C0580935B0581EC90E090935E05B8
:102EC00080935D0582EC90E09093600580935F05B0
:102ED00086EC90E090936205809361051092640502
:102EE00010926505109266051092670580910702A1
:102EF00090910802A0910902B0910A0280931F07E5
:102F000090932007A0932107B093220780910B0292
:102F100090910C02A0910D02B0910E0280932307B4
:102F200090932407A0932507B093260784E080930D
:102F3000270787E0809328071092290784EB809366
:102F40002A0786E180932B0788E180932C0787E18D
:102F500080932D0789E180932E07E091F606EC30EF
:102F600020F08FEF80932F0710C081E08E0F8093A9
:102F7000F606E0932F0785E0E89FF0011124E65460
:102F8000F94F88EB9BE092838183E091F606EC3069
:102F900020F08FEF8093300710C081E08E0F809378
:102FA000F606E093300785E0E89FF0011124E6542F
:102FB000F94F88EB9BE0928381838CE08093FE063F
:102FC00084E28093FF0686E08093000785E080938B
:102FD00001078FE1809302078EE18093030783E26C
:102FE0008093040782E28093050785E480930607B7
:102FF00084E48093070780E480930A0710920F0708
:1030000010921007109211071092120710921307D6
:10301000109214071092150710921607E9E3F7E0D3
:1030200027EF37E08FEF9FEFDC01128213821482CB
:103030001582168217821086118683879487A5874A
:10304000B6878787908BA18BB28B128611821082F4
:1030500073962E173F0749F78DE090E00E94AA1B58
:10306000FC011382128287E392E0918380831186B0
:1030700087E2848384E1828784E083871486F093E7
:103080003607E0933507109237071092380785E22C
:103090008093E9051092EB051092F8061092F7065E
:1030A0001092FA061092F9061092FC061092FB0696
:1030B00061E070E080E090E00E94CB1C009789F016
:1030C0009093F8068093F7061092FA061092F9068C
:1030D0002091FB063091FC06232BC1F4FC011082E9
:1030E00015C08091F7069091F806009711F00E94A4
:1030F000421C1092F8061092F7061092FC061092ED
:10310000FB061092FA061092F90608951092FC063A
:103110001092FB0669EE72E08091F7069091F80636
:103120000C94BE1D0E94D41808F481E00895E89420
:1031300009C097FB3EF490958095709561957F4FFF
:103140008F4F9F4F9923A9F0F92F96E9BB279395AD
:10315000F695879577956795B795F111F8CFFAF4BD
:10316000BB0F11F460FF1BC06F5F7F4F8F4F9F4FEE
:1031700016C0882311F096E911C0772321F09EE84C
:10318000872F762F05C0662371F096E8862F70E0B2
:1031900060E02AF09A95660F771F881FDAF7880F8C
:1031A0009695879597F90895990F0008550FAA0BE2
:1031B000E0E8FEEF16161706E807F907C0F012164A
:1031C0001306E407F50798F0621B730B840B950B4D
:1031D00039F40A2661F0232B242B252B21F40895A2
:1031E0000A2609F4A140A6958FEF811D811D08953F
:1031F0000E940B190C947C190E946E1938F00E94E1
:10320000751920F0952311F00C9465190C946B1925
:1032100011240C94B0190E948D1970F3959FC1F37D
:10322000950F50E0551F629FF001729FBB27F00D74
:10323000B11D639FAA27F00DB11DAA1F649F6627C9
:10324000B00DA11D661F829F2227B00DA11D621F18
:10325000739FB00DA11D621F839FA00D611D221FD2
:10326000749F3327A00D611D231F849F600D211DB6
:10327000822F762F6A2F11249F5750409AF0F1F039
:1032800088234AF0EE0FFF1FBB1F661F771F881FA2
:1032900091505040A9F79E3F510580F00C9465195C
:1032A0000C94B0195F3FE4F3983ED4F3869577957C
:1032B0006795B795F795E7959F5FC1F7FE2B880F48
:1032C000911D9695879597F9089597F99F6780E8DE
:1032D00070E060E008959FEF80EC089500240A9468
:1032E0001616170618060906089500240A941216E1
:1032F0001306140605060895092E0394000C11F414
:10330000882352F0BB0F40F4BF2B11F460FF04C0C0
:103310006F5F7F4F8F4F9F4F089557FD9058440F19
:10332000551F59F05F3F71F04795880F97FB991F24
:1033300061F09F3F79F087950895121613061406E1
:10334000551FF2CF4695F1DF08C01616170618066E
:10335000991FF1CF86957105610508940895E89449
:10336000BB2766277727CB0197F90895052E97FB92
:103370001EF400940E94CD1957FD07D00E94E81951
:1033800007FC03D04EF40C94CD1950954095309520
:1033900021953F4F4F4F5F4F0895909580957095C1
:1033A00061957F4F8F4F9F4F08950E940A1AA59FE6
:1033B000900DB49F900DA49F800D911D1124089530
:1033C000B7FF0C94D5190E94D519821B930B089551
:1033D000A1E21A2EAA1BBB1BFD010DC0AA1FBB1F19
:1033E000EE1FFF1FA217B307E407F50720F0A21B8B
:1033F000B30BE40BF50B661F771F881F991F1A94F8
:1034000069F760957095809590959B01AC01BD0121
:10341000CF010895A29FB001B39FC001A39F700D7B
:10342000811D1124911DB29F700D811D1124911DCC
:103430000895991B79E004C0991F961708F0961B10
:10344000881F7A95C9F780950895EE0FFF1F881F92
:103450008BBF0790F691E02D19942A0D3B1D4C1D52
:103460005D1D6E1D7F1D801F911F08952A153B0550
:103470004C055D056E057F0580079107089550583E
:10348000BB27AA270E94571A0C947C190E946E1918
:1034900038F00E94751920F039F49F3F19F426F492
:1034A0000C946B190EF4E095E7FB0C946519E92F69
:1034B0000E948D1958F3BA1762077307840795079E
:1034C00020F079F4A6F50C94AF190EF4E0950B2ECC
:1034D000BA2FA02D0B01B90190010C01CA01A00166
:1034E0001124FF27591B99F0593F50F4503E68F1C1
:1034F0001A16F040A22F232F342F4427585FF3CF02
:10350000469537952795A795F0405395C9F77EF4D2
:103510001F16BA0B620B730B840BBAF09150A1F01B
:10352000FF0FBB1F661F771F881FC2F70EC0BA0FA1
:10353000621F731F841F48F4879577956795B79529
:10354000F7959E3F08F0B0CF9395880F08F0992724
:10355000EE0F9795879508950E94C01A0C947C19D8
:103560000E94751958F00E946E1940F029F45F3FCF
:1035700029F00C94651951110C94B0190C946B1925
:103580000E948D1968F39923B1F3552391F3951B8C
:10359000550BBB27AA2762177307840738F09F5F74
:1035A0005F4F220F331F441FAA1FA9F335D00E2EE1
:1035B0003AF0E0E832D091505040E695001CCAF74E
:1035C0002BD0FE2F29D0660F771F881FBB1F261711
:1035D00037074807AB07B0E809F0BB0B802DBF01E8
:1035E000FF2793585F4F3AF09E3F510578F00C94B7
:1035F00065190C94B0195F3FE4F3983ED4F38695B7
:1036000077956795B795F7959F5FC9F7880F911DD7
:103610009695879597F90895E1E0660F771F881FC3
:10362000BB1F621773078407BA0720F0621B730B76
:10363000840BBA0BEE1F88F7E0950895BEE304D023
:1036400008F490E80895BFE322273327A9010E94D8
:10365000951960F19F5748F1B91740F1BFE3B91BC5
:103660009927B8503AF4660F771F881F991FB395B2
:10367000D2F316C0B8504AF0232F342F452F562FBF
:10368000672F782F8827B850BAF7B85F49F086952A
:10369000779567955795479537952795BA95B9F7D3
:1036A00016F40E94901B88940895889460E070E05E
:1036B000CB0108950E94611B6894B1110C94B0195C
:1036C00008950E94951988F09F5798F0B92F99276F
:1036D000B751B0F0E1F0660F771F881F991F1AF0FD
:1036E000BA95C9F714C0B13091F00E94AF19B1E09A
:1036F00008950C94AF19672F782F8827B85F39F099
:10370000B93FCCF3869577956795B395D9F73EF495
:1037100090958095709561957F4F8F4F9F4F08953D
:103720009095809570956095509540953095219530
:103730003F4F4F4F5F4F6F4F7F4F8F4F9F4F0895BA
:103740000E94D41808F48FEF08950E94D418880BB3
:10375000990B08950F931F93CF93DF9382309105B8
:1037600010F482E090E0E091F907F091FA0720E090
:1037700030E0A0E0B0E0309719F140815181028142
:10378000138148175907C8F08417950769F41097F3
:1037900031F012960C93129713961C9327C0009346
:1037A000F9071093FA0722C02115310519F04217C5
:1037B000530718F49A01BD01EF01DF01F801DBCFD7
:1037C00021153105F9F0281B390B2430310580F41F
:1037D0008A819B816115710521F0FB0193838283AE
:1037E00004C09093FA078093F907FE01329644C013
:1037F000FE01E20FF31F8193919322503109398327
:1038000028833AC02091F7073091F807232B41F421
:1038100020910302309104023093F8072093F707B8
:1038200020910102309102022115310541F42DB79A
:103830003EB74091050250910602241B350BE091E2
:10384000F707F091F807E217F307A0F42E1B3F0BE0
:103850002817390778F0AC014E5F5F4F2417350702
:1038600048F04E0F5F1F5093F8074093F70781937E
:10387000919302C0E0E0F0E0CF01DF91CF911F9182
:103880000F910895CF93DF93009709F481C0FC0155
:10389000329713821282A091F907B091FA0710971C
:1038A00081F420813181820F931F2091F70730919D
:1038B000F8072817390751F5F093F807E093F70751
:1038C00067C0ED0120E030E0CE17DF0740F44A8109
:1038D0005B819E0141155105F1F0EA01F5CFD383DB
:1038E000C28340815181840F951FC817D90759F4AD
:1038F00088819981840F951F0296918380838A81A4
:103900009B81938382832115310529F4F093FA0773
:10391000E093F9073DC0E901FB83EA83499159919E
:10392000C40FD51FEC17FD0761F480819181840FCE
:10393000951F0296E90199838883828193819B83F5
:103940008A83E0E0F0E012968D919C9113970097A6
:1039500019F0FD01DC01F7CF8D919C9111979D012C
:103960002E5F3F4F820F931F2091F7073091F8078A
:103970002817390769F4309729F41092FA07109242
:10398000F90702C013821282B093F807A093F707D9
:10399000DF91CF9108956F927F928F929F92AF9215
:1039A000BF92CF92DF92EF92FF920F931F93CF932C
:1039B000DF93009789F4CB01DF91CF911F910F9195
:1039C000FF90EF90DF90CF90BF90AF909F908F903F
:1039D0007F906F900C94AA1BFC01E60FF71F9C01CF
:1039E00022503109E217F30708F4A9C0EC01D9010C
:1039F0000D911C91119706171707B0F005301105AE
:103A000008F49BC0C80104978617970708F495C06F
:103A100002501109061B170B019311936D937C93B0
:103A2000CF010E94421C89C05B01A01AB10A4C015F
:103A3000800E911EA091F907B091FA07612C712CAC
:103A4000E12CF12C109709F446C08D919C911197AF
:103A5000A815B905B1F56C0142E0C40ED11CCA1419
:103A6000DB0478F14C018A189B08640142E0C40E23
:103A7000D11C1296BC9012971396AC91B5E0CB1660
:103A8000D10440F0B282A38391828082D9016D93E8
:103A90007C9309C00E5F1F4F800F911FF901918326
:103AA0008083EB2DFA2FE114F10431F0D701139646
:103AB000FC93EE93129741C0F093FA07E093F90755
:103AC0003CC06816790608F43C017D0112960D9001
:103AD000BC91A02DB7CF8091F7079091F807881679
:103AE0009906E1F466167706C8F480910102909178
:103AF0000202009741F48DB79EB7409105025091A4
:103B00000602841B950BE817F907C8F4F093F80731
:103B1000E093F707F901718360830FC0CB010E9426
:103B2000AA1B7C01009759F0A801BE010E94B51D97
:103B3000CE010E94421CC70104C0CE0102C080E039
:103B400090E0DF91CF911F910F91FF90EF90DF9068
:103B5000CF90BF90AF909F908F907F906F9008957F
:103B600081E090E0F8940C94C51DFB01DC0102C0DB
:103B700001900D9241505040D8F70895FB01DC01AF
:103B800001900D920020E1F7089511E0C4E9D1E021
:103B900000E006C0802FFE010E94251A2196011D1B
:0E3BA000C539D10780E00807A9F7F894FFCFD8
:103BAE00FF0000FB072000363738391B1D1A1C009A
:103BBE000000002F0E020E3602D60DFA0DE60DD7BE
:103BCE000D000000008002500BC801CD02F901D794
:103BDE0001EB01000000003902500B36023502479E
:103BEE003A200020657420443A200044C3A962752F
:103BFE00742064657320766974657373657300440D
:103C0E00C3A96275742064657320657272657572DE
:103C1E0000503A200020657420493A200020706F31
:103C2E00757220756E6520636F72722064653A201E
:103C3E00004365636920657374206C652074657339
:103C4E007420697342756D70657228322900436560
:103C5E00636920657374206C6520746573742069C4
:103C6E007342756D70657228300043656369206517
:103C7E007374206C65207465737420697342756D5E
:103C8E00706572283129000D0A006E616E00696E32
:063C9E0066006F7666006F
:00000001FF
