:100000000C9495010C94C6010C94C6010C94C60185
:100010000C94C6010C94C6010C94C6010C94C60144
:100020000C94C6010C94010C0C94010C0C94010C62
:100030000C94C6010C9439030C94C6010C94C601AF
:100040000C94C6010C9458070C94C6010C94C6017C
:100050000C94C6010C94C6010C94C6010C94D90CE6
:100060000C94C6010C94A8040C947E040C94C60154
:100070000C94C6010C94C6010C94C6010C94C601E4
:100080000C94C6010C94C6010C94C6010C94C601D4
:100090000C94C6010C94C6010C94C6010C94CF0AB2
:1000A0000C94C6010C94C6010C94C6010C94C601B4
:1000B0000C94C6010C94C6010C94C6010C94D20495
:1000C0000C94C6010C94C6010C94C6010C94540403
:1000D0000C942A040C94C6010C9400040C94D603CE
:1000E0000C94C601F105F605FB0505060F0688060A
:1000F00019062106290633063D0647065606600600
:1001000088066A0674067E066F0A720A610A650A24
:100110006B0AA90A760A7A0A800A840A880A8E0A71
:10012000920A960AA90A9C0AA00AA40A0C9423021D
:100130000C94CC090C94F6050C94A00A0C947E0641
:100140000C9405060C9474060C94650A0C94D8144F
:100150000C9488060C94720A0C9433060C941502C5
:100160000C940F030C94880A0C94960A0C940F06B6
:100170000C9421060C94F8090C94760A0C94190638
:100180000C9429060C94920A0C94F2010C94A40A83
:100190000C948E0A0C94DE140C946A060C940102E2
:1001A0000C94F1050C943D060C94610A0C94F00932
:1001B0000C9460060C94BC020C940E030C946F0A11
:1001C0000C94DC090C9414030C94C8010C947A0A66
:1001D0000C9447060C94CB090C94CD090C94800A1E
:1001E0000C94CA090C94A90A0C94250A0C946B0A65
:1001F0000C94FB050C9456060C949C0A0C94840AEF
:100200000C946F020200002100240027002A002D18
:10021000003000330001010000040107010A010061
:10022000002200250028002B002E0031003400029F
:10023000010000050108010B010000200023002639
:100240000029002C002F00320000010000030106ED
:10025000010901050505050705080808080202024D
:10026000020A0A0808040404040101010101010151
:10027000010303030303030303040707070C0C0C28
:100280000C0C0C0C0C020202020606060606060600
:10029000060B0B0B0B0B0B0B0B010210202008089D
:1002A00010204010204080020102010804020101D8
:1002B00002040810204080804020100804020180C1
:1002C0000402018040201008040201080402010118
:1002D0000204081020408001020408102040800021
:1002E000000A0B02090C0D0E0807030401000000B0
:1002F00000000000000000000000000000000000FE
:1003000000000000000000000000001211100000BA
:1003100000000000000000000000000000000000DD
:10032000000000000000DE14D81411241FBECFEF1F
:10033000D1E2DEBFCDBF00E00CBF12E0A0E0B2E032
:10034000EAEEF6E300E00BBF02C007900D92A23E7A
:10035000B107D9F727E0A2EEB2E001C01D92A73F96
:10036000B207E1F711E0C4E9D1E000E006C021974F
:100370000109802FFE010E941818C339D10780E0BF
:100380000807A9F70E94230D0C94631B0C9400002E
:10039000CF92DF92EF92FF920F931F93CF93DF9351
:1003A0006C017A018B01C0E0D0E0CE15DF0581F051
:1003B000D8016D918D01D601ED91FC910190F081F4
:1003C000E02DC6011995892B11F02196EECF7E0103
:1003D000C701DF91CF911F910F91FF90EF90DF90B8
:1003E000CF900895FC01538D448D252F30E0842F4C
:1003F00090E0821B930B541710F0CF96089501974D
:100400000895FC01918D828D981761F0828DDF0136
:10041000A80FB11D5D968C91928D9F5F9F73928FF7
:1004200090E008958FEF9FEF0895FC01918D828DEC
:10043000981731F0828DE80FF11D858D90E00895B9
:100440008FEF9FEF0895FC01918D228D892F90E011
:10045000805C9F4F821B91098F739927089588E9CB
:1004600093E00E94230221E0892B09F420E0822FEF
:10047000089585E394E00E94230221E0892B09F48A
:1004800020E0822F089582ED94E00E94230221E073
:10049000892B09F420E0822F0895FC01848DDF016F
:1004A000A80FB11DA35ABF4F2C91848D90E00196E7
:1004B0008F739927848FA689B7892C93A089B189D6
:1004C0008C91837080648C93938D848D981306C077
:1004D0000288F389E02D80818F7D80830895EF92DB
:1004E000FF920F931F93CF93DF93EC0181E0888FEE
:1004F0009B8D8C8D981305C0E889F989808185FDD5
:1005000026C0F62E0B8D10E00F5F1F4F0F731127C3
:10051000E02E8C8DE8120CC00FB607FCFACFE889EC
:10052000F989808185FFF5CFCE010E944D02F1CF80
:100530008B8DFE01E80FF11DE35AFF4FF0829FB74C
:10054000F8940B8FEA89FB89808180620AC09FB78B
:10055000F894EE89FF896083E889F9898081837046
:10056000806480839FBF81E090E0DF91CF911F91F5
:100570000F91FF90EF900895CF93DF93EC01888D5A
:100580008823C9F0EA89FB89808185FD05C0A88997
:10059000B9898C9186FD0FC00FB607FCF5CF80811D
:1005A00085FFF2CFA889B9898C9185FFEDCFCE0167
:1005B0000E944D02E7CFDF91CF910895E0E0F0E097
:1005C000199480E090E0892B21F00E944302811170
:1005D00019C080E090E0892B41F080E090E0892B09
:1005E00021F00E940000811110C00E943902811187
:1005F0000FC080E090E0892B81F00E942F028111D2
:100600000AC008950E940000E4CF0E940000EDCFD0
:100610000E94DE02EECF0C9400000895089580E061
:1006200090E008950E944E1B0F931F93CF93DF938A
:100630008C01C62FD62FD07FD1606D2F0E94570915
:100640006D2FC8010E946A0980E1C89FB001112482
:10065000C62FC1606C2FC8010E9457096C2FC801BA
:100660000E946A0981E090E0DF91CF911F910F9184
:1006700008951F920F920FB60F9211240BB60F928E
:100680002F933F934F935F936F937F938F939F939A
:10069000AF93BF93EF93FF9380913E0390913F03FD
:1006A000A0914003B0914103892B8A2B8B2B49F1F8
:1006B00090913D03809100008927809300008091F4
:1006C0003E0390913F03A0914003B091410318165F
:1006D00019061A061B060CF056C080913E03909135
:1006E0003F03A0914003B09141030197A109B109D3
:1006F00080933E0390933F03A0934003B093410344
:1007000042C080910802E4E0F2E0E4919FEF909310
:100710000802E230C9F050F4EE2399F0E13081F59F
:1007200090916F009D7F90936F002AC0E43019F183
:10073000E0F0E53029F5909173009D7F9093730070
:100740001FC010926E001CC0909170009D7F90930E
:10075000700091E09093B0009091B100987F946008
:100760009093B1001092B3000BC0909171009D7FE7
:100770009093710005C0909172009D7F90937200DC
:1007800060E00E94340CFF91EF91BF91AF919F9177
:100790008F917F916F915F914F913F912F910F902A
:1007A0000BBE0F900FBE0F901F9018951F920F92C7
:1007B0000FB60F9211240BB60F922F933F934F93C6
:1007C0005F936F937F938F939F93AF93BF93EF93B9
:1007D000FF9388E993E00E944D02FF91EF91BF9152
:1007E000AF919F918F917F916F915F914F913F91C9
:1007F0002F910F900BBE0F900FBE0F901F9018956A
:100800001F920F920FB60F9211240BB60F922F93D7
:100810003F934F935F936F937F938F939F93AF9388
:10082000BF93EF93FF9388E993E00E947F09FF91C4
:10083000EF91BF91AF919F918F917F916F915F9158
:100840004F913F912F910F900BBE0F900FBE0F90C5
:100850001F9018951F920F920FB60F9211240BB68E
:100860000F922F933F934F935F936F937F938F9349
:100870009F93AF93BF93EF93FF9385E394E00E9420
:100880004D02FF91EF91BF91AF919F918F917F9119
:100890006F915F914F913F912F910F900BBE0F90F1
:1008A0000FBE0F901F9018951F920F920FB60F92C8
:1008B00011240BB60F922F933F934F935F936F9337
:1008C0007F938F939F93AF93BF93EF93FF9385E3B2
:1008D00094E00E947F09FF91EF91BF91AF919F91AA
:1008E0008F917F916F915F914F913F912F910F90D9
:1008F0000BBE0F900FBE0F901F9018951F920F9276
:100900000FB60F9211240BB60F922F933F934F9374
:100910005F936F937F938F939F93AF93BF93EF9367
:10092000FF9382ED94E00E944D02FF91EF91BF9101
:10093000AF919F918F917F916F915F914F913F9177
:100940002F910F900BBE0F900FBE0F901F90189518
:100950001F920F920FB60F9211240BB60F922F9386
:100960003F934F935F936F937F938F939F93AF9337
:10097000BF93EF93FF9382ED94E00E947F09FF9174
:10098000EF91BF91AF919F918F917F916F915F9107
:100990004F913F912F910F900BBE0F900FBE0F9074
:1009A0001F9018951F920F920FB60F9211240BB63D
:1009B0000F922F933F934F935F936F937F938F93F8
:1009C0009F93AF93BF93EF93FF93809170050E9425
:1009D0000B0C20917405309175052F5F3F4F3093BC
:1009E00075052093740590917305953618F096E07F
:1009F00090936F0590916F059430C9F128F492306F
:100A000069F09330D1F05EC0953009F451C0963052
:100A100009F058C091E09093400651C0811152C036
:100A200020917405309175052436310508F442C0D3
:100A300010924006109273051CC0813009F042C02C
:100A4000E091730591E09E0F90937305F0E0209183
:100A5000740530917505EE0FFF1FE159FA4F30878D
:100A60002783109275051092740594E029C08111B6
:100A700017C0E091730591E09E0F90937305F0E02D
:100A80002091740530917505EE0FFF1FE159FA4F63
:100A900030872783109275051092740593E010C07B
:100AA00020917405309175052536310558F007C041
:100AB000811108C0109275051092740503C095E06D
:100AC00090936F05909172059923B9F081110AC036
:100AD00080917105882321F08091710561E009C042
:100AE0002F9A0BC080917105882331F08091710598
:100AF00060E00E94340C01C02F98FF91EF91BF91EC
:100B0000AF919F918F917F916F915F914F913F91A5
:100B10002F910F900BBE0F900FBE0F901F90189546
:100B20008F929F92AF92BF92CF92DF92EF92FF92FD
:100B30000F931F93CF93DF938C016A017B0120E019
:100B400030E04FE753E4C701B6010E942C174B0178
:100B50005C0120E030E0A9010E943E1918161CF447
:100B6000C501B40103C0C501B40190580E94081921
:100B7000EB0120E030E0A901C701B6010E943E1957
:100B8000181614F460E001C061E0F80181810E9450
:100B9000340CCF3FD10509F014F4DD2702C0CFEFAC
:100BA000D0E0F801108161E0812F0E94630C209752
:100BB00009F4B1C0CF3FD10509F4AFC0E12FF0E097
:100BC000E152FD4FE4918E2F90E0FC013197E2312C
:100BD000F10508F09DC08827EE58FF4F8F4F0C9409
:100BE000181884B5806884BDC7BDA7C084B580626D
:100BF00084BDC8BDA2C080918000806880938000C1
:100C0000D0938900C093880098C080918000806252
:100C100080938000D0938B00C0938A008EC0809117
:100C20008000886080938000D0938D00C0938C00FA
:100C300084C08091B00080688093B000C093B300FE
:100C40007CC08091B00080628093B000C093B400FB
:100C500074C080919000806880939000D093990038
:100C6000C09398006AC08091900080628093900049
:100C7000D0939B00C0939A0060C0809190008860E0
:100C800080939000D0939D00C0939C0056C08091AB
:100C9000A00080688093A0008091A0008F7B80934B
:100CA000A000D093A900C093A80047C08091A000E5
:100CB00080628093A000D093AB00C093AA003DC097
:100CC0008091A00088608093A000D093AD00C09375
:100CD000AC0033C080912001806880932001D093C4
:100CE0002901C093280129C080912001806280934E
:100CF0002001D0932B01C0932A011FC080912001B5
:100D0000886080932001D0932D01C0932C0115C0E1
:100D1000C038D10514F460E001C061E0812FDF919B
:100D2000CF911F910F91FF90EF90DF90CF90BF90E8
:100D3000AF909F908F900C94340CDF91CF911F91C6
:100D40000F91FF90EF90DF90CF90BF90AF909F906A
:100D50008F9008958EBD00000DB407FEFDCF8EB5B7
:100D60000895CF93DF93EC0160E088810E94340CFA
:100D700088E90E94AA0680E00E94AA0680E00E94FC
:100D8000AA0680E00E94AA0680E00E94AA0661E00E
:100D900088810E94340C8BE891E00197F1F760E0C4
:100DA00088810E94340C80EE0E94AA0661E088814E
:100DB000DF91CF910C94340CAF92BF92CF92DF921F
:100DC000EF92FF920F931F93CF93DF93CDB7DEB7D0
:100DD00060970FB6F894DEBF0FBECDBF5C0160E038
:100DE000FC0180810E94340C80E60E94AA068E01DC
:100DF0000F5F1F4F7E01F1E1EF0EF11C680180E0F3
:100E00000E94AA0690E0A0E0B0E0F60181939193E1
:100E1000A193B1936F01EE15FF0589F761E0F5012C
:100E200080810E94340C80E090E0DC01F801419167
:100E30005191619171918F01BA2FA92F982F882715
:100E4000840F951FA61FB71FEE15FF0579F79C01AC
:100E5000AD0166277727CB01621B730B840B950BC3
:100E600060960FB6F894DEBF0FBECDBFDF91CF9175
:100E70001F910F91FF90EF90DF90CF90BF90AF90B8
:100E80000895CF92DF92EF92FF92CF93DF93EC0120
:100E90000E94DC066B017C01CE010E94B106C701F5
:100EA000B601DF91CF91FF90EF90DF90CF90089542
:100EB0001F920F920FB60F9211240BB60F922F9321
:100EC0003F934F935F936F937F938F939F93AF93D2
:100ED000BF93EF93FF9380913C0387FF05C010926F
:100EE00085001092840016C020913C03022E000C55
:100EF000330B80917D0690E0281739075CF4309120
:100F00003C0325E03203F0011124EF5BF94F8081AF
:100F100086FD15C080913C038F5F80933C03209138
:100F20003C03022E000C330B80917D0690E02817C5
:100F3000390794F480913C038C302CF10DC0309132
:100F40003C033203F0011124EF5BF94F808160E034
:100F50008F730E94340CDECF8091840090918500C5
:100F600084349C4918F480E49CE905C08091840095
:100F700090918500049690938900809388008FEF6C
:100F800080933C032AC040918400509185003091A9
:100F90003C0325E03203F0011124EF5BF94F81811E
:100FA0009281840F951F90938900809388003091DF
:100FB0003C033203F0011124EF5BF94F808186FF7F
:100FC0000CC030913C033203F0011124EF5BF94F68
:100FD000808161E08F730E94340CFF91EF91BF918B
:100FE000AF919F918F917F916F915F914F913F91C1
:100FF0002F910F900BBE0F900FBE0F901F90189562
:1010000082EA96E00E9441079B01AC01882799275C
:10101000DC01821B930BA40BB50B2091E2023091F3
:10102000E302280F391F3093E3022093E202089570
:10103000CF92DF92EF92FF9269017A01AB01BC017E
:101040008EE996E00E949005B701A601705880EAEB
:1010500096E0FF90EF90DF90CF900C949005309148
:101060008B03313208F04BC0809168038111FCCFB3
:101070009091BC0622E02093680321E0209367034F
:101080002FEF209366031092650330936403EBE621
:10109000F3E0A4E4B3E020E0321721F041914D9356
:1010A0002F5FFACF1092430320914303990F922BA5
:1010B0009093430390914203913061F41092420364
:1010C000909143039093BB009091BC0093FDF8CFA7
:1010D00095EC01C095EE9093BC009091680392301E
:1010E000E1F3909166039F3F79F08091660380322F
:1010F00041F080916603803331F084E005C081E0E7
:1011000003C082E001C083E010926A0310928B0357
:10111000109269030895009769F0FC010190002086
:10112000E9F73197AF01481B590BBC0182ED94E000
:101130000C94C80180E090E00895CF93DF930E9463
:101140008B08EC0180E792E00E948B088C0F9D1FBA
:10115000DF91CF9108950F931F93CF93DF93162FB5
:10116000072FC5E8D6E09C8521E020936903909382
:10117000BC0610926A0310928B03AA85BB85ED9181
:10118000FC9111970190F081E02D682FCD01199508
:101190008A859B85DC01ED91FC910190F081E02D29
:1011A000602F19958A859B85DC01ED91FC9101905A
:1011B000F081E02D612F1995DF91CF911F910F9153
:1011C0000C942F088F929F92AF92BF920F931F9310
:1011D000CF93DF93CDB7DEB7A1970FB6F894DEBFFC
:1011E0000FBECDBF19A2423008F44AE08E010F5D58
:1011F0001F4F842E912CA12CB12CA50194010E948B
:10120000EA17E62FB901CA0101501109EA3014F4B6
:10121000E05D01C0E95CD801EC93232B242B252B46
:1012200061F7C8010E948B08A1960FB6F894DEBF43
:101230000FBECDBFDF91CF911F910F91BF90AF90A7
:101240009F908F9008950C948B08CF92DF92EF922D
:10125000FF92CF93DF9397FF1BC06B017C016DE280
:1012600082ED94E00E946F02EC0166277727CB01A4
:101270006C197D098E099F094AE00E94E2088C0FD3
:101280009D1FDF91CF91FF90EF90DF90CF90089559
:101290004AE0DF91CF91FF90EF90DF90CF900C94D8
:1012A000E208BC01990F880B990B0C942509FC01ED
:1012B000248131E0309369032093BC0610926A03C5
:1012C00010928B038485682B8CE893E00E94250A9A
:1012D0000C942F080F931F93CF938C01C62F64603B
:1012E0000E9457096C2F6B7FC8010E94570983EC3D
:1012F00090E00197F1F7CF911F910F910895FC01B4
:10130000A089B1898C91A689B78982FD0FC09C9173
:10131000818D8F5F8F73228D821749F0218DDF01C0
:10132000A20FB11D5D969C93818F08958C910895B5
:1013300085ED8093BC008091BC0084FDFCCF1092B1
:10134000680308954091D007262F30E0240F311D07
:1013500021323105DCF4209168032430C9F4FC010A
:1013600080E090E0861758F43091D0072191DC019D
:10137000A055B84FA30FB11D2C930196F3CF8091C8
:10138000D007680F6093D00780E0089581E008954A
:1013900082E00895089508950895E091800780916E
:1013A0007F07E81730F4F0E0E057F84F808190E0D5
:1013B00008958FEF9FEF08959091800780917F07A8
:1013C000981750F4E92FF0E0E057F84F208130E013
:1013D0009F5F9093800702C02FEF3FEFC9010895F0
:1013E00080917F0790E020918007821B91090895EA
:1013F000CF92DF92EF92FF920F931F93CF93DF93E1
:101400007C01CB018A0120916903222389F0EB0141
:101410006B01C40ED51ECC15DD0569F06991D701AD
:10142000ED91FC910190F081E02DC7011995F3CF6A
:10143000642F0E94A209C801DF91CF911F910F91E3
:10144000FF90EF90DF90CF900895CF93DF931F929E
:10145000CDB7DEB76983209169032223D1F02091B3
:101460008B03203240F021E030E0FC013383228303
:1014700080E090E015C080916A03E82FF0E0E55924
:10148000FC4F998190838F5F80936A0380938B03D5
:1014900005C061E0CE0101960E94A20981E090E0C2
:1014A0000F90DF91CF91089590E0FC013197E231E8
:1014B000F10508F04EC08827EC57FF4F8F4F0C9472
:1014C0001818809180008F7703C0809180008F7DF5
:1014D00080938000089580918000877FF9CF84B544
:1014E0008F7702C084B58F7D84BD08958091B00050
:1014F0008F7703C08091B0008F7D8093B0000895F6
:10150000809190008F7707C0809190008F7D03C0FD
:1015100080919000877F8093900008958091A00033
:101520008F7707C08091A0008F7D03C08091A000BD
:10153000877F8093A0000895809120018F7707C056
:10154000809120018F7D03C080912001877F80934F
:10155000200108953FB7F89480918A0790918B07F6
:10156000A0918C07B0918D0726B5A89B05C02F3F91
:1015700019F00196A11DB11D3FBFBA2FA92F982FB9
:101580008827820F911DA11DB11DBC01CD0142E034
:10159000660F771F881F991F4A95D1F708951F92EC
:1015A0000F920FB60F9211240BB60F922F933F9309
:1015B0004F935F936F937F938F939F93AF93BF935B
:1015C000EF93FF938091B900887F803609F49CC027
:1015D00068F5883209F45BC090F4803109F454C096
:1015E00038F4882309F4F6C0883009F44DC0F6C0F9
:1015F000883109F44CC0803209F45DC0EFC08034FA
:1016000009F468C048F4803309F455C0883309F000
:10161000E5C080936603D8C0803509F44FC0883593
:1016200009F45DC0883409F0D9C0D6C0883909F4FE
:10163000C7C0A8F4883709F467C038F4883609F4BD
:1016400063C0803709F460C0C9C0883809F4B8C0E5
:10165000803909F45FC0803809F0C0C05BC0803BAE
:1016600009F486C038F4803A09F466C0883A09F46F
:101670007FC0B4C0803C09F4A7C0883C09F4A4C072
:10168000883B09F48AC0AAC08091430310C090919E
:10169000650380916403981770F5E091650381E01C
:1016A0008E0F80936503F0E0EC5BFC4F80818093AC
:1016B000BB0085EC86C0809366038EC0E091650315
:1016C00081E08E0F809365038091BB00F0E0EC5BBE
:1016D000FC4F808390916503809164036EC0E0911C
:1016E000650381E08E0F809365038091BB00F0E07D
:1016F000EC5BFC4F80838091670381116DC081E0BA
:101700008093420384EA61C083E08093680310926F
:10171000F207CFCF8091F207803208F051C0E091FC
:10172000F20781E08E0F8093F2078091BB00F0E01A
:10173000EE52F84F8083BDCF85EC8093BC001092B1
:1017400068038091F207803230F4E091F207F0E014
:10175000EE52F84F10826091F20770E0E09183073B
:10176000F091840782ED97E019951092F20736C048
:1017700084E0809368031092D1071092D007E09123
:101780008107F091820719958091D007811105C0DA
:1017900081E08093D0071092B007E091D10781E0FB
:1017A0008E0F8093D107F0E0E055F84F8081809351
:1017B000BB009091D1078091D007981708F479CF9A
:1017C00085E88093BC000AC085EC8093BC00109231
:1017D000680304C0109266030E949809FF91EF917C
:1017E000BF91AF919F918F917F916F915F914F9139
:1017F0003F912F910F900BBE0F900FBE0F901F9037
:1018000018951F920F920FB60F9211240F900FBED2
:101810000F901F901895CF93DF93282F30E0F90198
:10182000E152FD4F8491F901E756FD4FD491F90142
:10183000ED5AFD4FC491CC2391F081110E94540ABE
:10184000EC2FF0E0EE0FFF1FE75CFD4FA591B49188
:10185000EC91ED2381E090E021F480E002C080E093
:1018600090E0DF91CF9108951F93CF93DF93282FBE
:1018700030E0F901E152FD4F8491F901E756FD4F47
:10188000D491F901ED5AFD4FC491CC23C1F0162F2C
:1018900081110E94540AEC2FF0E0EE0FFF1FE15E71
:1018A000FD4FA591B4919FB7F894111104C08C918C
:1018B000D095D82302C0EC91DE2BDC939FBFDF9143
:1018C000CF911F910895CF93DF9390E0FC01E756ED
:1018D000FD4F2491FC01ED5AFD4F8491882361F165
:1018E00090E0880F991FFC01EB5FFD4FC591D491EB
:1018F000FC01E15EFD4FA591B491611109C09FB754
:10190000F8948881209582238883EC912E230BC044
:10191000623061F49FB7F8948881322F3095832329
:101920008883EC912E2B2C939FBF06C08FB7F89421
:10193000E8812E2B28838FBFDF91CF9108958F925E
:101940009F92AF92BF92CF92DF92EF92FF926B0184
:101950007C010E94AA0A4B015C01C114D104E1047C
:10196000F104F1F00E94AA0ADC01CB01881999095F
:10197000AA09BB09883E9340A105B10570F321E097
:10198000C21AD108E108F10888EE880E83E0981E9B
:10199000A11CB11CC114D104E104F10419F7DDCF7D
:1019A000FF90EF90DF90CF90BF90AF909F908F907F
:1019B00008951F920F920FB60F9211242F933F9309
:1019C0008F939F93AF93BF938091860790918707E2
:1019D000A0918807B09189073091850723E0230FF4
:1019E0002D3720F40196A11DB11D05C026E8230F57
:1019F0000296A11DB11D20938507809386079093C1
:101A00008707A0938807B093890780918A079091F0
:101A10008B07A0918C07B0918D070196A11DB11D78
:101A200080938A0790938B07A0938C07B0938D07C0
:101A3000BF91AF919F918F913F912F910F900FBECA
:101A40000F901F901895CF93DF93CDB7DEB7E69731
:101A50000FB6F894DEBF0FBECDBF789484B5826018
:101A600084BD84B5816084BD85B5826085BD85B542
:101A7000816085BD80916E00816080936E001092C0
:101A8000810080918100826080938100809181003B
:101A900081608093810080918000816080938000CC
:101AA0008091B10084608093B1008091B00081602A
:101AB0008093B0008091910082608093910080912A
:101AC000910081608093910080919000816080936B
:101AD00090008091A10082608093A1008091A1007C
:101AE00081608093A1008091A00081608093A0001C
:101AF0008091210182608093210180912101816088
:101B00008093210180912001816080932001809148
:101B10007A00846080937A0080917A00826080935A
:101B20007A0080917A00816080937A0080917A00B7
:101B3000806880937A001092C100E091E204F091F5
:101B4000E30482E08083E091DE04F091DF04108200
:101B5000E091E004F091E1048FEC80831092EA04BC
:101B6000E091E604F091E70486E08083E091E404EC
:101B7000F091E504808180618083E091E404F0913C
:101B8000E504808188608083E091E404F091E504BD
:101B9000808180688083E091E404F091E504808195
:101BA0008F7D808361E0809186060E94630C60E0F7
:101BB000809186060E94340C60E0809185060E9428
:101BC000630C8CE893E09093900680938F061092BC
:101BD000800710927F0710926A0310928B03109275
:101BE000680381E0809367031092420361E084E11F
:101BF0000E94340C61E085E10E94340C8091B900B0
:101C00008E7F8093B9008091B9008D7F8093B90059
:101C100088E48093B80085E48093BC008AEC99E066
:101C200090938207809381078BEC99E090938407CF
:101C30008093830780E090E1A0E0B0E0809392067B
:101C400090939306A0939406B09395068AE090E053
:101C5000A0E0B0E08093960690939706A093980634
:101C6000B093990680E090E0A0E0B0E480939A06FB
:101C700090939B06A0939C06B0939D0660E070E154
:101C800085E00E94AB086FE979E380E00E94AB0831
:101C900005E816E0780172E0572EE8E86E2EE2E0E3
:101CA0007E2EFEEC8F2EF2E09F2EABECCA2EA7E02C
:101CB000DA2ED70114969C91149712968C91F80104
:101CC000818F928F61E00E94630C61E0D8015A9687
:101CD0008C910E94630CF701908586815801FDE18B
:101CE000AF0EB11CD8015D968C935D975E969C9368
:101CF00061E00E94630C60E0F801868D0E94630C35
:101D000061E0D8015D968C910E94340C4FB6F89436
:101D10008091E402811126C0F3018491F4012491A1
:101D2000E82FF0E0EE0FFF1FEB5FFD4FA591B491A0
:101D30009C91822F892321F461E085E30E94340C79
:101D400061E085E30E94630C8CB580618CBD8CB52D
:101D500080648CBD61E084E30E94630C61E083E3F6
:101D60000E94630C8091E4028F5F8093E4024FBE77
:101D7000C6010197F1F760E0D8015D968C910E9451
:101D8000340C88E80E94AA0683E00E94AA0661E05B
:101D9000F801858D0E94340CC6010197F1F7C50149
:101DA0000E94B1065A94FFEFEF1AFF0A0E5F1F4F11
:101DB00051107FCF5AEAE52E56E0F52E0EEA16E0D6
:101DC00060E0D7018D917D010E94630CBEEAEB16A5
:101DD000B6E0FB06A9F796EAE92E96E0F92E25E093
:101DE000D22E3CE0B32E42E0C42EF801A1908F0128
:101DF00087818C3008F048C061E08A2D0E94630C16
:101E0000D80117968C91D89EF0011124EF5BF94F01
:101E10009A2D9F732081207CA22EA92AA082138252
:101E200014826B2D0E940C18BCE08B9FA001112422
:101E300020E030E0BA01620F731FD69EF001D79EFA
:101E4000F00D1124EF5BF94F908196FD12C02F5FCA
:101E50003F4F2C30310571F781110BC0109280007B
:101E6000C09281001092850010928400C6BAC09280
:101E70006F00D8011796EC91DE9EF0011124EF5B04
:101E8000F94F808180648083F80195818381D70137
:101E900052968C93529753969C9360E00E94630CE9
:101EA00061E0F70183890E94630C60E0D7015396DB
:101EB0008C910E94340CB2E0EB0EF11CE6E0003B8A
:101EC0001E0709F092CFF8941092200189E08093C8
:101ED000210180E293E090932901809328011092E0
:101EE00025011092240182E08093730078948093FE
:101EF0006F05109273058091700560E00E94630C7D
:101F000087EF9EE0A0E0B0E080931D0390931E0356
:101F1000A0931F03B09320038FE796E0A0E0B0E00A
:101F20008093E9029093EA02A093EB02B093EC0253
:101F300081EC92E0A0E0B0E08093E5029093E602AD
:101F4000A093E702B093E8028091AD060E940B0CCB
:101F5000892B09F44CC487E492E00E949D088DB758
:101F60009EB79EAB8DAB80911503811119C02DECEE
:101F70003CEC4CEC5CE360910002709101028091BA
:101F80000202909103020E942A1860931103709339
:101F90001203809313039093140391E0909315031D
:101FA00080910903811117C06091000270910102B4
:101FB00080910202909103029B01AC010E942A18B9
:101FC00060930503709306038093070390930803BF
:101FD000A1E0A09309038091FD02811117C06091D7
:101FE00011037091120380911303909114039B01CC
:101FF000AC010E942A186093F9027093FA02809350
:10200000FB029093FC02B1E0B093FD02EDB7FEB786
:10201000E85CF1090FB6F894FEBF0FBEEDBF8DB7B7
:102020009EB701965C01ADB7BEB7A85CB1090FB60B
:10203000F894BEBF0FBEADBFE75CF1096F018159D7
:1020400091400FB6F8949EBF0FBE8DBFA75CB1093B
:102050004D01E159F1400FB6F894FEBF0FBEEDBF40
:10206000875C91097C01A159B1400FB6F894BEBFBD
:102070000FBEADBF0DB71EB70F5F1F4FE855F24043
:102080000FB6F894FEBF0FBEEDBF885592403C01DD
:1020900020E030E040E05FE36091050370910603CB
:1020A00080910703909108030E942C17609300020F
:1020B00070930102809302029093030220E030E0CB
:1020C00040E05FE36091F9027091FA028091FB02B7
:1020D0009091FC020E942C176093110370931203DD
:1020E00080931303909314039D868C86BB86AA86E7
:1020F000D886CF82FE82ED821F870E87798A688A12
:102100007B8E6A8E1AA709A7FAA2E9A2DF8ECE8E6D
:10211000B8A6AFA29D8E8C8E212C312C1FA618AA9A
:1021200019AA1AAA1BAA1CAA00E010E091E099873C
:1021300018A282EA96E00E94B10684EA96E00E9424
:10214000B106209111033091120340911303509175
:10215000140360910002709101028091020290913B
:1021600003020E94180868EC70E080E090E00E9492
:102170009F0C82EA96E00E94DC064424552432013A
:10218000461A570A680A790A84EA96E00E94DC0631
:1021900069837A838B839C8373016201FF0CCC0873
:1021A000DC2C76019201A3016C2D7C2D8C2D9C2DB5
:1021B000AFA4B8A8C9A8DAA8EBA8FCA80E94201868
:1021C0002A8B3B8B4C8B5D8B6E8B7F8B888F998F93
:1021D0002FA738AB49AB5AAB6BAB7CAB8C0184E619
:1021E00092E00E942309C301B2010E94250988E6FA
:1021F00092E00E94230969817A818B819C810E94EF
:10220000250980E792E00E948B08C301B2010E9479
:10221000CD1620E030E048E453E40E9496186B01AC
:102220007C0169817A818B819C810E94CD1620E09E
:1022300030E048E453E40E9496189B01AC01C701CA
:10224000B6010E9429184B015C016093F50270935E
:10225000F6028093F7029093F8022091F1023091F8
:10226000F2024091F3025091F4020E942A186B018D
:102270007C016093F1027093F2028093F3029093D9
:10228000F4022091ED023091EE024091EF02509164
:10229000F002C501B4010E9429182B013C0120E283
:1022A0003CEB4EEB5CE4C501B4010E942C172DEC15
:1022B0003CEC4CE45DE30E942C170E940819EC8D65
:1022C000FD8D61937193FD8FEC8F80910002909151
:1022D0000102A0910202B091030289839A83AB8329
:1022E000BC8320E030E04AE754E4BC01CD010E9409
:1022F0002C170E940819AFA1B8A56D937D93B8A7BC
:10230000AFA38091110390911203A0911303B09198
:1023100014038BA39CA3ADA3BEA320E030E04AE747
:1023200054E4BC01CD010E942C170E940819AE8D07
:10233000BF8D6D937D93BF8FAE8F20E23CEB4EEB54
:102340005CE4C701B6010E942C172FE632E143E09E
:102350005AE30E942C170E940819E9A1FAA161937F
:102360007193FAA3E9A320E23CEB4EEB5CE4C301DA
:10237000B2010E942C1725EB3EEF46E957E30E947D
:102380002C170E940819A9A5BAA56D937D93BAA729
:10239000A9A72DEC3CEC4CE45DE3C501B4010E941F
:1023A0002C176BA77CA78DA79EA72FE632E143E0F1
:1023B0005AE3C701B6010E942C176B017C0125EB83
:1023C0003EEF46E957E3C301B2010E942C172B01EF
:1023D0003C01A70196016BA57CA58DA59EA50E9439
:1023E0002A18A30192010E942A18EA8DFB8D61939D
:1023F000719381939193FB8FEA8FFFEF2F1A3F0A1E
:102400002BA53CA54DA55EA56BA17CA18DA19EA190
:102410000E942A18A70196010E942A18A30192017E
:102420000E942A186B017C016093110370931203C0
:102430008093130390931403AB01BC01705880EA9E
:1024400096E00E9490058092ED029092EE02A0929A
:10245000EF02B092F00228A1211114C089819A8163
:10246000AB81BC818093050390930603A09307037F
:10247000B0930803C092F902D092FA02E092FB02F4
:10248000F092FC022DEC3CEC4CE45FE369817A8134
:102490008B819C810E943E1987FF2EC099859923CC
:1024A00061F12DEC3CEC4CE85FE369817A818B8132
:1024B0009C810E942C174B015C0160930002709379
:1024C000010280930202909303022DEC3CEC4CE855
:1024D0005FE3C701B6010E942C179B01AC0160931A
:1024E0001103709312038093130390931403C50197
:1024F000B4010E94180801C019862A893B894C89B9
:102500005D896E897F89888D998D2B313A4141058E
:102510005105610571058105910509F00CF409CE9D
:102520002DEC3CEC4CE45FE3609100027091010201
:1025300080910202909103020E942C176B017C0192
:102540006093000270930102809302029093030251
:102550002DEC3CEC4CE45FE36091110370911203AD
:1025600080911303909114030E942C179B01AC01DE
:1025700060931103709312038093130390931403D9
:10258000C701B6010E9418082A893B894C895D89D8
:102590006E897F89888D998D263334434105510595
:1025A000610571058105910509F024F41986A1E002
:1025B000A8A3BFCD20E030E0A901CA01B9010E9463
:1025C000180883E792E00E949D0800E010E084E68E
:1025D00092E00E942309EA85FB8581919191FB8716
:1025E000EA870E94510988E692E00E942309AF81A0
:1025F000B8858D919D91B887AF830E94510980E77E
:1026000092E00E948B080F5F1F4F20163106F9F6EB
:1026100087E892E00E949D0800E010E089E992E0DE
:102620000E942309EC85FD8581919191FD87EC87BE
:102630000E9451098DE992E00E942309AD81BE817B
:102640008D919D91BE83AD830E94510988E692E0F1
:102650000E942309EE85FF8581919191FF87EE8786
:102660000E94510985EA92E00E942309A889B9894C
:102670006D917D918D919D91B98BA88B20E030E576
:1026800043EC57E40E942C176B017C014B015C0169
:102690009B01AC010E944319882319F089EB92E059
:1026A0001AC026013701E89477F82FEF3FEF4FE784
:1026B0005FE7C301B2010E94431981110FC02FEFE0
:1026C0003FEF4FE75FE7C301B2010E94C61618163D
:1026D0002CF48DEB92E00E948B0878C02FEF3FEF37
:1026E0004FE75FE4C701B6010E943E1918161CF4BB
:1026F00081EC92E0F0CF2FEF3FEF4FE75FECC701A7
:10270000B6010E94C61687FDF3CF20E030E0A90194
:10271000C701B6010E94C61687FF0BC06DE282EDAD
:1027200094E00E946F0246015701B7FAB094B7F8DF
:10273000B0942AE037ED43EA5BE3C501B4010E949F
:102740002A184B015C010E940F196B017C010E9449
:10275000CB169B01AC01C501B4010E9429184B01A5
:102760005C014AE0C701B6010E94E2086EE282ED18
:1027700094E00E946F0220E030E040E251E4C501A5
:10278000B4010E942C174B015C010E940F196B01D0
:10279000E12CF12C4AE0C701B6010E94E208C70112
:1027A000B6010E94CB169B01AC01C501B4010E9489
:1027B000291820E030E040E251E40E942C170E94EA
:1027C0000F1980E090E04AE00E94E20880E792E082
:1027D0000E948B080F5F1F4F2016310609F01ECF95
:1027E000EDA9FEA90FB6F894FEBF0FBEEDBF809114
:1027F000AC060E940B0C892B09F4D1C085EC92E049
:102800000E949D081092E3021092E20282EA96E092
:102810000E94410784EA96E00E94410740E050E0B0
:1028200060E07FEB80EA96E00E94900540E050E097
:1028300060E07FEB8EE996E00E94900564E670E030
:1028400080E090E00E949F0C84EA96E00E9441079D
:102850006B017C0170932203609321030E940008A6
:102860008C01B601DD0C880B990B0E94CD166B0113
:102870007C01F7FAF094F7F8F094B801110F880B87
:10288000990B0E94CD169B01AC01C701B6010E94B5
:1028900096189B01AC01609304027093050280932B
:1028A00006029093070260E070E080E09FE30E94E0
:1028B0009618AB01BC018EE996E00E94900500914C
:1028C000210310912203A801012E000C660B770B47
:1028D00080911D0390911E03A0911F03B0912003CE
:1028E000B095A095909581959F4FAF4FBF4F84179E
:1028F0009507A607B7070CF043C06AE070E080E0D8
:1029000090E00E949F0C84EA96E00E9441076B01D0
:102910007C01060F171F10932203009321030E94CE
:1029200000088C01B601DD0C880B990B0E94CD16B6
:102930006B017C01B801110F880B990B0E94CD1619
:102940009058209104023091050240910602509166
:1029500007020E9496189B01AC01C701B6010E94B4
:102960009618609304027093050280930602909378
:10297000070220E030E040E05FEB0E942C1799CF87
:1029800040E050E060E070E880EA96E00E94900548
:1029900040E050E0BA018EE996E00E9490056AE0BE
:1029A00070E080E090E00E949F0C0E94E102CCCA9F
:1029B00080917E0690917F060C94E01910928F030F
:1029C00010928E0388EE93E0A0E0B0E08093900335
:1029D00090939103A0939203B09393032BE132E081
:1029E00030938D0320938C0310929B0310929A03D3
:1029F00080939C0390939D03A0939E03B0939F03A9
:102A00002DE232E0309399032093980345E351E09F
:102A10005093A5034093A40344E351E05093A703CC
:102A20004093A60340E351E05093A9034093A803C9
:102A300041E351E05093AB034093AA0342E351E0DA
:102A40005093AD034093AC0346E351E05093AF0382
:102A50004093AE031092B1031092B2031092B303ED
:102A60001092B40310923804109237048093390402
:102A700090933A04A0933B04B0933C043093360403
:102A80002093350445ED50E05093420440934104B7
:102A900044ED50E0509344044093430440ED50E033
:102AA000509346044093450441ED50E05093480450
:102AB0004093470442ED50E050934A044093490448
:102AC00046ED50E050934C0440934B0410924E045A
:102AD00010924F0410925004109251041092D50499
:102AE0001092D4048093D6049093D704A093D80472
:102AF000B093D9043093D3042093D20485EC90E0B2
:102B00009093DF048093DE0484EC90E09093E104E2
:102B10008093E00480EC90E09093E3048093E204DF
:102B200081EC90E09093E5048093E40482EC90E0E3
:102B30009093E7048093E60486EC90E09093E90498
:102B40008093E8041092EB041092EC041092ED04D0
:102B50001092EE0480910F0290911002A091110248
:102B6000B09112028093A6069093A706A093A806A0
:102B7000B093A9068091130290911402A0911502BE
:102B8000B09116028093AA069093AB06A093AC0670
:102B9000B093AD0684E08093AE0687E08093AF06E5
:102BA0001092B00684EB8093B10686E18093B20662
:102BB00088E18093B30687E18093B40689E180932E
:102BC000B506E0917D06EC3020F08FEF8093B606DD
:102BD00010C081E08E0F80937D06E093B60685E0FD
:102BE000E89FF0011124EF5BF94F88EB9BE09283A3
:102BF0008183E0917D06EC3020F08FEF8093B70663
:102C000010C081E08E0F80937D06E093B70685E0CB
:102C1000E89FF0011124EF5BF94F88EB9BE0928372
:102C200081838CE08093850684E28093860686E02B
:102C30008093870685E0809388068FE180938906DC
:102C40008EE180938A0683E280938B0682E28093F2
:102C50008C0685E480938D0684E480938E0680E460
:102C600080939106109296061092970610929806FD
:102C70001092990610929A0610929B0610929C064A
:102C800010929D06E1ECF6E02FE737E08FEF9FEF23
:102C9000DC0112821382148215821682178210863A
:102CA000118683879487A587B6878787908BA18BAA
:102CB000B28B12861182108273962E173F0749F746
:102CC0008DE090E00E944819FC01138212828FE38C
:102CD00092E091838083118687E2848384E18287F6
:102CE00084E083871486F093BE06E093BD061092BD
:102CF000BF061092C00685E280937005109272059F
:102D000010927F0610927E06109281061092800625
:102D1000109283061092820661E070E080E090E0FD
:102D20000E94691A009789F090937F0680937E062F
:102D300010928106109280062091820630918306BF
:102D4000232BC1F4FC01108215C080917E06909166
:102D50007F06009711F00E94E01910927F061092F2
:102D60007E061092830610928206109281061092BF
:102D700080060895109283061092820662E772E040
:102D800080917E0690917F060C945C1B0E94081730
:102D900008F481E00895E89409C097FB3EF490950B
:102DA0008095709561957F4F8F4F9F4F9923A9F024
:102DB000F92F96E9BB279395F695879577956795B3
:102DC000B795F111F8CFFAF4BB0F11F460FF1BC0F7
:102DD0006F5F7F4F8F4F9F4F16C0882311F096E98A
:102DE00011C0772321F09EE8872F762F05C0662338
:102DF00071F096E8862F70E060E02AF09A95660FF1
:102E0000771F881FDAF7880F9695879597F90895A9
:102E1000990F0008550FAA0BE0E8FEEF16161706EB
:102E2000E807F907C0F012161306E407F50798F053
:102E3000621B730B840B950B39F40A2661F0232B6C
:102E4000242B252B21F408950A2609F4A140A695E8
:102E50008FEF811D811D08950E943F170C94B017BC
:102E60000E94A21738F00E94A91720F0952311F0B4
:102E70000C9499170C949F1711240C94E4170E943A
:102E8000C11770F3959FC1F3950F50E0551F629FD6
:102E9000F001729FBB27F00DB11D639FAA27F00DB3
:102EA000B11DAA1F649F6627B00DA11D661F829FDA
:102EB0002227B00DA11D621F739FB00DA11D621FBF
:102EC000839FA00D611D221F749F3327A00D611DDC
:102ED000231F849F600D211D822F762F6A2F1124BE
:102EE0009F5750409AF0F1F088234AF0EE0FFF1FF1
:102EF000BB1F661F771F881F91505040A9F79E3F48
:102F0000510580F00C9499170C94E4175F3FE4F39B
:102F1000983ED4F3869577956795B795F795E7959D
:102F20009F5FC1F7FE2B880F911D9695879597F9A6
:102F3000089597F99F6780E870E060E008959FEF3B
:102F400080EC089500240A94161617061806090640
:102F5000089500240A94121613061406050608950F
:102F6000092E0394000C11F4882352F0BB0F40F497
:102F7000BF2B11F460FF04C06F5F7F4F8F4F9F4FD7
:102F8000089557FD9058440F551F59F05F3F71F059
:102F90004795880F97FB991F61F09F3F79F08795C0
:102FA0000895121613061406551FF2CF4695F1DF49
:102FB00008C0161617061806991FF1CF86957105D9
:102FC000610508940895E894BB2766277727CB010D
:102FD00097F90895A1E21A2EAA1BBB1BFD010DC093
:102FE000AA1FBB1FEE1FFF1FA217B307E407F507B9
:102FF00020F0A21BB30BE40BF50B661F771F881F95
:10300000991F1A9469F760957095809590959B012A
:10301000AC01BD01CF010895991B79E004C0991F4F
:10302000961708F0961B881F7A95C9F78095089522
:10303000EE0FFF1F881F8BBF0790F691E02D1994AC
:103040002A0D3B1D4C1D5D1D6E1D7F1D801F911F98
:1030500008955058BB27AA270E9441180C94B01716
:103060000E94A21738F00E94A91720F039F49F3F60
:1030700019F426F40C949F170EF4E095E7FB0C94DA
:103080009917E92F0E94C11758F3BA1762077307FF
:103090008407950720F079F4A6F50C94E3170EF455
:1030A000E0950B2EBA2FA02D0B01B90190010C0158
:1030B000CA01A0011124FF27591B99F0593F50F470
:1030C000503E68F11A16F040A22F232F342F4427C8
:1030D000585FF3CF469537952795A795F0405395C0
:1030E000C9F77EF41F16BA0B620B730B840BBAF090
:1030F0009150A1F0FF0FBB1F661F771F881FC2F7FB
:103100000EC0BA0F621F731F841F48F4879577950E
:103110006795B795F7959E3F08F0B0CF9395880FC8
:1031200008F09927EE0F9795879508950E94AA18A1
:103130000C94B0170E94A91758F00E94A21740F0F3
:1031400029F45F3F29F00C94991751110C94E4175E
:103150000C949F170E94C11768F39923B1F355236C
:1031600091F3951B550BBB27AA276217730784079A
:1031700038F09F5F5F4F220F331F441FAA1FA9F330
:1031800035D00E2E3AF0E0E832D091505040E6951E
:10319000001CCAF72BD0FE2F29D0660F771F881F7F
:1031A000BB1F261737074807AB07B0E809F0BB0B72
:1031B000802DBF01FF2793585F4F3AF09E3F510586
:1031C00078F00C9499170C94E4175F3FE4F3983E61
:1031D000D4F3869577956795B795F7959F5FC9F76F
:1031E000880F911D9695879597F90895E1E0660FF0
:1031F000771F881FBB1F621773078407BA0720F069
:10320000621B730B840BBA0BEE1F88F7E0950895D1
:103210000E940F196894B1110C94E41708950E944C
:10322000C91788F09F5798F0B92F9927B751B0F078
:10323000E1F0660F771F881F991F1AF0BA95C9F73A
:1032400014C0B13091F00E94E317B1E008950C94DE
:10325000E317672F782F8827B85F39F0B93FCCF391
:10326000869577956795B395D9F73EF490958095B7
:10327000709561957F4F8F4F9F4F08950E9408175B
:1032800008F48FEF08950E940817880B990B089592
:103290000F931F93CF93DF938230910510F482E058
:1032A00090E0E091F507F091F60720E030E0A0E033
:1032B000B0E0309719F140815181028113814817A4
:1032C0005907C8F08417950769F4109731F01296E2
:1032D0000C93129713961C9327C00093F507109335
:1032E000F60722C02115310519F04217530718F4CB
:1032F0009A01BD01EF01DF01F801DBCF2115310596
:10330000F9F0281B390B2430310580F48A819B8128
:103310006115710521F0FB019383828304C09093B2
:10332000F6078093F507FE01329644C0FE01E20FD6
:10333000F31F8193919322503109398328833AC036
:103340002091F3073091F407232B41F420910B02D5
:1033500030910C023093F4072093F3072091090277
:1033600030910A022115310541F42DB73EB7409145
:103370000D0250910E02241B350BE091F307F091E2
:10338000F407E217F307A0F42E1B3F0B28173907A9
:1033900078F0AC014E5F5F4F2417350748F04E0FB1
:1033A0005F1F5093F4074093F3078193919302C0FA
:1033B000E0E0F0E0CF01DF91CF911F910F910895F0
:1033C000CF93DF93009709F481C0FC0132971382F9
:1033D0001282A091F507B091F607109781F4208131
:1033E0003181820F931F2091F3073091F407281742
:1033F000390751F5F093F407E093F30767C0ED0147
:1034000020E030E0CE17DF0740F44A815B819E0167
:1034100041155105F1F0EA01F5CFD383C283408114
:103420005181840F951FC817D90759F48881998154
:10343000840F951F0296918380838A819B81938359
:1034400082832115310529F4F093F607E093F507FF
:103450003DC0E901FB83EA8349915991C40FD51F0F
:10346000EC17FD0761F480819181840F951F02960E
:10347000E90199838883828193819B838A83E0E039
:10348000F0E012968D919C911397009719F0FD0131
:10349000DC01F7CF8D919C9111979D012E5F3F4FDD
:1034A000820F931F2091F3073091F40728173907F3
:1034B00069F4309729F41092F6071092F50702C0CC
:1034C00013821282B093F407A093F307DF91CF9198
:1034D00008956F927F928F929F92AF92BF92CF92F8
:1034E000DF92EF92FF920F931F93CF93DF9300979A
:1034F00089F4CB01DF91CF911F910F91FF90EF9055
:10350000DF90CF90BF90AF909F908F907F906F9003
:103510000C944819FC01E60FF71F9C012250310959
:10352000E217F30708F4A9C0EC01D9010D911C9131
:10353000119706171707B0F00530110508F49BC066
:10354000C80104978617970708F495C0025011091F
:10355000061B170B019311936D937C93CF010E946F
:10356000E01989C05B01A01AB10A4C01800E911EBE
:10357000A091F507B091F607612C712CE12CF12C8C
:10358000109709F446C08D919C911197A815B90523
:10359000B1F56C0142E0C40ED11CCA14DB0478F111
:1035A0004C018A189B08640142E0C40ED11C12969B
:1035B000BC9012971396AC91B5E0CB16D10440F0B5
:1035C000B282A38391828082D9016D937C9309C0DA
:1035D0000E5F1F4F800F911FF90191838083EB2DA8
:1035E000FA2FE114F10431F0D7011396FC93EE9316
:1035F000129741C0F093F607E093F5073CC06816B8
:10360000790608F43C017D0112960D90BC91A02D25
:10361000B7CF8091F3079091F40788169906E1F4EB
:1036200066167706C8F48091090290910A02009705
:1036300041F48DB79EB740910D0250910E02841B4C
:10364000950BE817F907C8F4F093F407E093F30734
:10365000F901718360830FC0CB010E9448197C017E
:10366000009759F0A801BE010E94531BCE010E9491
:10367000E019C70104C0CE0102C080E090E0DF91F4
:10368000CF911F910F91FF90EF90DF90CF90BF905F
:10369000AF909F908F907F906F90089581E090E021
:1036A000F8940C94631BFB01DC0102C001900D92A5
:1036B00041505040D8F70895FB01DC0101900D9274
:1036C0000020E1F7089511E0C4E9D1E000E006C070
:1036D000802FFE010E9418182196011DC539D107BF
:0A36E00080E00807A9F7F894FFCF77
:1036EA00CDCCCC3E0000803FFF0000F7072000361B
:1036FA003738391B1D1A1C00000000250AF8090F6B
:10370A0003CC09F009DC09CD09000000006F02C8EA
:10371A0001F201BC0223020102150200000000149A
:10372A0003C8010F030E03436563692065737420A0
:10373A006C65207465737420697342756D70657267
:10374A0028332900473A200020657420443A200093
:10375A000D0A0044C3A962757420646573207669F2
:10376A007465737365730044C3A9627574206465D4
:10377A00732065727265757200503A200020657474
:10378A0020493A200020706F757220756E6520639B
:10379A006F72722064653A20006E616E00696E660F
:1037AA00006F7666004365636920657374206C65F3
:1037BA00207465737420697342756D70657228325E
:0237CA002900D4
:00000001FF
