:100000000C9495010C94C6010C94C6010C94C60185
:100010000C94C6010C94C6010C94C6010C94C60144
:100020000C94C6010C941F050C941F050C941F051D
:100030000C94C6010C94F0060C94C6010C94C601F5
:100040000C94C6010C94F80A0C94C6010C94C601D9
:100050000C94C6010C94C6010C94C6010C94A80C17
:100060000C94C6010C945F080C9435080C94C601DE
:100070000C94C6010C94C6010C94C6010C94C601E4
:100080000C94C6010C94C6010C94C6010C94C601D4
:100090000C94C6010C94C6010C94C6010C94ED039B
:1000A0000C94C6010C94C6010C94C6010C94C601B4
:1000B0000C94C6010C94C6010C94C6010C948908DA
:1000C0000C94C6010C94C6010C94C6010C940B0848
:1000D0000C94E1070C94C6010C94B7070C948D079F
:1000E0000C94C601A809AD09B209BC09C6093F0AAA
:1000F000D009D809E009EA09F409FE090D0A170A2E
:100100003F0A210A2B0A350AF70BFA0BE90BED0B14
:10011000F30B310CFE0B020C080C0C0C100C160C23
:100120001A0C1E0C310C240C280C2C0C0C942806D8
:100130000C9484020C94100C0C94FE090C94E009AD
:100140000C94FE0B0C9459020C94310C0C94C609BF
:100150000C94C7060C94AB050C942B0A0C94BA05AE
:100160000C94240C0C94350A0C94B1020C94F409F0
:100170000C94ED0B0C94F70B0C94AD090C94020C41
:100180000C94CB060C94CE050C94B2090C94DC05AF
:100190000C940D0A0C94210A0C94BC090C9458027E
:1001A0000C94080C0C94170A0C941A0C0C948105EE
:1001B0000C940C0C0C942C0C0C947C020C94D00918
:1001C0000C943F0A0C94EC130C94E90B0C94160C51
:1001D0000C94280C0C9457020C94D8090C947506B6
:1001E0000C9468020C94C8060C94EA090C94FA0B5F
:1001F0000C94F30B0C94D4150C94A8090C9456028F
:100200000C941E0C00002200250028002B002E005C
:100210003100340002010000050108010B0100005B
:1002200020002300260029002C002F0032000001AE
:100230000000030106010901050505050705080879
:100240000808020202020A0A080804040404010160
:100250000101010101010303030303030303040775
:1002600007070C0C0C0C0C0C0C0C0202020206060C
:100270000606060606060B0B0B0B0B0B0B0B0102FF
:1002800010202008081020401020408002010201A8
:100290000804020101020408102040808040201060
:1002A00008040201800402018040201008040201B9
:1002B0000804020101020408102040800102040821
:1002C0001020408000000A0B02090C0D0E080703E5
:1002D0000401000000000000000000000000000019
:1002E000000000000000000000000000000000000E
:1002F00012111000000000000000000000000000CB
:1003000000000000000000000000020000210024A6
:100310000027002A002D00300033000101000004F6
:100320000107010A0100EC13D41511241FBECFEF01
:10033000D1E2DEBFCDBF00E00CBF12E0A0E0B2E032
:10034000E8E1F5E300E00BBF02C007900D92A83F83
:10035000B107D9F727E0A8EFB2E001C01D92AD3F89
:10036000B207E1F711E0C4E9D1E000E006C021974F
:100370000109802FFE010E943417C339D10780E0A4
:100380000807A9F70E94F20C0C947A1A0C9400004A
:1003900030913303313208F04BC080913103811129
:1003A000FCCF90910E0722E02093310321E02093AF
:1003B00030032FEF2093EC061092EB063093EA0601
:1003C000EEEEF6E0AAECB6E020E0321721F0419123
:1003D0004D932F5FFACF1092C9062091C906990F4D
:1003E000922B9093C90690912F03913061F4109253
:1003F0002F039091C9069093BB009091BC0093FD90
:10040000F8CF95EC01C095EE9093BC00909131032C
:100410009230E1F39091EC069F3F79F08091EC06E9
:10042000803241F08091EC06803331F084E005C0E9
:1004300081E003C082E001C083E010923203109299
:1004400033031092ED06089585ED8093BC008091F2
:10045000BC0084FDFCCF1092310308954091A606A4
:10046000262F30E0240F311D21323105DCF420919C
:1004700031032430C9F4FC0180E090E0861758F481
:100480003091A6062191DC01AA57B94FA30FB11DE7
:100490002C930196F3CF8091A606680F6093A60671
:1004A00080E0089581E0089582E008950895089518
:1004B0000895E0912A0380912903E81730F4F0E0D1
:1004C000EA59F94F808190E008958FEF9FEF0895EA
:1004D00090912A0380912903981750F4E92FF0E0B6
:1004E000EA59F94F208130E09F5F90932A0302C0C0
:1004F0002FEF3FEFC90108958091290390E02091EB
:100500002A03821B91090895CF92DF92EF92FF9206
:100510000F931F93CF93DF937C01CB018A0120912E
:10052000ED06222389F0EB016B01C40ED51ECC151C
:10053000DD0569F06991D701ED91FC910190F081A1
:10054000E02DC7011995F3CF642F0E942E02C80138
:10055000DF91CF911F910F91FF90EF90DF90CF909F
:100560000895CF93DF931F92CDB7DEB769832091B3
:10057000ED062223D1F020913303203240F021E018
:1005800030E0FC013383228380E090E015C080914D
:100590003203E82FF0E0E251F94F998190838F5FA9
:1005A000809332038093330305C061E0CE0101964E
:1005B0000E942E0281E090E00F90DF91CF9108958C
:1005C000009769F0FC0101900020E9F73197AF0135
:1005D000481B590BBC018AE794E00C94810580E02C
:1005E00090E00895CF93DF930E94E002EC0186E84B
:1005F00092E00E94E0028C0F9D1FDF91CF91089541
:100600000F931F93CF93DF93162F072FCDE2D6E0E2
:100610009C8521E02093ED0690930E071092320303
:1006200010923303AA85BB85ED91FC91119701903F
:10063000F081E02D682FCD0119958A859B85DC011D
:10064000ED91FC910190F081E02D602F19958A8544
:100650009B85DC01ED91FC910190F081E02D612FF3
:100660001995DF91CF911F910F910C94C8018F9232
:100670009F92AF92BF920F931F93CF93DF93CDB70B
:10068000DEB7A1970FB6F894DEBF0FBECDBF19A29B
:10069000423008F44AE08E010F5D1F4F842E912CEA
:1006A000A12CB12CA50194010E940617E62FB901D7
:1006B000CA0101501109EA3014F4E05D01C0E95C9F
:1006C000D801EC93232B242B252B61F7C8010E9422
:1006D000E002A1960FB6F894DEBF0FBECDBFDF914A
:1006E000CF911F910F91BF90AF909F908F900895E1
:1006F0000C94E002CF92DF92EF92FF92CF93DF93C0
:1007000097FF1BC06B017C016DE28AE794E00E94B9
:100710002806EC0166277727CB016C197D098E0925
:100720009F094AE00E9437038C0F9D1FDF91CF91F4
:10073000FF90EF90DF90CF9008954AE0DF91CF9146
:10074000FF90EF90DF90CF900C943703BC01990F8E
:10075000880B990B0C947A03FC01248131E03093CF
:10076000ED0620930E071092320310923303848516
:10077000682B84E393E00E94B1020C94C8010F93AC
:100780001F93CF938C01C62F64600E94AC036C2F23
:100790006B7FC8010E94AC0383EC90E00197F1F7F6
:1007A000CF911F910F910895FC01A089B1898C917F
:1007B000A689B78982FD0FC09C91818D8F5F8F7351
:1007C000228D821749F0218DDF01A20FB11D5D96A8
:1007D0009C93818F08958C9108951F920F920FB66C
:1007E0000F9211240BB60F922F933F934F935F9369
:1007F0006F937F938F939F93AF93BF93EF93FF93E9
:100800008091B900887F803609F49CC068F58832F1
:1008100009F45BC090F4803109F454C038F48823A3
:1008200009F4F6C0883009F44DC0F6C0883109F4E7
:100830004CC0803209F45DC0EFC0803409F468C058
:1008400048F4803309F455C0883309F0E5C080933B
:10085000EC06D8C0803509F44FC0883509F45DC076
:10086000883409F0D9C0D6C0883909F4C7C0A8F4C3
:10087000883709F467C038F4883609F463C08037D4
:1008800009F460C0C9C0883809F4B8C0803909F4D7
:100890005FC0803809F0C0C05BC0803B09F486C0EF
:1008A00038F4803A09F466C0883A09F47FC0B4C0CD
:1008B000803C09F4A7C0883C09F4A4C0883B09F433
:1008C0008AC0AAC08091C90610C09091EB068091A1
:1008D000EA06981770F5E091EB0681E08E0F8093A1
:1008E000EB06F0E0E653F94F80818093BB0085EC86
:1008F00086C08093EC068EC0E091EB0681E08E0FFF
:100900008093EB068091BB00F0E0E653F94F8083C3
:100910009091EB068091EA066EC0E091EB0681E0D3
:100920008E0F8093EB068091BB00F0E0E653F94F09
:1009300080838091300381116DC081E080932F030B
:1009400084EA61C083E0809331031092C806CFCF60
:100950008091C806803208F051C0E091C80681E05D
:100960008E0F8093C8068091BB00F0E0E855F94FE8
:100970008083BDCF85EC8093BC00109231038091C1
:10098000C806803230F4E091C806F0E0E855F94F2F
:1009900010826091C80670E0E0912D03F0912E0363
:1009A00088EA96E019951092C80636C084E08093D4
:1009B00031031092A7061092A606E0912B03F09146
:1009C0002C0319958091A606811105C081E08093C2
:1009D000A60610928606E091A70681E08E0F80930E
:1009E000A706F0E0EA57F94F80818093BB00909111
:1009F000A7068091A606981708F479CF85E880931A
:100A0000BC000AC085EC8093BC001092310304C086
:100A10001092EC060E942402FF91EF91BF91AF91DA
:100A20009F918F917F916F915F914F913F912F9106
:100A30000F900BBE0F900FBE0F901F9018951F9236
:100A40000F920FB60F9211240F900FBE0F901F90B0
:100A50001895CF93DF93282F30E0F901EC53FD4F29
:100A60008491F901E258FD4FD491F901E85CFD4F02
:100A7000C491CC2391F081110E94DC0BEC2FF0E0AB
:100A8000EE0FFF1FE25EFD4FA591B491EC91ED23B7
:100A900081E090E021F480E002C080E090E0DF910E
:100AA000CF9108951F93CF93DF93282F30E0F90162
:100AB000EC53FD4F8491F901E258FD4FD491F901B7
:100AC000E85CFD4FC491CC23C1F0162F81110E9428
:100AD000DC0BEC2FF0E0EE0FFF1FEC5FFD4FA5915C
:100AE000B4919FB7F894111104C08C91D095D8237C
:100AF00002C0EC91DE2BDC939FBFDF91CF911F9161
:100B00000895CF92DF92EF92FF920F931F93CF93AE
:100B1000DF936C017A018B01C0E0D0E0CE15DF05D8
:100B200081F0D8016D918D01D601ED91FC9101907C
:100B3000F081E02DC6011995892B11F02196EECF99
:100B40007E01C701DF91CF911F910F91FF90EF9030
:100B5000DF90CF900895FC01538D448D252F30E018
:100B6000842F90E0821B930B541710F0CF960895BA
:100B700001970895FC01918D828D981761F0828D07
:100B8000DF01A80FB11D5D968C91928D9F5F9F73C1
:100B9000928F90E008958FEF9FEF0895FC01918D63
:100BA000828D981731F0828DE80FF11D858D90E0D0
:100BB00008958FEF9FEF0895FC01918D228D892F6D
:100BC00090E0805C9F4F821B91098F739927089555
:100BD00080E493E00E94DC0521E0892B09F420E009
:100BE000822F08958DED93E00E94DC0521E0892B92
:100BF00009F420E0822F08958AE794E00E94DC0542
:100C000021E0892B09F420E0822F0895FC01848DD6
:100C1000DF01A80FB11DA35ABF4F2C91848D90E026
:100C200001968F739927848FA689B7892C93A08901
:100C3000B1898C91837080648C93938D848D98138B
:100C400006C00288F389E02D80818F7D808308951E
:100C5000EF92FF920F931F93CF93DF93EC0181E00C
:100C6000888F9B8D8C8D981305C0E889F9898081C8
:100C700085FD26C0F62E0B8D10E00F5F1F4F0F7302
:100C80001127E02E8C8DE8120CC00FB607FCFACFAE
:100C9000E889F989808185FFF5CFCE010E9406069B
:100CA000F1CF8B8DFE01E80FF11DE35AFF4FF0826B
:100CB0009FB7F8940B8FEA89FB89808180620AC014
:100CC0009FB7F894EE89FF896083E889F98980816C
:100CD0008370806480839FBF81E090E0DF91CF913B
:100CE0001F910F91FF90EF900895CF93DF93EC0148
:100CF000888D8823C9F0EA89FB89808185FD05C03C
:100D0000A889B9898C9186FD0FC00FB607FCF5CF75
:100D1000808185FFF2CFA889B9898C9185FFEDCFBD
:100D2000CE010E940606E7CFDF91CF910895E0E063
:100D3000F0E0199480E090E0892B21F00E94FC05FE
:100D4000811119C080E090E0892B41F080E090E0B3
:100D5000892B21F00E940000811110C00E94F20531
:100D600081110FC080E090E0892B81F00E94E8059E
:100D700081110AC008950E940000E4CF0E94000083
:100D8000EDCF0E949706EECF0C94000008950895D1
:100D900080E090E008950F931F93CF93DF938C0131
:100DA000C62FD62FD07FD1606D2F0E94AC036D2F40
:100DB000C8010E94BF0380E1C89FB0011124C62F63
:100DC000C1606C2FC8010E94AC036C2FC8010E9447
:100DD000BF0381E090E0DF91CF911F910F910895C3
:100DE0001F920F920FB60F9211240BB60F922F93F2
:100DF0003F934F935F936F937F938F939F93AF93A3
:100E0000BF93EF93FF938091EC079091ED07A09132
:100E1000EE07B091EF07892B8A2B8B2B49F190912C
:100E2000EB07809100008927809300008091EC07F8
:100E30009091ED07A091EE07B091EF0718161906F3
:100E40001A061B060CF056C08091EC079091ED0736
:100E5000A091EE07B091EF070197A109B109809326
:100E6000EC079093ED07A093EE07B093EF0742C015
:100E700080910702EAE0F3E0E4919FEF909307028C
:100E8000E230C9F050F4EE2399F0E13081F5909111
:100E90006F009D7F90936F002AC0E43019F1E0F05D
:100EA000E53029F5909173009D7F909373001FC0EA
:100EB00010926E001CC0909170009D7F9093700006
:100EC00091E09093B0009091B100987F94609093DE
:100ED000B1001092B3000BC0909171009D7F909370
:100EE000710005C0909172009D7F9093720060E048
:100EF0000E945205FF91EF91BF91AF919F918F9109
:100F00007F916F915F914F913F912F910F900BBE09
:100F10000F900FBE0F901F9018951F920F920FB653
:100F20000F9211240BB60F922F933F934F935F9321
:100F30006F937F938F939F93AF93BF93EF93FF93A1
:100F400080E493E00E940606FF91EF91BF91AF917C
:100F50009F918F917F916F915F914F913F912F91D1
:100F60000F900BBE0F900FBE0F901F9018951F9201
:100F70000F920FB60F9211240BB60F922F933F933F
:100F80004F935F936F937F938F939F93AF93BF9391
:100F9000EF93FF9380E493E00E94D403FF91EF91DD
:100FA000BF91AF919F918F917F916F915F914F9181
:100FB0003F912F910F900BBE0F900FBE0F901F907F
:100FC00018951F920F920FB60F9211240BB60F9225
:100FD0002F933F934F935F936F937F938F939F9341
:100FE000AF93BF93EF93FF938DED93E00E940606BE
:100FF000FF91EF91BF91AF919F918F917F916F91F1
:101000005F914F913F912F910F900BBE0F900FBEAC
:101010000F901F9018951F920F920FB60F921124E8
:101020000BB60F922F933F934F935F936F937F93E2
:101030008F939F93AF93BF93EF93FF938DED93E0C7
:101040000E94D403FF91EF91BF91AF919F918F9137
:101050007F916F915F914F913F912F910F900BBEB8
:101060000F900FBE0F901F9018951F920F920FB602
:101070000F9211240BB60F922F933F934F935F93D0
:101080006F937F938F939F93AF93BF93EF93FF9350
:101090008AE794E00E940606FF91EF91BF91AF911D
:1010A0009F918F917F916F915F914F913F912F9180
:1010B0000F900BBE0F900FBE0F901F9018951F92B0
:1010C0000F920FB60F9211240BB60F922F933F93EE
:1010D0004F935F936F937F938F939F93AF93BF9340
:1010E000EF93FF938AE794E00E94D403FF91EF917E
:1010F000BF91AF919F918F917F916F915F914F9130
:101100003F912F910F900BBE0F900FBE0F901F902D
:1011100018951F920F920FB60F9211240BB60F92D3
:101120002F933F934F935F936F937F938F939F93EF
:10113000AF93BF93EF93FF93809118050E94290509
:1011400020911C0530911D052F5F3F4F30931D05E9
:1011500020931C0590911B05953618F096E090930E
:101160001705909117059430C9F128F4923069F071
:101170009330D1F05EC0953009F451C0963009F03B
:1011800058C091E09093E80551C0811152C0209160
:101190001C0530911D052436310508F442C010921B
:1011A000E80510921B051CC0813009F042C0E09197
:1011B0001B0591E09E0F90931B05F0E020911C050C
:1011C00030911D05EE0FFF1FE95EFA4F3087278330
:1011D00010921D0510921C0594E029C0811117C0C2
:1011E000E0911B0591E09E0F90931B05F0E020918C
:1011F0001C0530911D05EE0FFF1FE95EFA4F308789
:10120000278310921D0510921C0593E010C02091B9
:101210001C0530911D052536310558F007C0811198
:1012200008C010921D0510921C0503C095E0909314
:10123000170590911A059923B9F081110AC0809180
:101240001905882321F08091190561E009C02F9AC2
:101250000BC080911905882331F08091190560E059
:101260000E94520501C02F98FF91EF91BF91AF915D
:101270009F918F917F916F915F914F913F912F91AE
:101280000F900BBE0F900FBE0F901F9018958F926E
:101290009F92AF92BF92CF92DF92EF92FF920F9305
:1012A0001F93CF93DF938C016A017B0120E030E034
:1012B0004FE753E4C701B6010E9440164B015C01A1
:1012C00020E030E0A9010E945A1818161CF4C5014C
:1012D000B40103C0C501B40190580E942418EB0169
:1012E00020E030E0A901C701B6010E945A18181683
:1012F00014F460E001C061E0F80181810E945205B0
:10130000CF3FD10509F014F4DD2702C0CFEFD0E0C4
:10131000F801108161E0812F0E94320C209709F4BE
:10132000B1C0CF3FD10509F4AFC0E12FF0E0EC53DD
:10133000FD4FE4918E2F90E0FC013197E231F105F1
:1013400008F09DC08827EE58FF4F8F4F0C9434173C
:1013500084B5806884BDC7BDA7C084B5806284BDE4
:10136000C8BDA2C080918000806880938000D09327
:101370008900C093880098C080918000806280932B
:101380008000D0938B00C0938A008EC08091800033
:10139000886080938000D0938D00C0938C0084C0BF
:1013A0008091B00080688093B000C093B3007CC08F
:1013B0008091B00080628093B000C093B40074C08C
:1013C00080919000806880939000D0939900C093A2
:1013D00098006AC080919000806280939000D093C2
:1013E0009B00C0939A0060C08091900088608093B9
:1013F0009000D0939D00C0939C0056C08091A000A7
:1014000080688093A0008091A0008F7B8093A000D3
:10141000D093A900C093A80047C08091A00080622B
:101420008093A000D093AB00C093AA003DC08091F0
:10143000A00088608093A000D093AD00C093AC0062
:1014400033C080912001806880932001D0932901CE
:10145000C093280129C080912001806280932001DF
:10146000D0932B01C0932A011FC080912001886076
:1014700080932001D0932D01C0932C0115C0C0385A
:10148000D10514F460E001C061E0812FDF91CF91BC
:101490001F910F91FF90EF90DF90CF90BF90AF9092
:1014A0009F908F900C945205DF91CF911F910F91D7
:1014B000FF90EF90DF90CF90BF90AF909F908F9074
:1014C00008958EBD00000DB407FEFDCF8EB50895C2
:1014D000CF93DF93EC0160E088810E94520588E998
:1014E0000E94610A80E00E94610A80E00E94610A15
:1014F00080E00E94610A80E00E94610A61E08881C8
:101500000E9452058BE891E00197F1F760E0888135
:101510000E94520580EE0E94610A61E08881DF919D
:10152000CF910C945205AF92BF92CF92DF92EF927F
:10153000FF920F931F93CF93DF93CDB7DEB76097E2
:101540000FB6F894DEBF0FBECDBF5C0160E0FC01BA
:1015500080810E94520580E60E94610A8E010F5F21
:101560001F4F7E01F1E1EF0EF11C680180E00E9447
:10157000610A90E0A0E0B0E0F60181939193A1931D
:10158000B1936F01EE15FF0589F761E0F5018081E8
:101590000E94520580E090E0DC01F80141915191F8
:1015A000619171918F01BA2FA92F982F8827840FED
:1015B000951FA61FB71FEE15FF0579F79C01AD011A
:1015C00066277727CB01621B730B840B950B609604
:1015D0000FB6F894DEBF0FBECDBFDF91CF911F9144
:1015E0000F91FF90EF90DF90CF90BF90AF90089554
:1015F0001F920F920FB60F9211240BB60F922F93DA
:101600003F934F935F936F937F938F939F93AF938A
:10161000BF93EF93FF938091EA0787FF05C0109275
:1016200085001092840016C02091EA07022E000C5B
:10163000330B8091250690E0281739075CF4309130
:10164000EA0725E03203F0011124E751FA4F8081C7
:1016500086FD15C08091EA078F5F8093EA0720918D
:10166000EA07022E000C330B8091250690E0281724
:10167000390794F48091EA078C302CF10DC0309139
:10168000EA073203F0011124E751FA4F808160E04C
:101690008F730E945205DECF809184009091850067
:1016A00084349C4918F480E49CE905C0809184004E
:1016B00090918500049690938900809388008FEF25
:1016C0008093EA072AC040918400509185003091B0
:1016D000EA0725E03203F0011124E751FA4F818136
:1016E0009281840F951F9093890080938800309198
:1016F000EA073203F0011124E751FA4F808186FF97
:101700000CC03091EA073203F0011124E751FA4F7F
:10171000808161E08F730E945205FF91EF91BF912C
:10172000AF919F918F917F916F915F914F913F9179
:101730002F910F900BBE0F900FBE0F901F9018951A
:10174000CF92DF92EF92FF9269017A01AB01BC0167
:1017500086E496E00E944709B701A601705888E424
:1017600096E0FF90EF90DF90CF900C9447093FB741
:10177000F8948091F5079091F607A091F707B09142
:10178000F80726B5A89B05C02F3F19F00196A11DAB
:10179000B11D3FBFBA2FA92F982F8827820F911D07
:1017A000A11DB11DBC01CD0142E0660F771F881F4E
:1017B000991F4A95D1F7089590E0FC013197E231E5
:1017C000F10508F04EC08827EC57FF4F8F4F0C945F
:1017D0003417809180008F7703C0809180008F7DC7
:1017E00080938000089580918000877FF9CF84B531
:1017F0008F7702C084B58F7D84BD08958091B0003D
:101800008F7703C08091B0008F7D8093B0000895E2
:10181000809190008F7707C0809190008F7D03C0EA
:1018200080919000877F8093900008958091A00020
:101830008F7707C08091A0008F7D03C08091A000AA
:10184000877F8093A0000895809120018F7707C043
:10185000809120018F7D03C080912001877F80933C
:1018600020010895CF93DF9390E0FC01E258FD4FF3
:101870002491FC01E85CFD4F8491882361F190E0A4
:10188000880F991FFC01E55FFC4FC591D491FC01C5
:10189000EC5FFD4FA591B491611109C09FB7F89419
:1018A0008881209582238883EC912E230BC062309F
:1018B00061F49FB7F8948881322F30958323888311
:1018C000EC912E2B2C939FBF06C08FB7F894E88124
:1018D0002E2B28838FBFDF91CF9108958F929F92F7
:1018E000AF92BF92CF92DF92EF92FF926B017C0199
:1018F0000E94B70B4B015C01C114D104E104F10457
:10190000F1F00E94B70BDC01CB0188199909AA09F3
:10191000BB09883E9340A105B10570F321E0C21ACE
:10192000D108E108F10888EE880E83E0981EA11C1A
:10193000B11CC114D104E104F10419F7DDCFFF900B
:10194000EF90DF90CF90BF90AF909F908F900895D1
:101950001F920F920FB60F9211242F933F938F93E4
:101960009F93AF93BF938091F1079091F207A0915D
:10197000F307B091F4073091F00723E0230F2D37E0
:1019800020F40196A11DB11D05C026E8230F029683
:10199000A11DB11D2093F0078093F1079093F207EA
:1019A000A093F307B093F4078091F5079091F607A1
:1019B000A091F707B091F8070196A11DB11D809382
:1019C000F5079093F607A093F707B093F807BF9138
:1019D000AF919F918F913F912F910F900FBE0F90DC
:1019E0001F901895CF93DF93CDB7DEB7E6970FB66C
:1019F000F894DEBF0FBECDBF789484B5826084BDFD
:101A000084B5816084BD85B5826085BD85B5816002
:101A100085BD80916E00816080936E001092810080
:101A2000809181008260809381008091810081603B
:101A300080938100809180008160809380008091FC
:101A4000B10084608093B1008091B0008160809388
:101A5000B00080919100826080939100809191000C
:101A600081608093910080919000816080939000CC
:101A70008091A10082608093A1008091A10081608B
:101A80008093A1008091A00081608093A00080914C
:101A900021018260809321018091210181608093E6
:101AA00021018091200181608093200180917A0042
:101AB000846080937A0080917A00826080937A00BB
:101AC00080917A00816080937A0080917A008068AA
:101AD00080937A001092C100E0918A04F0918B0407
:101AE00082E08083E0918604F09187041082E09187
:101AF0008804F09189048FEC808310929204E09125
:101B00008E04F0918F0486E08083E0918C04F09144
:101B10008D04808180618083E0918C04F0918D043C
:101B2000808188608083E0918C04F0918D048081B5
:101B300080688083E0918C04F0918D0480818F7D9A
:101B4000808361E080912E060E94320C60E08091DB
:101B50002E060E94520560E080912D060E94320CF4
:101B600084E393E0909338068093370610922A031B
:101B70001092290310923203109233031092310312
:101B800081E08093300310922F0361E084E10E9492
:101B9000520561E085E10E9452058091B9008E7F77
:101BA0008093B9008091B9008D7F8093B90088E45B
:101BB0008093B80085E48093BC0086E592E0909322
:101BC0002C0380932B0387E592E090932E03809360
:101BD0002D0380E090E1A0E0B0E080933A0690937E
:101BE0003B06A0933C06B0933D068AE090E0A0E05F
:101BF000B0E080933E0690933F06A0934006B093DA
:101C0000410680E090E0A0E0B0E48093420690932B
:101C10004306A0934406B093450660E070E185E07A
:101C20000E9400036FE979E380E00E9400030DE267
:101C300016E07801512CEDE66E2EE2E07E2EF3EBFD
:101C40008F2EF2E09F2EABECCA2EA7E0DA2ED70142
:101C500014969C91149712968C91F801818F928F13
:101C600061E00E94320C61E0D8015A968C910E948A
:101C7000320CF701908586815801FDE1AF0EB11C51
:101C8000D8015D968C935D975E969C9361E00E946F
:101C9000320C60E0F801868D0E94320C61E0D801C0
:101CA0005D968C910E9452054FB6F8948091F8028F
:101CB000811126C0F3018491F4012491E82FF0E012
:101CC000EE0FFF1FE55FFC4FA591B4919C91822F11
:101CD000892321F461E085E30E94520561E085E3F8
:101CE0000E94320C8CB580618CBD8CB580648CBD3B
:101CF00061E084E30E94320C61E083E30E94320CD5
:101D00008091F8028F5F8093F8024FBEC601019761
:101D1000F1F760E0D8015D968C910E94520588E849
:101D20000E94610A83E00E94610A61E0F801858DEA
:101D30000E945205C6010197F1F7C5010E94680A89
:101D40005394FFEFEF1AFF0A0E5F1F4F22E052126B
:101D50007ECF62E5E62E66E0F62E06E516E060E050
:101D6000D7018D917D010E94320C0E151F05B9F728
:101D70009EE4E92E96E0F92E28E5C22E26E0D22E2A
:101D800035E0B32E4CE0942E52E0A52EF801819060
:101D90008F0187818C3008F048C061E0882D0E9457
:101DA000320CD80117968C91B89EF0011124E7519E
:101DB000FA4F982D9F732081207C822E892A808261
:101DC00013821482692D0E942817BCE08B9FA0010A
:101DD000112420E030E0BA01620F731FB69EF001BB
:101DE000B79EF00D1124E751FA4F908196FD12C075
:101DF0002F5F3F4F2C30310571F781110BC01092CE
:101E00008000A09281001092850010928400A6BAF2
:101E1000A0926F00D8011796EC91BE9EF00111249C
:101E2000E751FA4F808180648083F8019581838136
:101E3000D70152968C93529753969C9360E00E94E0
:101E4000320C61E0F70183890E94320C60E0D70117
:101E500053968C910E945205B2E0EB0EF11CC01615
:101E6000D10609F093CFF8941092200189E0809375
:101E7000210180E293E09093290180932801109240
:101E800025011092240182E080937300789480935E
:101E9000170510921B058091180560E00E94320C16
:101EA00086E492E00E94F20280E090E00E94FE163A
:101EB000813431F4109206021092050280930402DC
:101EC00080E090E00E94FE16823441F421E030E090
:101ED000309306022093050280930402809105024C
:101EE000909106020E94A603609104028AE794E0A2
:101EF0000E942806809155060E942905892B09F425
:101F000058C48DE592E00E94F202EDB7FEB7FEAB39
:101F1000EDAB80912103811119C02DEC3CEC4CEC10
:101F20005CE3609100027091010280910202909145
:101F300003020E94461760931D0370931E03809353
:101F40001F0390932003F1E0F09321038091150388
:101F5000811117C06091000270910102809102020C
:101F6000909103029B01AC010E94461760931103FC
:101F700070931203809313039093140321E0209332
:101F8000150380910903811117C060911D037091A1
:101F90001E0380911F03909120039B01AC010E94BE
:101FA000461760930503709306038093070390938D
:101FB000080381E080930903ADB7BEB7A85CB109FF
:101FC0000FB6F894BEBF0FBEADBFEDB7FEB73196EA
:101FD0005F018DB79EB7885C91090FB6F8949EBFDC
:101FE0000FBE8DBFA75CB1096D01E159F1400FB67D
:101FF000F894FEBF0FBEEDBF875C91094C01A1595B
:10200000B1400FB6F894BEBF0FBEADBFE75CF1099B
:102010007F01815991400FB6F8949EBF0FBE8DBFCE
:102020000DB71EB70F5F1F4FA855B2400FB6F894FB
:10203000BEBF0FBEADBFE855F2403F0120E030E02B
:1020400040E05FE3609111037091120380911303EC
:10205000909114030E944016609300027093010255
:10206000809302029093030220E030E040E05FE3BF
:102070006091050370910603809107039091080316
:102080000E94401660931D0370931E0380931F03EC
:10209000909320039B868A86BD86AC86D886CF82A5
:1020A000FE82ED821F870E87798A688A7AA269A2EA
:1020B0001AA709A7FE8EED8EDB8ECA8EB8A6AFA238
:1020C00098A28F8E212C312C1FA618AA19AA1AAA01
:1020D0001BAA1CAA00E010E0F1E0F9871C8E8AE43C
:1020E00096E00E94680A8CE496E00E94680A2091BB
:1020F0001D0330911E0340911F03509120036091F6
:1021000000027091010280910202909103020E94EC
:10211000A00B68EC70E080E090E00E946E0C8AE416
:1021200096E00E94930A442455243201461A570A25
:10213000680A790A8CE496E00E94930A69837A839C
:102140008B839C8373016201FF0CCC08DC2C76012D
:102150009201A3016C2D7C2D8C2D9C2DAFA4B8A8D1
:10216000C9A8DAA8EBA8FCA80E943C172A8B3B8BD5
:102170004C8B5D8B6E8B7F8B888F998F2FA738ABA5
:1021800049AB5AAB6BAB7CAB8C018AE792E00E9407
:102190007803C301B2010E947A038EE792E00E94A5
:1021A000780369817A818B819C810E947A0386E819
:1021B00092E00E94E002C301B2010E94E11520E01A
:1021C00030E048E453E40E94B2176B017C0169815E
:1021D0007A818B819C810E94E11520E030E048E407
:1021E00053E40E94B2179B01AC01C701B6010E94E3
:1021F00045174B015C0160930103709302038093C8
:102200000303909304032091FD023091FE0240915C
:10221000FF02509100030E9446176B017C016093FE
:10222000FD027093FE028093FF02909300032091C1
:10223000F9023091FA024091FB025091FC02C50173
:10224000B4010E9445172B013C0120E23CEB4EEB10
:102250005CE4C501B4010E9440162DEC3CEC4CE45A
:102260005DE30E9440160E942418AF8DB8A16D93C3
:102270007D93B8A3AF8F8091000290910102A0914D
:102280000202B091030289839A83AB83BC8320E06E
:1022900030E04AE754E4BC01CD010E9440160E94A0
:1022A0002418AFA1B8A56D937D93B8A7AFA3809173
:1022B0001D0390911E03A0911F03B09120038BA3D7
:1022C0009CA3ADA3BEA320E030E04AE754E4BC01E8
:1022D000CD010E9440160E942418AA8DBB8D6D93DB
:1022E0007D93BB8FAA8F20E23CEB4EEB5CE4C701F1
:1022F000B6010E9440162FE632E143E05AE30E9405
:1023000040160E942418ED8DFE8D61937193FE8F0F
:10231000ED8F20E23CEB4EEB5CE4C301B2010E9486
:10232000401625EB3EEF46E957E30E9440160E9417
:102330002418A9A5BAA56D937D93BAA7A9A72DECDA
:102340003CEC4CE45DE3C501B4010E9440166BA770
:102350007CA78DA79EA72FE632E143E05AE3C70191
:10236000B6010E9440166B017C0125EB3EEF46E969
:1023700057E3C301B2010E9440162B013C01A701A3
:1023800096016BA57CA58DA59EA50E944617A3016D
:1023900092010E944617E9A1FAA16193719381937A
:1023A0009193FAA3E9A3FFEF2F1A3F0A2BA53CA5AF
:1023B0004DA55EA56BA17CA18DA19EA10E94461793
:1023C000A70196010E944617A30192010E94461799
:1023D0006B017C0160931D0370931E0380931F03A8
:1023E00090932003AB01BC01705888E496E00E94F2
:1023F00047098092F9029092FA02A092FB02B092F1
:10240000FC022C8D211114C089819A81AB81BC8181
:102410008093110390931203A0931303B0931403BA
:10242000C0920503D0920603E0920703F0920803DE
:102430002DEC3CEC4CE45FE369817A818B819C81DB
:102440000E945A1887FF2EC09985992361F12DECBF
:102450003CEC4CE85FE369817A818B819C810E942E
:1024600040164B015C01609300027093010280935F
:102470000202909303022DEC3CEC4CE85FE3C701B1
:10248000B6010E9440169B01AC0160931D0370933E
:102490001E0380931F0390932003C501B4010E9483
:1024A000A00B01C019862A893B894C895D896E89F8
:1024B0007F89888D998D2B313A4141055105610500
:1024C00071058105910509F00CF409CE2DEC3CEC69
:1024D0004CE45FE36091000270910102809102027E
:1024E000909103020E9440166B017C0160930002F0
:1024F0007093010280930202909303022DEC3CEC56
:102500004CE45FE360911D0370911E0380911F03F3
:10251000909120030E9440169B01AC0160931D0323
:1025200070931E0380931F0390932003C701B6018D
:102530000E94A00B2A893B894C895D896E897F891D
:10254000888D998D26333443410551056105710508
:102550008105910509F024F4198621E02C8FBFCD67
:1025600020E030E0A901CA01B9010E94A00B8091CE
:1025700052060E942905892BD1F389E892E00E9436
:10258000F20200E010E08AE792E00E947803EC8516
:10259000FD8581919191FD87EC870E94A6038EE7CE
:1025A00092E00E947803AF81B8858D919D91B887A4
:1025B000AF830E94A60386E892E00E94E0020F5FCC
:1025C0001F4F20163106F9F6809153060E94290507
:1025D000892BD1F38DE992E00E94F20200E010E035
:1025E0008FEA92E00E947803EA85FB8581919191C0
:1025F000FB87EA870E94A60383EB92E00E947803A0
:10260000AD81BE818D919D91BE83AD830E94A60355
:102610008EE792E00E947803EE85FF85819191918B
:10262000FF87EE870E94A6038BEB92E00E9478035F
:10263000A889B9896D917D918D919D91B98BA88B58
:1026400020E030E543EC57E40E9440166B017C012A
:102650004B015C019B01AC010E945F18882319F0BB
:102660008FEC92E01AC026013701E89477F82FEF3B
:102670003FEF4FE75FE7C301B2010E945F1881118E
:102680000FC02FEF3FEF4FE75FE7C301B2010E949A
:10269000DA1518162CF483ED92E00E94E00278C05F
:1026A0002FEF3FEF4FE75FE4C701B6010E945A18D2
:1026B00018161CF487ED92E0F0CF2FEF3FEF4FE7B5
:1026C0005FECC701B6010E94DA1587FDF3CF20E069
:1026D00030E0A901C701B6010E94DA1587FF0BC0DF
:1026E0006DE28AE794E00E94280646015701B7FA96
:1026F000B094B7F8B0942AE037ED43EA5BE3C50144
:10270000B4010E9446174B015C010E942B186B011B
:102710007C010E94DF159B01AC01C501B4010E9440
:1027200045174B015C014AE0C701B6010E9437031F
:102730006EE28AE794E00E94280620E030E040E262
:1027400051E4C501B4010E9440164B015C010E9496
:102750002B186B01E12CF12C4AE0C701B6010E9455
:102760003703C701B6010E94DF159B01AC01C5010B
:10277000B4010E94451720E030E040E251E40E949D
:1027800040160E942B1880E090E04AE00E94370338
:1027900086E892E00E94E0020F5F1F4F201631068C
:1027A00009F01ECFEDA9FEA90FB6F894FEBF0FBE2B
:1027B000EDBF809154060E942905892B21F08BEDF5
:1027C00092E00E94F2026AE070E080E090E00E94F5
:1027D0006E0C0E949A0682CB109237031092360339
:1027E00088EE93E0A0E0B0E0809338039093390343
:1027F000A0933A03B0933B032AE132E030933503D0
:1028000020933403109243031092420380934403B5
:1028100090934503A0934603B09347032CE232E024
:10282000309341032093400345E351E050934D031F
:1028300040934C0344E351E050934F0340934E03C5
:1028400040E351E0509351034093500341E351E082
:10285000509353034093520342E351E05093550386
:102860004093540346E351E050935703409356037B
:102870001092590310925A0310925B0310925C035A
:102880001092E0031092DF038093E1039093E20340
:10289000A093E303B093E4033093DE032093DD03BE
:1028A00045ED50E05093EA034093E90344ED50E0D6
:1028B0005093EC034093EB0340ED50E05093EE0354
:1028C0004093ED0341ED50E05093F0034093EF034C
:1028D00042ED50E05093F2034093F10346ED50E097
:1028E0005093F4034093F3031092F6031092F7030E
:1028F0001092F8031092F90310927D0410927C0458
:1029000080937E0490937F04A0938004B09381040D
:1029100030937B0420937A0485EC90E090938704B5
:102920008093860484EC90E09093890480938804DB
:1029300080EC90E090938B0480938A0481EC90E08B
:1029400090938D0480938C0482EC90E090938F049C
:1029500080938E0486EC90E0909391048093900491
:10296000109293041092940410929504109296047D
:1029700080910E0290910F02A0911002B09111026D
:1029800080934E0690934F06A0935006B093510645
:102990008091120290911302A0911402B09115023D
:1029A0008093520690935306A0935406B093550615
:1029B00084E08093560687E080935706109258066D
:1029C00084EB8093590686E180935A0688E18093D0
:1029D0005B0687E180935C0689E180935D06E09168
:1029E0002506EC3020F08FEF80935E0610C081E06A
:1029F0008E0F80932506E0935E0685E0E89FF00148
:102A00001124E751FA4F88EB9BE092838183E09198
:102A10002506EC3020F08FEF80935F0610C081E038
:102A20008E0F80932506E0935F0685E0E89FF00116
:102A30001124E751FA4F88EB9BE0928381838CE06D
:102A400080932D0684E280932E0686E080932F06E5
:102A500085E0809330068FE1809331068EE180938C
:102A6000320683E28093330682E28093340685E463
:102A70008093350684E48093360680E4809339069B
:102A800010923E0610923F061092400610924106A8
:102A90001092420610924306109244061092450688
:102AA000E3E1F7E021ED37E08FEF9FEFDC011282E9
:102AB00013821482158216821782108611868387EC
:102AC0009487A587B6878787908BA18BB28B128658
:102AD0001182108273962E173F0749F78DE090E020
:102AE0000E946418FC01138212828EE392E09183AB
:102AF0008083118687E2848384E1828784E08387F0
:102B00001486F0931007E0930F07109211071092AC
:102B1000120785E28093180510921A051092270675
:102B200010922606109229061092280610922B0663
:102B300010922A0661E070E080E090E00E94851922
:102B4000009789F090932706809326061092290615
:102B50001092280620912A0630912B06232BC1F4CF
:102B6000FC01108215C080912606909127060097DF
:102B700011F00E94FC18109227061092260610925F
:102B80002B0610922A061092290610922806089504
:102B900010922B0610922A0668E872E080912606B1
:102BA000909127060C94731A80912606909127061F
:102BB0000C94FC180E941C1608F481E00895E89417
:102BC00009C097FB3EF490958095709561957F4F75
:102BD0008F4F9F4F9923A9F0F92F96E9BB27939523
:102BE000F695879577956795B795F111F8CFFAF433
:102BF000BB0F11F460FF1BC06F5F7F4F8F4F9F4F64
:102C000016C0882311F096E911C0772321F09EE8C1
:102C1000872F762F05C0662371F096E8862F70E027
:102C200060E02AF09A95660F771F881FDAF7880F01
:102C30009695879597F90895990F0008550FAA0B57
:102C4000E0E8FEEF16161706E807F907C0F01216BF
:102C50001306E407F50798F0621B730B840B950BC2
:102C600039F40A2661F0232B242B252B21F4089517
:102C70000A2609F4A140A6958FEF811D811D0895B4
:102C80000E9453160C94C4160E94B61638F00E9487
:102C9000BD1620F0952311F00C94AD160C94B316CC
:102CA00011240C94F8160E94D51670F3959FC1F369
:102CB000950F50E0551F629FF001729FBB27F00DEA
:102CC000B11D639FAA27F00DB11DAA1F649F66273F
:102CD000B00DA11D661F829F2227B00DA11D621F8E
:102CE000739FB00DA11D621F839FA00D611D221F48
:102CF000749F3327A00D611D231F849F600D211D2C
:102D0000822F762F6A2F11249F5750409AF0F1F0AE
:102D100088234AF0EE0FFF1FBB1F661F771F881F17
:102D200091505040A9F79E3F510580F00C94AD168C
:102D30000C94F8165F3FE4F3983ED4F386957795AC
:102D40006795B795F795E7959F5FC1F7FE2B880FBD
:102D5000911D9695879597F9089597F99F6780E853
:102D600070E060E008959FEF80EC089500240A94DD
:102D70001616170618060906089500240A94121656
:102D80001306140605060895092E0394000C11F489
:102D9000882352F0BB0F40F4BF2B11F460FF04C036
:102DA0006F5F7F4F8F4F9F4F089557FD9058440F8F
:102DB000551F59F05F3F71F04795880F97FB991F9A
:102DC00061F09F3F79F08795089512161306140657
:102DD000551FF2CF4695F1DF08C0161617061806E4
:102DE000991FF1CF86957105610508940895E894BF
:102DF000BB2766277727CB0197F90895F999FECF6E
:102E000092BD81BDF89A992780B50895A1E21A2E46
:102E1000AA1BBB1BFD010DC0AA1FBB1FEE1FFF1F7E
:102E2000A217B307E407F50720F0A21BB30BE40BCE
:102E3000F50B661F771F881F991F1A9469F7609515
:102E40007095809590959B01AC01BD01CF010895CF
:102E5000991B79E004C0991F961708F0961B881FEC
:102E60007A95C9F780950895EE0FFF1F881F8BBFD5
:102E70000790F691E02D19942A0D3B1D4C1D5D1D08
:102E80006E1D7F1D801F911F08955058BB27AA27D4
:102E90000E945D170C94C4160E94B61638F00E946A
:102EA000BD1620F039F49F3F19F426F40C94B316A4
:102EB0000EF4E095E7FB0C94AD16E92F0E94D516B1
:102EC00058F3BA17620773078407950720F079F45F
:102ED000A6F50C94F7160EF4E0950B2EBA2FA02D44
:102EE0000B01B90190010C01CA01A0011124FF27B7
:102EF000591B99F0593F50F4503E68F11A16F040B2
:102F0000A22F232F342F4427585FF3CF46953795B0
:102F10002795A795F0405395C9F77EF41F16BA0B75
:102F2000620B730B840BBAF09150A1F0FF0FBB1F23
:102F3000661F771F881FC2F70EC0BA0F621F731F6C
:102F4000841F48F4879577956795B795F7959E3FC9
:102F500008F0B0CF9395880F08F09927EE0F97955A
:102F6000879508950E94C6170C94C4160E94BD163A
:102F700058F00E94B61640F029F45F3F29F00C94F7
:102F8000AD1651110C94F8160C94B3160E94D51678
:102F900068F39923B1F3552391F3951B550BBB2788
:102FA000AA2762177307840738F09F5F5F4F220FCD
:102FB000331F441FAA1FA9F335D00E2E3AF0E0E8C4
:102FC00032D091505040E695001CCAF72BD0FE2F0E
:102FD00029D0660F771F881FBB1F261737074807A2
:102FE000AB07B0E809F0BB0B802DBF01FF2793585A
:102FF0005F4F3AF09E3F510578F00C94AD160C945B
:10300000F8165F3FE4F3983ED4F38695779567957D
:10301000B795F7959F5FC9F7880F911D969587958E
:1030200097F90895E1E0660F771F881FBB1F6217AD
:1030300073078407BA0720F0621B730B840BBA0B6B
:10304000EE1F88F7E09508950E942B186894B1113F
:103050000C94F81608950E94DD1688F09F5798F09A
:10306000B92F9927B751B0F0E1F0660F771F881F8D
:10307000991F1AF0BA95C9F714C0B13091F00E94A7
:10308000F716B1E008950C94F716672F782F88276C
:10309000B85F39F0B93FCCF3869577956795B395CE
:1030A000D9F73EF490958095709561957F4F8F4F3D
:1030B0009F4F08950E941C1608F48FEF08950E94F8
:1030C0001C16880B990B08950F931F93CF93DF93D2
:1030D0008230910510F482E090E0E091FB07F091DE
:1030E000FC0720E030E0A0E0B0E0309719F140812B
:1030F00051810281138148175907C8F08417950739
:1031000069F4109731F012960C93129713961C9352
:1031100027C00093FB071093FC0722C0211531053F
:1031200019F04217530718F49A01BD01EF01DF01AE
:10313000F801DBCF21153105F9F0281B390B2430BC
:10314000310580F48A819B816115710521F0FB01B5
:103150009383828304C09093FC078093FB07FE0156
:10316000329644C0FE01E20FF31F819391932250E7
:103170003109398328833AC02091F9073091FA0741
:10318000232B41F420910A0230910B023093FA076D
:103190002093F90720910802309109022115310589
:1031A00041F42DB73EB740910C0250910D02241B03
:1031B000350BE091F907F091FA07E217F307A0F455
:1031C0002E1B3F0B2817390778F0AC014E5F5F4F7D
:1031D0002417350748F04E0F5F1F5093FA074093AE
:1031E000F9078193919302C0E0E0F0E0CF01DF9115
:1031F000CF911F910F910895CF93DF93009709F41A
:1032000081C0FC01329713821282A091FB07B0911A
:10321000FC07109781F420813181820F931F209148
:10322000F9073091FA072817390751F5F093FA0793
:10323000E093F90767C0ED0120E030E0CE17DF072B
:1032400040F44A815B819E0141155105F1F0EA018C
:10325000F5CFD383C28340815181840F951FC81756
:10326000D90759F488819981840F951F029691831B
:1032700080838A819B81938382832115310529F480
:10328000F093FC07E093FB073DC0E901FB83EA8371
:1032900049915991C40FD51FEC17FD0761F4808146
:1032A0009181840F951F0296E90199838883828119
:1032B00093819B838A83E0E0F0E012968D919C914C
:1032C0001397009719F0FD01DC01F7CF8D919C91C8
:1032D00011979D012E5F3F4F820F931F2091F90799
:1032E0003091FA072817390769F4309729F41092BA
:1032F000FC071092FB0702C013821282B093FA07F8
:10330000A093F907DF91CF9108956F927F928F92EA
:103310009F92AF92BF92CF92DF92EF92FF920F9364
:103320001F93CF93DF93009789F4CB01DF91CF9167
:103330001F910F91FF90EF90DF90CF90BF90AF90D3
:103340009F908F907F906F900C946418FC01E60F13
:10335000F71F9C0122503109E217F30708F4A9C0B6
:10336000EC01D9010D911C91119706171707B0F0C8
:103370000530110508F49BC0C8010497861797070C
:1033800008F495C002501109061B170B0193119305
:103390006D937C93CF010E94FC1889C05B01A01A39
:1033A000B10A4C01800E911EA091FB07B091FC0761
:1033B000612C712CE12CF12C109709F446C08D91F1
:1033C0009C911197A815B905B1F56C0142E0C40EA6
:1033D000D11CCA14DB0478F14C018A189B086401E3
:1033E00042E0C40ED11C1296BC9012971396AC9179
:1033F000B5E0CB16D10440F0B282A38391828082E3
:10340000D9016D937C9309C00E5F1F4F800F911FF0
:10341000F90191838083EB2DFA2FE114F10431F04F
:10342000D7011396FC93EE93129741C0F093FC07DB
:10343000E093FB073CC06816790608F43C017D0167
:1034400012960D90BC91A02DB7CF8091F907909165
:10345000FA0788169906E1F466167706C8F4809193
:10346000080290910902009741F48DB79EB74091F0
:103470000C0250910D02841B950BE817F907C8F454
:10348000F093FA07E093F907F901718360830FC0A5
:10349000CB010E9464187C01009759F0A801BE017D
:1034A0000E946A1ACE010E94FC18C70104C0CE0116
:1034B00002C080E090E0DF91CF911F910F91FF90CB
:1034C000EF90DF90CF90BF90AF909F908F907F90C4
:1034D0006F900895FB01DC0102C001900D924150F4
:1034E0005040D8F70895FB01DC0101900D920020B7
:1034F000E1F7089511E0C4E9D1E000E006C0802FB3
:10350000FE010E9434172196011DC539D10780E0C4
:083510000807A9F7F894FFCFAA
:10351800CDCCCC3E490200FF0000FD072000363725
:1035280038391B1D1A1C00000000B1028402C806AD
:1035380058027C0268025902000000002806810532
:10354800AB057506DC05BA05CE0500000000CB0604
:103558008105C806C7064365636920657374206CD6
:1035680065207465737420736574757000436563B2
:103578006920657374206C652074657374206973A1
:1035880042756D70657228332900473A200020651E
:103598007420443A20000D0A0044C3A962757420BF
:1035A8006465732076697465737365730044C3A991
:1035B8006275742064657320657272657572005057
:1035C8003A200020657420493A200020706F7572F7
:1035D80020756E6520636F72722064653A20006EF4
:1035E800616E00696E66006F7666004365636920E8
:1035F800657374206C6520746573742069734275F3
:083608006D7065722832290083
:00000001FF
