:100000000C9495010C94C6010C94C6010C94C60185
:100010000C94C6010C94C6010C94C6010C94C60144
:100020000C94C6010C949D040C949D040C949D04A6
:100030000C94C6010C94CA010C94C6010C94C60120
:100040000C94C6010C940B0B0C94C6010C94C601C5
:100050000C94C6010C94C6010C94C6010C94BB0C04
:100060000C94C6010C9472080C9448080C94C601B8
:100070000C94C6010C94C6010C94C6010C94C601E4
:100080000C94C6010C94C6010C94C6010C94C601D4
:100090000C94C6010C94C6010C94C6010C94A704E0
:1000A0000C94C6010C94C6010C94C6010C94C601B4
:1000B0000C94C6010C94C6010C94C6010C949C08C7
:1000C0000C94C6010C94C6010C94C6010C941E0835
:1000D0000C94F4070C94C6010C94CA070C94A00766
:1000E0000C94C601BB09C009C509CF09D909520A38
:1000F000E309EB09F309FD09070A110A200A2A0A94
:10010000520A340A3E0A480A0A0C0D0CFC0B000C79
:10011000060C440C110C150C1B0C1F0C230C290C89
:100120002D0C310C440C370C3B0C3F0C0C94F7029B
:100130000C941B0C0C94D8060C943E0A0C94EB09FE
:100140000C948C060C94FC0B0C94F5020C94110C82
:100150000C94F3090C9450030C94BC150C94060CED
:100160000C94440C0C94C5090C9478070C942D0C39
:100170000C9423030C94150C0C94480A0C94C0099D
:100180000C947B070C94D9090C946A060C94110A00
:100190000C94FD090C94310C0C943F0C0C94070A40
:1001A0000C941B030C941F0C0C94230C0C945B06F6
:1001B0000C94F8020C94E3090C94BB090C94520AB9
:1001C0000C94200A0C947E060C940A0C0C94CF0913
:1001D0000C9425070C94F6020C9477070C943B0CB6
:1001E0000C9431060C94D4130C940D0C0C9407034E
:1001F0000C94000C0C94290C0C94340A0C94370CBD
:100200000C942A0A0200002200250028002B002E50
:10021000003100340002010000050108010B01005B
:100220000020002300260029002C002F00320000AF
:100230000100000301060109010505050507050880
:10024000080808020202020A0A0808040404040159
:10025000010101010101010303030303030303047B
:100260000707070C0C0C0C0C0C0C0C02020202060B
:10027000060606060606060B0B0B0B0B0B0B0B01FB
:1002800002102020080810204010204080020102A7
:10029000010804020101020408102040808040206F
:1002A00010080402018004020180402010080402AA
:1002B0000108040201010204081020408001020428
:1002C000081020408000000A0B02090C0D0E0807E0
:1002D0000304010000000000000000000000000016
:1002E000000000000000000000000000000000000E
:1002F00000121110000000000000000000000000CB
:1003000000000000000000000000000000210024A8
:100310000027002A002D00300033000101000004F6
:100320000107010A0100D413BC1511241FBECFEF31
:10033000D1E2DEBFCDBF00E00CBF12E0A0E0B2E032
:10034000E2EFF4E300E00BBF02C007900D92A83D7E
:10035000B107D9F727E0A8EDB2E001C01D92AD3D8D
:10036000B207E1F711E0C4E9D1E000E006C021974F
:100370000109802FFE010E941C17C339D10780E0BC
:100380000807A9F70E94050D0C94671A0C94000049
:100390000E94521A1F920F920FB60F9211240BB6A1
:1003A0000F922F933F934F935F936F937F938F930E
:1003B0009F93AF93BF93EF93FF938091D902909156
:1003C000DA02A091DB02B091DC02892B8A2B8B2B05
:1003D00049F19091D8028091000089278093000014
:1003E0008091D9029091DA02A091DB02B091DC02F7
:1003F000181619061A061B060CF056C08091D90271
:100400009091DA02A091DB02B091DC020197A10980
:10041000B1098093D9029093DA02A093DB02B093E2
:10042000DC0242C080910002E4E0F2E0E4919FEF40
:1004300090930002E230C9F050F4EE2399F0E130DD
:1004400081F590916F009D7F90936F002AC0E430FA
:1004500019F1E0F0E53029F5909173009D7F9093BC
:1004600073001FC010926E001CC0909170009D7FA1
:100470009093700091E09093B0009091B100987FBC
:1004800094609093B1001092B3000BC090917100F2
:100490009D7F9093710005C0909172009D7F909315
:1004A000720060E00E940206FF91EF91BF91AF9150
:1004B0009F918F917F916F915F914F913F912F917C
:1004C0000F900BBE0F900FBE0F901F90189530919C
:1004D0001803313208F04BC0809116038111FCCF14
:1004E0009091F30622E02093160321E02093150358
:1004F0002FEF2093D1061092D0063093CF06E3ED74
:10050000F6E0AFEAB6E020E0321721F041914D93DA
:100510002F5FFACF1092AE062091AE06990F922B64
:100520009093AE0690911403913061F410921403ED
:100530009091AE069093BB009091BC0093FDF8CFD4
:1005400095EC01C095EE9093BC009091160392300B
:10055000E1F39091D1069F3F79F08091D1068032EE
:1005600041F08091D106803331F084E005C081E014
:1005700003C082E001C083E01092170310921803B9
:100580001092D206089585ED8093BC008091BC0046
:1005900084FDFCCF10921603089540918906262F02
:1005A00030E0240F311D21323105DCF42091160397
:1005B0002430C9F4FC0180E090E0861758F43091B3
:1005C00089062191DC01A759B94FA30FB11D2C93C6
:1005D0000196F3CF80918906680F6093890680E0C9
:1005E000089581E0089582E008950895089508959A
:1005F000E0910F0380910E03E81730F4F0E0E75B21
:10060000F94F808190E008958FEF9FEF08959091CA
:100610000F0380910E03981750F4E92FF0E0E75B89
:10062000F94F208130E09F5F90930F0302C02FEFBE
:100630003FEFC901089580910E0390E020910F03D0
:10064000821B91090895CF92DF92EF92FF920F9350
:100650001F93CF93DF937C01CB018A012091D206B7
:10066000222389F0EB016B01C40ED51ECC15DD05EC
:1006700069F06991D701ED91FC910190F081E02D35
:10068000C7011995F3CF642F0E94CD02C801DF91F5
:10069000CF911F910F91FF90EF90DF90CF90089531
:1006A000CF93DF931F92CDB7DEB769832091D20637
:1006B0002223D1F020911803203240F021E030E0D5
:1006C000FC013383228380E090E015C08091170302
:1006D000E82FF0E0ED52F94F998190838F5F80937E
:1006E00017038093180305C061E0CE0101960E94B4
:1006F000CD0281E090E00F90DF91CF9108950097B7
:1007000069F0FC0101900020E9F73197AF01481B27
:10071000590BBC018FE594E00C94310680E090E029
:10072000089585ED92E00C947F03CF93DF93682FBB
:100730008FE594E00E94D806EC010E9491038C0F93
:100740009D1FDF91CF910895CF93DF930E947F0388
:10075000EC010E9491038C0F9D1FDF91CF910895B2
:100760000F931F93CF93DF93162F072FC2E1D6E08D
:100770009C8521E02093D2069093F30610921703F4
:1007800010921803AA85BB85ED91FC9111970190F9
:10079000F081E02D682FCD0119958A859B85DC01BC
:1007A000ED91FC910190F081E02D602F19958A85E3
:1007B0009B85DC01ED91FC910190F081E02D612F92
:1007C0001995DF91CF911F910F910C9467028F9231
:1007D0009F92AF92BF920F931F93CF93DF93CDB7AA
:1007E000DEB7A1970FB6F894DEBF0FBECDBF19A23A
:1007F000423008F44AE08E010F5D1F4F842E912C89
:10080000A12CB12CA50194010E94EE16E62FB9018E
:10081000CA0101501109EA3014F4E05D01C0E95C3D
:10082000D801EC93232B242B252B61F7C8010E94C0
:100830007F03A1960FB6F894DEBF0FBECDBFDF9148
:10084000CF911F910F91BF90AF909F908F9008957F
:100850000C947F03CF92DF92EF92FF92CF93DF93BE
:1008600097FF1BC06B017C016DE28FE594E00E9455
:10087000D806EC0166277727CB016C197D098E0914
:100880009F094AE00E94E7038C0F9D1FDF91CF91E3
:10089000FF90EF90DF90CF9008954AE0DF91CF91E5
:1008A000FF90EF90DF90CF900C94E703BC01990F7D
:1008B000880B990B0C942A04FC01248131E03093BD
:1008C000D2062093F3061092170310921803848522
:1008D000682B89E193E00E9450030C9467020F9308
:1008E0001F93CF938C01C62F64600E945C046C2F11
:1008F0006B7FC8010E945C0483EC90E00197F1F7E4
:10090000CF911F910F910895FC01A089B1898C911D
:10091000A689B78982FD0FC09C91818D8F5F8F73EF
:10092000228D821749F0218DDF01A20FB11D5D9646
:100930009C93818F08958C9108951F920F920FB60A
:100940000F9211240F900FBE0F901F9018951F92B9
:100950000F920FB60F9211240BB60F922F933F9365
:100960004F935F936F937F938F939F93AF93BF93B7
:10097000EF93FF938091B900887F803609F49CC083
:1009800068F5883209F45BC090F4803109F454C0F2
:1009900038F4882309F4F6C0883009F44DC0F6C055
:1009A000883109F44CC0803209F45DC0EFC0803456
:1009B00009F468C048F4803309F455C0883309F05D
:1009C000E5C08093D106D8C0803509F44FC0883582
:1009D00009F45DC0883409F0D9C0D6C0883909F45B
:1009E000C7C0A8F4883709F467C038F4883609F41A
:1009F00063C0803709F460C0C9C0883809F4B8C042
:100A0000803909F45FC0803809F0C0C05BC0803B0A
:100A100009F486C038F4803A09F466C0883A09F4CB
:100A20007FC0B4C0803C09F4A7C0883C09F4A4C0CE
:100A3000883B09F48AC0AAC08091AE0610C090918C
:100A4000D0068091CF06981770F5E091D00681E02E
:100A50008E0F8093D006F0E0E155F94F80818093AE
:100A6000BB0085EC86C08093D1068EC0E091D00695
:100A700081E08E0F8093D0068091BB00F0E0E155BD
:100A8000F94F80839091D0068091CF066EC0E0919F
:100A9000D00681E08E0F8093D0068091BB00F0E0FD
:100AA000E155F94F80838091150381116DC081E07C
:100AB0008093140384EA61C083E08093160310924C
:100AC000AB06CFCF8091AB06803208F051C0E091E9
:100AD000AB0681E08E0F8093AB068091BB00F0E007
:100AE000E557F94F8083BDCF85EC8093BC00109211
:100AF00016038091AB06803230F4E091AB06F0E053
:100B0000E557F94F10826091AB0670E0E091120357
:100B1000F09113038BE896E019951092AB0636C05E
:100B200084E08093160310928A0610928906E09161
:100B30001003F0911103199580918906811105C068
:100B400081E08093890610926906E0918A0681E02F
:100B50008E0F80938A06F0E0E759F94F80818093E9
:100B6000BB0090918A0680918906981708F479CF86
:100B700085E88093BC000AC085EC8093BC0010928D
:100B8000160304C01092D1060E94C302FF91EF9198
:100B9000BF91AF919F918F917F916F915F914F9195
:100BA0003F912F910F900BBE0F900FBE0F901F9093
:100BB0001895CF93DF93282F30E0F901EB53FD4FC9
:100BC0008491F901E158FD4FD491F901E75CFD4FA3
:100BD000C491CC2391F081110E94EF0BEC2FF0E037
:100BE000EE0FFF1FE15EFD4FA591B491EC91ED2357
:100BF00081E090E021F480E002C080E090E0DF91AD
:100C0000CF9108951F93CF93DF93282F30E0F90100
:100C1000EB53FD4F8491F901E158FD4FD491F90157
:100C2000E75CFD4FC491CC23C1F0162F81110E94C7
:100C3000EF0BEC2FF0E0EE0FFF1FEB5FFD4FA591E8
:100C4000B4919FB7F894111104C08C91D095D8231A
:100C500002C0EC91DE2BDC939FBFDF91CF911F91FF
:100C60000895CF92DF92EF92FF920F931F93CF934D
:100C7000DF936C017A018B01C0E0D0E0CE15DF0577
:100C800081F0D8016D918D01D601ED91FC9101901B
:100C9000F081E02DC6011995892B11F02196EECF38
:100CA0007E01C701DF91CF911F910F91FF90EF90CF
:100CB000DF90CF900895FC01538D448D252F30E0B7
:100CC000842F90E0821B930B541710F0CF96089559
:100CD00001970895FC01918D828D981761F0828DA6
:100CE000DF01A80FB11D5D968C91928D9F5F9F7360
:100CF000928F90E008958FEF9FEF0895FC01918D02
:100D0000828D981731F0828DE80FF11D858D90E06E
:100D100008958FEF9FEF0895FC01918D228D892F0B
:100D200090E0805C9F4F821B91098F7399270895F3
:100D300085E293E00E948C0621E0892B09F420E0F3
:100D4000822F089582EC93E00E948C0621E0892B8B
:100D500009F420E0822F08958FE594E00E948C062C
:100D600021E0892B09F420E0822F0895FC01848D75
:100D7000DF01A80FB11DA35ABF4F2C91848D90E0C5
:100D800001968F739927848FA689B7892C93A089A0
:100D9000B1898C91837080648C93938D848D98132A
:100DA00006C00288F389E02D80818F7D80830895BD
:100DB000EF92FF920F931F93CF93DF93EC0181E0AB
:100DC000888F9B8D8C8D981305C0E889F989808167
:100DD00085FD26C0F62E0B8D10E00F5F1F4F0F73A1
:100DE0001127E02E8C8DE8120CC00FB607FCFACF4D
:100DF000E889F989808185FFF5CFCE010E94B6068A
:100E0000F1CF8B8DFE01E80FF11DE35AFF4FF08209
:100E10009FB7F8940B8FEA89FB89808180620AC0B2
:100E20009FB7F894EE89FF896083E889F98980810A
:100E30008370806480839FBF81E090E0DF91CF91D9
:100E40001F910F91FF90EF900895CF93DF93EC01E6
:100E5000888D8823C9F0EA89FB89808185FD05C0DA
:100E6000A889B9898C9186FD0FC00FB607FCF5CF14
:100E7000808185FFF2CFA889B9898C9185FFEDCF5C
:100E8000CE010E94B606E7CFDF91CF910895E0E052
:100E9000F0E0199480E090E0892B21F00E94AC06EC
:100EA000811119C080E090E0892B41F080E090E052
:100EB000892B21F00E940000811110C00E94A2061F
:100EC00081110FC080E090E0892B81F00E9498068C
:100ED00081110AC008950E940000E4CF0E94000022
:100EE000EDCF0E944707EECF0C94000008950895BF
:100EF00080E090E008950F931F93CF93DF938C01D0
:100F0000C62FD62FD07FD1606D2F0E945C046D2F2D
:100F1000C8010E946F0480E1C89FB0011124C62F50
:100F2000C1606C2FC8010E945C046C2FC8010E9434
:100F30006F0481E090E0DF91CF911F910F910895B0
:100F40001F920F920FB60F9211240BB60F922F9390
:100F50003F934F935F936F937F938F939F93AF9341
:100F6000BF93EF93FF9385E293E00E94B606FF9153
:100F7000EF91BF91AF919F918F917F916F915F9111
:100F80004F913F912F910F900BBE0F900FBE0F907E
:100F90001F9018951F920F920FB60F9211240BB647
:100FA0000F922F933F934F935F936F937F938F9302
:100FB0009F93AF93BF93EF93FF9385E293E00E94DB
:100FC0008404FF91EF91BF91AF919F918F917F9199
:100FD0006F915F914F913F912F910F900BBE0F90AA
:100FE0000FBE0F901F9018951F920F920FB60F9281
:100FF00011240BB60F922F933F934F935F936F93F0
:101000007F938F939F93AF93BF93EF93FF9382EC64
:1010100093E00E94B606FF91EF91BF91AF919F912F
:101020008F917F916F915F914F913F912F910F9091
:101030000BBE0F900FBE0F901F9018951F920F922E
:101040000FB60F9211240BB60F922F933F934F932D
:101050005F936F937F938F939F93AF93BF93EF9320
:10106000FF9382EC93E00E948404FF91EF91BF9183
:10107000AF919F918F917F916F915F914F913F9130
:101080002F910F900BBE0F900FBE0F901F901895D1
:101090001F920F920FB60F9211240BB60F922F933F
:1010A0003F934F935F936F937F938F939F93AF93F0
:1010B000BF93EF93FF938FE594E00E94B606FF91F4
:1010C000EF91BF91AF919F918F917F916F915F91C0
:1010D0004F913F912F910F900BBE0F900FBE0F902D
:1010E0001F9018951F920F920FB60F9211240BB6F6
:1010F0000F922F933F934F935F936F937F938F93B1
:101100009F93AF93BF93EF93FF938FE594E00E947B
:101110008404FF91EF91BF91AF919F918F917F9147
:101120006F915F914F913F912F910F900BBE0F9058
:101130000FBE0F901F9018951F920F920FB60F922F
:1011400011240BB60F922F933F934F935F936F939E
:101150007F938F939F93AF93BF93EF93FF93809170
:10116000FD040E94D90520910105309102052F5FF1
:101170003F4F30930205209301059091000595366D
:1011800018F096E09093FC049091FC049430C9F11F
:1011900028F4923069F09330D1F05EC0953009F4B4
:1011A00051C0963009F058C091E09093CD0551C0E0
:1011B000811152C02091010530910205243631057C
:1011C00008F442C01092CD05109200051CC0813079
:1011D00009F042C0E091000591E09E0F9093000558
:1011E000F0E02091010530910205EE0FFF1FE45061
:1011F000FB4F30872783109202051092010594E07F
:1012000029C0811117C0E091000591E09E0F9093D5
:101210000005F0E02091010530910205EE0FFF1F5F
:10122000E450FB4F3087278310920205109201058E
:1012300093E010C02091010530910205253631055B
:1012400058F007C0811108C01092020510920105E4
:1012500003C095E09093FC049091FF049923B9F0AA
:1012600081110AC08091FE04882321F08091FE0440
:1012700061E009C02F9A0BC08091FE04882331F0F1
:101280008091FE0460E00E94020601C02F98FF9149
:10129000EF91BF91AF919F918F917F916F915F91EE
:1012A0004F913F912F910F900BBE0F900FBE0F905B
:1012B0001F9018958F929F92AF92BF92CF92DF921C
:1012C000EF92FF920F931F93CF93DF938C016A01EC
:1012D0007B0120E030E04FE753E4C701B6010E94F4
:1012E00028164B015C0120E030E0A9010E94421861
:1012F00018161CF4C501B40103C0C501B40190580F
:101300000E940C18EB0120E030E0A901C701B601F2
:101310000E944218181614F460E001C061E0F80160
:1013200081810E940206CF3FD10509F014F4DD2728
:1013300002C0CFEFD0E0F801108161E0812F0E9460
:10134000450C209709F4B1C0CF3FD10509F4AFC0D7
:10135000E12FF0E0EB53FD4FE4918E2F90E0FC0184
:101360003197E231F10508F09DC08827EE58FF4F14
:101370008F4F0C941C1784B5806884BDC7BDA7C06F
:1013800084B5806284BDC8BDA2C0809180008068A1
:1013900080938000D0938900C093880098C080918A
:1013A0008000806280938000D0938B00C0938A007D
:1013B0008EC080918000886080938000D0938D00E3
:1013C000C0938C0084C08091B00080688093B0008E
:1013D000C093B3007CC08091B00080628093B00065
:1013E000C093B40074C08091900080688093900096
:1013F000D0939900C09398006AC080919000806259
:1014000080939000D0939B00C0939A0060C080911D
:101410009000886080939000D0939D00C0939C00C2
:1014200056C08091A00080688093A0008091A000A9
:101430008F7B8093A000D093A900C093A80047C0E1
:101440008091A00080628093A000D093AB00C093F5
:10145000AA003DC08091A00088608093A000D09336
:10146000AD00C093AC0033C08091200180688093B0
:101470002001D0932901C093280129C08091200127
:10148000806280932001D0932B01C0932A011FC05A
:1014900080912001886080932001D0932D01C0931A
:1014A0002C0115C0C038D10514F460E001C061E022
:1014B000812FDF91CF911F910F91FF90EF90DF90DF
:1014C000CF90BF90AF909F908F900C940206DF91C9
:1014D000CF911F910F91FF90EF90DF90CF90BF9031
:1014E000AF909F908F9008958EBD00000DB407FEC1
:1014F000FDCF8EB50895CF93DF93EC0160E0888136
:101500000E94020688E90E94740A80E00E94740A20
:1015100080E00E94740A80E00E94740A80E00E94C9
:10152000740A61E088810E9402068BE891E00197CD
:10153000F1F760E088810E94020680EE0E94740A42
:1015400061E08881DF91CF910C940206AF92BF9247
:10155000CF92DF92EF92FF920F931F93CF93DF937F
:10156000CDB7DEB760970FB6F894DEBF0FBECDBF24
:101570005C0160E0FC0180810E94020680E60E941E
:10158000740A8E010F5F1F4F7E01F1E1EF0EF11C17
:10159000680180E00E94740A90E0A0E0B0E0F601EB
:1015A00081939193A193B1936F01EE15FF0589F794
:1015B00061E0F50180810E94020680E090E0DC019C
:1015C000F80141915191619171918F01BA2FA92F29
:1015D000982F8827840F951FA61FB71FEE15FF05AC
:1015E00079F79C01AD0166277727CB01621B730B4E
:1015F000840B950B60960FB6F894DEBF0FBECDBF7F
:10160000DF91CF911F910F91FF90EF90DF90CF90DE
:10161000BF90AF9008951F920F920FB60F921124B2
:101620000BB60F922F933F934F935F936F937F93DC
:101630008F939F93AF93BF93EF93FF938091CF07C7
:1016400087FF05C0109285001092840016C020917B
:10165000CF07022E000C330B80910A0690E028176A
:1016600039075CF43091CF0725E03203F0011124F3
:10167000E253FA4F808186FD15C08091CF078F5FBE
:101680008093CF072091CF07022E000C330B80915F
:101690000A0690E02817390794F48091CF078C3020
:1016A0002CF10DC03091CF073203F0011124E25329
:1016B000FA4F808160E08F730E940206DECF809136
:1016C00084009091850084349C4918F480E49CE95E
:1016D00005C08091840090918500049690938900C4
:1016E000809388008FEF8093CF072AC040918400B9
:1016F000509185003091CF0725E03203F00111248D
:10170000E253FA4F81819281840F951F9093890053
:10171000809388003091CF073203F0011124E25307
:10172000FA4F808186FF0CC03091CF073203F00161
:101730001124E253FA4F808161E08F730E94020608
:10174000FF91EF91BF91AF919F918F917F916F9199
:101750005F914F913F912F910F900BBE0F900FBE55
:101760000F901F901895CF92DF92EF92FF92690130
:101770007A01AB01BC018BE296E00E945A09B701E5
:10178000A60170588DE296E0FF90EF90DF90CF9029
:101790000C945A093FB7F8948091D5079091D607D9
:1017A000A091D707B091D80726B5A89B05C02F3FB9
:1017B00019F00196A11DB11D3FBFBA2FA92F982F77
:1017C0008827820F911DA11DB11DBC01CD0142E0F2
:1017D000660F771F881F991F4A95D1F7089590E0EB
:1017E000FC013197E231F10508F04EC08827EC5733
:1017F000FF4F8F4F0C941C17809180008F7703C090
:10180000809180008F7D809380000895809180007A
:10181000877FF9CF84B58F7702C084B58F7D84BD73
:1018200008958091B0008F7703C08091B0008F7DC4
:101830008093B0000895809190008F7707C08091C9
:1018400090008F7D03C080919000877F80939000EF
:1018500008958091A0008F7707C08091A0008F7DB0
:1018600003C08091A000877F8093A000089580919D
:1018700020018F7707C0809120018F7D03C0809168
:101880002001877F809320010895CF93DF9390E01C
:10189000FC01E158FD4F2491FC01E75CFD4F849170
:1018A000882361F190E0880F991FFC01E55FFC4FF0
:1018B000C591D491FC01EB5FFD4FA591B4916111ED
:1018C00009C09FB7F8948881209582238883EC9182
:1018D0002E230BC0623061F49FB7F8948881322FB9
:1018E000309583238883EC912E2B2C939FBF06C0C9
:1018F0008FB7F894E8812E2B28838FBFDF91CF918B
:1019000008958F929F92AF92BF92CF92DF92EF9203
:10191000FF926B017C010E94CA0B4B015C01C11458
:10192000D104E104F104F1F00E94CA0BDC01CB0107
:1019300088199909AA09BB09883E9340A105B105F8
:1019400070F321E0C21AD108E108F10888EE880E90
:1019500083E0981EA11CB11CC114D104E104F10460
:1019600019F7DDCFFF90EF90DF90CF90BF90AF9051
:101970009F908F9008951F920F920FB60F9211248F
:101980002F933F938F939F93AF93BF938091D107F2
:101990009091D207A091D307B091D4073091D0078E
:1019A00023E0230F2D3720F40196A11DB11D05C0A2
:1019B00026E8230F0296A11DB11D2093D007809326
:1019C000D1079093D207A093D307B093D407809107
:1019D000D5079091D607A091D707B091D807019667
:1019E000A11DB11D8093D5079093D607A093D7076B
:1019F000B093D807BF91AF919F918F913F912F9155
:101A00000F900FBE0F901F901895CF93DF93CDB717
:101A1000DEB7E6970FB6F894DEBF0FBECDBF789461
:101A200084B5826084BD84B5816084BD85B58260E3
:101A300085BD85B5816085BD80916E008160809394
:101A40006E001092810080918100826080938100FD
:101A5000809181008160809381008091800081600D
:101A6000809380008091B10084608093B100809168
:101A7000B00081608093B00080919100826080937B
:101A800091008091910081608093910080919000FD
:101A90008160809390008091A10082608093A1007A
:101AA0008091A10081608093A1008091A00081605D
:101AB0008093A00080912101826080932101809118
:101AC00021018160809321018091200181608093B8
:101AD000200180917A00846080937A0080917A005E
:101AE000826080937A0080917A00816080937A008E
:101AF00080917A00806880937A001092C100E09112
:101B00006F04F091700482E08083E0916B04F091A7
:101B10006C041082E0916D04F0916E048FEC808370
:101B200010927704E0917304F091740486E080834E
:101B3000E0917104F0917204808180618083E09172
:101B40007104F0917204808188608083E091710457
:101B5000F0917204808180688083E0917104F0913B
:101B6000720480818F7D808361E0809113060E94E2
:101B7000450C60E0809113060E94020660E08091AF
:101B800012060E94450C89E193E090931D06809314
:101B90001C0610920F0310920E031092170310925E
:101BA00018031092160381E080931503109214031A
:101BB00061E084E10E94020661E085E10E94020684
:101BC0008091B9008E7F8093B9008091B9008D7F9C
:101BD0008093B90088E48093B80085E48093BC00CA
:101BE00085EF92E0909311038093100386EF92E0CB
:101BF000909313038093120380E090E1A0E0B0E0A3
:101C000080931F0690932006A0932106B09322068E
:101C10008AE090E0A0E0B0E0809323069093240651
:101C2000A0932506B093260680E090E0A0E0B0E403
:101C30008093270690932806A0932906B0932A063E
:101C400060E070E185E00E94B0036FE979E380E035
:101C50000E94B00302E116E0780172E0572EEEE632
:101C60006E2EE2E07E2EF4EB8F2EF2E09F2EABEC98
:101C7000CA2EA7E0DA2ED70114969C9114971296DB
:101C80008C91F801818F928F61E00E94450C61E098
:101C9000D8015A968C910E94450CF7019085868157
:101CA0005801FDE1AF0EB11CD8015D968C935D9794
:101CB0005E969C9361E00E94450C60E0F801868D81
:101CC0000E94450C61E0D8015D968C910E9402064D
:101CD0004FB6F8948091DD02811126C0F301849102
:101CE000F4012491E82FF0E0EE0FFF1FE55FFC4FB9
:101CF000A591B4919C91822F892321F461E085E321
:101D00000E94020661E085E30E94450C8CB580616B
:101D10008CBD8CB580648CBD61E084E30E94450C71
:101D200061E083E30E94450C8091DD028F5F809328
:101D3000DD024FBEC6010197F1F760E0D8015D9664
:101D40008C910E94020688E80E94740A83E00E9437
:101D5000740A61E0F801858D0E940206C6010197B0
:101D6000F1F7C5010E947B0A5A94FFEFEF1AFF0AB0
:101D70000E5F1F4F51107FCF57E3E52E56E0F52E33
:101D80000BE316E060E0D7018D917D010E94450CC8
:101D9000BBE3EB16B6E0FB06A9F793E3E92E96E06A
:101DA000F92E25E0D22E3CE0B32E42E0C42EF801FD
:101DB000A1908F0187818C3008F048C061E08A2DA6
:101DC0000E94450CD80117968C91D89EF0011124E1
:101DD000E253FA4F9A2D9F732081207CA22EA92ACC
:101DE000A082138214826B2D0E941017BCE08B9F7F
:101DF000A001112420E030E0BA01620F731FD69ECB
:101E0000F001D79EF00D1124E253FA4F908196FD18
:101E100012C02F5F3F4F2C30310571F781110BC07D
:101E200010928000C0928100109285001092840070
:101E3000C6BAC0926F00D8011796EC91DE9EF001F1
:101E40001124E253FA4F808180648083F8019581E8
:101E50008381D70152968C93529753969C9360E05E
:101E60000E94450C61E0F70183890E94450C60E007
:101E7000D70153968C910E940206B2E0EB0EF11C42
:101E8000E6E00D331E0709F092CFF894109220017E
:101E900089E08093210180E293E09093290180936F
:101EA0002801109225011092240182E08093730092
:101EB00078948093FC04109200058091FD0460E00A
:101EC0000E94450C83E492E00E94A40382E40E94F5
:101ED000950382E40E94950380E090E00E94E6165C
:101EE0000E94950380913A060E94D905892B09F436
:101EF00052C48AE592E00E94A4038DB79EB79EABC0
:101F00008DAB80910603811119C02DEC3CEC4CEC9B
:101F10005CE3609101027091020280910302909152
:101F200004020E942E1760930203709303038093B0
:101F300004039093050391E0909306038091FA02C5
:101F4000811117C060910102709102028091030219
:101F5000909104029B01AC010E942E176093F6023F
:101F60007093F7028093F8029093F902A1E0A09396
:101F7000FA028091EE02811117C060910203709104
:101F8000030380910403909105039B01AC010E941F
:101F90002E176093EA027093EB028093EC02909309
:101FA000ED02B1E0B093EE02EDB7FEB7E85CF109E7
:101FB0000FB6F894FEBF0FBEEDBF8DB79EB701966A
:101FC0005C01ADB7BEB7A85CB1090FB6F894BEBF4F
:101FD0000FBEADBFE75CF1096F01815991400FB6AB
:101FE000F8949EBF0FBE8DBFA75CB1094D01E159AA
:101FF000F1400FB6F894FEBF0FBEEDBF875C9109AC
:102000007C01A159B1400FB6F894BEBF0FBEADBF61
:102010000DB71EB70F5F1F4FE855F2400FB6F8948B
:10202000FEBF0FBEEDBF885592403C0120E030E07E
:1020300040E05FE36091F6027091F7028091F80250
:102040009091F9020E942816609301027093020297
:10205000809303029093040220E030E040E05FE3CD
:102060006091EA027091EB028091EC029091ED0296
:102070000E94281660930203709303038093040365
:102080009093050398868F82BD86AC86DA86C986D2
:10209000FE82ED821F870E87798A688A78A66FA2F2
:1020A0001AA709A7FE8EED8EDB8ECA8EB8A2AF8E60
:1020B0009AA289A2212C312C1FA618AA19AA1AAA01
:1020C0001BAA1CAA00E010E091E09B871C8E8FE207
:1020D00096E00E947B0A81E396E00E947B0A2091B1
:1020E0000203309103034091040350910503609172
:1020F00001027091020280910302909104020E94F9
:10210000B30B68EC70E080E090E00E94810C8FE2FD
:1021100096E00E94A60A442455243201461A570A22
:10212000680A790A81E396E00E94A60A69837A83A5
:102130008B839C8373016201FF0CCC08DC2C76013D
:102140009201A3016C2D7C2D8C2D9C2DAFA4B8A8E1
:10215000C9A8DAA8EBA8FCA80E9424172A8B3B8BFD
:102160004C8B5D8B6E8B7F8B888F998F2FA738ABB5
:1021700049AB5AAB6BAB7CAB8C0187E792E00E941A
:102180002804C301B2010E942A048BE792E00E9456
:10219000280469817A818B819C810E942A040E9493
:1021A0009103C301B2010E94C91520E030E048E468
:1021B00053E40E949A176B017C0169817A818B81BB
:1021C0009C810E94C91520E030E048E453E40E945D
:1021D0009A179B01AC01C701B6010E942D174B0154
:1021E0005C016093E6027093E7028093E8029093AB
:1021F000E9022091E2023091E3024091E402509121
:10220000E5020E942E176B017C016093E20270933D
:10221000E3028093E4029093E5022091DE02309184
:10222000DF024091E0025091E102C501B4010E9439
:102230002D172B013C0120E23CEB4EEB5CE4C50189
:10224000B4010E9428162DEC3CEC4CE45DE30E94A6
:1022500028160E940C18E9A1FAA161937193FAA3C0
:10226000E9A38091010290910202A0910302B09132
:10227000040289839A83AB83BC8320E030E04AE781
:1022800054E4BC01CD010E9428160E940C18AF8DA9
:10229000B8A16D937D93B8A3AF8F80910203909105
:1022A0000303A0910403B09105038BA39CA3ADA3EA
:1022B000BEA320E030E04AE754E4BC01CD010E9417
:1022C00028160E940C18AA8DBB8D6D937D93BB8F31
:1022D000AA8F20E23CEB4EEB5CE4C701B6010E9402
:1022E00028162FE632E143E05AE30E9428160E94A6
:1022F0000C18ED8DFE8D61937193FE8FED8F20E2B2
:102300003CEB4EEB5CE4C301B2010E94281625EBC6
:102310003EEF46E957E30E9428160E940C18A9A533
:10232000BAA56D937D93BAA7A9A72DEC3CEC4CE41C
:102330005DE3C501B4010E9428166BA77CA78DA799
:102340009EA72FE632E143E05AE3C701B6010E949F
:1023500028166B017C0125EB3EEF46E957E3C301EC
:10236000B2010E9428162B013C01A70196016BA522
:102370007CA58DA59EA50E942E17A30192010E9407
:102380002E17EFA1F8A56193719381939193F8A70C
:10239000EFA3FFEF2F1A3F0A2BA53CA54DA55EA585
:1023A0006BA17CA18DA19EA10E942E17A701960171
:1023B0000E942E17A30192010E942E176B017C012F
:1023C00060930203709303038093040390930503C7
:1023D000AB01BC0170588DE296E00E945A098092D0
:1023E000DE029092DF02A092E002B092E1022C8D18
:1023F000211114C089819A81AB81BC818093F6023E
:102400009093F702A093F802B093F902C092EA0207
:10241000D092EB02E092EC02F092ED022DEC3CEC5B
:102420004CE45FE369817A818B819C810E94421830
:1024300087FF2EC09B85992361F12DEC3CEC4CE885
:102440005FE369817A818B819C810E9428164B0110
:102450005C016093010270930202809303029093E7
:1024600004022DEC3CEC4CE85FE3C701B6010E948E
:1024700028169B01AC0160930203709303038093C1
:10248000040390930503C501B4010E94B30B01C07E
:102490001B862A893B894C895D896E897F89888D55
:1024A000998D2B313A414105510561057105810531
:1024B000910509F00CF40BCE2DEC3CEC4CE45FE301
:1024C00060910102709102028091030290910402D6
:1024D0000E9428166B017C01609301027093020236
:1024E00080930302909304022DEC3CEC4CE45FE3F8
:1024F000609102037091030380910403909105039E
:102500000E9428169B01AC016093020370930303A1
:102510008093040390930503C701B6010E94B30B97
:102520002A893B894C895D896E897F89888D998D3F
:102530002633344341055105610571058105910537
:1025400009F024F41B86A1E0AC8FC1CD20E030E07F
:10255000A901CA01B9010E94B30B809137060E94FC
:10256000D905892BD1F383E892E00E94A40300E00F
:1025700010E087E792E00E942804EC85FD858191B8
:102580009191FD87EC870E9456048BE792E00E94B0
:102590002804A985BA858D919D91BA87A9870E9443
:1025A00056040E9491030F5F1F4F2016310609F752
:1025B000809138060E94D905892BD1F387E992E0F2
:1025C0000E94A40300E010E089EA92E00E9428043F
:1025D000EF81F88581919191F887EF830E945604ED
:1025E0008DEA92E00E942804AD81BE818D919D917B
:1025F000BE83AD830E9456048BE792E00E942804BC
:10260000EE85FF8581919191FF87EE870E945604A8
:1026100085EB92E00E942804A889B9896D917D918B
:102620008D919D91B98BA88B20E030E543EC57E468
:102630000E9428166B017C014B015C019B01AC01DF
:102640000E944718882319F089EC92E01AC02601ED
:102650003701E89477F82FEF3FEF4FE75FE7C301CB
:10266000B2010E94471881110FC02FEF3FEF4FE7D3
:102670005FE7C301B2010E94C21518162CF48DEC5D
:1026800092E00E947F0378C02FEF3FEF4FE75FE4B7
:10269000C701B6010E94421818161CF481ED92E0A1
:1026A000F0CF2FEF3FEF4FE75FECC701B6010E947D
:1026B000C21587FDF3CF20E030E0A901C701B601C4
:1026C0000E94C21587FF0BC06DE28FE594E00E9467
:1026D000D80646015701B7FAB094B7F8B0942AE08B
:1026E00037ED43EA5BE3C501B4010E942E174B01AD
:1026F0005C010E9413186B017C010E94C7159B01AD
:10270000AC01C501B4010E942D174B015C014AE0E8
:10271000C701B6010E94E7036EE28FE594E00E94D4
:10272000D80620E030E040E251E4C501B4010E9447
:1027300028164B015C010E9413186B01E12CF12C4F
:102740004AE0C701B6010E94E703C701B6010E9433
:10275000C7159B01AC01C501B4010E942D1720E0F3
:1027600030E040E251E40E9428160E94131880E0F5
:1027700090E04AE00E94E7030E9491030F5F1F4F21
:102780002016310609F020CFEDA9FEA90FB6F89466
:10279000FEBF0FBEEDBF6AE070E080E090E00E94F7
:1027A000810C0E944A079ECB10921C0310921B03BF
:1027B00088EE93E0A0E0B0E080931D0390931E03A9
:1027C000A0931F03B093200327E132E030931A0354
:1027D0002093190310922803109227038093290352
:1027E00090932A03A0932B03B0932C0329E232E0A9
:1027F000309326032093250345E351E050933203A1
:102800004093310344E351E0509334034093330346
:1028100040E351E0509336034093350341E351E0E8
:10282000509338034093370342E351E050933A0307
:102830004093390346E351E050933C0340933B03FC
:1028400010923E0310923F031092400310924103F6
:102850001092C5031092C4038093C6039093C703DC
:10286000A093C803B093C9033093C3032093C2035A
:1028700045ED50E05093CF034093CE0344ED50E03C
:102880005093D1034093D00340ED50E05093D303D5
:102890004093D20341ED50E05093D5034093D403CD
:1028A00042ED50E05093D7034093D60346ED50E0FD
:1028B0005093D9034093D8031092DB031092DC03AA
:1028C0001092DD031092DE031092620410926104F4
:1028D0008093630490936404A0936504B0936604AA
:1028E0003093600420935F0485EC90E090936C0437
:1028F00080936B0484EC90E090936E0480936D045D
:1029000080EC90E09093700480936F0481EC90E0F1
:10291000909372048093710482EC90E0909374041D
:102920008093730486EC90E0909376048093750412
:10293000109278041092790410927A0410927B0419
:1029400080910B0290910C02A0910D02B0910E02A9
:102950008093330690933406A0933506B0933606E1
:1029600080910F0290911002A0911102B091120279
:102970008093370690933806A0933906B0933A06B1
:1029800084E080933B0687E080933C0610923D06EE
:1029900084EB80933E0686E180933F0688E1809336
:1029A000400687E18093410689E180934206E091E9
:1029B0000A06EC3020F08FEF8093430610C081E0D0
:1029C0008E0F80930A06E093430685E0E89FF001AE
:1029D0001124E253FA4F88EB9BE092838183E091CC
:1029E0000A06EC3020F08FEF8093440610C081E09F
:1029F0008E0F80930A06E093440685E0E89FF0017D
:102A00001124E253FA4F88EB9BE0928381838CE0A0
:102A10008093120684E28093130686E08093140666
:102A200085E0809315068FE1809316068EE18093F2
:102A3000170683E28093180682E28093190685E4E4
:102A400080931A0684E480931B0680E480931E061C
:102A50001092230610922406109225061092260644
:102A600010922706109228061092290610922A0624
:102A7000E8EFF6E026EB37E08FEF9FEFDC01128204
:102A8000138214821582168217821086118683871C
:102A90009487A587B6878787908BA18BB28B128688
:102AA0001182108273962E173F0749F78DE090E050
:102AB0000E944C18FC01138212828BE392E09183F6
:102AC0008083118687E2848384E1828784E0838720
:102AD0001486F093F506E093F4061092F606109231
:102AE000F70685E28093FD041092FF0410920C0615
:102AF00010920B0610920E0610920D061092100600
:102B000010920F0661E070E080E090E00E946D1985
:102B1000009789F090930C0680930B0610920E0696
:102B200010920D0620910F0630911006232BC1F450
:102B3000FC01108215C080910B0690910C06009745
:102B400011F00E94E41810920C0610920B061092DD
:102B5000100610920F0610920E0610920D060895A0
:102B60001092100610920F0667ED72E080910B062E
:102B700090910C060C94601A80910B0690910C06B3
:102B80000C94E4180E94041608F481E00895E89477
:102B900009C097FB3EF490958095709561957F4FA5
:102BA0008F4F9F4F9923A9F0F92F96E9BB27939553
:102BB000F695879577956795B795F111F8CFFAF463
:102BC000BB0F11F460FF1BC06F5F7F4F8F4F9F4F94
:102BD00016C0882311F096E911C0772321F09EE8F2
:102BE000872F762F05C0662371F096E8862F70E058
:102BF00060E02AF09A95660F771F881FDAF7880F32
:102C00009695879597F90895990F0008550FAA0B87
:102C1000E0E8FEEF16161706E807F907C0F01216EF
:102C20001306E407F50798F0621B730B840B950BF2
:102C300039F40A2661F0232B242B252B21F4089547
:102C40000A2609F4A140A6958FEF811D811D0895E4
:102C50000E943B160C94AC160E949E1638F00E94FF
:102C6000A51620F0952311F00C9495160C949B1644
:102C700011240C94E0160E94BD1670F3959FC1F3C9
:102C8000950F50E0551F629FF001729FBB27F00D1A
:102C9000B11D639FAA27F00DB11DAA1F649F66276F
:102CA000B00DA11D661F829F2227B00DA11D621FBE
:102CB000739FB00DA11D621F839FA00D611D221F78
:102CC000749F3327A00D611D231F849F600D211D5C
:102CD000822F762F6A2F11249F5750409AF0F1F0DF
:102CE00088234AF0EE0FFF1FBB1F661F771F881F48
:102CF00091505040A9F79E3F510580F00C949516D5
:102D00000C94E0165F3FE4F3983ED4F386957795F4
:102D10006795B795F795E7959F5FC1F7FE2B880FED
:102D2000911D9695879597F9089597F99F6780E883
:102D300070E060E008959FEF80EC089500240A940D
:102D40001616170618060906089500240A94121686
:102D50001306140605060895092E0394000C11F4B9
:102D6000882352F0BB0F40F4BF2B11F460FF04C066
:102D70006F5F7F4F8F4F9F4F089557FD9058440FBF
:102D8000551F59F05F3F71F04795880F97FB991FCA
:102D900061F09F3F79F08795089512161306140687
:102DA000551FF2CF4695F1DF08C016161706180614
:102DB000991FF1CF86957105610508940895E894EF
:102DC000BB2766277727CB0197F90895F999FECF9E
:102DD00092BD81BDF89A992780B50895A1E21A2E77
:102DE000AA1BBB1BFD010DC0AA1FBB1FEE1FFF1FAF
:102DF000A217B307E407F50720F0A21BB30BE40BFF
:102E0000F50B661F771F881F991F1A9469F7609545
:102E10007095809590959B01AC01BD01CF010895FF
:102E2000991B79E004C0991F961708F0961B881F1C
:102E30007A95C9F780950895EE0FFF1F881F8BBF05
:102E40000790F691E02D19942A0D3B1D4C1D5D1D38
:102E50006E1D7F1D801F911F08955058BB27AA2704
:102E60000E9445170C94AC160E949E1638F00E94E2
:102E7000A51620F039F49F3F19F426F40C949B1604
:102E80000EF4E095E7FB0C949516E92F0E94BD1611
:102E900058F3BA17620773078407950720F079F48F
:102EA000A6F50C94DF160EF4E0950B2EBA2FA02D8C
:102EB0000B01B90190010C01CA01A0011124FF27E7
:102EC000591B99F0593F50F4503E68F11A16F040E2
:102ED000A22F232F342F4427585FF3CF46953795E1
:102EE0002795A795F0405395C9F77EF41F16BA0BA6
:102EF000620B730B840BBAF09150A1F0FF0FBB1F54
:102F0000661F771F881FC2F70EC0BA0F621F731F9C
:102F1000841F48F4879577956795B795F7959E3FF9
:102F200008F0B0CF9395880F08F09927EE0F97958A
:102F3000879508950E94AE170C94AC160E94A516B2
:102F400058F00E949E1640F029F45F3F29F00C943F
:102F5000951651110C94E0160C949B160E94BD1608
:102F600068F39923B1F3552391F3951B550BBB27B8
:102F7000AA2762177307840738F09F5F5F4F220FFD
:102F8000331F441FAA1FA9F335D00E2E3AF0E0E8F4
:102F900032D091505040E695001CCAF72BD0FE2F3E
:102FA00029D0660F771F881FBB1F261737074807D2
:102FB000AB07B0E809F0BB0B802DBF01FF2793588A
:102FC0005F4F3AF09E3F510578F00C9495160C94A3
:102FD000E0165F3FE4F3983ED4F3869577956795C6
:102FE000B795F7959F5FC9F7880F911D96958795BF
:102FF00097F90895E1E0660F771F881FBB1F6217DE
:1030000073078407BA0720F0621B730B840BBA0B9B
:10301000EE1F88F7E09508950E9413186894B11187
:103020000C94E01608950E94C51688F09F5798F0FA
:10303000B92F9927B751B0F0E1F0660F771F881FBD
:10304000991F1AF0BA95C9F714C0B13091F00E94D7
:10305000DF16B1E008950C94DF16672F782F8827CC
:10306000B85F39F0B93FCCF3869577956795B395FE
:10307000D9F73EF490958095709561957F4F8F4F6D
:103080009F4F08950E94041608F48FEF08950E9440
:103090000416880B990B08950F931F93CF93DF931A
:1030A0008230910510F482E090E0E091DB07F0912E
:1030B000DC0720E030E0A0E0B0E0309719F140817B
:1030C00051810281138148175907C8F08417950769
:1030D00069F4109731F012960C93129713961C9383
:1030E00027C00093DB071093DC0722C021153105B0
:1030F00019F04217530718F49A01BD01EF01DF01DF
:10310000F801DBCF21153105F9F0281B390B2430EC
:10311000310580F48A819B816115710521F0FB01E5
:103120009383828304C09093DC078093DB07FE01C6
:10313000329644C0FE01E20FF31F81939193225017
:103140003109398328833AC02091D9073091DA07B1
:10315000232B41F420910702309108023093DA07C3
:103160002093D907209105023091060221153105DF
:1031700041F42DB73EB74091090250910A02241B39
:10318000350BE091D907F091DA07E217F307A0F4C5
:103190002E1B3F0B2817390778F0AC014E5F5F4FAD
:1031A0002417350748F04E0F5F1F5093DA074093FE
:1031B000D9078193919302C0E0E0F0E0CF01DF9165
:1031C000CF911F910F910895CF93DF93009709F44A
:1031D00081C0FC01329713821282A091DB07B0916B
:1031E000DC07109781F420813181820F931F209199
:1031F000D9073091DA072817390751F5F093DA0724
:10320000E093D90767C0ED0120E030E0CE17DF077B
:1032100040F44A815B819E0141155105F1F0EA01BC
:10322000F5CFD383C28340815181840F951FC81786
:10323000D90759F488819981840F951F029691834B
:1032400080838A819B81938382832115310529F4B0
:10325000F093DC07E093DB073DC0E901FB83EA83E1
:1032600049915991C40FD51FEC17FD0761F4808176
:103270009181840F951F0296E90199838883828149
:1032800093819B838A83E0E0F0E012968D919C917C
:103290001397009719F0FD01DC01F7CF8D919C91F8
:1032A00011979D012E5F3F4F820F931F2091D907E9
:1032B0003091DA072817390769F4309729F410920A
:1032C000DC071092DB0702C013821282B093DA0788
:1032D000A093D907DF91CF9108956F927F928F923B
:1032E0009F92AF92BF92CF92DF92EF92FF920F9395
:1032F0001F93CF93DF93009789F4CB01DF91CF9198
:103300001F910F91FF90EF90DF90CF90BF90AF9003
:103310009F908F907F906F900C944C18FC01E60F5B
:10332000F71F9C0122503109E217F30708F4A9C0E6
:10333000EC01D9010D911C91119706171707B0F0F8
:103340000530110508F49BC0C8010497861797073C
:1033500008F495C002501109061B170B0193119335
:103360006D937C93CF010E94E41889C05B01A01A81
:10337000B10A4C01800E911EA091DB07B091DC07D1
:10338000612C712CE12CF12C109709F446C08D9121
:103390009C911197A815B905B1F56C0142E0C40ED6
:1033A000D11CCA14DB0478F14C018A189B08640113
:1033B00042E0C40ED11C1296BC9012971396AC91A9
:1033C000B5E0CB16D10440F0B282A3839182808213
:1033D000D9016D937C9309C00E5F1F4F800F911F21
:1033E000F90191838083EB2DFA2FE114F10431F080
:1033F000D7011396FC93EE93129741C0F093DC072C
:10340000E093DB073CC06816790608F43C017D01B7
:1034100012960D90BC91A02DB7CF8091D9079091B5
:10342000DA0788169906E1F466167706C8F48091E3
:10343000050290910602009741F48DB79EB7409126
:10344000090250910A02841B950BE817F907C8F48A
:10345000F093DA07E093D907F901718360830FC015
:10346000CB010E944C187C01009759F0A801BE01C5
:103470000E94571ACE010E94E418C70104C0CE0171
:1034800002C080E090E0DF91CF911F910F91FF90FB
:10349000EF90DF90CF90BF90AF909F908F907F90F4
:1034A0006F90089581E090E0F8940C94671AFB0106
:1034B000DC0102C001900D9241505040D8F70895B0
:1034C000FB01DC0101900D920020E1F7089511E06D
:1034D000C4E9D1E000E006C0802FFE010E941C1765
:1034E0002196011DC539D10780E00807A9F7F89496
:0234F000FFCF0C
:1034F200FFCDCCCC3E0000DD072000363738391B2B
:103502001D1A1C00000000500323037807F7021B5A
:10351200030703F80200000000D80631065B062507
:10352200078C066A067E06000000007B07310678DB
:103532000777074365636920657374206C6520749F
:1035420065737420736574757000436563692065E3
:103552007374206C65207465737420697342756D91
:1035620070657228332900473A2000206574204490
:103572003A200044C3A96275742064657320766999
:103582007465737365730044C3A9627574206465BE
:10359200732065727265757200503A20002065745E
:1035A20020493A200020706F757220756E65206385
:1035B2006F72722064653A20006E616E00696E66F9
:0835C200006F7666000D0A009F
:00000001FF
