:100000000C9495010C94C6010C94C6010C94C60185
:100010000C94C6010C94C6010C94C6010C94C60144
:100020000C94C6010C941F050C941F050C941F051D
:100030000C94C6010C94F0060C94C6010C94C601F5
:100040000C94C6010C94F80A0C94C6010C94C601D9
:100050000C94C6010C94C6010C94C6010C94A80C17
:100060000C94C6010C945F080C9435080C94C601DE
:100070000C94C6010C94C6010C94C6010C94C601E4
:100080000C94C6010C94C6010C94C6010C94C601D4
:100090000C94C6010C94C6010C94C6010C94ED039B
:1000A0000C94C6010C94C6010C94C6010C94C601B4
:1000B0000C94C6010C94C6010C94C6010C948908DA
:1000C0000C94C6010C94C6010C94C6010C940B0848
:1000D0000C94E1070C94C6010C94B7070C948D079F
:1000E0000C94C601A809AD09B209BC09C6093F0AAA
:1000F000D009D809E009EA09F409FE090D0A170A2E
:100100003F0A210A2B0A350AF70BFA0BE90BED0B14
:10011000F30B310CFE0B020C080C0C0C100C160C23
:100120001A0C1E0C310C240C280C2C0C0C94B2094B
:100130000C94FA0B0C9484020C94080C0C94CE05CD
:100140000C9475060C94AD150C94EA090C941E0CD5
:100150000C94C5130C94280C0C9468020C942B0A74
:100160000C94A8090C94240C0C9456020C940D0ABF
:100170000C94FE090C94DC050C9459020C942C0C84
:100180000C94020C0C94BA050C94B1020C948105E9
:100190000C94F30B0C94F70B0C940C0C0C94280699
:1001A0000C94D0090C94F4090C94BC090C945702DB
:1001B0000C94100C0C94AB050C941A0C0C943F0A84
:1001C0000C94E0090C94210A0C94AD090C94FE0BDC
:1001D0000C94C6090C94160C0C94350A0C94170A4E
:1001E0000C9458020C94E90B0C94C7060C94C806A6
:1001F0000C94D8090C94CB060C94ED0B0C94310C98
:100200000C947C0200002200250028002B002E0008
:100210003100340002010000050108010B0100005B
:1002200020002300260029002C002F0032000001AE
:100230000000030106010901050505050705080879
:100240000808020202020A0A080804040404010160
:100250000101010101010303030303030303040775
:1002600007070C0C0C0C0C0C0C0C0202020206060C
:100270000606060606060B0B0B0B0B0B0B0B0102FF
:1002800010202008081020401020408002010201A8
:100290000804020101020408102040808040201060
:1002A00008040201800402018040201008040201B9
:1002B0000804020101020408102040800102040821
:1002C0001020408000000A0B02090C0D0E080703E5
:1002D0000401000000000000000000000000000019
:1002E000000000000000000000000000000000000E
:1002F00012111000000000000000000000000000CB
:1003000000000000000000000000020000210024A6
:100310000027002A002D00300033000101000004F6
:100320000107010A0100C513AD1511241FBECFEF4F
:10033000D1E2DEBFCDBF00E00CBF12E0A0E0B2E032
:10034000EAEBF4E300E00BBF02C007900D92A63F7A
:10035000B107D9F727E0A6EFB2E001C01D92AB3F8D
:10036000B207E1F711E0C4E9D1E000E006C021974F
:100370000109802FFE010E940517C339D10780E0D3
:100380000807A9F70E94F20C0C944B1A0C94000079
:1003900030913103313208F04BC080912F0381112D
:1003A000FCCF90910C0722E020932F0321E02093B3
:1003B0002E032FEF2093EA061092E9063093E80609
:1003C000ECEEF6E0A8ECB6E020E0321721F0419127
:1003D0004D932F5FFACF1092C7062091C706990F51
:1003E000922B9093C70690912D03913061F4109257
:1003F0002D039091C7069093BB009091BC0093FD94
:10040000F8CF95EC01C095EE9093BC0090912F032E
:100410009230E1F39091EA069F3F79F08091EA06ED
:10042000803241F08091EA06803331F084E005C0EB
:1004300081E003C082E001C083E01092300310929B
:1004400031031092EB06089585ED8093BC008091F6
:10045000BC0084FDFCCF10922F0308954091A406A8
:10046000262F30E0240F311D21323105DCF420919C
:100470002F032430C9F4FC0180E090E0861758F483
:100480003091A4062191DC01AC57B94FA30FB11DE7
:100490002C930196F3CF8091A406680F6093A40675
:1004A00080E0089581E0089582E008950895089518
:1004B0000895E091280380912703E81730F4F0E0D5
:1004C000EC59F94F808190E008958FEF9FEF0895E8
:1004D0009091280380912703981750F4E92FF0E0BA
:1004E000EC59F94F208130E09F5F9093280302C0C0
:1004F0002FEF3FEFC90108958091270390E02091ED
:100500002803821B91090895CF92DF92EF92FF9208
:100510000F931F93CF93DF937C01CB018A0120912E
:10052000EB06222389F0EB016B01C40ED51ECC151E
:10053000DD0569F06991D701ED91FC910190F081A1
:10054000E02DC7011995F3CF642F0E942E02C80138
:10055000DF91CF911F910F91FF90EF90DF90CF909F
:100560000895CF93DF931F92CDB7DEB769832091B3
:10057000EB062223D1F020913103203240F021E01C
:1005800030E0FC013383228380E090E015C080914D
:100590003003E82FF0E0E451F94F998190838F5FA9
:1005A000809330038093310305C061E0CE01019652
:1005B0000E942E0281E090E00F90DF91CF9108958C
:1005C000009769F0FC0101900020E9F73197AF0135
:1005D000481B590BBC0188E794E00C94810580E02E
:1005E00090E00895CF93DF930E94E002EC0183E84E
:1005F00092E00E94E0028C0F9D1FDF91CF91089541
:100600000F931F93CF93DF93162F072FCBE2D6E0E4
:100610009C8521E02093EB0690930C071092300309
:1006200010923103AA85BB85ED91FC911197019041
:10063000F081E02D682FCD0119958A859B85DC011D
:10064000ED91FC910190F081E02D602F19958A8544
:100650009B85DC01ED91FC910190F081E02D612FF3
:100660001995DF91CF911F910F910C94C8018F9232
:100670009F92AF92BF920F931F93CF93DF93CDB70B
:10068000DEB7A1970FB6F894DEBF0FBECDBF19A29B
:10069000423008F44AE08E010F5D1F4F842E912CEA
:1006A000A12CB12CA50194010E94D716E62FB90107
:1006B000CA0101501109EA3014F4E05D01C0E95C9F
:1006C000D801EC93232B242B252B61F7C8010E9422
:1006D000E002A1960FB6F894DEBF0FBECDBFDF914A
:1006E000CF911F910F91BF90AF909F908F900895E1
:1006F0000C94E002CF92DF92EF92FF92CF93DF93C0
:1007000097FF1BC06B017C016DE288E794E00E94BB
:100710002806EC0166277727CB016C197D098E0925
:100720009F094AE00E9437038C0F9D1FDF91CF91F4
:10073000FF90EF90DF90CF9008954AE0DF91CF9146
:10074000FF90EF90DF90CF900C943703BC01990F8E
:10075000880B990B0C947A03FC01248131E03093CF
:10076000EB0620930C07109230031092310384851E
:10077000682B82E393E00E94B1020C94C8010F93AE
:100780001F93CF938C01C62F64600E94AC036C2F23
:100790006B7FC8010E94AC0383EC90E00197F1F7F6
:1007A000CF911F910F910895FC01A089B1898C917F
:1007B000A689B78982FD0FC09C91818D8F5F8F7351
:1007C000228D821749F0218DDF01A20FB11D5D96A8
:1007D0009C93818F08958C9108951F920F920FB66C
:1007E0000F9211240BB60F922F933F934F935F9369
:1007F0006F937F938F939F93AF93BF93EF93FF93E9
:100800008091B900887F803609F49CC068F58832F1
:1008100009F45BC090F4803109F454C038F48823A3
:1008200009F4F6C0883009F44DC0F6C0883109F4E7
:100830004CC0803209F45DC0EFC0803409F468C058
:1008400048F4803309F455C0883309F0E5C080933B
:10085000EA06D8C0803509F44FC0883509F45DC078
:10086000883409F0D9C0D6C0883909F4C7C0A8F4C3
:10087000883709F467C038F4883609F463C08037D4
:1008800009F460C0C9C0883809F4B8C0803909F4D7
:100890005FC0803809F0C0C05BC0803B09F486C0EF
:1008A00038F4803A09F466C0883A09F47FC0B4C0CD
:1008B000803C09F4A7C0883C09F4A4C0883B09F433
:1008C0008AC0AAC08091C70610C09091E9068091A5
:1008D000E806981770F5E091E90681E08E0F8093A5
:1008E000E906F0E0E853F94F80818093BB0085EC86
:1008F00086C08093EA068EC0E091E90681E08E0F03
:100900008093E9068091BB00F0E0E853F94F8083C3
:100910009091E9068091E8066EC0E091E90681E0D9
:100920008E0F8093E9068091BB00F0E0E853F94F09
:10093000808380912E0381116DC081E080932D030F
:1009400084EA61C083E080932F031092C606CFCF64
:100950008091C606803208F051C0E091C60681E061
:100960008E0F8093C6068091BB00F0E0EA55F94FE8
:100970008083BDCF85EC8093BC0010922F038091C3
:10098000C606803230F4E091C606F0E0EA55F94F31
:1009900010826091C60670E0E0912B03F0912C0369
:1009A00086EA96E019951092C60636C084E08093D8
:1009B0002F031092A5061092A406E0912903F0914E
:1009C0002A0319958091A406811105C081E08093C6
:1009D000A40610928406E091A50681E08E0F809314
:1009E000A506F0E0EC57F94F80818093BB00909111
:1009F000A5068091A406981708F479CF85E880931E
:100A0000BC000AC085EC8093BC0010922F0304C088
:100A10001092EA060E942402FF91EF91BF91AF91DC
:100A20009F918F917F916F915F914F913F912F9106
:100A30000F900BBE0F900FBE0F901F9018951F9236
:100A40000F920FB60F9211240F900FBE0F901F90B0
:100A50001895CF93DF93282F30E0F901EC53FD4F29
:100A60008491F901E258FD4FD491F901E85CFD4F02
:100A7000C491CC2391F081110E94DC0BEC2FF0E0AB
:100A8000EE0FFF1FE25EFD4FA591B491EC91ED23B7
:100A900081E090E021F480E002C080E090E0DF910E
:100AA000CF9108951F93CF93DF93282F30E0F90162
:100AB000EC53FD4F8491F901E258FD4FD491F901B7
:100AC000E85CFD4FC491CC23C1F0162F81110E9428
:100AD000DC0BEC2FF0E0EE0FFF1FEC5FFD4FA5915C
:100AE000B4919FB7F894111104C08C91D095D8237C
:100AF00002C0EC91DE2BDC939FBFDF91CF911F9161
:100B00000895CF92DF92EF92FF920F931F93CF93AE
:100B1000DF936C017A018B01C0E0D0E0CE15DF05D8
:100B200081F0D8016D918D01D601ED91FC9101907C
:100B3000F081E02DC6011995892B11F02196EECF99
:100B40007E01C701DF91CF911F910F91FF90EF9030
:100B5000DF90CF900895FC01538D448D252F30E018
:100B6000842F90E0821B930B541710F0CF960895BA
:100B700001970895FC01918D828D981761F0828D07
:100B8000DF01A80FB11D5D968C91928D9F5F9F73C1
:100B9000928F90E008958FEF9FEF0895FC01918D63
:100BA000828D981731F0828DE80FF11D858D90E0D0
:100BB00008958FEF9FEF0895FC01918D228D892F6D
:100BC00090E0805C9F4F821B91098F739927089555
:100BD0008EE393E00E94DC0521E0892B09F420E0FC
:100BE000822F08958BED93E00E94DC0521E0892B94
:100BF00009F420E0822F089588E794E00E94DC0544
:100C000021E0892B09F420E0822F0895FC01848DD6
:100C1000DF01A80FB11DA35ABF4F2C91848D90E026
:100C200001968F739927848FA689B7892C93A08901
:100C3000B1898C91837080648C93938D848D98138B
:100C400006C00288F389E02D80818F7D808308951E
:100C5000EF92FF920F931F93CF93DF93EC0181E00C
:100C6000888F9B8D8C8D981305C0E889F9898081C8
:100C700085FD26C0F62E0B8D10E00F5F1F4F0F7302
:100C80001127E02E8C8DE8120CC00FB607FCFACFAE
:100C9000E889F989808185FFF5CFCE010E9406069B
:100CA000F1CF8B8DFE01E80FF11DE35AFF4FF0826B
:100CB0009FB7F8940B8FEA89FB89808180620AC014
:100CC0009FB7F894EE89FF896083E889F98980816C
:100CD0008370806480839FBF81E090E0DF91CF913B
:100CE0001F910F91FF90EF900895CF93DF93EC0148
:100CF000888D8823C9F0EA89FB89808185FD05C03C
:100D0000A889B9898C9186FD0FC00FB607FCF5CF75
:100D1000808185FFF2CFA889B9898C9185FFEDCFBD
:100D2000CE010E940606E7CFDF91CF910895E0E063
:100D3000F0E0199480E090E0892B21F00E94FC05FE
:100D4000811119C080E090E0892B41F080E090E0B3
:100D5000892B21F00E940000811110C00E94F20531
:100D600081110FC080E090E0892B81F00E94E8059E
:100D700081110AC008950E940000E4CF0E94000083
:100D8000EDCF0E949706EECF0C94000008950895D1
:100D900080E090E008950F931F93CF93DF938C0131
:100DA000C62FD62FD07FD1606D2F0E94AC036D2F40
:100DB000C8010E94BF0380E1C89FB0011124C62F63
:100DC000C1606C2FC8010E94AC036C2FC8010E9447
:100DD000BF0381E090E0DF91CF911F910F910895C3
:100DE0001F920F920FB60F9211240BB60F922F93F2
:100DF0003F934F935F936F937F938F939F93AF93A3
:100E0000BF93EF93FF938091EA079091EB07A09136
:100E1000EC07B091ED07892B8A2B8B2B49F1909130
:100E2000E907809100008927809300008091EA07FC
:100E30009091EB07A091EC07B091ED0718161906F9
:100E40001A061B060CF056C08091EA079091EB073A
:100E5000A091EC07B091ED070197A109B10980932A
:100E6000EA079093EB07A093EC07B093ED0742C01D
:100E700080910402EAE0F3E0E4919FEF9093040292
:100E8000E230C9F050F4EE2399F0E13081F5909111
:100E90006F009D7F90936F002AC0E43019F1E0F05D
:100EA000E53029F5909173009D7F909373001FC0EA
:100EB00010926E001CC0909170009D7F9093700006
:100EC00091E09093B0009091B100987F94609093DE
:100ED000B1001092B3000BC0909171009D7F909370
:100EE000710005C0909172009D7F9093720060E048
:100EF0000E945205FF91EF91BF91AF919F918F9109
:100F00007F916F915F914F913F912F910F900BBE09
:100F10000F900FBE0F901F9018951F920F920FB653
:100F20000F9211240BB60F922F933F934F935F9321
:100F30006F937F938F939F93AF93BF93EF93FF93A1
:100F40008EE393E00E940606FF91EF91BF91AF916F
:100F50009F918F917F916F915F914F913F912F91D1
:100F60000F900BBE0F900FBE0F901F9018951F9201
:100F70000F920FB60F9211240BB60F922F933F933F
:100F80004F935F936F937F938F939F93AF93BF9391
:100F9000EF93FF938EE393E00E94D403FF91EF91D0
:100FA000BF91AF919F918F917F916F915F914F9181
:100FB0003F912F910F900BBE0F900FBE0F901F907F
:100FC00018951F920F920FB60F9211240BB60F9225
:100FD0002F933F934F935F936F937F938F939F9341
:100FE000AF93BF93EF93FF938BED93E00E940606C0
:100FF000FF91EF91BF91AF919F918F917F916F91F1
:101000005F914F913F912F910F900BBE0F900FBEAC
:101010000F901F9018951F920F920FB60F921124E8
:101020000BB60F922F933F934F935F936F937F93E2
:101030008F939F93AF93BF93EF93FF938BED93E0C9
:101040000E94D403FF91EF91BF91AF919F918F9137
:101050007F916F915F914F913F912F910F900BBEB8
:101060000F900FBE0F901F9018951F920F920FB602
:101070000F9211240BB60F922F933F934F935F93D0
:101080006F937F938F939F93AF93BF93EF93FF9350
:1010900088E794E00E940606FF91EF91BF91AF911F
:1010A0009F918F917F916F915F914F913F912F9180
:1010B0000F900BBE0F900FBE0F901F9018951F92B0
:1010C0000F920FB60F9211240BB60F922F933F93EE
:1010D0004F935F936F937F938F939F93AF93BF9340
:1010E000EF93FF9388E794E00E94D403FF91EF9180
:1010F000BF91AF919F918F917F916F915F914F9130
:101100003F912F910F900BBE0F900FBE0F901F902D
:1011100018951F920F920FB60F9211240BB60F92D3
:101120002F933F934F935F936F937F938F939F93EF
:10113000AF93BF93EF93FF93809116050E9429050B
:1011400020911A0530911B052F5F3F4F30931B05EF
:1011500020931A0590911905953618F096E0909312
:101160001505909115059430C9F128F4923069F075
:101170009330D1F05EC0953009F451C0963009F03B
:1011800058C091E09093E60551C0811152C0209162
:101190001A0530911B052436310508F442C010921F
:1011A000E605109219051CC0813009F042C0E0919B
:1011B000190591E09E0F90931905F0E020911A0512
:1011C00030911B05EE0FFF1FEB5EFA4F3087278330
:1011D00010921B0510921A0594E029C0811117C0C6
:1011E000E091190591E09E0F90931905F0E0209190
:1011F0001A0530911B05EE0FFF1FEB5EFA4F30878B
:10120000278310921B0510921A0593E010C02091BD
:101210001A0530911B052536310558F007C081119C
:1012200008C010921B0510921A0503C095E0909318
:101230001505909118059923B9F081110AC0809184
:101240001705882321F08091170561E009C02F9AC6
:101250000BC080911705882331F08091170560E05D
:101260000E94520501C02F98FF91EF91BF91AF915D
:101270009F918F917F916F915F914F913F912F91AE
:101280000F900BBE0F900FBE0F901F9018958F926E
:101290009F92AF92BF92CF92DF92EF92FF920F9305
:1012A0001F93CF93DF938C016A017B0120E030E034
:1012B0004FE753E4C701B6010E9419164B015C01C8
:1012C00020E030E0A9010E942B1818161CF4C5017B
:1012D000B40103C0C501B40190580E94F517EB0199
:1012E00020E030E0A901C701B6010E942B181816B2
:1012F00014F460E001C061E0F80181810E945205B0
:10130000CF3FD10509F014F4DD2702C0CFEFD0E0C4
:10131000F801108161E0812F0E94320C209709F4BE
:10132000B1C0CF3FD10509F4AFC0E12FF0E0EC53DD
:10133000FD4FE4918E2F90E0FC013197E231F105F1
:1013400008F09DC08827EE58FF4F8F4F0C9405176B
:1013500084B5806884BDC7BDA7C084B5806284BDE4
:10136000C8BDA2C080918000806880938000D09327
:101370008900C093880098C080918000806280932B
:101380008000D0938B00C0938A008EC08091800033
:10139000886080938000D0938D00C0938C0084C0BF
:1013A0008091B00080688093B000C093B3007CC08F
:1013B0008091B00080628093B000C093B40074C08C
:1013C00080919000806880939000D0939900C093A2
:1013D00098006AC080919000806280939000D093C2
:1013E0009B00C0939A0060C08091900088608093B9
:1013F0009000D0939D00C0939C0056C08091A000A7
:1014000080688093A0008091A0008F7B8093A000D3
:10141000D093A900C093A80047C08091A00080622B
:101420008093A000D093AB00C093AA003DC08091F0
:10143000A00088608093A000D093AD00C093AC0062
:1014400033C080912001806880932001D0932901CE
:10145000C093280129C080912001806280932001DF
:10146000D0932B01C0932A011FC080912001886076
:1014700080932001D0932D01C0932C0115C0C0385A
:10148000D10514F460E001C061E0812FDF91CF91BC
:101490001F910F91FF90EF90DF90CF90BF90AF9092
:1014A0009F908F900C945205DF91CF911F910F91D7
:1014B000FF90EF90DF90CF90BF90AF909F908F9074
:1014C00008958EBD00000DB407FEFDCF8EB50895C2
:1014D000CF93DF93EC0160E088810E94520588E998
:1014E0000E94610A80E00E94610A80E00E94610A15
:1014F00080E00E94610A80E00E94610A61E08881C8
:101500000E9452058BE891E00197F1F760E0888135
:101510000E94520580EE0E94610A61E08881DF919D
:10152000CF910C945205AF92BF92CF92DF92EF927F
:10153000FF920F931F93CF93DF93CDB7DEB76097E2
:101540000FB6F894DEBF0FBECDBF5C0160E0FC01BA
:1015500080810E94520580E60E94610A8E010F5F21
:101560001F4F7E01F1E1EF0EF11C680180E00E9447
:10157000610A90E0A0E0B0E0F60181939193A1931D
:10158000B1936F01EE15FF0589F761E0F5018081E8
:101590000E94520580E090E0DC01F80141915191F8
:1015A000619171918F01BA2FA92F982F8827840FED
:1015B000951FA61FB71FEE15FF0579F79C01AD011A
:1015C00066277727CB01621B730B840B950B609604
:1015D0000FB6F894DEBF0FBECDBFDF91CF911F9144
:1015E0000F91FF90EF90DF90CF90BF90AF90089554
:1015F0001F920F920FB60F9211240BB60F922F93DA
:101600003F934F935F936F937F938F939F93AF938A
:10161000BF93EF93FF938091E80787FF05C0109277
:1016200085001092840016C02091E807022E000C5D
:10163000330B8091230690E0281739075CF4309132
:10164000E80725E03203F0011124E951FA4F8081C7
:1016500086FD15C08091E8078F5F8093E807209191
:10166000E807022E000C330B8091230690E0281728
:10167000390794F48091E8078C302CF10DC030913B
:10168000E8073203F0011124E951FA4F808160E04C
:101690008F730E945205DECF809184009091850067
:1016A00084349C4918F480E49CE905C0809184004E
:1016B00090918500049690938900809388008FEF25
:1016C0008093E8072AC040918400509185003091B2
:1016D000E80725E03203F0011124E951FA4F818136
:1016E0009281840F951F9093890080938800309198
:1016F000E8073203F0011124E951FA4F808186FF97
:101700000CC03091E8073203F0011124E951FA4F7F
:10171000808161E08F730E945205FF91EF91BF912C
:10172000AF919F918F917F916F915F914F913F9179
:101730002F910F900BBE0F900FBE0F901F9018951A
:10174000CF92DF92EF92FF9269017A01AB01BC0167
:1017500084E496E00E944709B701A601705886E428
:1017600096E0FF90EF90DF90CF900C9447093FB741
:10177000F8948091F3079091F407A091F507B09148
:10178000F60726B5A89B05C02F3F19F00196A11DAD
:10179000B11D3FBFBA2FA92F982F8827820F911D07
:1017A000A11DB11DBC01CD0142E0660F771F881F4E
:1017B000991F4A95D1F7089590E0FC013197E231E5
:1017C000F10508F04EC08827EC57FF4F8F4F0C945F
:1017D0000517809180008F7703C0809180008F7DF6
:1017E00080938000089580918000877FF9CF84B531
:1017F0008F7702C084B58F7D84BD08958091B0003D
:101800008F7703C08091B0008F7D8093B0000895E2
:10181000809190008F7707C0809190008F7D03C0EA
:1018200080919000877F8093900008958091A00020
:101830008F7707C08091A0008F7D03C08091A000AA
:10184000877F8093A0000895809120018F7707C043
:10185000809120018F7D03C080912001877F80933C
:1018600020010895CF93DF9390E0FC01E258FD4FF3
:101870002491FC01E85CFD4F8491882361F190E0A4
:10188000880F991FFC01E55FFC4FC591D491FC01C5
:10189000EC5FFD4FA591B491611109C09FB7F89419
:1018A0008881209582238883EC912E230BC062309F
:1018B00061F49FB7F8948881322F30958323888311
:1018C000EC912E2B2C939FBF06C08FB7F894E88124
:1018D0002E2B28838FBFDF91CF9108958F929F92F7
:1018E000AF92BF92CF92DF92EF92FF926B017C0199
:1018F0000E94B70B4B015C01C114D104E104F10457
:10190000F1F00E94B70BDC01CB0188199909AA09F3
:10191000BB09883E9340A105B10570F321E0C21ACE
:10192000D108E108F10888EE880E83E0981EA11C1A
:10193000B11CC114D104E104F10419F7DDCFFF900B
:10194000EF90DF90CF90BF90AF909F908F900895D1
:101950001F920F920FB60F9211242F933F938F93E4
:101960009F93AF93BF938091EF079091F007A09161
:10197000F107B091F2073091EE0723E0230F2D37E6
:1019800020F40196A11DB11D05C026E8230F029683
:10199000A11DB11D2093EE078093EF079093F007F0
:1019A000A093F107B093F2078091F3079091F407A9
:1019B000A091F507B091F6070196A11DB11D809386
:1019C000F3079093F407A093F507B093F607BF9140
:1019D000AF919F918F913F912F910F900FBE0F90DC
:1019E0001F901895CF93DF93CDB7DEB7E6970FB66C
:1019F000F894DEBF0FBECDBF789484B5826084BDFD
:101A000084B5816084BD85B5826085BD85B5816002
:101A100085BD80916E00816080936E001092810080
:101A2000809181008260809381008091810081603B
:101A300080938100809180008160809380008091FC
:101A4000B10084608093B1008091B0008160809388
:101A5000B00080919100826080939100809191000C
:101A600081608093910080919000816080939000CC
:101A70008091A10082608093A1008091A10081608B
:101A80008093A1008091A00081608093A00080914C
:101A900021018260809321018091210181608093E6
:101AA00021018091200181608093200180917A0042
:101AB000846080937A0080917A00826080937A00BB
:101AC00080917A00816080937A0080917A008068AA
:101AD00080937A001092C100E0918804F09189040B
:101AE00082E08083E0918404F09185041082E0918B
:101AF0008604F09187048FEC808310929004E0912B
:101B00008C04F0918D0486E08083E0918A04F0914A
:101B10008B04808180618083E0918A04F0918B0442
:101B2000808188608083E0918A04F0918B048081B9
:101B300080688083E0918A04F0918B0480818F7D9E
:101B4000808361E080912C060E94320C60E08091DD
:101B50002C060E94520560E080912B060E94320CF8
:101B600082E393E090933606809335061092280323
:101B700010922703109230031092310310922F031A
:101B800081E080932E0310922D0361E084E10E9496
:101B9000520561E085E10E9452058091B9008E7F77
:101BA0008093B9008091B9008D7F8093B90088E45B
:101BB0008093B80085E48093BC0086E592E0909322
:101BC0002A038093290387E592E090932C03809366
:101BD0002B0380E090E1A0E0B0E080933806909382
:101BE0003906A0933A06B0933B068AE090E0A0E065
:101BF000B0E080933C0690933D06A0933E06B093E0
:101C00003F0680E090E0A0E0B0E48093400690932F
:101C10004106A0934206B093430660E070E185E080
:101C20000E9400036FE979E380E00E9400030BE269
:101C300016E0780172E0572EEDE66E2EE2E07E2E81
:101C4000F3EB8F2EF2E09F2EABECCA2EA7E0DA2E3C
:101C5000D70114969C91149712968C91F801818F5C
:101C6000928F61E00E94320C61E0D8015A968C910B
:101C70000E94320CF701908586815801FDE1AF0E7C
:101C8000B11CD8015D968C935D975E969C9361E044
:101C90000E94320C60E0F801868D0E94320C61E0F7
:101CA000D8015D968C910E9452054FB6F8948091B0
:101CB000F602811126C0F3018491F4012491E82FEA
:101CC000F0E0EE0FFF1FE55FFC4FA591B4919C91F2
:101CD000822F892321F461E085E30E94520561E0AF
:101CE00085E30E94320C8CB580618CBD8CB580641C
:101CF0008CBD61E084E30E94320C61E083E30E94CA
:101D0000320C8091F6028F5F8093F6024FBEC601BF
:101D10000197F1F760E0D8015D968C910E94520521
:101D200088E80E94610A83E00E94610A61E0F8018C
:101D3000858D0E945205C6010197F1F7C5010E94E9
:101D4000680A5A94FFEFEF1AFF0A0E5F1F4F5110F7
:101D50007FCF50E5E52E56E0F52E04E516E060E075
:101D6000D7018D917D010E94320CB4E5EB16B6E0EF
:101D7000FB06A9F79CE4E92E96E0F92E25E0D22E89
:101D80003CE0B32E42E0C42EF801A1908F01878180
:101D90008C3008F048C061E08A2D0E94320CD801D6
:101DA00017968C91D89EF0011124E951FA4F9A2D83
:101DB0009F732081207CA22EA92AA08213821482E4
:101DC0006B2D0E94F916BCE08B9FA001112420E02E
:101DD00030E0BA01620F731FD69EF001D79EF00D5E
:101DE0001124E951FA4F908196FD12C02F5F3F4FA9
:101DF0002C30310571F781110BC010928000C09218
:101E000081001092850010928400C6BAC0926F00C3
:101E1000D8011796EC91DE9EF0011124E951FA4F9A
:101E2000808180648083F80195818381D7015296F7
:101E30008C93529753969C9360E00E94320C61E021
:101E4000F70183890E94320C60E0D70153968C9190
:101E50000E945205B2E0EB0EF11CE6E006351E07CB
:101E600009F092CFF8941092200189E0809321012B
:101E700080E293E09093290180932801109225013C
:101E80001092240182E0809373007894809315056A
:101E9000109219058091160560E00E94320C83E4CF
:101EA00092E00E94F202809153060E942905892B3C
:101EB00009F458C48AE592E00E94F2028DB79EB7F9
:101EC0009EAB8DAB80911F03811119C02DEC3CECB2
:101ED0004CEC5CE36091000270910102809102027F
:101EE000909103020E94171760931B0370931C03C9
:101EF00080931D0390931E0391E090931F038091A4
:101F00001303811117C0609100027091010280914A
:101F10000202909103029B01AC010E94171760938B
:101F20000F03709310038093110390931203A1E0A9
:101F3000A093130380910703811117C060911B03C5
:101F400070911C0380911D0390911E039B01AC01B5
:101F50000E94171760930303709304038093050393
:101F600090930603B1E0B0930703EDB7FEB7E85CCA
:101F7000F1090FB6F894FEBF0FBEEDBF8DB79EB747
:101F800001965C01ADB7BEB7A85CB1090FB6F89475
:101F9000BEBF0FBEADBFE75CF1096F018159914033
:101FA0000FB6F8949EBF0FBE8DBFA75CB1094D015F
:101FB000E159F1400FB6F894FEBF0FBEEDBF875C4C
:101FC00091097C01A159B1400FB6F894BEBF0FBE74
:101FD000ADBF0DB71EB70F5F1F4FE855F2400FB6EC
:101FE000F894FEBF0FBEEDBF885592403C0120E043
:101FF00030E040E05FE360910F0370911003809147
:102000001103909112030E941916609300027093BD
:102010000102809302029093030220E030E040E04E
:102020005FE3609103037091040380910503909135
:1020300006030E94191660931B0370931C03809380
:102040001D0390931E0399868886BB86AA86DE822E
:10205000CD82F98AE88A1D870C877F866E867CA2EE
:102060006BA21AA709A7FE8EED8EDB8ECA8EB8A2D0
:10207000AF8E9AA289A2212C312C1FA618AA19AAC8
:102080001AAA1BAA1CAA00E010E091E09F831C8EF4
:1020900088E496E00E94680A8AE496E00E94680A52
:1020A00020911B0330911C0340911D0350911E038E
:1020B00060910002709101028091020290910302EE
:1020C0000E94A00B68EC70E080E090E00E946E0C33
:1020D00088E496E00E94930A442455243201461A6B
:1020E000570A680A790A8AE496E00E94930A69838B
:1020F0007A838B839C8373016201FF0CCC08DC2CF8
:1021000076019201A3016C2D7C2D8C2D9C2DAFA40A
:10211000B8A8C9A8DAA8EBA8FCA80E940D172A8BBA
:102120003B8B4C8B5D8B6E8B7F8B888F998F2FA712
:1021300038AB49AB5AAB6BAB7CAB8C0187E792E019
:102140000E947803C301B2010E947A038BE792E0F8
:102150000E94780369817A818B819C810E947A0335
:1021600083E892E00E94E002C301B2010E94BA1526
:1021700020E030E048E453E40E9483176B017C01C7
:1021800069817A818B819C810E94BA1520E030E0C0
:1021900048E453E40E9483179B01AC01C701B601D8
:1021A0000E9416174B015C016093FF0270930003BD
:1021B00080930103909302032091FB023091FC0273
:1021C0004091FD025091FE020E9417176B017C01A5
:1021D0006093FB027093FC028093FD029093FE02D9
:1021E0002091F7023091F8024091F9025091FA02E1
:1021F000C501B4010E9416172B013C0120E23CEB03
:102200004EEB5CE4C501B4010E9419162DEC3CECC8
:102210004CE45DE30E9419160E94F517E9A1FAA1AA
:1022200061937193FAA3E9A3809100029091010256
:10223000A0910202B091030289839A83AB83BC838D
:1022400020E030E04AE754E4BC01CD010E941916B9
:102250000E94F517AF8DB8A16D937D93B8A3AF8F92
:1022600080911B0390911C03A0911D03B0911E034C
:102270008DA39EA3AFA3B8A720E030E04AE754E4C3
:10228000BC01CD010E9419160E94F517AA8DBB8DC5
:102290006D937D93BB8FAA8F20E23CEB4EEB5CE409
:1022A000C701B6010E9419162FE632E143E05AE356
:1022B0000E9419160E94F517ED8DFE8D61937193A2
:1022C000FE8FED8F20E23CEB4EEB5CE4C301B201EC
:1022D0000E94191625EB3EEF46E957E30E941916B6
:1022E0000E94F517A9A5BAA56D937D93BAA7A9A7D2
:1022F0002DEC3CEC4CE45DE3C501B4010E941916E1
:102300006BA77CA78DA79EA72FE632E143E05AE397
:10231000C701B6010E9419166B017C0125EB3EEF47
:1023200046E957E3C301B2010E9419162B013C0193
:10233000A70196016BA57CA58DA59EA50E941717E8
:10234000A30192010E941717EBA1FCA16193719365
:1023500081939193FCA3EBA3FFEF2F1A3F0A2BA5C8
:102360003CA54DA55EA56DA17EA18FA198A50E945B
:102370001717A70196010E941717A30192010E9447
:1023800017176B017C0160931B0370931C038093F0
:102390001D0390931E03AB01BC01705886E496E0C8
:1023A0000E9447098092F7029092F802A092F902E7
:1023B000B092FA022C8D211114C089819A81AB81CF
:1023C000BC8180930F0390931003A0931103B093EB
:1023D0001203C0920303D0920403E0920503F0922B
:1023E00006032DEC3CEC4CE45FE369817A818B8140
:1023F0009C810E942B1887FF2EC09F81992361F139
:102400002DEC3CEC4CE85FE369817A818B819C8107
:102410000E9419164B015C01609300027093010247
:1024200080930202909303022DEC3CEC4CE85FE3B6
:10243000C701B6010E9419169B01AC0160931B03F2
:1024400070931C0380931D0390931E03C501B40178
:102450000E94A00B01C01F822A893B894C895D899B
:102460006E897F89888D998D2B313A4141055105BF
:10247000610571058105910509F00CF409CE2DEC7B
:102480003CEC4CE45FE360910002709101028091AA
:102490000202909103020E9419166B017C01609365
:1024A00000027093010280930202909303022DECCC
:1024B0003CEC4CE45FE360911B0370911C03809142
:1024C0001D0390911E030E9419169B01AC0160939D
:1024D0001B0370931C0380931D0390931E03C7017D
:1024E000B6010E94A00B2A893B894C895D896E89BF
:1024F0007F89888D998D26333443410551056105C7
:1025000071058105910509F024F41F82A1E0AC8FCB
:10251000BFCD20E030E0A901CA01B9010E94A00BA3
:10252000809150060E942905892BD1F386E892E01C
:102530000E94F20200E010E087E792E00E94780338
:10254000EA85FB8581919191FB87EA870E94A6032A
:102550008BE792E00E947803AD81BE818D919D91C1
:10256000BE83AD830E94A60383E892E00E94E0024E
:102570000F5F1F4F20163106F9F6809151060E9419
:102580002905892BD1F38AE992E00E94F20200E04A
:1025900010E08CEA92E00E947803E885F985819149
:1025A0009191F987E8870E94A60380EB92E00E9450
:1025B0007803A889B9898D919D91B98BA88B0E94C8
:1025C000A6038BE792E00E947803EC85FD8581915C
:1025D0009191FD87EC870E94A60388EB92E00E9410
:1025E0007803AE85BF856D917D918D919D91BF875B
:1025F000AE8720E030E543EC57E40E9419166B01EA
:102600007C014B015C019B01AC010E9430188823C6
:1026100019F08CEC92E01AC026013701E89477F8A3
:102620002FEF3FEF4FE75FE7C301B2010E94301881
:1026300081110FC02FEF3FEF4FE75FE7C301B201FA
:102640000E94B31518162CF480ED92E00E94E0026F
:1026500078C02FEF3FEF4FE75FE4C701B6010E945C
:102660002B1818161CF484ED92E0F0CF2FEF3FEFFB
:102670004FE75FECC701B6010E94B31587FDF3CFAA
:1026800020E030E0A901C701B6010E94B31587FF21
:102690000BC06DE288E794E00E94280646015701CE
:1026A000B7FAB094B7F8B0942AE037ED43EA5BE3A9
:1026B000C501B4010E9417174B015C010E94FC1771
:1026C0006B017C010E94B8159B01AC01C501B401EE
:1026D0000E9416174B015C014AE0C701B6010E9437
:1026E00037036EE288E794E00E94280620E030E09D
:1026F00040E251E4C501B4010E9419164B015C018E
:102700000E94FC176B01E12CF12C4AE0C701B601D5
:102710000E943703C701B6010E94B8159B01AC01A6
:10272000C501B4010E94161720E030E040E251E4F8
:102730000E9419160E94FC1780E090E04AE00E9477
:10274000370383E892E00E94E0020F5F1F4F2016DC
:10275000310609F01ECFEDA9FEA90FB6F894FEBF11
:102760000FBEEDBF809152060E942905892B21F0F2
:1027700088ED92E00E94F2026AE070E080E090E072
:102780000E946E0C0E949A068ECB10923503109216
:10279000340388EE93E0A0E0B0E08093360390939A
:1027A0003703A0933803B093390327E132E0309325
:1027B000330320933203109241031092400380931D
:1027C000420390934303A0934403B093450329E24B
:1027D00032E030933F0320933E0345E351E05093B2
:1027E0004B0340934A0344E351E050934D0340931D
:1027F0004C0340E351E050934F0340934E0341E3B9
:1028000051E0509351034093500342E351E0509301
:1028100053034093520346E351E0509355034093D2
:1028200054031092570310925803109259031092B8
:102830005A031092DE031092DD038093DF0390931E
:10284000E003A093E103B093E2033093DC03209311
:10285000DB0345ED50E05093E8034093E70344ED7C
:1028600050E05093EA034093E90340ED50E0509369
:10287000EC034093EB0341ED50E05093EE034093A3
:10288000ED0342ED50E05093F0034093EF0346ED2B
:1028900050E05093F2034093F1031092F40310922E
:1028A000F5031092F6031092F70310927B04109236
:1028B0007A0480937C0490937D04A0937E04B0936B
:1028C0007F04309379042093780485EC90E0909312
:1028D00085048093840484EC90E090938704809333
:1028E000860480EC90E0909389048093880481ECC6
:1028F00090E090938B0480938A0482EC90E0909314
:102900008D0480938C0486EC90E090938F048093E8
:102910008E041092910410929204109293041092DB
:10292000940480910B0290910C02A0910D02B09141
:102930000E0280934C0690934D06A0934E06B093E2
:102940004F0680910F0290911002A0911102B09158
:1029500012028093500690935106A0935206B093B2
:10296000530684E08093540687E0809355061092C6
:10297000560684EB8093570686E18093580688E1DB
:102980008093590687E180935A0689E180935B061C
:10299000E0912306EC3020F08FEF80935C0610C0AE
:1029A00081E08E0F80932306E0935C0685E0E89F2C
:1029B000F0011124E951FA4F88EB9BE09283818367
:1029C000E0912306EC3020F08FEF80935D0610C07D
:1029D00081E08E0F80932306E0935D0685E0E89FFB
:1029E000F0011124E951FA4F88EB9BE09283818337
:1029F0008CE080932B0684E280932C0686E0809303
:102A00002D0685E080932E068FE180932F068EE1C0
:102A10008093300683E28093310682E2809332060F
:102A200085E48093330684E48093340680E48093C5
:102A3000370610923C0610923D0610923E06109208
:102A40003F061092400610924106109242061092E4
:102A50004306E1E1F7E02FEC37E08FEF9FEFDC0179
:102A600012821382148215821682178210861186B2
:102A700083879487A587B6878787908BA18BB28B36
:102A800012861182108273962E173F0749F78DE048
:102A900090E00E943518FC01138212828BE392E0D1
:102AA00091838083118687E2848384E1828784E036
:102AB00083871486F0930E07E0930D0710920F079B
:102AC0001092100785E28093160510921805109257
:102AD00025061092240610922706109226061092C0
:102AE00029061092280661E070E080E090E00E94E4
:102AF0005619009789F0909325068093240610922A
:102B00002706109226062091280630912906232BAD
:102B1000C1F4FC01108215C0809124069091250615
:102B2000009711F00E94CD181092250610922406ED
:102B30001092290610922806109227061092260657
:102B40000895109229061092280665E872E0809197
:102B50002406909125060C94441A809124069091A5
:102B600025060C94CD180E94F51508F481E008950F
:102B7000E89409C097FB3EF4909580957095619517
:102B80007F4F8F4F9F4F9923A9F0F92F96E9BB27CD
:102B90009395F695879577956795B795F111F8CF49
:102BA000FAF4BB0F11F460FF1BC06F5F7F4F8F4FB4
:102BB0009F4F16C0882311F096E911C0772321F0AA
:102BC0009EE8872F762F05C0662371F096E8862F42
:102BD00070E060E02AF09A95660F771F881FDAF799
:102BE000880F9695879597F90895990F0008550FC6
:102BF000AA0BE0E8FEEF16161706E807F907C0F083
:102C000012161306E407F50798F0621B730B840B8A
:102C1000950B39F40A2661F0232B242B252B21F464
:102C200008950A2609F4A140A6958FEF811D811D04
:102C300008950E942C160C949D160E948F1638F051
:102C40000E94961620F0952311F00C9486160C9491
:102C50008C1611240C94D1160E94AE1670F3959F19
:102C6000C1F3950F50E0551F629FF001729FBB2783
:102C7000F00DB11D639FAA27F00DB11DAA1F649F1F
:102C80006627B00DA11D661F829F2227B00DA11DD2
:102C9000621F739FB00DA11D621F839FA00D611D58
:102CA000221F749F3327A00D611D231F849F600D79
:102CB000211D822F762F6A2F11249F5750409AF0A2
:102CC000F1F088234AF0EE0FFF1FBB1F661F771F2E
:102CD000881F91505040A9F79E3F510580F00C94F9
:102CE00086160C94D1165F3FE4F3983ED4F3869594
:102CF00077956795B795F795E7959F5FC1F7FE2B99
:102D0000880F911D9695879597F9089597F99F6774
:102D100080E870E060E008959FEF80EC0895002463
:102D20000A941616170618060906089500240A9430
:102D300012161306140605060895092E0394000CB6
:102D400011F4882352F0BB0F40F4BF2B11F460FF45
:102D500004C06F5F7F4F8F4F9F4F089557FD90586E
:102D6000440F551F59F05F3F71F04795880F97FB4F
:102D7000991F61F09F3F79F0879508951216130609
:102D80001406551FF2CF4695F1DF08C01616170638
:102D90001806991FF1CF869571056105089408956D
:102DA000E894BB2766277727CB0197F90895A1E21E
:102DB0001A2EAA1BBB1BFD010DC0AA1FBB1FEE1FB5
:102DC000FF1FA217B307E407F50720F0A21BB30B00
:102DD000E40BF50B661F771F881F991F1A9469F77C
:102DE00060957095809590959B01AC01BD01CF01D8
:102DF0000895991B79E004C0991F961708F0961B57
:102E0000881F7A95C9F780950895EE0FFF1F881FD8
:102E10008BBF0790F691E02D19942A0D3B1D4C1D98
:102E20005D1D6E1D7F1D801F911F08955058BB278B
:102E3000AA270E942E170C949D160E948F1638F018
:102E40000E94961620F039F49F3F19F426F40C9452
:102E50008C160EF4E095E7FB0C948616E92F0E9481
:102E6000AE1658F3BA17620773078407950720F068
:102E700079F4A6F50C94D0160EF4E0950B2EBA2F2B
:102E8000A02D0B01B90190010C01CA01A001112470
:102E9000FF27591B99F0593F50F4503E68F11A161C
:102EA000F040A22F232F342F4427585FF3CF4695AD
:102EB00037952795A795F0405395C9F77EF41F16CF
:102EC000BA0B620B730B840BBAF09150A1F0FF0F99
:102ED000BB1F661F771F881FC2F70EC0BA0F621F85
:102EE000731F841F48F4879577956795B795F79575
:102EF0009E3F08F0B0CF9395880F08F09927EE0F0A
:102F00009795879508950E9497170C949D160E9497
:102F1000961658F00E948F1640F029F45F3F29F072
:102F20000C94861651110C94D1160C948C160E9498
:102F3000AE1668F39923B1F3552391F3951B550B06
:102F4000BB27AA2762177307840738F09F5F5F4F7C
:102F5000220F331F441FAA1FA9F335D00E2E3AF0BB
:102F6000E0E832D091505040E695001CCAF72BD0D3
:102F7000FE2F29D0660F771F881FBB1F2617370724
:102F80004807AB07B0E809F0BB0B802DBF01FF2756
:102F900093585F4F3AF09E3F510578F00C94861697
:102FA0000C94D1165F3FE4F3983ED4F38695779561
:102FB0006795B795F7959F5FC9F7880F911D96950F
:102FC000879597F90895E1E0660F771F881FBB1F6B
:102FD000621773078407BA0720F0621B730B840B18
:102FE000BA0BEE1F88F7E09508950E94FC176894CD
:102FF000B1110C94D11608950E94B61688F09F570F
:1030000098F0B92F9927B751B0F0E1F0660F771F0C
:10301000881F991F1AF0BA95C9F714C0B13091F002
:103020000E94D016B1E008950C94D016672F782F27
:103030008827B85F39F0B93FCCF3869577956795C7
:10304000B395D9F73EF490958095709561957F4F33
:103050008F4F9F4F08950E94F51508F48FEF089544
:103060000E94F515880B990B08950F931F93CF932A
:10307000DF938230910510F482E090E0E091F9074F
:10308000F091FA0720E030E0A0E0B0E0309719F1CD
:10309000408151810281138148175907C8F0841774
:1030A000950769F4109731F012960C9312971396C6
:1030B0001C9327C00093F9071093FA0722C021152B
:1030C000310519F04217530718F49A01BD01EF01B9
:1030D000DF01F801DBCF21153105F9F0281B390B91
:1030E0002430310580F48A819B816115710521F0BE
:1030F000FB019383828304C09093FA078093F907BE
:10310000FE01329644C0FE01E20FF31F81939193BA
:1031100022503109398328833AC02091F707309132
:10312000F807232B41F420910702309108023093D5
:10313000F8072093F7072091050230910602211528
:10314000310541F42DB73EB74091090250910A0272
:10315000241B350BE091F707F091F807E217F3070E
:10316000A0F42E1B3F0B2817390778F0AC014E5FF7
:103170005F4F2417350748F04E0F5F1F5093F80735
:103180004093F7078193919302C0E0E0F0E0CF0114
:10319000DF91CF911F910F910895CF93DF93009707
:1031A00009F481C0FC01329713821282A091F907C1
:1031B000B091FA07109781F420813181820F931F1B
:1031C0002091F7073091F8072817390751F5F09348
:1031D000F807E093F70767C0ED0120E030E0CE1775
:1031E000DF0740F44A815B819E0141155105F1F0F2
:1031F000EA01F5CFD383C28340815181840F951FAB
:10320000C817D90759F488819981840F951F0296B0
:10321000918380838A819B819383828321153105E9
:1032200029F4F093FA07E093F9073DC0E901FB8325
:10323000EA8349915991C40FD51FEC17FD0761F43A
:1032400080819181840F951F0296E901998388837B
:10325000828193819B838A83E0E0F0E012968D91D6
:103260009C911397009719F0FD01DC01F7CF8D9128
:103270009C9111979D012E5F3F4F820F931F2091CC
:10328000F7073091F8072817390769F4309729F4C0
:103290001092FA071092F90702C013821282B093BB
:1032A000F807A093F707DF91CF9108956F927F926F
:1032B0008F929F92AF92BF92CF92DF92EF92FF9246
:1032C0000F931F93CF93DF93009789F4CB01DF9186
:1032D000CF911F910F91FF90EF90DF90CF90BF9013
:1032E000AF909F908F907F906F900C943518FC0159
:1032F000E60FF71F9C0122503109E217F30708F48B
:10330000A9C0EC01D9010D911C911197061717075F
:10331000B0F00530110508F49BC0C801049786176A
:10332000970708F495C002501109061B170B01936B
:1033300011936D937C93CF010E94CD1889C05B01DE
:10334000A01AB10A4C01800E911EA091F907B0910C
:10335000FA07612C712CE12CF12C109709F446C06E
:103360008D919C911197A815B905B1F56C0142E0BA
:10337000C40ED11CCA14DB0478F14C018A189B08D6
:10338000640142E0C40ED11C1296BC9012971396B1
:10339000AC91B5E0CB16D10440F0B282A383918208
:1033A0008082D9016D937C9309C00E5F1F4F800FFF
:1033B000911FF90191838083EB2DFA2FE114F10421
:1033C00031F0D7011396FC93EE93129741C0F0931E
:1033D000FA07E093F9073CC06816790608F43C0147
:1033E0007D0112960D90BC91A02DB7CF8091F7076B
:1033F0009091F80788169906E1F466167706C8F4E6
:103400008091050290910602009741F48DB79EB716
:103410004091090250910A02841B950BE817F907A5
:10342000C8F4F093F807E093F707F901718360831C
:103430000FC0CB010E9435187C01009759F0A801FC
:10344000BE010E943B1ACE010E94CD18C70104C0E4
:10345000CE0102C080E090E0DF91CF911F910F91EB
:10346000FF90EF90DF90CF90BF90AF909F908F90A4
:103470007F906F900895FB01DC0102C001900D92D6
:1034800041505040D8F70895FB01DC0101900D92A6
:103490000020E1F7089511E0C4E9D1E000E006C0A2
:1034A000802FFE010E9405172196011DC539D10705
:0A34B00080E00807A9F7F894FFCFA9
:1034BA00CDCCCC3EFF0000FB072000363738391B45
:1034CA001D1A1C00000000B1028402C80658027CC2
:1034DA0002680259020000000028068105AB057542
:1034EA0006DC05BA05CE0500000000CB068105C83A
:1034FA0006C7064365636920657374206C6520748A
:10350A00657374207365747570004365636920651B
:10351A007374206C65207465737420697342756DC9
:10352A0070657228332900473A20002065742044C8
:10353A003A20000D0A0044C3A962757420646573B9
:10354A002076697465737365730044C3A9627574E0
:10355A00206465732065727265757200503A2000A6
:10356A0020657420493A200020706F757220756EAC
:10357A006520636F72722064653A20006E616E0086
:10358A00696E66006F7666004365636920657374C9
:10359A00206C65207465737420697342756D70655B
:0635AA0072283229000026
:00000001FF
